{
	"contracts/Util.sol": {
		"Util": {
			"abi": [
				{
					"inputs": [
						{
							"internalType": "address[]",
							"name": "arr1",
							"type": "address[]"
						},
						{
							"internalType": "address[]",
							"name": "arr2",
							"type": "address[]"
						}
					],
					"name": "areEqual",
					"outputs": [
						{
							"internalType": "bool",
							"name": "",
							"type": "bool"
						}
					],
					"stateMutability": "pure",
					"type": "function"
				},
				{
					"inputs": [
						{
							"internalType": "address[]",
							"name": "arr1",
							"type": "address[]"
						},
						{
							"internalType": "address[]",
							"name": "arr2",
							"type": "address[]"
						}
					],
					"name": "arraysAreEqualUsingHash",
					"outputs": [
						{
							"internalType": "bool",
							"name": "",
							"type": "bool"
						}
					],
					"stateMutability": "pure",
					"type": "function"
				},
				{
					"inputs": [
						{
							"internalType": "address",
							"name": "addr",
							"type": "address"
						},
						{
							"internalType": "address[]",
							"name": "array",
							"type": "address[]"
						}
					],
					"name": "contains",
					"outputs": [
						{
							"internalType": "bool",
							"name": "",
							"type": "bool"
						}
					],
					"stateMutability": "pure",
					"type": "function"
				},
				{
					"inputs": [
						{
							"internalType": "address[]",
							"name": "arr",
							"type": "address[]"
						},
						{
							"internalType": "int256",
							"name": "left",
							"type": "int256"
						},
						{
							"internalType": "int256",
							"name": "right",
							"type": "int256"
						}
					],
					"name": "quickSort",
					"outputs": [],
					"stateMutability": "pure",
					"type": "function"
				}
			],
			"devdoc": {
				"kind": "dev",
				"methods": {},
				"version": 1
			},
			"evm": {
				"assembly": "    /* \"contracts/Util.sol\":60:3500  contract Util{... */\n  mstore(0x40, 0x80)\n  callvalue\n  dup1\n  iszero\n  tag_1\n  jumpi\n  0x00\n  dup1\n  revert\ntag_1:\n  pop\n  dataSize(sub_0)\n  dup1\n  dataOffset(sub_0)\n  0x00\n  codecopy\n  0x00\n  return\nstop\n\nsub_0: assembly {\n        /* \"contracts/Util.sol\":60:3500  contract Util{... */\n      mstore(0x40, 0x80)\n      callvalue\n      dup1\n      iszero\n      tag_1\n      jumpi\n      0x00\n      dup1\n      revert\n    tag_1:\n      pop\n      jumpi(tag_2, lt(calldatasize, 0x04))\n      shr(0xe0, calldataload(0x00))\n      dup1\n      0x308e8edb\n      eq\n      tag_3\n      jumpi\n      dup1\n      0x73ddfdfb\n      eq\n      tag_4\n      jumpi\n      dup1\n      0xc674f26e\n      eq\n      tag_5\n      jumpi\n      dup1\n      0xd84d04a1\n      eq\n      tag_6\n      jumpi\n    tag_2:\n      0x00\n      dup1\n      revert\n        /* \"contracts/Util.sol\":1268:1470  function arraysAreEqualUsingHash(address[] memory arr1, address[] memory arr2) public pure returns (bool) {... */\n    tag_3:\n      tag_7\n      0x04\n      dup1\n      calldatasize\n      sub\n      dup2\n      add\n      swap1\n      tag_8\n      swap2\n      swap1\n      tag_9\n      jump\t// in\n    tag_8:\n      tag_10\n      jump\t// in\n    tag_7:\n      mload(0x40)\n      tag_11\n      swap2\n      swap1\n      tag_12\n      jump\t// in\n    tag_11:\n      mload(0x40)\n      dup1\n      swap2\n      sub\n      swap1\n      return\n        /* \"contracts/Util.sol\":86:615  function areEqual(address[] memory arr1, address[] memory arr2) public pure returns (bool) {... */\n    tag_4:\n      tag_13\n      0x04\n      dup1\n      calldatasize\n      sub\n      dup2\n      add\n      swap1\n      tag_14\n      swap2\n      swap1\n      tag_9\n      jump\t// in\n    tag_14:\n      tag_15\n      jump\t// in\n    tag_13:\n      mload(0x40)\n      tag_16\n      swap2\n      swap1\n      tag_12\n      jump\t// in\n    tag_16:\n      mload(0x40)\n      dup1\n      swap2\n      sub\n      swap1\n      return\n        /* \"contracts/Util.sol\":623:1260  function quickSort(address[] memory arr, int left, int right) public pure {... */\n    tag_5:\n      tag_17\n      0x04\n      dup1\n      calldatasize\n      sub\n      dup2\n      add\n      swap1\n      tag_18\n      swap2\n      swap1\n      tag_19\n      jump\t// in\n    tag_18:\n      tag_20\n      jump\t// in\n    tag_17:\n      stop\n        /* \"contracts/Util.sol\":1480:1738  function contains(address addr, address[] memory array) public pure returns (bool) {... */\n    tag_6:\n      tag_21\n      0x04\n      dup1\n      calldatasize\n      sub\n      dup2\n      add\n      swap1\n      tag_22\n      swap2\n      swap1\n      tag_23\n      jump\t// in\n    tag_22:\n      tag_24\n      jump\t// in\n    tag_21:\n      mload(0x40)\n      tag_25\n      swap2\n      swap1\n      tag_12\n      jump\t// in\n    tag_25:\n      mload(0x40)\n      dup1\n      swap2\n      sub\n      swap1\n      return\n        /* \"contracts/Util.sol\":1268:1470  function arraysAreEqualUsingHash(address[] memory arr1, address[] memory arr2) public pure returns (bool) {... */\n    tag_10:\n        /* \"contracts/Util.sol\":1368:1372  bool */\n      0x00\n        /* \"contracts/Util.sol\":1456:1460  arr2 */\n      dup2\n        /* \"contracts/Util.sol\":1439:1461  abi.encodePacked(arr2) */\n      add(0x20, mload(0x40))\n      tag_27\n      swap2\n      swap1\n      tag_28\n      jump\t// in\n    tag_27:\n      mload(0x40)\n      0x20\n      dup2\n      dup4\n      sub\n      sub\n      dup2\n      mstore\n      swap1\n      0x40\n      mstore\n        /* \"contracts/Util.sol\":1429:1462  keccak256(abi.encodePacked(arr2)) */\n      dup1\n      mload\n      swap1\n      0x20\n      add\n      keccak256\n        /* \"contracts/Util.sol\":1419:1423  arr1 */\n      dup4\n        /* \"contracts/Util.sol\":1402:1424  abi.encodePacked(arr1) */\n      add(0x20, mload(0x40))\n      tag_29\n      swap2\n      swap1\n      tag_28\n      jump\t// in\n    tag_29:\n      mload(0x40)\n      0x20\n      dup2\n      dup4\n      sub\n      sub\n      dup2\n      mstore\n      swap1\n      0x40\n      mstore\n        /* \"contracts/Util.sol\":1392:1425  keccak256(abi.encodePacked(arr1)) */\n      dup1\n      mload\n      swap1\n      0x20\n      add\n      keccak256\n        /* \"contracts/Util.sol\":1392:1462  keccak256(abi.encodePacked(arr1)) == keccak256(abi.encodePacked(arr2)) */\n      eq\n        /* \"contracts/Util.sol\":1385:1462  return keccak256(abi.encodePacked(arr1)) == keccak256(abi.encodePacked(arr2)) */\n      swap1\n      pop\n        /* \"contracts/Util.sol\":1268:1470  function arraysAreEqualUsingHash(address[] memory arr1, address[] memory arr2) public pure returns (bool) {... */\n      swap3\n      swap2\n      pop\n      pop\n      jump\t// out\n        /* \"contracts/Util.sol\":86:615  function areEqual(address[] memory arr1, address[] memory arr2) public pure returns (bool) {... */\n    tag_15:\n        /* \"contracts/Util.sol\":171:175  bool */\n      0x00\n        /* \"contracts/Util.sol\":206:210  arr2 */\n      dup2\n        /* \"contracts/Util.sol\":206:217  arr2.length */\n      mload\n        /* \"contracts/Util.sol\":191:195  arr1 */\n      dup4\n        /* \"contracts/Util.sol\":191:202  arr1.length */\n      mload\n        /* \"contracts/Util.sol\":191:217  arr1.length != arr2.length */\n      eq\n        /* \"contracts/Util.sol\":188:258  if(arr1.length != arr2.length) {... */\n      tag_31\n      jumpi\n        /* \"contracts/Util.sol\":241:246  false */\n      0x00\n        /* \"contracts/Util.sol\":234:246  return false */\n      swap1\n      pop\n      jump(tag_30)\n        /* \"contracts/Util.sol\":188:258  if(arr1.length != arr2.length) {... */\n    tag_31:\n        /* \"contracts/Util.sol\":298:343  quickSort(arr1, int(0), int(arr1.length - 1)) */\n      tag_32\n        /* \"contracts/Util.sol\":308:312  arr1 */\n      dup4\n        /* \"contracts/Util.sol\":318:319  0 */\n      0x00\n        /* \"contracts/Util.sol\":340:341  1 */\n      0x01\n        /* \"contracts/Util.sol\":326:330  arr1 */\n      dup7\n        /* \"contracts/Util.sol\":326:337  arr1.length */\n      mload\n        /* \"contracts/Util.sol\":326:341  arr1.length - 1 */\n      tag_33\n      swap2\n      swap1\n      tag_34\n      jump\t// in\n    tag_33:\n        /* \"contracts/Util.sol\":298:307  quickSort */\n      tag_20\n        /* \"contracts/Util.sol\":298:343  quickSort(arr1, int(0), int(arr1.length - 1)) */\n      jump\t// in\n    tag_32:\n        /* \"contracts/Util.sol\":354:399  quickSort(arr2, int(0), int(arr2.length - 1)) */\n      tag_35\n        /* \"contracts/Util.sol\":364:368  arr2 */\n      dup3\n        /* \"contracts/Util.sol\":374:375  0 */\n      0x00\n        /* \"contracts/Util.sol\":396:397  1 */\n      0x01\n        /* \"contracts/Util.sol\":382:386  arr2 */\n      dup6\n        /* \"contracts/Util.sol\":382:393  arr2.length */\n      mload\n        /* \"contracts/Util.sol\":382:397  arr2.length - 1 */\n      tag_36\n      swap2\n      swap1\n      tag_34\n      jump\t// in\n    tag_36:\n        /* \"contracts/Util.sol\":354:363  quickSort */\n      tag_20\n        /* \"contracts/Util.sol\":354:399  quickSort(arr2, int(0), int(arr2.length - 1)) */\n      jump\t// in\n    tag_35:\n        /* \"contracts/Util.sol\":454:460  uint i */\n      0x00\n        /* \"contracts/Util.sol\":450:584  for(uint i = 0; i < arr1.length; i++) {... */\n    tag_37:\n        /* \"contracts/Util.sol\":470:474  arr1 */\n      dup4\n        /* \"contracts/Util.sol\":470:481  arr1.length */\n      mload\n        /* \"contracts/Util.sol\":466:467  i */\n      dup2\n        /* \"contracts/Util.sol\":466:481  i < arr1.length */\n      lt\n        /* \"contracts/Util.sol\":450:584  for(uint i = 0; i < arr1.length; i++) {... */\n      iszero\n      tag_38\n      jumpi\n        /* \"contracts/Util.sol\":517:521  arr2 */\n      dup3\n        /* \"contracts/Util.sol\":522:523  i */\n      dup2\n        /* \"contracts/Util.sol\":517:524  arr2[i] */\n      dup2\n      mload\n      dup2\n      lt\n      tag_40\n      jumpi\n      tag_41\n      tag_42\n      jump\t// in\n    tag_41:\n    tag_40:\n      0x20\n      mul\n      0x20\n      add\n      add\n      mload\n        /* \"contracts/Util.sol\":506:524  arr1[i] != arr2[i] */\n      0xffffffffffffffffffffffffffffffffffffffff\n      and\n        /* \"contracts/Util.sol\":506:510  arr1 */\n      dup5\n        /* \"contracts/Util.sol\":511:512  i */\n      dup3\n        /* \"contracts/Util.sol\":506:513  arr1[i] */\n      dup2\n      mload\n      dup2\n      lt\n      tag_43\n      jumpi\n      tag_44\n      tag_42\n      jump\t// in\n    tag_44:\n    tag_43:\n      0x20\n      mul\n      0x20\n      add\n      add\n      mload\n        /* \"contracts/Util.sol\":506:524  arr1[i] != arr2[i] */\n      0xffffffffffffffffffffffffffffffffffffffff\n      and\n      eq\n        /* \"contracts/Util.sol\":503:573  if(arr1[i] != arr2[i]) {... */\n      tag_45\n      jumpi\n        /* \"contracts/Util.sol\":552:557  false */\n      0x00\n        /* \"contracts/Util.sol\":545:557  return false */\n      swap2\n      pop\n      pop\n      jump(tag_30)\n        /* \"contracts/Util.sol\":503:573  if(arr1[i] != arr2[i]) {... */\n    tag_45:\n        /* \"contracts/Util.sol\":483:486  i++ */\n      dup1\n      dup1\n      0x01\n      add\n      swap2\n      pop\n      pop\n        /* \"contracts/Util.sol\":450:584  for(uint i = 0; i < arr1.length; i++) {... */\n      jump(tag_37)\n    tag_38:\n      pop\n        /* \"contracts/Util.sol\":603:607  true */\n      0x01\n        /* \"contracts/Util.sol\":596:607  return true */\n      swap1\n      pop\n        /* \"contracts/Util.sol\":86:615  function areEqual(address[] memory arr1, address[] memory arr2) public pure returns (bool) {... */\n    tag_30:\n      swap3\n      swap2\n      pop\n      pop\n      jump\t// out\n        /* \"contracts/Util.sol\":623:1260  function quickSort(address[] memory arr, int left, int right) public pure {... */\n    tag_20:\n        /* \"contracts/Util.sol\":708:713  int i */\n      0x00\n        /* \"contracts/Util.sol\":716:720  left */\n      dup3\n        /* \"contracts/Util.sol\":708:720  int i = left */\n      swap1\n      pop\n        /* \"contracts/Util.sol\":731:736  int j */\n      0x00\n        /* \"contracts/Util.sol\":739:744  right */\n      dup3\n        /* \"contracts/Util.sol\":731:744  int j = right */\n      swap1\n      pop\n        /* \"contracts/Util.sol\":761:762  j */\n      dup1\n        /* \"contracts/Util.sol\":758:759  i */\n      dup3\n        /* \"contracts/Util.sol\":758:762  i==j */\n      sub\n        /* \"contracts/Util.sol\":755:771  if(i==j) return; */\n      tag_47\n      jumpi\n        /* \"contracts/Util.sol\":764:771  return; */\n      pop\n      pop\n      jump(tag_46)\n        /* \"contracts/Util.sol\":755:771  if(i==j) return; */\n    tag_47:\n        /* \"contracts/Util.sol\":781:794  address pivot */\n      0x00\n        /* \"contracts/Util.sol\":797:800  arr */\n      dup6\n        /* \"contracts/Util.sol\":830:831  2 */\n      0x02\n        /* \"contracts/Util.sol\":822:826  left */\n      dup7\n        /* \"contracts/Util.sol\":814:819  right */\n      dup7\n        /* \"contracts/Util.sol\":814:826  right - left */\n      tag_48\n      swap2\n      swap1\n      tag_49\n      jump\t// in\n    tag_48:\n        /* \"contracts/Util.sol\":813:831  (right - left) / 2 */\n      tag_50\n      swap2\n      swap1\n      tag_51\n      jump\t// in\n    tag_50:\n        /* \"contracts/Util.sol\":806:810  left */\n      dup7\n        /* \"contracts/Util.sol\":806:831  left + (right - left) / 2 */\n      tag_52\n      swap2\n      swap1\n      tag_53\n      jump\t// in\n    tag_52:\n        /* \"contracts/Util.sol\":797:833  arr[uint(left + (right - left) / 2)] */\n      dup2\n      mload\n      dup2\n      lt\n      tag_54\n      jumpi\n      tag_55\n      tag_42\n      jump\t// in\n    tag_55:\n    tag_54:\n      0x20\n      mul\n      0x20\n      add\n      add\n      mload\n        /* \"contracts/Util.sol\":781:833  address pivot = arr[uint(left + (right - left) / 2)] */\n      swap1\n      pop\n        /* \"contracts/Util.sol\":844:1129  while (i <= j) {... */\n    tag_56:\n        /* \"contracts/Util.sol\":856:857  j */\n      dup2\n        /* \"contracts/Util.sol\":851:852  i */\n      dup4\n        /* \"contracts/Util.sol\":851:857  i <= j */\n      sgt\n        /* \"contracts/Util.sol\":844:1129  while (i <= j) {... */\n      tag_57\n      jumpi\n        /* \"contracts/Util.sol\":874:906  while (arr[uint(i)] < pivot) i++ */\n    tag_58:\n        /* \"contracts/Util.sol\":896:901  pivot */\n      dup1\n        /* \"contracts/Util.sol\":881:901  arr[uint(i)] < pivot */\n      0xffffffffffffffffffffffffffffffffffffffff\n      and\n        /* \"contracts/Util.sol\":881:884  arr */\n      dup7\n        /* \"contracts/Util.sol\":890:891  i */\n      dup5\n        /* \"contracts/Util.sol\":881:893  arr[uint(i)] */\n      dup2\n      mload\n      dup2\n      lt\n      tag_60\n      jumpi\n      tag_61\n      tag_42\n      jump\t// in\n    tag_61:\n    tag_60:\n      0x20\n      mul\n      0x20\n      add\n      add\n      mload\n        /* \"contracts/Util.sol\":881:901  arr[uint(i)] < pivot */\n      0xffffffffffffffffffffffffffffffffffffffff\n      and\n      lt\n        /* \"contracts/Util.sol\":874:906  while (arr[uint(i)] < pivot) i++ */\n      iszero\n      tag_59\n      jumpi\n        /* \"contracts/Util.sol\":903:906  i++ */\n      dup3\n      dup1\n      tag_62\n      swap1\n      tag_63\n      jump\t// in\n    tag_62:\n      swap4\n      pop\n      pop\n        /* \"contracts/Util.sol\":874:906  while (arr[uint(i)] < pivot) i++ */\n      jump(tag_58)\n    tag_59:\n        /* \"contracts/Util.sol\":921:953  while (pivot < arr[uint(j)]) j-- */\n    tag_64:\n        /* \"contracts/Util.sol\":936:939  arr */\n      dup6\n        /* \"contracts/Util.sol\":945:946  j */\n      dup3\n        /* \"contracts/Util.sol\":936:948  arr[uint(j)] */\n      dup2\n      mload\n      dup2\n      lt\n      tag_66\n      jumpi\n      tag_67\n      tag_42\n      jump\t// in\n    tag_67:\n    tag_66:\n      0x20\n      mul\n      0x20\n      add\n      add\n      mload\n        /* \"contracts/Util.sol\":928:948  pivot < arr[uint(j)] */\n      0xffffffffffffffffffffffffffffffffffffffff\n      and\n        /* \"contracts/Util.sol\":928:933  pivot */\n      dup2\n        /* \"contracts/Util.sol\":928:948  pivot < arr[uint(j)] */\n      0xffffffffffffffffffffffffffffffffffffffff\n      and\n      lt\n        /* \"contracts/Util.sol\":921:953  while (pivot < arr[uint(j)]) j-- */\n      iszero\n      tag_65\n      jumpi\n        /* \"contracts/Util.sol\":950:953  j-- */\n      dup2\n      dup1\n      tag_68\n      swap1\n      tag_69\n      jump\t// in\n    tag_68:\n      swap3\n      pop\n      pop\n        /* \"contracts/Util.sol\":921:953  while (pivot < arr[uint(j)]) j-- */\n      jump(tag_64)\n    tag_65:\n        /* \"contracts/Util.sol\":977:978  j */\n      dup2\n        /* \"contracts/Util.sol\":972:973  i */\n      dup4\n        /* \"contracts/Util.sol\":972:978  i <= j */\n      sgt\n        /* \"contracts/Util.sol\":968:1118  if (i <= j) {... */\n      tag_70\n      jumpi\n        /* \"contracts/Util.sol\":1031:1034  arr */\n      dup6\n        /* \"contracts/Util.sol\":1040:1041  j */\n      dup3\n        /* \"contracts/Util.sol\":1031:1043  arr[uint(j)] */\n      dup2\n      mload\n      dup2\n      lt\n      tag_71\n      jumpi\n      tag_72\n      tag_42\n      jump\t// in\n    tag_72:\n    tag_71:\n      0x20\n      mul\n      0x20\n      add\n      add\n      mload\n        /* \"contracts/Util.sol\":1045:1048  arr */\n      dup7\n        /* \"contracts/Util.sol\":1054:1055  i */\n      dup5\n        /* \"contracts/Util.sol\":1045:1057  arr[uint(i)] */\n      dup2\n      mload\n      dup2\n      lt\n      tag_73\n      jumpi\n      tag_74\n      tag_42\n      jump\t// in\n    tag_74:\n    tag_73:\n      0x20\n      mul\n      0x20\n      add\n      add\n      mload\n        /* \"contracts/Util.sol\":1000:1003  arr */\n      dup8\n        /* \"contracts/Util.sol\":1009:1010  i */\n      dup6\n        /* \"contracts/Util.sol\":1000:1012  arr[uint(i)] */\n      dup2\n      mload\n      dup2\n      lt\n      tag_75\n      jumpi\n      tag_76\n      tag_42\n      jump\t// in\n    tag_76:\n    tag_75:\n      0x20\n      mul\n      0x20\n      add\n      add\n        /* \"contracts/Util.sol\":1014:1017  arr */\n      dup9\n        /* \"contracts/Util.sol\":1023:1024  j */\n      dup6\n        /* \"contracts/Util.sol\":1014:1026  arr[uint(j)] */\n      dup2\n      mload\n      dup2\n      lt\n      tag_77\n      jumpi\n      tag_78\n      tag_42\n      jump\t// in\n    tag_78:\n    tag_77:\n      0x20\n      mul\n      0x20\n      add\n      add\n        /* \"contracts/Util.sol\":999:1058  (arr[uint(i)], arr[uint(j)]) = (arr[uint(j)], arr[uint(i)]) */\n      dup3\n      0xffffffffffffffffffffffffffffffffffffffff\n      and\n      0xffffffffffffffffffffffffffffffffffffffff\n      and\n      dup2\n      mstore\n      pop\n      dup3\n      0xffffffffffffffffffffffffffffffffffffffff\n      and\n      0xffffffffffffffffffffffffffffffffffffffff\n      and\n      dup2\n      mstore\n      pop\n      pop\n      pop\n        /* \"contracts/Util.sol\":1077:1080  i++ */\n      dup3\n      dup1\n      tag_79\n      swap1\n      tag_63\n      jump\t// in\n    tag_79:\n      swap4\n      pop\n      pop\n        /* \"contracts/Util.sol\":1099:1102  j-- */\n      dup2\n      dup1\n      tag_80\n      swap1\n      tag_69\n      jump\t// in\n    tag_80:\n      swap3\n      pop\n      pop\n        /* \"contracts/Util.sol\":968:1118  if (i <= j) {... */\n    tag_70:\n        /* \"contracts/Util.sol\":844:1129  while (i <= j) {... */\n      jump(tag_56)\n    tag_57:\n        /* \"contracts/Util.sol\":1150:1151  j */\n      dup2\n        /* \"contracts/Util.sol\":1143:1147  left */\n      dup6\n        /* \"contracts/Util.sol\":1143:1151  left < j */\n      slt\n        /* \"contracts/Util.sol\":1139:1189  if (left < j)... */\n      iszero\n      tag_81\n      jumpi\n        /* \"contracts/Util.sol\":1166:1189  quickSort(arr, left, j) */\n      tag_82\n        /* \"contracts/Util.sol\":1176:1179  arr */\n      dup7\n        /* \"contracts/Util.sol\":1181:1185  left */\n      dup7\n        /* \"contracts/Util.sol\":1187:1188  j */\n      dup5\n        /* \"contracts/Util.sol\":1166:1175  quickSort */\n      tag_20\n        /* \"contracts/Util.sol\":1166:1189  quickSort(arr, left, j) */\n      jump\t// in\n    tag_82:\n        /* \"contracts/Util.sol\":1139:1189  if (left < j)... */\n    tag_81:\n        /* \"contracts/Util.sol\":1208:1213  right */\n      dup4\n        /* \"contracts/Util.sol\":1204:1205  i */\n      dup4\n        /* \"contracts/Util.sol\":1204:1213  i < right */\n      slt\n        /* \"contracts/Util.sol\":1200:1252  if (i < right)... */\n      iszero\n      tag_83\n      jumpi\n        /* \"contracts/Util.sol\":1228:1252  quickSort(arr, i, right) */\n      tag_84\n        /* \"contracts/Util.sol\":1238:1241  arr */\n      dup7\n        /* \"contracts/Util.sol\":1243:1244  i */\n      dup5\n        /* \"contracts/Util.sol\":1246:1251  right */\n      dup7\n        /* \"contracts/Util.sol\":1228:1237  quickSort */\n      tag_20\n        /* \"contracts/Util.sol\":1228:1252  quickSort(arr, i, right) */\n      jump\t// in\n    tag_84:\n        /* \"contracts/Util.sol\":1200:1252  if (i < right)... */\n    tag_83:\n        /* \"contracts/Util.sol\":697:1260  {... */\n      pop\n      pop\n      pop\n        /* \"contracts/Util.sol\":623:1260  function quickSort(address[] memory arr, int left, int right) public pure {... */\n    tag_46:\n      pop\n      pop\n      pop\n      jump\t// out\n        /* \"contracts/Util.sol\":1480:1738  function contains(address addr, address[] memory array) public pure returns (bool) {... */\n    tag_24:\n        /* \"contracts/Util.sol\":1557:1561  bool */\n      0x00\n        /* \"contracts/Util.sol\":1579:1585  uint i */\n      dup1\n        /* \"contracts/Util.sol\":1588:1589  0 */\n      0x00\n        /* \"contracts/Util.sol\":1579:1589  uint i = 0 */\n      swap1\n      pop\n        /* \"contracts/Util.sol\":1574:1708  for (uint i = 0; i < array.length; i++) {... */\n    tag_86:\n        /* \"contracts/Util.sol\":1595:1600  array */\n      dup3\n        /* \"contracts/Util.sol\":1595:1607  array.length */\n      mload\n        /* \"contracts/Util.sol\":1591:1592  i */\n      dup2\n        /* \"contracts/Util.sol\":1591:1607  i < array.length */\n      lt\n        /* \"contracts/Util.sol\":1574:1708  for (uint i = 0; i < array.length; i++) {... */\n      iszero\n      tag_87\n      jumpi\n        /* \"contracts/Util.sol\":1645:1649  addr */\n      dup4\n        /* \"contracts/Util.sol\":1633:1649  array[i] == addr */\n      0xffffffffffffffffffffffffffffffffffffffff\n      and\n        /* \"contracts/Util.sol\":1633:1638  array */\n      dup4\n        /* \"contracts/Util.sol\":1639:1640  i */\n      dup3\n        /* \"contracts/Util.sol\":1633:1641  array[i] */\n      dup2\n      mload\n      dup2\n      lt\n      tag_89\n      jumpi\n      tag_90\n      tag_42\n      jump\t// in\n    tag_90:\n    tag_89:\n      0x20\n      mul\n      0x20\n      add\n      add\n      mload\n        /* \"contracts/Util.sol\":1633:1649  array[i] == addr */\n      0xffffffffffffffffffffffffffffffffffffffff\n      and\n      sub\n        /* \"contracts/Util.sol\":1629:1697  if (array[i] == addr) {... */\n      tag_91\n      jumpi\n        /* \"contracts/Util.sol\":1677:1681  true */\n      0x01\n        /* \"contracts/Util.sol\":1670:1681  return true */\n      swap2\n      pop\n      pop\n      jump(tag_85)\n        /* \"contracts/Util.sol\":1629:1697  if (array[i] == addr) {... */\n    tag_91:\n        /* \"contracts/Util.sol\":1609:1612  i++ */\n      dup1\n      dup1\n      0x01\n      add\n      swap2\n      pop\n      pop\n        /* \"contracts/Util.sol\":1574:1708  for (uint i = 0; i < array.length; i++) {... */\n      jump(tag_86)\n    tag_87:\n      pop\n        /* \"contracts/Util.sol\":1725:1730  false */\n      0x00\n        /* \"contracts/Util.sol\":1718:1730  return false */\n      swap1\n      pop\n        /* \"contracts/Util.sol\":1480:1738  function contains(address addr, address[] memory array) public pure returns (bool) {... */\n    tag_85:\n      swap3\n      swap2\n      pop\n      pop\n      jump\t// out\n        /* \"#utility.yul\":7:82   */\n    tag_92:\n        /* \"#utility.yul\":40:46   */\n      0x00\n        /* \"#utility.yul\":73:75   */\n      0x40\n        /* \"#utility.yul\":67:76   */\n      mload\n        /* \"#utility.yul\":57:76   */\n      swap1\n      pop\n        /* \"#utility.yul\":7:82   */\n      swap1\n      jump\t// out\n        /* \"#utility.yul\":88:205   */\n    tag_93:\n        /* \"#utility.yul\":197:198   */\n      0x00\n        /* \"#utility.yul\":194:195   */\n      dup1\n        /* \"#utility.yul\":187:199   */\n      revert\n        /* \"#utility.yul\":211:328   */\n    tag_94:\n        /* \"#utility.yul\":320:321   */\n      0x00\n        /* \"#utility.yul\":317:318   */\n      dup1\n        /* \"#utility.yul\":310:322   */\n      revert\n        /* \"#utility.yul\":334:451   */\n    tag_95:\n        /* \"#utility.yul\":443:444   */\n      0x00\n        /* \"#utility.yul\":440:441   */\n      dup1\n        /* \"#utility.yul\":433:445   */\n      revert\n        /* \"#utility.yul\":457:559   */\n    tag_96:\n        /* \"#utility.yul\":498:504   */\n      0x00\n        /* \"#utility.yul\":549:551   */\n      0x1f\n        /* \"#utility.yul\":545:552   */\n      not\n        /* \"#utility.yul\":540:542   */\n      0x1f\n        /* \"#utility.yul\":533:538   */\n      dup4\n        /* \"#utility.yul\":529:543   */\n      add\n        /* \"#utility.yul\":525:553   */\n      and\n        /* \"#utility.yul\":515:553   */\n      swap1\n      pop\n        /* \"#utility.yul\":457:559   */\n      swap2\n      swap1\n      pop\n      jump\t// out\n        /* \"#utility.yul\":565:745   */\n    tag_97:\n        /* \"#utility.yul\":613:690   */\n      0x4e487b7100000000000000000000000000000000000000000000000000000000\n        /* \"#utility.yul\":610:611   */\n      0x00\n        /* \"#utility.yul\":603:691   */\n      mstore\n        /* \"#utility.yul\":710:714   */\n      0x41\n        /* \"#utility.yul\":707:708   */\n      0x04\n        /* \"#utility.yul\":700:715   */\n      mstore\n        /* \"#utility.yul\":734:738   */\n      0x24\n        /* \"#utility.yul\":731:732   */\n      0x00\n        /* \"#utility.yul\":724:739   */\n      revert\n        /* \"#utility.yul\":751:1032   */\n    tag_98:\n        /* \"#utility.yul\":834:861   */\n      tag_131\n        /* \"#utility.yul\":856:860   */\n      dup3\n        /* \"#utility.yul\":834:861   */\n      tag_96\n      jump\t// in\n    tag_131:\n        /* \"#utility.yul\":826:832   */\n      dup2\n        /* \"#utility.yul\":822:862   */\n      add\n        /* \"#utility.yul\":964:970   */\n      dup2\n        /* \"#utility.yul\":952:962   */\n      dup2\n        /* \"#utility.yul\":949:971   */\n      lt\n        /* \"#utility.yul\":928:946   */\n      0xffffffffffffffff\n        /* \"#utility.yul\":916:926   */\n      dup3\n        /* \"#utility.yul\":913:947   */\n      gt\n        /* \"#utility.yul\":910:972   */\n      or\n        /* \"#utility.yul\":907:995   */\n      iszero\n      tag_132\n      jumpi\n        /* \"#utility.yul\":975:993   */\n      tag_133\n      tag_97\n      jump\t// in\n    tag_133:\n        /* \"#utility.yul\":907:995   */\n    tag_132:\n        /* \"#utility.yul\":1015:1025   */\n      dup1\n        /* \"#utility.yul\":1011:1013   */\n      0x40\n        /* \"#utility.yul\":1004:1026   */\n      mstore\n        /* \"#utility.yul\":794:1032   */\n      pop\n        /* \"#utility.yul\":751:1032   */\n      pop\n      pop\n      jump\t// out\n        /* \"#utility.yul\":1038:1167   */\n    tag_99:\n        /* \"#utility.yul\":1072:1078   */\n      0x00\n        /* \"#utility.yul\":1099:1119   */\n      tag_135\n      tag_92\n      jump\t// in\n    tag_135:\n        /* \"#utility.yul\":1089:1119   */\n      swap1\n      pop\n        /* \"#utility.yul\":1128:1161   */\n      tag_136\n        /* \"#utility.yul\":1156:1160   */\n      dup3\n        /* \"#utility.yul\":1148:1154   */\n      dup3\n        /* \"#utility.yul\":1128:1161   */\n      tag_98\n      jump\t// in\n    tag_136:\n        /* \"#utility.yul\":1038:1167   */\n      swap2\n      swap1\n      pop\n      jump\t// out\n        /* \"#utility.yul\":1173:1484   */\n    tag_100:\n        /* \"#utility.yul\":1250:1254   */\n      0x00\n        /* \"#utility.yul\":1340:1358   */\n      0xffffffffffffffff\n        /* \"#utility.yul\":1332:1338   */\n      dup3\n        /* \"#utility.yul\":1329:1359   */\n      gt\n        /* \"#utility.yul\":1326:1382   */\n      iszero\n      tag_138\n      jumpi\n        /* \"#utility.yul\":1362:1380   */\n      tag_139\n      tag_97\n      jump\t// in\n    tag_139:\n        /* \"#utility.yul\":1326:1382   */\n    tag_138:\n        /* \"#utility.yul\":1412:1416   */\n      0x20\n        /* \"#utility.yul\":1404:1410   */\n      dup3\n        /* \"#utility.yul\":1400:1417   */\n      mul\n        /* \"#utility.yul\":1392:1417   */\n      swap1\n      pop\n        /* \"#utility.yul\":1472:1476   */\n      0x20\n        /* \"#utility.yul\":1466:1470   */\n      dup2\n        /* \"#utility.yul\":1462:1477   */\n      add\n        /* \"#utility.yul\":1454:1477   */\n      swap1\n      pop\n        /* \"#utility.yul\":1173:1484   */\n      swap2\n      swap1\n      pop\n      jump\t// out\n        /* \"#utility.yul\":1490:1607   */\n    tag_101:\n        /* \"#utility.yul\":1599:1600   */\n      0x00\n        /* \"#utility.yul\":1596:1597   */\n      dup1\n        /* \"#utility.yul\":1589:1601   */\n      revert\n        /* \"#utility.yul\":1613:1739   */\n    tag_102:\n        /* \"#utility.yul\":1650:1657   */\n      0x00\n        /* \"#utility.yul\":1690:1732   */\n      0xffffffffffffffffffffffffffffffffffffffff\n        /* \"#utility.yul\":1683:1688   */\n      dup3\n        /* \"#utility.yul\":1679:1733   */\n      and\n        /* \"#utility.yul\":1668:1733   */\n      swap1\n      pop\n        /* \"#utility.yul\":1613:1739   */\n      swap2\n      swap1\n      pop\n      jump\t// out\n        /* \"#utility.yul\":1745:1841   */\n    tag_103:\n        /* \"#utility.yul\":1782:1789   */\n      0x00\n        /* \"#utility.yul\":1811:1835   */\n      tag_143\n        /* \"#utility.yul\":1829:1834   */\n      dup3\n        /* \"#utility.yul\":1811:1835   */\n      tag_102\n      jump\t// in\n    tag_143:\n        /* \"#utility.yul\":1800:1835   */\n      swap1\n      pop\n        /* \"#utility.yul\":1745:1841   */\n      swap2\n      swap1\n      pop\n      jump\t// out\n        /* \"#utility.yul\":1847:1969   */\n    tag_104:\n        /* \"#utility.yul\":1920:1944   */\n      tag_145\n        /* \"#utility.yul\":1938:1943   */\n      dup2\n        /* \"#utility.yul\":1920:1944   */\n      tag_103\n      jump\t// in\n    tag_145:\n        /* \"#utility.yul\":1913:1918   */\n      dup2\n        /* \"#utility.yul\":1910:1945   */\n      eq\n        /* \"#utility.yul\":1900:1963   */\n      tag_146\n      jumpi\n        /* \"#utility.yul\":1959:1960   */\n      0x00\n        /* \"#utility.yul\":1956:1957   */\n      dup1\n        /* \"#utility.yul\":1949:1961   */\n      revert\n        /* \"#utility.yul\":1900:1963   */\n    tag_146:\n        /* \"#utility.yul\":1847:1969   */\n      pop\n      jump\t// out\n        /* \"#utility.yul\":1975:2114   */\n    tag_105:\n        /* \"#utility.yul\":2021:2026   */\n      0x00\n        /* \"#utility.yul\":2059:2065   */\n      dup2\n        /* \"#utility.yul\":2046:2066   */\n      calldataload\n        /* \"#utility.yul\":2037:2066   */\n      swap1\n      pop\n        /* \"#utility.yul\":2075:2108   */\n      tag_148\n        /* \"#utility.yul\":2102:2107   */\n      dup2\n        /* \"#utility.yul\":2075:2108   */\n      tag_104\n      jump\t// in\n    tag_148:\n        /* \"#utility.yul\":1975:2114   */\n      swap3\n      swap2\n      pop\n      pop\n      jump\t// out\n        /* \"#utility.yul\":2137:2847   */\n    tag_106:\n        /* \"#utility.yul\":2233:2238   */\n      0x00\n        /* \"#utility.yul\":2258:2339   */\n      tag_150\n        /* \"#utility.yul\":2274:2338   */\n      tag_151\n        /* \"#utility.yul\":2331:2337   */\n      dup5\n        /* \"#utility.yul\":2274:2338   */\n      tag_100\n      jump\t// in\n    tag_151:\n        /* \"#utility.yul\":2258:2339   */\n      tag_99\n      jump\t// in\n    tag_150:\n        /* \"#utility.yul\":2249:2339   */\n      swap1\n      pop\n        /* \"#utility.yul\":2359:2364   */\n      dup1\n        /* \"#utility.yul\":2388:2394   */\n      dup4\n        /* \"#utility.yul\":2381:2386   */\n      dup3\n        /* \"#utility.yul\":2374:2395   */\n      mstore\n        /* \"#utility.yul\":2422:2426   */\n      0x20\n        /* \"#utility.yul\":2415:2420   */\n      dup3\n        /* \"#utility.yul\":2411:2427   */\n      add\n        /* \"#utility.yul\":2404:2427   */\n      swap1\n      pop\n        /* \"#utility.yul\":2475:2479   */\n      0x20\n        /* \"#utility.yul\":2467:2473   */\n      dup5\n        /* \"#utility.yul\":2463:2480   */\n      mul\n        /* \"#utility.yul\":2455:2461   */\n      dup4\n        /* \"#utility.yul\":2451:2481   */\n      add\n        /* \"#utility.yul\":2504:2507   */\n      dup6\n        /* \"#utility.yul\":2496:2502   */\n      dup2\n        /* \"#utility.yul\":2493:2508   */\n      gt\n        /* \"#utility.yul\":2490:2612   */\n      iszero\n      tag_152\n      jumpi\n        /* \"#utility.yul\":2523:2602   */\n      tag_153\n      tag_101\n      jump\t// in\n    tag_153:\n        /* \"#utility.yul\":2490:2612   */\n    tag_152:\n        /* \"#utility.yul\":2638:2644   */\n      dup4\n        /* \"#utility.yul\":2621:2841   */\n    tag_154:\n        /* \"#utility.yul\":2655:2661   */\n      dup2\n        /* \"#utility.yul\":2650:2653   */\n      dup2\n        /* \"#utility.yul\":2647:2662   */\n      lt\n        /* \"#utility.yul\":2621:2841   */\n      iszero\n      tag_156\n      jumpi\n        /* \"#utility.yul\":2730:2733   */\n      dup1\n        /* \"#utility.yul\":2759:2796   */\n      tag_157\n        /* \"#utility.yul\":2792:2795   */\n      dup9\n        /* \"#utility.yul\":2780:2790   */\n      dup3\n        /* \"#utility.yul\":2759:2796   */\n      tag_105\n      jump\t// in\n    tag_157:\n        /* \"#utility.yul\":2754:2757   */\n      dup5\n        /* \"#utility.yul\":2747:2797   */\n      mstore\n        /* \"#utility.yul\":2826:2830   */\n      0x20\n        /* \"#utility.yul\":2821:2824   */\n      dup5\n        /* \"#utility.yul\":2817:2831   */\n      add\n        /* \"#utility.yul\":2810:2831   */\n      swap4\n      pop\n        /* \"#utility.yul\":2697:2841   */\n      pop\n        /* \"#utility.yul\":2681:2685   */\n      0x20\n        /* \"#utility.yul\":2676:2679   */\n      dup2\n        /* \"#utility.yul\":2672:2686   */\n      add\n        /* \"#utility.yul\":2665:2686   */\n      swap1\n      pop\n        /* \"#utility.yul\":2621:2841   */\n      jump(tag_154)\n    tag_156:\n        /* \"#utility.yul\":2625:2646   */\n      pop\n        /* \"#utility.yul\":2239:2847   */\n      pop\n      pop\n        /* \"#utility.yul\":2137:2847   */\n      swap4\n      swap3\n      pop\n      pop\n      pop\n      jump\t// out\n        /* \"#utility.yul\":2870:3240   */\n    tag_107:\n        /* \"#utility.yul\":2941:2946   */\n      0x00\n        /* \"#utility.yul\":2990:2993   */\n      dup3\n        /* \"#utility.yul\":2983:2987   */\n      0x1f\n        /* \"#utility.yul\":2975:2981   */\n      dup4\n        /* \"#utility.yul\":2971:2988   */\n      add\n        /* \"#utility.yul\":2967:2994   */\n      slt\n        /* \"#utility.yul\":2957:3079   */\n      tag_159\n      jumpi\n        /* \"#utility.yul\":2998:3077   */\n      tag_160\n      tag_95\n      jump\t// in\n    tag_160:\n        /* \"#utility.yul\":2957:3079   */\n    tag_159:\n        /* \"#utility.yul\":3115:3121   */\n      dup2\n        /* \"#utility.yul\":3102:3122   */\n      calldataload\n        /* \"#utility.yul\":3140:3234   */\n      tag_161\n        /* \"#utility.yul\":3230:3233   */\n      dup5\n        /* \"#utility.yul\":3222:3228   */\n      dup3\n        /* \"#utility.yul\":3215:3219   */\n      0x20\n        /* \"#utility.yul\":3207:3213   */\n      dup7\n        /* \"#utility.yul\":3203:3220   */\n      add\n        /* \"#utility.yul\":3140:3234   */\n      tag_106\n      jump\t// in\n    tag_161:\n        /* \"#utility.yul\":3131:3234   */\n      swap2\n      pop\n        /* \"#utility.yul\":2947:3240   */\n      pop\n        /* \"#utility.yul\":2870:3240   */\n      swap3\n      swap2\n      pop\n      pop\n      jump\t// out\n        /* \"#utility.yul\":3246:4140   */\n    tag_9:\n        /* \"#utility.yul\":3364:3370   */\n      0x00\n        /* \"#utility.yul\":3372:3378   */\n      dup1\n        /* \"#utility.yul\":3421:3423   */\n      0x40\n        /* \"#utility.yul\":3409:3418   */\n      dup4\n        /* \"#utility.yul\":3400:3407   */\n      dup6\n        /* \"#utility.yul\":3396:3419   */\n      sub\n        /* \"#utility.yul\":3392:3424   */\n      slt\n        /* \"#utility.yul\":3389:3508   */\n      iszero\n      tag_163\n      jumpi\n        /* \"#utility.yul\":3427:3506   */\n      tag_164\n      tag_93\n      jump\t// in\n    tag_164:\n        /* \"#utility.yul\":3389:3508   */\n    tag_163:\n        /* \"#utility.yul\":3575:3576   */\n      0x00\n        /* \"#utility.yul\":3564:3573   */\n      dup4\n        /* \"#utility.yul\":3560:3577   */\n      add\n        /* \"#utility.yul\":3547:3578   */\n      calldataload\n        /* \"#utility.yul\":3605:3623   */\n      0xffffffffffffffff\n        /* \"#utility.yul\":3597:3603   */\n      dup2\n        /* \"#utility.yul\":3594:3624   */\n      gt\n        /* \"#utility.yul\":3591:3708   */\n      iszero\n      tag_165\n      jumpi\n        /* \"#utility.yul\":3627:3706   */\n      tag_166\n      tag_94\n      jump\t// in\n    tag_166:\n        /* \"#utility.yul\":3591:3708   */\n    tag_165:\n        /* \"#utility.yul\":3732:3810   */\n      tag_167\n        /* \"#utility.yul\":3802:3809   */\n      dup6\n        /* \"#utility.yul\":3793:3799   */\n      dup3\n        /* \"#utility.yul\":3782:3791   */\n      dup7\n        /* \"#utility.yul\":3778:3800   */\n      add\n        /* \"#utility.yul\":3732:3810   */\n      tag_107\n      jump\t// in\n    tag_167:\n        /* \"#utility.yul\":3722:3810   */\n      swap3\n      pop\n        /* \"#utility.yul\":3518:3820   */\n      pop\n        /* \"#utility.yul\":3887:3889   */\n      0x20\n        /* \"#utility.yul\":3876:3885   */\n      dup4\n        /* \"#utility.yul\":3872:3890   */\n      add\n        /* \"#utility.yul\":3859:3891   */\n      calldataload\n        /* \"#utility.yul\":3918:3936   */\n      0xffffffffffffffff\n        /* \"#utility.yul\":3910:3916   */\n      dup2\n        /* \"#utility.yul\":3907:3937   */\n      gt\n        /* \"#utility.yul\":3904:4021   */\n      iszero\n      tag_168\n      jumpi\n        /* \"#utility.yul\":3940:4019   */\n      tag_169\n      tag_94\n      jump\t// in\n    tag_169:\n        /* \"#utility.yul\":3904:4021   */\n    tag_168:\n        /* \"#utility.yul\":4045:4123   */\n      tag_170\n        /* \"#utility.yul\":4115:4122   */\n      dup6\n        /* \"#utility.yul\":4106:4112   */\n      dup3\n        /* \"#utility.yul\":4095:4104   */\n      dup7\n        /* \"#utility.yul\":4091:4113   */\n      add\n        /* \"#utility.yul\":4045:4123   */\n      tag_107\n      jump\t// in\n    tag_170:\n        /* \"#utility.yul\":4035:4123   */\n      swap2\n      pop\n        /* \"#utility.yul\":3830:4133   */\n      pop\n        /* \"#utility.yul\":3246:4140   */\n      swap3\n      pop\n      swap3\n      swap1\n      pop\n      jump\t// out\n        /* \"#utility.yul\":4146:4236   */\n    tag_108:\n        /* \"#utility.yul\":4180:4187   */\n      0x00\n        /* \"#utility.yul\":4223:4228   */\n      dup2\n        /* \"#utility.yul\":4216:4229   */\n      iszero\n        /* \"#utility.yul\":4209:4230   */\n      iszero\n        /* \"#utility.yul\":4198:4230   */\n      swap1\n      pop\n        /* \"#utility.yul\":4146:4236   */\n      swap2\n      swap1\n      pop\n      jump\t// out\n        /* \"#utility.yul\":4242:4351   */\n    tag_109:\n        /* \"#utility.yul\":4323:4344   */\n      tag_173\n        /* \"#utility.yul\":4338:4343   */\n      dup2\n        /* \"#utility.yul\":4323:4344   */\n      tag_108\n      jump\t// in\n    tag_173:\n        /* \"#utility.yul\":4318:4321   */\n      dup3\n        /* \"#utility.yul\":4311:4345   */\n      mstore\n        /* \"#utility.yul\":4242:4351   */\n      pop\n      pop\n      jump\t// out\n        /* \"#utility.yul\":4357:4567   */\n    tag_12:\n        /* \"#utility.yul\":4444:4448   */\n      0x00\n        /* \"#utility.yul\":4482:4484   */\n      0x20\n        /* \"#utility.yul\":4471:4480   */\n      dup3\n        /* \"#utility.yul\":4467:4485   */\n      add\n        /* \"#utility.yul\":4459:4485   */\n      swap1\n      pop\n        /* \"#utility.yul\":4495:4560   */\n      tag_175\n        /* \"#utility.yul\":4557:4558   */\n      0x00\n        /* \"#utility.yul\":4546:4555   */\n      dup4\n        /* \"#utility.yul\":4542:4559   */\n      add\n        /* \"#utility.yul\":4533:4539   */\n      dup5\n        /* \"#utility.yul\":4495:4560   */\n      tag_109\n      jump\t// in\n    tag_175:\n        /* \"#utility.yul\":4357:4567   */\n      swap3\n      swap2\n      pop\n      pop\n      jump\t// out\n        /* \"#utility.yul\":4573:4649   */\n    tag_110:\n        /* \"#utility.yul\":4609:4616   */\n      0x00\n        /* \"#utility.yul\":4638:4643   */\n      dup2\n        /* \"#utility.yul\":4627:4643   */\n      swap1\n      pop\n        /* \"#utility.yul\":4573:4649   */\n      swap2\n      swap1\n      pop\n      jump\t// out\n        /* \"#utility.yul\":4655:4775   */\n    tag_111:\n        /* \"#utility.yul\":4727:4750   */\n      tag_178\n        /* \"#utility.yul\":4744:4749   */\n      dup2\n        /* \"#utility.yul\":4727:4750   */\n      tag_110\n      jump\t// in\n    tag_178:\n        /* \"#utility.yul\":4720:4725   */\n      dup2\n        /* \"#utility.yul\":4717:4751   */\n      eq\n        /* \"#utility.yul\":4707:4769   */\n      tag_179\n      jumpi\n        /* \"#utility.yul\":4765:4766   */\n      0x00\n        /* \"#utility.yul\":4762:4763   */\n      dup1\n        /* \"#utility.yul\":4755:4767   */\n      revert\n        /* \"#utility.yul\":4707:4769   */\n    tag_179:\n        /* \"#utility.yul\":4655:4775   */\n      pop\n      jump\t// out\n        /* \"#utility.yul\":4781:4918   */\n    tag_112:\n        /* \"#utility.yul\":4826:4831   */\n      0x00\n        /* \"#utility.yul\":4864:4870   */\n      dup2\n        /* \"#utility.yul\":4851:4871   */\n      calldataload\n        /* \"#utility.yul\":4842:4871   */\n      swap1\n      pop\n        /* \"#utility.yul\":4880:4912   */\n      tag_181\n        /* \"#utility.yul\":4906:4911   */\n      dup2\n        /* \"#utility.yul\":4880:4912   */\n      tag_111\n      jump\t// in\n    tag_181:\n        /* \"#utility.yul\":4781:4918   */\n      swap3\n      swap2\n      pop\n      pop\n      jump\t// out\n        /* \"#utility.yul\":4924:5749   */\n    tag_19:\n        /* \"#utility.yul\":5024:5030   */\n      0x00\n        /* \"#utility.yul\":5032:5038   */\n      dup1\n        /* \"#utility.yul\":5040:5046   */\n      0x00\n        /* \"#utility.yul\":5089:5091   */\n      0x60\n        /* \"#utility.yul\":5077:5086   */\n      dup5\n        /* \"#utility.yul\":5068:5075   */\n      dup7\n        /* \"#utility.yul\":5064:5087   */\n      sub\n        /* \"#utility.yul\":5060:5092   */\n      slt\n        /* \"#utility.yul\":5057:5176   */\n      iszero\n      tag_183\n      jumpi\n        /* \"#utility.yul\":5095:5174   */\n      tag_184\n      tag_93\n      jump\t// in\n    tag_184:\n        /* \"#utility.yul\":5057:5176   */\n    tag_183:\n        /* \"#utility.yul\":5243:5244   */\n      0x00\n        /* \"#utility.yul\":5232:5241   */\n      dup5\n        /* \"#utility.yul\":5228:5245   */\n      add\n        /* \"#utility.yul\":5215:5246   */\n      calldataload\n        /* \"#utility.yul\":5273:5291   */\n      0xffffffffffffffff\n        /* \"#utility.yul\":5265:5271   */\n      dup2\n        /* \"#utility.yul\":5262:5292   */\n      gt\n        /* \"#utility.yul\":5259:5376   */\n      iszero\n      tag_185\n      jumpi\n        /* \"#utility.yul\":5295:5374   */\n      tag_186\n      tag_94\n      jump\t// in\n    tag_186:\n        /* \"#utility.yul\":5259:5376   */\n    tag_185:\n        /* \"#utility.yul\":5400:5478   */\n      tag_187\n        /* \"#utility.yul\":5470:5477   */\n      dup7\n        /* \"#utility.yul\":5461:5467   */\n      dup3\n        /* \"#utility.yul\":5450:5459   */\n      dup8\n        /* \"#utility.yul\":5446:5468   */\n      add\n        /* \"#utility.yul\":5400:5478   */\n      tag_107\n      jump\t// in\n    tag_187:\n        /* \"#utility.yul\":5390:5478   */\n      swap4\n      pop\n        /* \"#utility.yul\":5186:5488   */\n      pop\n        /* \"#utility.yul\":5527:5529   */\n      0x20\n        /* \"#utility.yul\":5553:5605   */\n      tag_188\n        /* \"#utility.yul\":5597:5604   */\n      dup7\n        /* \"#utility.yul\":5588:5594   */\n      dup3\n        /* \"#utility.yul\":5577:5586   */\n      dup8\n        /* \"#utility.yul\":5573:5595   */\n      add\n        /* \"#utility.yul\":5553:5605   */\n      tag_112\n      jump\t// in\n    tag_188:\n        /* \"#utility.yul\":5543:5605   */\n      swap3\n      pop\n        /* \"#utility.yul\":5498:5615   */\n      pop\n        /* \"#utility.yul\":5654:5656   */\n      0x40\n        /* \"#utility.yul\":5680:5732   */\n      tag_189\n        /* \"#utility.yul\":5724:5731   */\n      dup7\n        /* \"#utility.yul\":5715:5721   */\n      dup3\n        /* \"#utility.yul\":5704:5713   */\n      dup8\n        /* \"#utility.yul\":5700:5722   */\n      add\n        /* \"#utility.yul\":5680:5732   */\n      tag_112\n      jump\t// in\n    tag_189:\n        /* \"#utility.yul\":5670:5732   */\n      swap2\n      pop\n        /* \"#utility.yul\":5625:5742   */\n      pop\n        /* \"#utility.yul\":4924:5749   */\n      swap3\n      pop\n      swap3\n      pop\n      swap3\n      jump\t// out\n        /* \"#utility.yul\":5755:6439   */\n    tag_23:\n        /* \"#utility.yul\":5848:5854   */\n      0x00\n        /* \"#utility.yul\":5856:5862   */\n      dup1\n        /* \"#utility.yul\":5905:5907   */\n      0x40\n        /* \"#utility.yul\":5893:5902   */\n      dup4\n        /* \"#utility.yul\":5884:5891   */\n      dup6\n        /* \"#utility.yul\":5880:5903   */\n      sub\n        /* \"#utility.yul\":5876:5908   */\n      slt\n        /* \"#utility.yul\":5873:5992   */\n      iszero\n      tag_191\n      jumpi\n        /* \"#utility.yul\":5911:5990   */\n      tag_192\n      tag_93\n      jump\t// in\n    tag_192:\n        /* \"#utility.yul\":5873:5992   */\n    tag_191:\n        /* \"#utility.yul\":6031:6032   */\n      0x00\n        /* \"#utility.yul\":6056:6109   */\n      tag_193\n        /* \"#utility.yul\":6101:6108   */\n      dup6\n        /* \"#utility.yul\":6092:6098   */\n      dup3\n        /* \"#utility.yul\":6081:6090   */\n      dup7\n        /* \"#utility.yul\":6077:6099   */\n      add\n        /* \"#utility.yul\":6056:6109   */\n      tag_105\n      jump\t// in\n    tag_193:\n        /* \"#utility.yul\":6046:6109   */\n      swap3\n      pop\n        /* \"#utility.yul\":6002:6119   */\n      pop\n        /* \"#utility.yul\":6186:6188   */\n      0x20\n        /* \"#utility.yul\":6175:6184   */\n      dup4\n        /* \"#utility.yul\":6171:6189   */\n      add\n        /* \"#utility.yul\":6158:6190   */\n      calldataload\n        /* \"#utility.yul\":6217:6235   */\n      0xffffffffffffffff\n        /* \"#utility.yul\":6209:6215   */\n      dup2\n        /* \"#utility.yul\":6206:6236   */\n      gt\n        /* \"#utility.yul\":6203:6320   */\n      iszero\n      tag_194\n      jumpi\n        /* \"#utility.yul\":6239:6318   */\n      tag_195\n      tag_94\n      jump\t// in\n    tag_195:\n        /* \"#utility.yul\":6203:6320   */\n    tag_194:\n        /* \"#utility.yul\":6344:6422   */\n      tag_196\n        /* \"#utility.yul\":6414:6421   */\n      dup6\n        /* \"#utility.yul\":6405:6411   */\n      dup3\n        /* \"#utility.yul\":6394:6403   */\n      dup7\n        /* \"#utility.yul\":6390:6412   */\n      add\n        /* \"#utility.yul\":6344:6422   */\n      tag_107\n      jump\t// in\n    tag_196:\n        /* \"#utility.yul\":6334:6422   */\n      swap2\n      pop\n        /* \"#utility.yul\":6129:6432   */\n      pop\n        /* \"#utility.yul\":5755:6439   */\n      swap3\n      pop\n      swap3\n      swap1\n      pop\n      jump\t// out\n        /* \"#utility.yul\":6445:6559   */\n    tag_113:\n        /* \"#utility.yul\":6512:6518   */\n      0x00\n        /* \"#utility.yul\":6546:6551   */\n      dup2\n        /* \"#utility.yul\":6540:6552   */\n      mload\n        /* \"#utility.yul\":6530:6552   */\n      swap1\n      pop\n        /* \"#utility.yul\":6445:6559   */\n      swap2\n      swap1\n      pop\n      jump\t// out\n        /* \"#utility.yul\":6565:6728   */\n    tag_114:\n        /* \"#utility.yul\":6682:6693   */\n      0x00\n        /* \"#utility.yul\":6719:6722   */\n      dup2\n        /* \"#utility.yul\":6704:6722   */\n      swap1\n      pop\n        /* \"#utility.yul\":6565:6728   */\n      swap3\n      swap2\n      pop\n      pop\n      jump\t// out\n        /* \"#utility.yul\":6734:6866   */\n    tag_115:\n        /* \"#utility.yul\":6801:6805   */\n      0x00\n        /* \"#utility.yul\":6824:6827   */\n      dup2\n        /* \"#utility.yul\":6816:6827   */\n      swap1\n      pop\n        /* \"#utility.yul\":6854:6858   */\n      0x20\n        /* \"#utility.yul\":6849:6852   */\n      dup3\n        /* \"#utility.yul\":6845:6859   */\n      add\n        /* \"#utility.yul\":6837:6859   */\n      swap1\n      pop\n        /* \"#utility.yul\":6734:6866   */\n      swap2\n      swap1\n      pop\n      jump\t// out\n        /* \"#utility.yul\":6872:6988   */\n    tag_116:\n        /* \"#utility.yul\":6957:6981   */\n      tag_201\n        /* \"#utility.yul\":6975:6980   */\n      dup2\n        /* \"#utility.yul\":6957:6981   */\n      tag_103\n      jump\t// in\n    tag_201:\n        /* \"#utility.yul\":6952:6955   */\n      dup3\n        /* \"#utility.yul\":6945:6982   */\n      mstore\n        /* \"#utility.yul\":6872:6988   */\n      pop\n      pop\n      jump\t// out\n        /* \"#utility.yul\":6994:7189   */\n    tag_117:\n        /* \"#utility.yul\":7071:7081   */\n      0x00\n        /* \"#utility.yul\":7092:7146   */\n      tag_203\n        /* \"#utility.yul\":7142:7145   */\n      dup4\n        /* \"#utility.yul\":7134:7140   */\n      dup4\n        /* \"#utility.yul\":7092:7146   */\n      tag_116\n      jump\t// in\n    tag_203:\n        /* \"#utility.yul\":7178:7182   */\n      0x20\n        /* \"#utility.yul\":7173:7176   */\n      dup4\n        /* \"#utility.yul\":7169:7183   */\n      add\n        /* \"#utility.yul\":7155:7183   */\n      swap1\n      pop\n        /* \"#utility.yul\":6994:7189   */\n      swap3\n      swap2\n      pop\n      pop\n      jump\t// out\n        /* \"#utility.yul\":7195:7308   */\n    tag_118:\n        /* \"#utility.yul\":7265:7269   */\n      0x00\n        /* \"#utility.yul\":7297:7301   */\n      0x20\n        /* \"#utility.yul\":7292:7295   */\n      dup3\n        /* \"#utility.yul\":7288:7302   */\n      add\n        /* \"#utility.yul\":7280:7302   */\n      swap1\n      pop\n        /* \"#utility.yul\":7195:7308   */\n      swap2\n      swap1\n      pop\n      jump\t// out\n        /* \"#utility.yul\":7344:8120   */\n    tag_119:\n        /* \"#utility.yul\":7481:7484   */\n      0x00\n        /* \"#utility.yul\":7510:7564   */\n      tag_206\n        /* \"#utility.yul\":7558:7563   */\n      dup3\n        /* \"#utility.yul\":7510:7564   */\n      tag_113\n      jump\t// in\n    tag_206:\n        /* \"#utility.yul\":7580:7684   */\n      tag_207\n        /* \"#utility.yul\":7677:7683   */\n      dup2\n        /* \"#utility.yul\":7672:7675   */\n      dup6\n        /* \"#utility.yul\":7580:7684   */\n      tag_114\n      jump\t// in\n    tag_207:\n        /* \"#utility.yul\":7573:7684   */\n      swap4\n      pop\n        /* \"#utility.yul\":7708:7764   */\n      tag_208\n        /* \"#utility.yul\":7758:7763   */\n      dup4\n        /* \"#utility.yul\":7708:7764   */\n      tag_115\n      jump\t// in\n    tag_208:\n        /* \"#utility.yul\":7787:7794   */\n      dup1\n        /* \"#utility.yul\":7818:7819   */\n      0x00\n        /* \"#utility.yul\":7803:8095   */\n    tag_209:\n        /* \"#utility.yul\":7828:7834   */\n      dup4\n        /* \"#utility.yul\":7825:7826   */\n      dup2\n        /* \"#utility.yul\":7822:7835   */\n      lt\n        /* \"#utility.yul\":7803:8095   */\n      iszero\n      tag_211\n      jumpi\n        /* \"#utility.yul\":7904:7910   */\n      dup2\n        /* \"#utility.yul\":7898:7911   */\n      mload\n        /* \"#utility.yul\":7931:8002   */\n      tag_212\n        /* \"#utility.yul\":7998:8001   */\n      dup9\n        /* \"#utility.yul\":7983:7996   */\n      dup3\n        /* \"#utility.yul\":7931:8002   */\n      tag_117\n      jump\t// in\n    tag_212:\n        /* \"#utility.yul\":7924:8002   */\n      swap8\n      pop\n        /* \"#utility.yul\":8025:8085   */\n      tag_213\n        /* \"#utility.yul\":8078:8084   */\n      dup4\n        /* \"#utility.yul\":8025:8085   */\n      tag_118\n      jump\t// in\n    tag_213:\n        /* \"#utility.yul\":8015:8085   */\n      swap3\n      pop\n        /* \"#utility.yul\":7863:8095   */\n      pop\n        /* \"#utility.yul\":7850:7851   */\n      0x01\n        /* \"#utility.yul\":7847:7848   */\n      dup2\n        /* \"#utility.yul\":7843:7852   */\n      add\n        /* \"#utility.yul\":7838:7852   */\n      swap1\n      pop\n        /* \"#utility.yul\":7803:8095   */\n      jump(tag_209)\n    tag_211:\n        /* \"#utility.yul\":7807:7821   */\n      pop\n        /* \"#utility.yul\":8111:8114   */\n      dup6\n        /* \"#utility.yul\":8104:8114   */\n      swap4\n      pop\n        /* \"#utility.yul\":7486:8120   */\n      pop\n      pop\n      pop\n        /* \"#utility.yul\":7344:8120   */\n      swap3\n      swap2\n      pop\n      pop\n      jump\t// out\n        /* \"#utility.yul\":8126:8461   */\n    tag_28:\n        /* \"#utility.yul\":8288:8291   */\n      0x00\n        /* \"#utility.yul\":8310:8435   */\n      tag_215\n        /* \"#utility.yul\":8431:8434   */\n      dup3\n        /* \"#utility.yul\":8422:8428   */\n      dup5\n        /* \"#utility.yul\":8310:8435   */\n      tag_119\n      jump\t// in\n    tag_215:\n        /* \"#utility.yul\":8303:8435   */\n      swap2\n      pop\n        /* \"#utility.yul\":8452:8455   */\n      dup2\n        /* \"#utility.yul\":8445:8455   */\n      swap1\n      pop\n        /* \"#utility.yul\":8126:8461   */\n      swap3\n      swap2\n      pop\n      pop\n      jump\t// out\n        /* \"#utility.yul\":8467:8544   */\n    tag_120:\n        /* \"#utility.yul\":8504:8511   */\n      0x00\n        /* \"#utility.yul\":8533:8538   */\n      dup2\n        /* \"#utility.yul\":8522:8538   */\n      swap1\n      pop\n        /* \"#utility.yul\":8467:8544   */\n      swap2\n      swap1\n      pop\n      jump\t// out\n        /* \"#utility.yul\":8550:8730   */\n    tag_121:\n        /* \"#utility.yul\":8598:8675   */\n      0x4e487b7100000000000000000000000000000000000000000000000000000000\n        /* \"#utility.yul\":8595:8596   */\n      0x00\n        /* \"#utility.yul\":8588:8676   */\n      mstore\n        /* \"#utility.yul\":8695:8699   */\n      0x11\n        /* \"#utility.yul\":8692:8693   */\n      0x04\n        /* \"#utility.yul\":8685:8700   */\n      mstore\n        /* \"#utility.yul\":8719:8723   */\n      0x24\n        /* \"#utility.yul\":8716:8717   */\n      0x00\n        /* \"#utility.yul\":8709:8724   */\n      revert\n        /* \"#utility.yul\":8736:8930   */\n    tag_34:\n        /* \"#utility.yul\":8776:8780   */\n      0x00\n        /* \"#utility.yul\":8796:8816   */\n      tag_219\n        /* \"#utility.yul\":8814:8815   */\n      dup3\n        /* \"#utility.yul\":8796:8816   */\n      tag_120\n      jump\t// in\n    tag_219:\n        /* \"#utility.yul\":8791:8816   */\n      swap2\n      pop\n        /* \"#utility.yul\":8830:8850   */\n      tag_220\n        /* \"#utility.yul\":8848:8849   */\n      dup4\n        /* \"#utility.yul\":8830:8850   */\n      tag_120\n      jump\t// in\n    tag_220:\n        /* \"#utility.yul\":8825:8850   */\n      swap3\n      pop\n        /* \"#utility.yul\":8874:8875   */\n      dup3\n        /* \"#utility.yul\":8871:8872   */\n      dup3\n        /* \"#utility.yul\":8867:8876   */\n      sub\n        /* \"#utility.yul\":8859:8876   */\n      swap1\n      pop\n        /* \"#utility.yul\":8898:8899   */\n      dup2\n        /* \"#utility.yul\":8892:8896   */\n      dup2\n        /* \"#utility.yul\":8889:8900   */\n      gt\n        /* \"#utility.yul\":8886:8923   */\n      iszero\n      tag_221\n      jumpi\n        /* \"#utility.yul\":8903:8921   */\n      tag_222\n      tag_121\n      jump\t// in\n    tag_222:\n        /* \"#utility.yul\":8886:8923   */\n    tag_221:\n        /* \"#utility.yul\":8736:8930   */\n      swap3\n      swap2\n      pop\n      pop\n      jump\t// out\n        /* \"#utility.yul\":8936:9116   */\n    tag_42:\n        /* \"#utility.yul\":8984:9061   */\n      0x4e487b7100000000000000000000000000000000000000000000000000000000\n        /* \"#utility.yul\":8981:8982   */\n      0x00\n        /* \"#utility.yul\":8974:9062   */\n      mstore\n        /* \"#utility.yul\":9081:9085   */\n      0x32\n        /* \"#utility.yul\":9078:9079   */\n      0x04\n        /* \"#utility.yul\":9071:9086   */\n      mstore\n        /* \"#utility.yul\":9105:9109   */\n      0x24\n        /* \"#utility.yul\":9102:9103   */\n      0x00\n        /* \"#utility.yul\":9095:9110   */\n      revert\n        /* \"#utility.yul\":9122:9494   */\n    tag_49:\n        /* \"#utility.yul\":9161:9165   */\n      0x00\n        /* \"#utility.yul\":9181:9200   */\n      tag_225\n        /* \"#utility.yul\":9198:9199   */\n      dup3\n        /* \"#utility.yul\":9181:9200   */\n      tag_110\n      jump\t// in\n    tag_225:\n        /* \"#utility.yul\":9176:9200   */\n      swap2\n      pop\n        /* \"#utility.yul\":9214:9233   */\n      tag_226\n        /* \"#utility.yul\":9231:9232   */\n      dup4\n        /* \"#utility.yul\":9214:9233   */\n      tag_110\n      jump\t// in\n    tag_226:\n        /* \"#utility.yul\":9209:9233   */\n      swap3\n      pop\n        /* \"#utility.yul\":9257:9258   */\n      dup3\n        /* \"#utility.yul\":9254:9255   */\n      dup3\n        /* \"#utility.yul\":9250:9259   */\n      sub\n        /* \"#utility.yul\":9242:9259   */\n      swap1\n      pop\n        /* \"#utility.yul\":9451:9452   */\n      dup2\n        /* \"#utility.yul\":9445:9449   */\n      dup2\n        /* \"#utility.yul\":9441:9453   */\n      slt\n        /* \"#utility.yul\":9437:9438   */\n      0x00\n        /* \"#utility.yul\":9434:9435   */\n      dup5\n        /* \"#utility.yul\":9430:9439   */\n      slt\n        /* \"#utility.yul\":9426:9454   */\n      and\n        /* \"#utility.yul\":9409:9410   */\n      dup3\n        /* \"#utility.yul\":9403:9407   */\n      dup3\n        /* \"#utility.yul\":9399:9411   */\n      sgt\n        /* \"#utility.yul\":9394:9395   */\n      0x00\n        /* \"#utility.yul\":9391:9392   */\n      dup6\n        /* \"#utility.yul\":9387:9396   */\n      slt\n        /* \"#utility.yul\":9380:9397   */\n      iszero\n        /* \"#utility.yul\":9376:9412   */\n      and\n        /* \"#utility.yul\":9360:9464   */\n      or\n        /* \"#utility.yul\":9357:9487   */\n      iszero\n      tag_227\n      jumpi\n        /* \"#utility.yul\":9467:9485   */\n      tag_228\n      tag_121\n      jump\t// in\n    tag_228:\n        /* \"#utility.yul\":9357:9487   */\n    tag_227:\n        /* \"#utility.yul\":9122:9494   */\n      swap3\n      swap2\n      pop\n      pop\n      jump\t// out\n        /* \"#utility.yul\":9500:9680   */\n    tag_122:\n        /* \"#utility.yul\":9548:9625   */\n      0x4e487b7100000000000000000000000000000000000000000000000000000000\n        /* \"#utility.yul\":9545:9546   */\n      0x00\n        /* \"#utility.yul\":9538:9626   */\n      mstore\n        /* \"#utility.yul\":9645:9649   */\n      0x12\n        /* \"#utility.yul\":9642:9643   */\n      0x04\n        /* \"#utility.yul\":9635:9650   */\n      mstore\n        /* \"#utility.yul\":9669:9673   */\n      0x24\n        /* \"#utility.yul\":9666:9667   */\n      0x00\n        /* \"#utility.yul\":9659:9674   */\n      revert\n        /* \"#utility.yul\":9686:10071   */\n    tag_51:\n        /* \"#utility.yul\":9725:9726   */\n      0x00\n        /* \"#utility.yul\":9742:9761   */\n      tag_231\n        /* \"#utility.yul\":9759:9760   */\n      dup3\n        /* \"#utility.yul\":9742:9761   */\n      tag_110\n      jump\t// in\n    tag_231:\n        /* \"#utility.yul\":9737:9761   */\n      swap2\n      pop\n        /* \"#utility.yul\":9775:9794   */\n      tag_232\n        /* \"#utility.yul\":9792:9793   */\n      dup4\n        /* \"#utility.yul\":9775:9794   */\n      tag_110\n      jump\t// in\n    tag_232:\n        /* \"#utility.yul\":9770:9794   */\n      swap3\n      pop\n        /* \"#utility.yul\":9813:9814   */\n      dup3\n        /* \"#utility.yul\":9803:9838   */\n      tag_233\n      jumpi\n        /* \"#utility.yul\":9818:9836   */\n      tag_234\n      tag_122\n      jump\t// in\n    tag_234:\n        /* \"#utility.yul\":9803:9838   */\n    tag_233:\n        /* \"#utility.yul\":10004:10005   */\n      0x01\n        /* \"#utility.yul\":10001:10002   */\n      0x00\n        /* \"#utility.yul\":9997:10006   */\n      sub\n        /* \"#utility.yul\":9994:9995   */\n      dup4\n        /* \"#utility.yul\":9991:10007   */\n      eq\n        /* \"#utility.yul\":9910:9976   */\n      0x8000000000000000000000000000000000000000000000000000000000000000\n        /* \"#utility.yul\":9907:9908   */\n      dup4\n        /* \"#utility.yul\":9904:9977   */\n      eq\n        /* \"#utility.yul\":9887:10017   */\n      and\n        /* \"#utility.yul\":9884:10040   */\n      iszero\n      tag_235\n      jumpi\n        /* \"#utility.yul\":10020:10038   */\n      tag_236\n      tag_121\n      jump\t// in\n    tag_236:\n        /* \"#utility.yul\":9884:10040   */\n    tag_235:\n        /* \"#utility.yul\":10063:10064   */\n      dup3\n        /* \"#utility.yul\":10060:10061   */\n      dup3\n        /* \"#utility.yul\":10055:10065   */\n      sdiv\n        /* \"#utility.yul\":10050:10065   */\n      swap1\n      pop\n        /* \"#utility.yul\":9686:10071   */\n      swap3\n      swap2\n      pop\n      pop\n      jump\t// out\n        /* \"#utility.yul\":10077:10452   */\n    tag_53:\n        /* \"#utility.yul\":10116:10119   */\n      0x00\n        /* \"#utility.yul\":10135:10154   */\n      tag_238\n        /* \"#utility.yul\":10152:10153   */\n      dup3\n        /* \"#utility.yul\":10135:10154   */\n      tag_110\n      jump\t// in\n    tag_238:\n        /* \"#utility.yul\":10130:10154   */\n      swap2\n      pop\n        /* \"#utility.yul\":10168:10187   */\n      tag_239\n        /* \"#utility.yul\":10185:10186   */\n      dup4\n        /* \"#utility.yul\":10168:10187   */\n      tag_110\n      jump\t// in\n    tag_239:\n        /* \"#utility.yul\":10163:10187   */\n      swap3\n      pop\n        /* \"#utility.yul\":10210:10211   */\n      dup3\n        /* \"#utility.yul\":10207:10208   */\n      dup3\n        /* \"#utility.yul\":10203:10212   */\n      add\n        /* \"#utility.yul\":10196:10212   */\n      swap1\n      pop\n        /* \"#utility.yul\":10408:10409   */\n      dup3\n        /* \"#utility.yul\":10403:10406   */\n      dup2\n        /* \"#utility.yul\":10399:10410   */\n      slt\n        /* \"#utility.yul\":10392:10411   */\n      iszero\n        /* \"#utility.yul\":10388:10389   */\n      0x00\n        /* \"#utility.yul\":10385:10386   */\n      dup4\n        /* \"#utility.yul\":10381:10390   */\n      slt\n        /* \"#utility.yul\":10377:10412   */\n      and\n        /* \"#utility.yul\":10360:10361   */\n      dup4\n        /* \"#utility.yul\":10355:10358   */\n      dup3\n        /* \"#utility.yul\":10351:10362   */\n      slt\n        /* \"#utility.yul\":10346:10347   */\n      0x00\n        /* \"#utility.yul\":10343:10344   */\n      dup5\n        /* \"#utility.yul\":10339:10348   */\n      slt\n        /* \"#utility.yul\":10332:10349   */\n      iszero\n        /* \"#utility.yul\":10328:10363   */\n      and\n        /* \"#utility.yul\":10312:10422   */\n      or\n        /* \"#utility.yul\":10309:10445   */\n      iszero\n      tag_240\n      jumpi\n        /* \"#utility.yul\":10425:10443   */\n      tag_241\n      tag_121\n      jump\t// in\n    tag_241:\n        /* \"#utility.yul\":10309:10445   */\n    tag_240:\n        /* \"#utility.yul\":10077:10452   */\n      swap3\n      swap2\n      pop\n      pop\n      jump\t// out\n        /* \"#utility.yul\":10458:10689   */\n    tag_63:\n        /* \"#utility.yul\":10496:10499   */\n      0x00\n        /* \"#utility.yul\":10519:10542   */\n      tag_243\n        /* \"#utility.yul\":10536:10541   */\n      dup3\n        /* \"#utility.yul\":10519:10542   */\n      tag_110\n      jump\t// in\n    tag_243:\n        /* \"#utility.yul\":10510:10542   */\n      swap2\n      pop\n        /* \"#utility.yul\":10564:10630   */\n      0x7fffffffffffffffffffffffffffffffffffffffffffffffffffffffffffffff\n        /* \"#utility.yul\":10557:10562   */\n      dup3\n        /* \"#utility.yul\":10554:10631   */\n      sub\n        /* \"#utility.yul\":10551:10654   */\n      tag_244\n      jumpi\n        /* \"#utility.yul\":10634:10652   */\n      tag_245\n      tag_121\n      jump\t// in\n    tag_245:\n        /* \"#utility.yul\":10551:10654   */\n    tag_244:\n        /* \"#utility.yul\":10681:10682   */\n      0x01\n        /* \"#utility.yul\":10674:10679   */\n      dup3\n        /* \"#utility.yul\":10670:10683   */\n      add\n        /* \"#utility.yul\":10663:10683   */\n      swap1\n      pop\n        /* \"#utility.yul\":10458:10689   */\n      swap2\n      swap1\n      pop\n      jump\t// out\n        /* \"#utility.yul\":10695:10926   */\n    tag_69:\n        /* \"#utility.yul\":10733:10736   */\n      0x00\n        /* \"#utility.yul\":10756:10779   */\n      tag_247\n        /* \"#utility.yul\":10773:10778   */\n      dup3\n        /* \"#utility.yul\":10756:10779   */\n      tag_110\n      jump\t// in\n    tag_247:\n        /* \"#utility.yul\":10747:10779   */\n      swap2\n      pop\n        /* \"#utility.yul\":10801:10867   */\n      0x8000000000000000000000000000000000000000000000000000000000000000\n        /* \"#utility.yul\":10794:10799   */\n      dup3\n        /* \"#utility.yul\":10791:10868   */\n      sub\n        /* \"#utility.yul\":10788:10891   */\n      tag_248\n      jumpi\n        /* \"#utility.yul\":10871:10889   */\n      tag_249\n      tag_121\n      jump\t// in\n    tag_249:\n        /* \"#utility.yul\":10788:10891   */\n    tag_248:\n        /* \"#utility.yul\":10918:10919   */\n      0x01\n        /* \"#utility.yul\":10911:10916   */\n      dup3\n        /* \"#utility.yul\":10907:10920   */\n      sub\n        /* \"#utility.yul\":10900:10920   */\n      swap1\n      pop\n        /* \"#utility.yul\":10695:10926   */\n      swap2\n      swap1\n      pop\n      jump\t// out\n\n    auxdata: 0xa26469706673582212201b66cb5d5e55e157c0b078d56b71352004923f4f9fcd4a9abc85eae8b2cf74b764736f6c63430008160033\n}\n",
				"bytecode": {
					"linkReferences": {},
					"object": "608060405234801561000f575f80fd5b50610b828061001d5f395ff3fe608060405234801561000f575f80fd5b506004361061004a575f3560e01c8063308e8edb1461004e57806373ddfdfb1461007e578063c674f26e146100ae578063d84d04a1146100ca575b5f80fd5b610068600480360381019061006391906106a9565b6100fa565b6040516100759190610739565b60405180910390f35b610098600480360381019061009391906106a9565b610152565b6040516100a59190610739565b60405180910390f35b6100c860048036038101906100c39190610785565b610228565b005b6100e460048036038101906100df91906107f1565b610470565b6040516100f19190610739565b60405180910390f35b5f8160405160200161010c91906108fc565b604051602081830303815290604052805190602001208360405160200161013391906108fc565b6040516020818303038152906040528051906020012014905092915050565b5f8151835114610164575f9050610222565b61017c835f600186516101779190610948565b610228565b610194825f6001855161018f9190610948565b610228565b5f5b835181101561021c578281815181106101b2576101b161097b565b5b602002602001015173ffffffffffffffffffffffffffffffffffffffff168482815181106101e3576101e261097b565b5b602002602001015173ffffffffffffffffffffffffffffffffffffffff161461020f575f915050610222565b8080600101915050610196565b50600190505b92915050565b5f8290505f82905080820361023e57505061046b565b5f856002868661024e91906109a8565b6102589190610a15565b866102639190610a7d565b815181106102745761027361097b565b5b602002602001015190505b81831361043f575b8073ffffffffffffffffffffffffffffffffffffffff168684815181106102b1576102b061097b565b5b602002602001015173ffffffffffffffffffffffffffffffffffffffff1610156102e85782806102e090610abe565b935050610287565b5b8582815181106102fc576102fb61097b565b5b602002602001015173ffffffffffffffffffffffffffffffffffffffff168173ffffffffffffffffffffffffffffffffffffffff16101561034a57818061034290610b05565b9250506102e9565b81831361043a578582815181106103645761036361097b565b5b602002602001015186848151811061037f5761037e61097b565b5b602002602001015187858151811061039a5761039961097b565b5b602002602001018885815181106103b4576103b361097b565b5b602002602001018273ffffffffffffffffffffffffffffffffffffffff1673ffffffffffffffffffffffffffffffffffffffff168152508273ffffffffffffffffffffffffffffffffffffffff1673ffffffffffffffffffffffffffffffffffffffff168152505050828061042890610abe565b935050818061043690610b05565b9250505b61027f565b8185121561045357610452868684610228565b5b8383121561046757610466868486610228565b5b5050505b505050565b5f805f90505b82518110156104e3578373ffffffffffffffffffffffffffffffffffffffff168382815181106104a9576104a861097b565b5b602002602001015173ffffffffffffffffffffffffffffffffffffffff16036104d65760019150506104e8565b8080600101915050610476565b505f90505b92915050565b5f604051905090565b5f80fd5b5f80fd5b5f80fd5b5f601f19601f8301169050919050565b7f4e487b71000000000000000000000000000000000000000000000000000000005f52604160045260245ffd5b61054982610503565b810181811067ffffffffffffffff8211171561056857610567610513565b5b80604052505050565b5f61057a6104ee565b90506105868282610540565b919050565b5f67ffffffffffffffff8211156105a5576105a4610513565b5b602082029050602081019050919050565b5f80fd5b5f73ffffffffffffffffffffffffffffffffffffffff82169050919050565b5f6105e3826105ba565b9050919050565b6105f3816105d9565b81146105fd575f80fd5b50565b5f8135905061060e816105ea565b92915050565b5f6106266106218461058b565b610571565b90508083825260208201905060208402830185811115610649576106486105b6565b5b835b81811015610672578061065e8882610600565b84526020840193505060208101905061064b565b5050509392505050565b5f82601f8301126106905761068f6104ff565b5b81356106a0848260208601610614565b91505092915050565b5f80604083850312156106bf576106be6104f7565b5b5f83013567ffffffffffffffff8111156106dc576106db6104fb565b5b6106e88582860161067c565b925050602083013567ffffffffffffffff811115610709576107086104fb565b5b6107158582860161067c565b9150509250929050565b5f8115159050919050565b6107338161071f565b82525050565b5f60208201905061074c5f83018461072a565b92915050565b5f819050919050565b61076481610752565b811461076e575f80fd5b50565b5f8135905061077f8161075b565b92915050565b5f805f6060848603121561079c5761079b6104f7565b5b5f84013567ffffffffffffffff8111156107b9576107b86104fb565b5b6107c58682870161067c565b93505060206107d686828701610771565b92505060406107e786828701610771565b9150509250925092565b5f8060408385031215610807576108066104f7565b5b5f61081485828601610600565b925050602083013567ffffffffffffffff811115610835576108346104fb565b5b6108418582860161067c565b9150509250929050565b5f81519050919050565b5f81905092915050565b5f819050602082019050919050565b610877816105d9565b82525050565b5f610888838361086e565b60208301905092915050565b5f602082019050919050565b5f6108aa8261084b565b6108b48185610855565b93506108bf8361085f565b805f5b838110156108ef5781516108d6888261087d565b97506108e183610894565b9250506001810190506108c2565b5085935050505092915050565b5f61090782846108a0565b915081905092915050565b5f819050919050565b7f4e487b71000000000000000000000000000000000000000000000000000000005f52601160045260245ffd5b5f61095282610912565b915061095d83610912565b92508282039050818111156109755761097461091b565b5b92915050565b7f4e487b71000000000000000000000000000000000000000000000000000000005f52603260045260245ffd5b5f6109b282610752565b91506109bd83610752565b925082820390508181125f8412168282135f8512151617156109e2576109e161091b565b5b92915050565b7f4e487b71000000000000000000000000000000000000000000000000000000005f52601260045260245ffd5b5f610a1f82610752565b9150610a2a83610752565b925082610a3a57610a396109e8565b5b60015f0383147f800000000000000000000000000000000000000000000000000000000000000083141615610a7257610a7161091b565b5b828205905092915050565b5f610a8782610752565b9150610a9283610752565b92508282019050828112155f8312168382125f841215161715610ab857610ab761091b565b5b92915050565b5f610ac882610752565b91507f7fffffffffffffffffffffffffffffffffffffffffffffffffffffffffffffff8203610afa57610af961091b565b5b600182019050919050565b5f610b0f82610752565b91507f80000000000000000000000000000000000000000000000000000000000000008203610b4157610b4061091b565b5b60018203905091905056fea26469706673582212201b66cb5d5e55e157c0b078d56b71352004923f4f9fcd4a9abc85eae8b2cf74b764736f6c63430008160033",
					"opcodes": "PUSH1 0x80 PUSH1 0x40 MSTORE CALLVALUE DUP1 ISZERO PUSH2 0xF JUMPI PUSH0 DUP1 REVERT JUMPDEST POP PUSH2 0xB82 DUP1 PUSH2 0x1D PUSH0 CODECOPY PUSH0 RETURN INVALID PUSH1 0x80 PUSH1 0x40 MSTORE CALLVALUE DUP1 ISZERO PUSH2 0xF JUMPI PUSH0 DUP1 REVERT JUMPDEST POP PUSH1 0x4 CALLDATASIZE LT PUSH2 0x4A JUMPI PUSH0 CALLDATALOAD PUSH1 0xE0 SHR DUP1 PUSH4 0x308E8EDB EQ PUSH2 0x4E JUMPI DUP1 PUSH4 0x73DDFDFB EQ PUSH2 0x7E JUMPI DUP1 PUSH4 0xC674F26E EQ PUSH2 0xAE JUMPI DUP1 PUSH4 0xD84D04A1 EQ PUSH2 0xCA JUMPI JUMPDEST PUSH0 DUP1 REVERT JUMPDEST PUSH2 0x68 PUSH1 0x4 DUP1 CALLDATASIZE SUB DUP2 ADD SWAP1 PUSH2 0x63 SWAP2 SWAP1 PUSH2 0x6A9 JUMP JUMPDEST PUSH2 0xFA JUMP JUMPDEST PUSH1 0x40 MLOAD PUSH2 0x75 SWAP2 SWAP1 PUSH2 0x739 JUMP JUMPDEST PUSH1 0x40 MLOAD DUP1 SWAP2 SUB SWAP1 RETURN JUMPDEST PUSH2 0x98 PUSH1 0x4 DUP1 CALLDATASIZE SUB DUP2 ADD SWAP1 PUSH2 0x93 SWAP2 SWAP1 PUSH2 0x6A9 JUMP JUMPDEST PUSH2 0x152 JUMP JUMPDEST PUSH1 0x40 MLOAD PUSH2 0xA5 SWAP2 SWAP1 PUSH2 0x739 JUMP JUMPDEST PUSH1 0x40 MLOAD DUP1 SWAP2 SUB SWAP1 RETURN JUMPDEST PUSH2 0xC8 PUSH1 0x4 DUP1 CALLDATASIZE SUB DUP2 ADD SWAP1 PUSH2 0xC3 SWAP2 SWAP1 PUSH2 0x785 JUMP JUMPDEST PUSH2 0x228 JUMP JUMPDEST STOP JUMPDEST PUSH2 0xE4 PUSH1 0x4 DUP1 CALLDATASIZE SUB DUP2 ADD SWAP1 PUSH2 0xDF SWAP2 SWAP1 PUSH2 0x7F1 JUMP JUMPDEST PUSH2 0x470 JUMP JUMPDEST PUSH1 0x40 MLOAD PUSH2 0xF1 SWAP2 SWAP1 PUSH2 0x739 JUMP JUMPDEST PUSH1 0x40 MLOAD DUP1 SWAP2 SUB SWAP1 RETURN JUMPDEST PUSH0 DUP2 PUSH1 0x40 MLOAD PUSH1 0x20 ADD PUSH2 0x10C SWAP2 SWAP1 PUSH2 0x8FC JUMP JUMPDEST PUSH1 0x40 MLOAD PUSH1 0x20 DUP2 DUP4 SUB SUB DUP2 MSTORE SWAP1 PUSH1 0x40 MSTORE DUP1 MLOAD SWAP1 PUSH1 0x20 ADD KECCAK256 DUP4 PUSH1 0x40 MLOAD PUSH1 0x20 ADD PUSH2 0x133 SWAP2 SWAP1 PUSH2 0x8FC JUMP JUMPDEST PUSH1 0x40 MLOAD PUSH1 0x20 DUP2 DUP4 SUB SUB DUP2 MSTORE SWAP1 PUSH1 0x40 MSTORE DUP1 MLOAD SWAP1 PUSH1 0x20 ADD KECCAK256 EQ SWAP1 POP SWAP3 SWAP2 POP POP JUMP JUMPDEST PUSH0 DUP2 MLOAD DUP4 MLOAD EQ PUSH2 0x164 JUMPI PUSH0 SWAP1 POP PUSH2 0x222 JUMP JUMPDEST PUSH2 0x17C DUP4 PUSH0 PUSH1 0x1 DUP7 MLOAD PUSH2 0x177 SWAP2 SWAP1 PUSH2 0x948 JUMP JUMPDEST PUSH2 0x228 JUMP JUMPDEST PUSH2 0x194 DUP3 PUSH0 PUSH1 0x1 DUP6 MLOAD PUSH2 0x18F SWAP2 SWAP1 PUSH2 0x948 JUMP JUMPDEST PUSH2 0x228 JUMP JUMPDEST PUSH0 JUMPDEST DUP4 MLOAD DUP2 LT ISZERO PUSH2 0x21C JUMPI DUP3 DUP2 DUP2 MLOAD DUP2 LT PUSH2 0x1B2 JUMPI PUSH2 0x1B1 PUSH2 0x97B JUMP JUMPDEST JUMPDEST PUSH1 0x20 MUL PUSH1 0x20 ADD ADD MLOAD PUSH20 0xFFFFFFFFFFFFFFFFFFFFFFFFFFFFFFFFFFFFFFFF AND DUP5 DUP3 DUP2 MLOAD DUP2 LT PUSH2 0x1E3 JUMPI PUSH2 0x1E2 PUSH2 0x97B JUMP JUMPDEST JUMPDEST PUSH1 0x20 MUL PUSH1 0x20 ADD ADD MLOAD PUSH20 0xFFFFFFFFFFFFFFFFFFFFFFFFFFFFFFFFFFFFFFFF AND EQ PUSH2 0x20F JUMPI PUSH0 SWAP2 POP POP PUSH2 0x222 JUMP JUMPDEST DUP1 DUP1 PUSH1 0x1 ADD SWAP2 POP POP PUSH2 0x196 JUMP JUMPDEST POP PUSH1 0x1 SWAP1 POP JUMPDEST SWAP3 SWAP2 POP POP JUMP JUMPDEST PUSH0 DUP3 SWAP1 POP PUSH0 DUP3 SWAP1 POP DUP1 DUP3 SUB PUSH2 0x23E JUMPI POP POP PUSH2 0x46B JUMP JUMPDEST PUSH0 DUP6 PUSH1 0x2 DUP7 DUP7 PUSH2 0x24E SWAP2 SWAP1 PUSH2 0x9A8 JUMP JUMPDEST PUSH2 0x258 SWAP2 SWAP1 PUSH2 0xA15 JUMP JUMPDEST DUP7 PUSH2 0x263 SWAP2 SWAP1 PUSH2 0xA7D JUMP JUMPDEST DUP2 MLOAD DUP2 LT PUSH2 0x274 JUMPI PUSH2 0x273 PUSH2 0x97B JUMP JUMPDEST JUMPDEST PUSH1 0x20 MUL PUSH1 0x20 ADD ADD MLOAD SWAP1 POP JUMPDEST DUP2 DUP4 SGT PUSH2 0x43F JUMPI JUMPDEST DUP1 PUSH20 0xFFFFFFFFFFFFFFFFFFFFFFFFFFFFFFFFFFFFFFFF AND DUP7 DUP5 DUP2 MLOAD DUP2 LT PUSH2 0x2B1 JUMPI PUSH2 0x2B0 PUSH2 0x97B JUMP JUMPDEST JUMPDEST PUSH1 0x20 MUL PUSH1 0x20 ADD ADD MLOAD PUSH20 0xFFFFFFFFFFFFFFFFFFFFFFFFFFFFFFFFFFFFFFFF AND LT ISZERO PUSH2 0x2E8 JUMPI DUP3 DUP1 PUSH2 0x2E0 SWAP1 PUSH2 0xABE JUMP JUMPDEST SWAP4 POP POP PUSH2 0x287 JUMP JUMPDEST JUMPDEST DUP6 DUP3 DUP2 MLOAD DUP2 LT PUSH2 0x2FC JUMPI PUSH2 0x2FB PUSH2 0x97B JUMP JUMPDEST JUMPDEST PUSH1 0x20 MUL PUSH1 0x20 ADD ADD MLOAD PUSH20 0xFFFFFFFFFFFFFFFFFFFFFFFFFFFFFFFFFFFFFFFF AND DUP2 PUSH20 0xFFFFFFFFFFFFFFFFFFFFFFFFFFFFFFFFFFFFFFFF AND LT ISZERO PUSH2 0x34A JUMPI DUP2 DUP1 PUSH2 0x342 SWAP1 PUSH2 0xB05 JUMP JUMPDEST SWAP3 POP POP PUSH2 0x2E9 JUMP JUMPDEST DUP2 DUP4 SGT PUSH2 0x43A JUMPI DUP6 DUP3 DUP2 MLOAD DUP2 LT PUSH2 0x364 JUMPI PUSH2 0x363 PUSH2 0x97B JUMP JUMPDEST JUMPDEST PUSH1 0x20 MUL PUSH1 0x20 ADD ADD MLOAD DUP7 DUP5 DUP2 MLOAD DUP2 LT PUSH2 0x37F JUMPI PUSH2 0x37E PUSH2 0x97B JUMP JUMPDEST JUMPDEST PUSH1 0x20 MUL PUSH1 0x20 ADD ADD MLOAD DUP8 DUP6 DUP2 MLOAD DUP2 LT PUSH2 0x39A JUMPI PUSH2 0x399 PUSH2 0x97B JUMP JUMPDEST JUMPDEST PUSH1 0x20 MUL PUSH1 0x20 ADD ADD DUP9 DUP6 DUP2 MLOAD DUP2 LT PUSH2 0x3B4 JUMPI PUSH2 0x3B3 PUSH2 0x97B JUMP JUMPDEST JUMPDEST PUSH1 0x20 MUL PUSH1 0x20 ADD ADD DUP3 PUSH20 0xFFFFFFFFFFFFFFFFFFFFFFFFFFFFFFFFFFFFFFFF AND PUSH20 0xFFFFFFFFFFFFFFFFFFFFFFFFFFFFFFFFFFFFFFFF AND DUP2 MSTORE POP DUP3 PUSH20 0xFFFFFFFFFFFFFFFFFFFFFFFFFFFFFFFFFFFFFFFF AND PUSH20 0xFFFFFFFFFFFFFFFFFFFFFFFFFFFFFFFFFFFFFFFF AND DUP2 MSTORE POP POP POP DUP3 DUP1 PUSH2 0x428 SWAP1 PUSH2 0xABE JUMP JUMPDEST SWAP4 POP POP DUP2 DUP1 PUSH2 0x436 SWAP1 PUSH2 0xB05 JUMP JUMPDEST SWAP3 POP POP JUMPDEST PUSH2 0x27F JUMP JUMPDEST DUP2 DUP6 SLT ISZERO PUSH2 0x453 JUMPI PUSH2 0x452 DUP7 DUP7 DUP5 PUSH2 0x228 JUMP JUMPDEST JUMPDEST DUP4 DUP4 SLT ISZERO PUSH2 0x467 JUMPI PUSH2 0x466 DUP7 DUP5 DUP7 PUSH2 0x228 JUMP JUMPDEST JUMPDEST POP POP POP JUMPDEST POP POP POP JUMP JUMPDEST PUSH0 DUP1 PUSH0 SWAP1 POP JUMPDEST DUP3 MLOAD DUP2 LT ISZERO PUSH2 0x4E3 JUMPI DUP4 PUSH20 0xFFFFFFFFFFFFFFFFFFFFFFFFFFFFFFFFFFFFFFFF AND DUP4 DUP3 DUP2 MLOAD DUP2 LT PUSH2 0x4A9 JUMPI PUSH2 0x4A8 PUSH2 0x97B JUMP JUMPDEST JUMPDEST PUSH1 0x20 MUL PUSH1 0x20 ADD ADD MLOAD PUSH20 0xFFFFFFFFFFFFFFFFFFFFFFFFFFFFFFFFFFFFFFFF AND SUB PUSH2 0x4D6 JUMPI PUSH1 0x1 SWAP2 POP POP PUSH2 0x4E8 JUMP JUMPDEST DUP1 DUP1 PUSH1 0x1 ADD SWAP2 POP POP PUSH2 0x476 JUMP JUMPDEST POP PUSH0 SWAP1 POP JUMPDEST SWAP3 SWAP2 POP POP JUMP JUMPDEST PUSH0 PUSH1 0x40 MLOAD SWAP1 POP SWAP1 JUMP JUMPDEST PUSH0 DUP1 REVERT JUMPDEST PUSH0 DUP1 REVERT JUMPDEST PUSH0 DUP1 REVERT JUMPDEST PUSH0 PUSH1 0x1F NOT PUSH1 0x1F DUP4 ADD AND SWAP1 POP SWAP2 SWAP1 POP JUMP JUMPDEST PUSH32 0x4E487B7100000000000000000000000000000000000000000000000000000000 PUSH0 MSTORE PUSH1 0x41 PUSH1 0x4 MSTORE PUSH1 0x24 PUSH0 REVERT JUMPDEST PUSH2 0x549 DUP3 PUSH2 0x503 JUMP JUMPDEST DUP2 ADD DUP2 DUP2 LT PUSH8 0xFFFFFFFFFFFFFFFF DUP3 GT OR ISZERO PUSH2 0x568 JUMPI PUSH2 0x567 PUSH2 0x513 JUMP JUMPDEST JUMPDEST DUP1 PUSH1 0x40 MSTORE POP POP POP JUMP JUMPDEST PUSH0 PUSH2 0x57A PUSH2 0x4EE JUMP JUMPDEST SWAP1 POP PUSH2 0x586 DUP3 DUP3 PUSH2 0x540 JUMP JUMPDEST SWAP2 SWAP1 POP JUMP JUMPDEST PUSH0 PUSH8 0xFFFFFFFFFFFFFFFF DUP3 GT ISZERO PUSH2 0x5A5 JUMPI PUSH2 0x5A4 PUSH2 0x513 JUMP JUMPDEST JUMPDEST PUSH1 0x20 DUP3 MUL SWAP1 POP PUSH1 0x20 DUP2 ADD SWAP1 POP SWAP2 SWAP1 POP JUMP JUMPDEST PUSH0 DUP1 REVERT JUMPDEST PUSH0 PUSH20 0xFFFFFFFFFFFFFFFFFFFFFFFFFFFFFFFFFFFFFFFF DUP3 AND SWAP1 POP SWAP2 SWAP1 POP JUMP JUMPDEST PUSH0 PUSH2 0x5E3 DUP3 PUSH2 0x5BA JUMP JUMPDEST SWAP1 POP SWAP2 SWAP1 POP JUMP JUMPDEST PUSH2 0x5F3 DUP2 PUSH2 0x5D9 JUMP JUMPDEST DUP2 EQ PUSH2 0x5FD JUMPI PUSH0 DUP1 REVERT JUMPDEST POP JUMP JUMPDEST PUSH0 DUP2 CALLDATALOAD SWAP1 POP PUSH2 0x60E DUP2 PUSH2 0x5EA JUMP JUMPDEST SWAP3 SWAP2 POP POP JUMP JUMPDEST PUSH0 PUSH2 0x626 PUSH2 0x621 DUP5 PUSH2 0x58B JUMP JUMPDEST PUSH2 0x571 JUMP JUMPDEST SWAP1 POP DUP1 DUP4 DUP3 MSTORE PUSH1 0x20 DUP3 ADD SWAP1 POP PUSH1 0x20 DUP5 MUL DUP4 ADD DUP6 DUP2 GT ISZERO PUSH2 0x649 JUMPI PUSH2 0x648 PUSH2 0x5B6 JUMP JUMPDEST JUMPDEST DUP4 JUMPDEST DUP2 DUP2 LT ISZERO PUSH2 0x672 JUMPI DUP1 PUSH2 0x65E DUP9 DUP3 PUSH2 0x600 JUMP JUMPDEST DUP5 MSTORE PUSH1 0x20 DUP5 ADD SWAP4 POP POP PUSH1 0x20 DUP2 ADD SWAP1 POP PUSH2 0x64B JUMP JUMPDEST POP POP POP SWAP4 SWAP3 POP POP POP JUMP JUMPDEST PUSH0 DUP3 PUSH1 0x1F DUP4 ADD SLT PUSH2 0x690 JUMPI PUSH2 0x68F PUSH2 0x4FF JUMP JUMPDEST JUMPDEST DUP2 CALLDATALOAD PUSH2 0x6A0 DUP5 DUP3 PUSH1 0x20 DUP7 ADD PUSH2 0x614 JUMP JUMPDEST SWAP2 POP POP SWAP3 SWAP2 POP POP JUMP JUMPDEST PUSH0 DUP1 PUSH1 0x40 DUP4 DUP6 SUB SLT ISZERO PUSH2 0x6BF JUMPI PUSH2 0x6BE PUSH2 0x4F7 JUMP JUMPDEST JUMPDEST PUSH0 DUP4 ADD CALLDATALOAD PUSH8 0xFFFFFFFFFFFFFFFF DUP2 GT ISZERO PUSH2 0x6DC JUMPI PUSH2 0x6DB PUSH2 0x4FB JUMP JUMPDEST JUMPDEST PUSH2 0x6E8 DUP6 DUP3 DUP7 ADD PUSH2 0x67C JUMP JUMPDEST SWAP3 POP POP PUSH1 0x20 DUP4 ADD CALLDATALOAD PUSH8 0xFFFFFFFFFFFFFFFF DUP2 GT ISZERO PUSH2 0x709 JUMPI PUSH2 0x708 PUSH2 0x4FB JUMP JUMPDEST JUMPDEST PUSH2 0x715 DUP6 DUP3 DUP7 ADD PUSH2 0x67C JUMP JUMPDEST SWAP2 POP POP SWAP3 POP SWAP3 SWAP1 POP JUMP JUMPDEST PUSH0 DUP2 ISZERO ISZERO SWAP1 POP SWAP2 SWAP1 POP JUMP JUMPDEST PUSH2 0x733 DUP2 PUSH2 0x71F JUMP JUMPDEST DUP3 MSTORE POP POP JUMP JUMPDEST PUSH0 PUSH1 0x20 DUP3 ADD SWAP1 POP PUSH2 0x74C PUSH0 DUP4 ADD DUP5 PUSH2 0x72A JUMP JUMPDEST SWAP3 SWAP2 POP POP JUMP JUMPDEST PUSH0 DUP2 SWAP1 POP SWAP2 SWAP1 POP JUMP JUMPDEST PUSH2 0x764 DUP2 PUSH2 0x752 JUMP JUMPDEST DUP2 EQ PUSH2 0x76E JUMPI PUSH0 DUP1 REVERT JUMPDEST POP JUMP JUMPDEST PUSH0 DUP2 CALLDATALOAD SWAP1 POP PUSH2 0x77F DUP2 PUSH2 0x75B JUMP JUMPDEST SWAP3 SWAP2 POP POP JUMP JUMPDEST PUSH0 DUP1 PUSH0 PUSH1 0x60 DUP5 DUP7 SUB SLT ISZERO PUSH2 0x79C JUMPI PUSH2 0x79B PUSH2 0x4F7 JUMP JUMPDEST JUMPDEST PUSH0 DUP5 ADD CALLDATALOAD PUSH8 0xFFFFFFFFFFFFFFFF DUP2 GT ISZERO PUSH2 0x7B9 JUMPI PUSH2 0x7B8 PUSH2 0x4FB JUMP JUMPDEST JUMPDEST PUSH2 0x7C5 DUP7 DUP3 DUP8 ADD PUSH2 0x67C JUMP JUMPDEST SWAP4 POP POP PUSH1 0x20 PUSH2 0x7D6 DUP7 DUP3 DUP8 ADD PUSH2 0x771 JUMP JUMPDEST SWAP3 POP POP PUSH1 0x40 PUSH2 0x7E7 DUP7 DUP3 DUP8 ADD PUSH2 0x771 JUMP JUMPDEST SWAP2 POP POP SWAP3 POP SWAP3 POP SWAP3 JUMP JUMPDEST PUSH0 DUP1 PUSH1 0x40 DUP4 DUP6 SUB SLT ISZERO PUSH2 0x807 JUMPI PUSH2 0x806 PUSH2 0x4F7 JUMP JUMPDEST JUMPDEST PUSH0 PUSH2 0x814 DUP6 DUP3 DUP7 ADD PUSH2 0x600 JUMP JUMPDEST SWAP3 POP POP PUSH1 0x20 DUP4 ADD CALLDATALOAD PUSH8 0xFFFFFFFFFFFFFFFF DUP2 GT ISZERO PUSH2 0x835 JUMPI PUSH2 0x834 PUSH2 0x4FB JUMP JUMPDEST JUMPDEST PUSH2 0x841 DUP6 DUP3 DUP7 ADD PUSH2 0x67C JUMP JUMPDEST SWAP2 POP POP SWAP3 POP SWAP3 SWAP1 POP JUMP JUMPDEST PUSH0 DUP2 MLOAD SWAP1 POP SWAP2 SWAP1 POP JUMP JUMPDEST PUSH0 DUP2 SWAP1 POP SWAP3 SWAP2 POP POP JUMP JUMPDEST PUSH0 DUP2 SWAP1 POP PUSH1 0x20 DUP3 ADD SWAP1 POP SWAP2 SWAP1 POP JUMP JUMPDEST PUSH2 0x877 DUP2 PUSH2 0x5D9 JUMP JUMPDEST DUP3 MSTORE POP POP JUMP JUMPDEST PUSH0 PUSH2 0x888 DUP4 DUP4 PUSH2 0x86E JUMP JUMPDEST PUSH1 0x20 DUP4 ADD SWAP1 POP SWAP3 SWAP2 POP POP JUMP JUMPDEST PUSH0 PUSH1 0x20 DUP3 ADD SWAP1 POP SWAP2 SWAP1 POP JUMP JUMPDEST PUSH0 PUSH2 0x8AA DUP3 PUSH2 0x84B JUMP JUMPDEST PUSH2 0x8B4 DUP2 DUP6 PUSH2 0x855 JUMP JUMPDEST SWAP4 POP PUSH2 0x8BF DUP4 PUSH2 0x85F JUMP JUMPDEST DUP1 PUSH0 JUMPDEST DUP4 DUP2 LT ISZERO PUSH2 0x8EF JUMPI DUP2 MLOAD PUSH2 0x8D6 DUP9 DUP3 PUSH2 0x87D JUMP JUMPDEST SWAP8 POP PUSH2 0x8E1 DUP4 PUSH2 0x894 JUMP JUMPDEST SWAP3 POP POP PUSH1 0x1 DUP2 ADD SWAP1 POP PUSH2 0x8C2 JUMP JUMPDEST POP DUP6 SWAP4 POP POP POP POP SWAP3 SWAP2 POP POP JUMP JUMPDEST PUSH0 PUSH2 0x907 DUP3 DUP5 PUSH2 0x8A0 JUMP JUMPDEST SWAP2 POP DUP2 SWAP1 POP SWAP3 SWAP2 POP POP JUMP JUMPDEST PUSH0 DUP2 SWAP1 POP SWAP2 SWAP1 POP JUMP JUMPDEST PUSH32 0x4E487B7100000000000000000000000000000000000000000000000000000000 PUSH0 MSTORE PUSH1 0x11 PUSH1 0x4 MSTORE PUSH1 0x24 PUSH0 REVERT JUMPDEST PUSH0 PUSH2 0x952 DUP3 PUSH2 0x912 JUMP JUMPDEST SWAP2 POP PUSH2 0x95D DUP4 PUSH2 0x912 JUMP JUMPDEST SWAP3 POP DUP3 DUP3 SUB SWAP1 POP DUP2 DUP2 GT ISZERO PUSH2 0x975 JUMPI PUSH2 0x974 PUSH2 0x91B JUMP JUMPDEST JUMPDEST SWAP3 SWAP2 POP POP JUMP JUMPDEST PUSH32 0x4E487B7100000000000000000000000000000000000000000000000000000000 PUSH0 MSTORE PUSH1 0x32 PUSH1 0x4 MSTORE PUSH1 0x24 PUSH0 REVERT JUMPDEST PUSH0 PUSH2 0x9B2 DUP3 PUSH2 0x752 JUMP JUMPDEST SWAP2 POP PUSH2 0x9BD DUP4 PUSH2 0x752 JUMP JUMPDEST SWAP3 POP DUP3 DUP3 SUB SWAP1 POP DUP2 DUP2 SLT PUSH0 DUP5 SLT AND DUP3 DUP3 SGT PUSH0 DUP6 SLT ISZERO AND OR ISZERO PUSH2 0x9E2 JUMPI PUSH2 0x9E1 PUSH2 0x91B JUMP JUMPDEST JUMPDEST SWAP3 SWAP2 POP POP JUMP JUMPDEST PUSH32 0x4E487B7100000000000000000000000000000000000000000000000000000000 PUSH0 MSTORE PUSH1 0x12 PUSH1 0x4 MSTORE PUSH1 0x24 PUSH0 REVERT JUMPDEST PUSH0 PUSH2 0xA1F DUP3 PUSH2 0x752 JUMP JUMPDEST SWAP2 POP PUSH2 0xA2A DUP4 PUSH2 0x752 JUMP JUMPDEST SWAP3 POP DUP3 PUSH2 0xA3A JUMPI PUSH2 0xA39 PUSH2 0x9E8 JUMP JUMPDEST JUMPDEST PUSH1 0x1 PUSH0 SUB DUP4 EQ PUSH32 0x8000000000000000000000000000000000000000000000000000000000000000 DUP4 EQ AND ISZERO PUSH2 0xA72 JUMPI PUSH2 0xA71 PUSH2 0x91B JUMP JUMPDEST JUMPDEST DUP3 DUP3 SDIV SWAP1 POP SWAP3 SWAP2 POP POP JUMP JUMPDEST PUSH0 PUSH2 0xA87 DUP3 PUSH2 0x752 JUMP JUMPDEST SWAP2 POP PUSH2 0xA92 DUP4 PUSH2 0x752 JUMP JUMPDEST SWAP3 POP DUP3 DUP3 ADD SWAP1 POP DUP3 DUP2 SLT ISZERO PUSH0 DUP4 SLT AND DUP4 DUP3 SLT PUSH0 DUP5 SLT ISZERO AND OR ISZERO PUSH2 0xAB8 JUMPI PUSH2 0xAB7 PUSH2 0x91B JUMP JUMPDEST JUMPDEST SWAP3 SWAP2 POP POP JUMP JUMPDEST PUSH0 PUSH2 0xAC8 DUP3 PUSH2 0x752 JUMP JUMPDEST SWAP2 POP PUSH32 0x7FFFFFFFFFFFFFFFFFFFFFFFFFFFFFFFFFFFFFFFFFFFFFFFFFFFFFFFFFFFFFFF DUP3 SUB PUSH2 0xAFA JUMPI PUSH2 0xAF9 PUSH2 0x91B JUMP JUMPDEST JUMPDEST PUSH1 0x1 DUP3 ADD SWAP1 POP SWAP2 SWAP1 POP JUMP JUMPDEST PUSH0 PUSH2 0xB0F DUP3 PUSH2 0x752 JUMP JUMPDEST SWAP2 POP PUSH32 0x8000000000000000000000000000000000000000000000000000000000000000 DUP3 SUB PUSH2 0xB41 JUMPI PUSH2 0xB40 PUSH2 0x91B JUMP JUMPDEST JUMPDEST PUSH1 0x1 DUP3 SUB SWAP1 POP SWAP2 SWAP1 POP JUMP INVALID LOG2 PUSH5 0x6970667358 0x22 SLT KECCAK256 SHL PUSH7 0xCB5D5E55E157C0 0xB0 PUSH25 0xD56B71352004923F4F9FCD4A9ABC85EAE8B2CF74B764736F6C PUSH4 0x43000816 STOP CALLER "
				},
				"gasEstimates": {
					"creation": {
						"codeDepositCost": "589200",
						"executionCost": "623",
						"totalCost": "589823"
					},
					"external": {
						"areEqual(address[],address[])": "infinite",
						"arraysAreEqualUsingHash(address[],address[])": "infinite",
						"contains(address,address[])": "infinite",
						"quickSort(address[],int256,int256)": "infinite"
					},
					"internal": {
						"addressToString(address)": "infinite",
						"concatenateStings(string memory,string memory)": "infinite",
						"createMappingKey(address,address)": "infinite",
						"toHash(string memory)": "infinite"
					}
				},
				"methodIdentifiers": {
					"areEqual(address[],address[])": "73ddfdfb",
					"arraysAreEqualUsingHash(address[],address[])": "308e8edb",
					"contains(address,address[])": "d84d04a1",
					"quickSort(address[],int256,int256)": "c674f26e"
				}
			},
			"storageLayout": {
				"storage": [],
				"types": null
			},
			"userdoc": {
				"kind": "user",
				"methods": {},
				"version": 1
			}
		}
	}
}