{
	"contracts/Marriage.sol": {
		"Marriage": {
			"abi": [
				{
					"inputs": [
						{
							"internalType": "bytes32",
							"name": "_id",
							"type": "bytes32"
						},
						{
							"internalType": "address[]",
							"name": "_addresses",
							"type": "address[]"
						},
						{
							"internalType": "string",
							"name": "_agreement",
							"type": "string"
						}
					],
					"name": "createContract",
					"outputs": [],
					"stateMutability": "nonpayable",
					"type": "function"
				},
				{
					"inputs": [
						{
							"internalType": "bytes32",
							"name": "_id",
							"type": "bytes32"
						}
					],
					"name": "getDetails",
					"outputs": [
						{
							"components": [
								{
									"internalType": "address[]",
									"name": "addresses",
									"type": "address[]"
								},
								{
									"internalType": "address[]",
									"name": "confirmed",
									"type": "address[]"
								},
								{
									"internalType": "uint8",
									"name": "status",
									"type": "uint8"
								},
								{
									"internalType": "uint256",
									"name": "date",
									"type": "uint256"
								},
								{
									"internalType": "string",
									"name": "agreement",
									"type": "string"
								}
							],
							"internalType": "struct Marriage.Details",
							"name": "",
							"type": "tuple"
						}
					],
					"stateMutability": "view",
					"type": "function"
				},
				{
					"inputs": [
						{
							"internalType": "address",
							"name": "_address",
							"type": "address"
						}
					],
					"name": "getIds",
					"outputs": [
						{
							"internalType": "bytes32[]",
							"name": "",
							"type": "bytes32[]"
						}
					],
					"stateMutability": "view",
					"type": "function"
				}
			],
			"devdoc": {
				"kind": "dev",
				"methods": {},
				"version": 1
			},
			"evm": {
				"assembly": "    /* \"contracts/Marriage.sol\":58:3437  contract Marriage {... */\n  mstore(0x40, 0x80)\n  callvalue\n  dup1\n  iszero\n  tag_1\n  jumpi\n  0x00\n  dup1\n  revert\ntag_1:\n  pop\n  dataSize(sub_0)\n  dup1\n  dataOffset(sub_0)\n  0x00\n  codecopy\n  0x00\n  return\nstop\n\nsub_0: assembly {\n        /* \"contracts/Marriage.sol\":58:3437  contract Marriage {... */\n      mstore(0x40, 0x80)\n      callvalue\n      dup1\n      iszero\n      tag_1\n      jumpi\n      0x00\n      dup1\n      revert\n    tag_1:\n      pop\n      jumpi(tag_2, lt(calldatasize, 0x04))\n      shr(0xe0, calldataload(0x00))\n      dup1\n      0x2671b0d8\n      eq\n      tag_3\n      jumpi\n      dup1\n      0x984bc700\n      eq\n      tag_4\n      jumpi\n      dup1\n      0xc3a47879\n      eq\n      tag_5\n      jumpi\n    tag_2:\n      0x00\n      dup1\n      revert\n        /* \"contracts/Marriage.sol\":493:611  function getIds(address _address) public view returns (bytes32[] memory){... */\n    tag_3:\n      tag_6\n      0x04\n      dup1\n      calldatasize\n      sub\n      dup2\n      add\n      swap1\n      tag_7\n      swap2\n      swap1\n      tag_8\n      jump\t// in\n    tag_7:\n      tag_9\n      jump\t// in\n    tag_6:\n      mload(0x40)\n      tag_10\n      swap2\n      swap1\n      tag_11\n      jump\t// in\n    tag_10:\n      mload(0x40)\n      dup1\n      swap2\n      sub\n      swap1\n      return\n        /* \"contracts/Marriage.sol\":374:483  function getDetails(bytes32 _id) public view returns (Details memory){... */\n    tag_4:\n      tag_12\n      0x04\n      dup1\n      calldatasize\n      sub\n      dup2\n      add\n      swap1\n      tag_13\n      swap2\n      swap1\n      tag_14\n      jump\t// in\n    tag_13:\n      tag_15\n      jump\t// in\n    tag_12:\n      mload(0x40)\n      tag_16\n      swap2\n      swap1\n      tag_17\n      jump\t// in\n    tag_16:\n      mload(0x40)\n      dup1\n      swap2\n      sub\n      swap1\n      return\n        /* \"contracts/Marriage.sol\":618:1586  function createContract(bytes32 _id, address[] memory _addresses, string memory _agreement ) public  {... */\n    tag_5:\n      tag_18\n      0x04\n      dup1\n      calldatasize\n      sub\n      dup2\n      add\n      swap1\n      tag_19\n      swap2\n      swap1\n      tag_20\n      jump\t// in\n    tag_19:\n      tag_21\n      jump\t// in\n    tag_18:\n      stop\n        /* \"contracts/Marriage.sol\":493:611  function getIds(address _address) public view returns (bytes32[] memory){... */\n    tag_9:\n        /* \"contracts/Marriage.sol\":548:564  bytes32[] memory */\n      0x60\n        /* \"contracts/Marriage.sol\":582:594  idsByAddress */\n      0x06\n        /* \"contracts/Marriage.sol\":582:604  idsByAddress[_address] */\n      0x00\n        /* \"contracts/Marriage.sol\":595:603  _address */\n      dup4\n        /* \"contracts/Marriage.sol\":582:604  idsByAddress[_address] */\n      0xffffffffffffffffffffffffffffffffffffffff\n      and\n      0xffffffffffffffffffffffffffffffffffffffff\n      and\n      dup2\n      mstore\n      0x20\n      add\n      swap1\n      dup2\n      mstore\n      0x20\n      add\n      0x00\n      keccak256\n        /* \"contracts/Marriage.sol\":575:604  return idsByAddress[_address] */\n      dup1\n      sload\n      dup1\n      0x20\n      mul\n      0x20\n      add\n      mload(0x40)\n      swap1\n      dup2\n      add\n      0x40\n      mstore\n      dup1\n      swap3\n      swap2\n      swap1\n      dup2\n      dup2\n      mstore\n      0x20\n      add\n      dup3\n      dup1\n      sload\n      dup1\n      iszero\n      tag_23\n      jumpi\n      0x20\n      mul\n      dup3\n      add\n      swap2\n      swap1\n      0x00\n      mstore\n      keccak256(0x00, 0x20)\n      swap1\n    tag_24:\n      dup2\n      sload\n      dup2\n      mstore\n      0x20\n      add\n      swap1\n      0x01\n      add\n      swap1\n      dup1\n      dup4\n      gt\n      tag_24\n      jumpi\n    tag_23:\n      pop\n      pop\n      pop\n      pop\n      pop\n      swap1\n      pop\n        /* \"contracts/Marriage.sol\":493:611  function getIds(address _address) public view returns (bytes32[] memory){... */\n      swap2\n      swap1\n      pop\n      jump\t// out\n        /* \"contracts/Marriage.sol\":374:483  function getDetails(bytes32 _id) public view returns (Details memory){... */\n    tag_15:\n        /* \"contracts/Marriage.sol\":428:442  Details memory */\n      tag_25\n      tag_26\n      jump\t// in\n    tag_25:\n        /* \"contracts/Marriage.sol\":460:471  detailsById */\n      0x05\n        /* \"contracts/Marriage.sol\":460:476  detailsById[_id] */\n      0x00\n        /* \"contracts/Marriage.sol\":472:475  _id */\n      dup4\n        /* \"contracts/Marriage.sol\":460:476  detailsById[_id] */\n      dup2\n      mstore\n      0x20\n      add\n      swap1\n      dup2\n      mstore\n      0x20\n      add\n      0x00\n      keccak256\n        /* \"contracts/Marriage.sol\":453:476  return detailsById[_id] */\n      mload(0x40)\n      dup1\n      0xa0\n      add\n      0x40\n      mstore\n      swap1\n      dup2\n      0x00\n      dup3\n      add\n      dup1\n      sload\n      dup1\n      0x20\n      mul\n      0x20\n      add\n      mload(0x40)\n      swap1\n      dup2\n      add\n      0x40\n      mstore\n      dup1\n      swap3\n      swap2\n      swap1\n      dup2\n      dup2\n      mstore\n      0x20\n      add\n      dup3\n      dup1\n      sload\n      dup1\n      iszero\n      tag_28\n      jumpi\n      0x20\n      mul\n      dup3\n      add\n      swap2\n      swap1\n      0x00\n      mstore\n      keccak256(0x00, 0x20)\n      swap1\n    tag_29:\n      dup2\n      0x00\n      swap1\n      sload\n      swap1\n      0x0100\n      exp\n      swap1\n      div\n      0xffffffffffffffffffffffffffffffffffffffff\n      and\n      0xffffffffffffffffffffffffffffffffffffffff\n      and\n      dup2\n      mstore\n      0x20\n      add\n      swap1\n      0x01\n      add\n      swap1\n      dup1\n      dup4\n      gt\n      tag_29\n      jumpi\n    tag_28:\n      pop\n      pop\n      pop\n      pop\n      pop\n      dup2\n      mstore\n      0x20\n      add\n      0x01\n      dup3\n      add\n      dup1\n      sload\n      dup1\n      0x20\n      mul\n      0x20\n      add\n      mload(0x40)\n      swap1\n      dup2\n      add\n      0x40\n      mstore\n      dup1\n      swap3\n      swap2\n      swap1\n      dup2\n      dup2\n      mstore\n      0x20\n      add\n      dup3\n      dup1\n      sload\n      dup1\n      iszero\n      tag_30\n      jumpi\n      0x20\n      mul\n      dup3\n      add\n      swap2\n      swap1\n      0x00\n      mstore\n      keccak256(0x00, 0x20)\n      swap1\n    tag_31:\n      dup2\n      0x00\n      swap1\n      sload\n      swap1\n      0x0100\n      exp\n      swap1\n      div\n      0xffffffffffffffffffffffffffffffffffffffff\n      and\n      0xffffffffffffffffffffffffffffffffffffffff\n      and\n      dup2\n      mstore\n      0x20\n      add\n      swap1\n      0x01\n      add\n      swap1\n      dup1\n      dup4\n      gt\n      tag_31\n      jumpi\n    tag_30:\n      pop\n      pop\n      pop\n      pop\n      pop\n      dup2\n      mstore\n      0x20\n      add\n      0x02\n      dup3\n      add\n      0x00\n      swap1\n      sload\n      swap1\n      0x0100\n      exp\n      swap1\n      div\n      0xff\n      and\n      0xff\n      and\n      0xff\n      and\n      dup2\n      mstore\n      0x20\n      add\n      0x03\n      dup3\n      add\n      sload\n      dup2\n      mstore\n      0x20\n      add\n      0x04\n      dup3\n      add\n      dup1\n      sload\n      tag_32\n      swap1\n      tag_33\n      jump\t// in\n    tag_32:\n      dup1\n      0x1f\n      add\n      0x20\n      dup1\n      swap2\n      div\n      mul\n      0x20\n      add\n      mload(0x40)\n      swap1\n      dup2\n      add\n      0x40\n      mstore\n      dup1\n      swap3\n      swap2\n      swap1\n      dup2\n      dup2\n      mstore\n      0x20\n      add\n      dup3\n      dup1\n      sload\n      tag_34\n      swap1\n      tag_33\n      jump\t// in\n    tag_34:\n      dup1\n      iszero\n      tag_35\n      jumpi\n      dup1\n      0x1f\n      lt\n      tag_36\n      jumpi\n      0x0100\n      dup1\n      dup4\n      sload\n      div\n      mul\n      dup4\n      mstore\n      swap2\n      0x20\n      add\n      swap2\n      jump(tag_35)\n    tag_36:\n      dup3\n      add\n      swap2\n      swap1\n      0x00\n      mstore\n      keccak256(0x00, 0x20)\n      swap1\n    tag_37:\n      dup2\n      sload\n      dup2\n      mstore\n      swap1\n      0x01\n      add\n      swap1\n      0x20\n      add\n      dup1\n      dup4\n      gt\n      tag_37\n      jumpi\n      dup3\n      swap1\n      sub\n      0x1f\n      and\n      dup3\n      add\n      swap2\n    tag_35:\n      pop\n      pop\n      pop\n      pop\n      pop\n      dup2\n      mstore\n      pop\n      pop\n      swap1\n      pop\n        /* \"contracts/Marriage.sol\":374:483  function getDetails(bytes32 _id) public view returns (Details memory){... */\n      swap2\n      swap1\n      pop\n      jump\t// out\n        /* \"contracts/Marriage.sol\":618:1586  function createContract(bytes32 _id, address[] memory _addresses, string memory _agreement ) public  {... */\n    tag_21:\n        /* \"contracts/Marriage.sol\":740:806  0x0000000000000000000000000000000000000000000000000000000000000000 */\n      0x00\n        /* \"contracts/Marriage.sol\":733:806  _id == 0x0000000000000000000000000000000000000000000000000000000000000000 */\n      dup1\n      shl\n        /* \"contracts/Marriage.sol\":733:736  _id */\n      dup4\n        /* \"contracts/Marriage.sol\":733:806  _id == 0x0000000000000000000000000000000000000000000000000000000000000000 */\n      sub\n        /* \"contracts/Marriage.sol\":730:1372  if(_id == 0x0000000000000000000000000000000000000000000000000000000000000000){... */\n      tag_39\n      jumpi\n        /* \"contracts/Marriage.sol\":827:855  createIdentifier(_addresses) */\n      tag_40\n        /* \"contracts/Marriage.sol\":844:854  _addresses */\n      dup3\n        /* \"contracts/Marriage.sol\":827:843  createIdentifier */\n      tag_41\n        /* \"contracts/Marriage.sol\":827:855  createIdentifier(_addresses) */\n      jump\t// in\n    tag_40:\n        /* \"contracts/Marriage.sol\":821:855  _id = createIdentifier(_addresses) */\n      swap3\n      pop\n        /* \"contracts/Marriage.sol\":873:884  detailsById */\n      0x05\n        /* \"contracts/Marriage.sol\":873:889  detailsById[_id] */\n      0x00\n        /* \"contracts/Marriage.sol\":885:888  _id */\n      dup5\n        /* \"contracts/Marriage.sol\":873:889  detailsById[_id] */\n      dup2\n      mstore\n      0x20\n      add\n      swap1\n      dup2\n      mstore\n      0x20\n      add\n      0x00\n      keccak256\n        /* \"contracts/Marriage.sol\":869:870  d */\n      0x00\n        /* \"contracts/Marriage.sol\":869:889  d = detailsById[_id] */\n      dup1\n      dup3\n      add\n      dup2\n      0x00\n      add\n      swap1\n      dup1\n      sload\n      tag_42\n      swap3\n      swap2\n      swap1\n      tag_43\n      jump\t// in\n    tag_42:\n      pop\n      0x01\n      dup3\n      add\n      dup2\n      0x01\n      add\n      swap1\n      dup1\n      sload\n      tag_44\n      swap3\n      swap2\n      swap1\n      tag_43\n      jump\t// in\n    tag_44:\n      pop\n      0x02\n      dup3\n      add\n      0x00\n      swap1\n      sload\n      swap1\n      0x0100\n      exp\n      swap1\n      div\n      0xff\n      and\n      dup2\n      0x02\n      add\n      exp(0x0100, 0x00)\n      dup2\n      sload\n      dup2\n      0xff\n      mul\n      not\n      and\n      swap1\n      dup4\n      0xff\n      and\n      mul\n      or\n      swap1\n      sstore\n      pop\n      0x03\n      dup3\n      add\n      sload\n      dup2\n      0x03\n      add\n      sstore\n      0x04\n      dup3\n      add\n      dup2\n      0x04\n      add\n      swap1\n      dup2\n      tag_45\n      swap2\n      swap1\n      tag_46\n      jump\t// in\n    tag_45:\n      pop\n      swap1\n      pop\n      pop\n        /* \"contracts/Marriage.sol\":917:927  _addresses */\n      dup2\n        /* \"contracts/Marriage.sol\":903:904  d */\n      0x00\n        /* \"contracts/Marriage.sol\":903:914  d.addresses */\n      dup1\n      add\n        /* \"contracts/Marriage.sol\":903:927  d.addresses = _addresses */\n      swap1\n      dup1\n      mload\n      swap1\n      0x20\n      add\n      swap1\n      tag_47\n      swap3\n      swap2\n      swap1\n      tag_48\n      jump\t// in\n    tag_47:\n      pop\n        /* \"contracts/Marriage.sol\":941:967  d.confirmed = [msg.sender] */\n      mload(0x40)\n      dup1\n      0x20\n      add\n      0x40\n      mstore\n      dup1\n        /* \"contracts/Marriage.sol\":956:966  msg.sender */\n      caller\n        /* \"contracts/Marriage.sol\":941:967  d.confirmed = [msg.sender] */\n      0xffffffffffffffffffffffffffffffffffffffff\n      and\n      0xffffffffffffffffffffffffffffffffffffffff\n      and\n      dup2\n      mstore\n      pop\n        /* \"contracts/Marriage.sol\":941:942  d */\n      0x00\n        /* \"contracts/Marriage.sol\":941:952  d.confirmed */\n      0x01\n      add\n        /* \"contracts/Marriage.sol\":941:967  d.confirmed = [msg.sender] */\n      swap1\n      0x01\n      tag_49\n      swap3\n      swap2\n      swap1\n      tag_50\n      jump\t// in\n    tag_49:\n      pop\n        /* \"contracts/Marriage.sol\":992:993  0 */\n      0x00\n        /* \"contracts/Marriage.sol\":981:982  d */\n      dup1\n        /* \"contracts/Marriage.sol\":981:989  d.status */\n      0x02\n      add\n      0x00\n        /* \"contracts/Marriage.sol\":981:993  d.status = 0 */\n      0x0100\n      exp\n      dup2\n      sload\n      dup2\n      0xff\n      mul\n      not\n      and\n      swap1\n      dup4\n      0xff\n      and\n      mul\n      or\n      swap1\n      sstore\n      pop\n        /* \"contracts/Marriage.sol\":1016:1031  block.timestamp */\n      timestamp\n        /* \"contracts/Marriage.sol\":1007:1008  d */\n      0x00\n        /* \"contracts/Marriage.sol\":1007:1013  d.date */\n      0x03\n      add\n        /* \"contracts/Marriage.sol\":1007:1031  d.date = block.timestamp */\n      dup2\n      swap1\n      sstore\n      pop\n        /* \"contracts/Marriage.sol\":1059:1069  _agreement */\n      dup1\n        /* \"contracts/Marriage.sol\":1045:1046  d */\n      0x00\n        /* \"contracts/Marriage.sol\":1045:1056  d.agreement */\n      0x04\n      add\n        /* \"contracts/Marriage.sol\":1045:1069  d.agreement = _agreement */\n      swap1\n      dup2\n      tag_51\n      swap2\n      swap1\n      tag_52\n      jump\t// in\n    tag_51:\n      pop\n        /* \"contracts/Marriage.sol\":730:1372  if(_id == 0x0000000000000000000000000000000000000000000000000000000000000000){... */\n      jump(tag_53)\n    tag_39:\n        /* \"contracts/Marriage.sol\":1103:1114  detailsById */\n      0x05\n        /* \"contracts/Marriage.sol\":1103:1119  detailsById[_id] */\n      0x00\n        /* \"contracts/Marriage.sol\":1115:1118  _id */\n      dup5\n        /* \"contracts/Marriage.sol\":1103:1119  detailsById[_id] */\n      dup2\n      mstore\n      0x20\n      add\n      swap1\n      dup2\n      mstore\n      0x20\n      add\n      0x00\n      keccak256\n        /* \"contracts/Marriage.sol\":1099:1100  d */\n      0x00\n        /* \"contracts/Marriage.sol\":1099:1119  d = detailsById[_id] */\n      dup1\n      dup3\n      add\n      dup2\n      0x00\n      add\n      swap1\n      dup1\n      sload\n      tag_54\n      swap3\n      swap2\n      swap1\n      tag_43\n      jump\t// in\n    tag_54:\n      pop\n      0x01\n      dup3\n      add\n      dup2\n      0x01\n      add\n      swap1\n      dup1\n      sload\n      tag_55\n      swap3\n      swap2\n      swap1\n      tag_43\n      jump\t// in\n    tag_55:\n      pop\n      0x02\n      dup3\n      add\n      0x00\n      swap1\n      sload\n      swap1\n      0x0100\n      exp\n      swap1\n      div\n      0xff\n      and\n      dup2\n      0x02\n      add\n      exp(0x0100, 0x00)\n      dup2\n      sload\n      dup2\n      0xff\n      mul\n      not\n      and\n      swap1\n      dup4\n      0xff\n      and\n      mul\n      or\n      swap1\n      sstore\n      pop\n      0x03\n      dup3\n      add\n      sload\n      dup2\n      0x03\n      add\n      sstore\n      0x04\n      dup3\n      add\n      dup2\n      0x04\n      add\n      swap1\n      dup2\n      tag_56\n      swap2\n      swap1\n      tag_46\n      jump\t// in\n    tag_56:\n      pop\n      swap1\n      pop\n      pop\n        /* \"contracts/Marriage.sol\":1137:1177  areArraysEqual(d.addresses, d.confirmed) */\n      tag_57\n        /* \"contracts/Marriage.sol\":1152:1153  d */\n      0x00\n        /* \"contracts/Marriage.sol\":1152:1163  d.addresses */\n      dup1\n      add\n        /* \"contracts/Marriage.sol\":1137:1177  areArraysEqual(d.addresses, d.confirmed) */\n      dup1\n      sload\n      dup1\n      0x20\n      mul\n      0x20\n      add\n      mload(0x40)\n      swap1\n      dup2\n      add\n      0x40\n      mstore\n      dup1\n      swap3\n      swap2\n      swap1\n      dup2\n      dup2\n      mstore\n      0x20\n      add\n      dup3\n      dup1\n      sload\n      dup1\n      iszero\n      tag_58\n      jumpi\n      0x20\n      mul\n      dup3\n      add\n      swap2\n      swap1\n      0x00\n      mstore\n      keccak256(0x00, 0x20)\n      swap1\n    tag_59:\n      dup2\n      0x00\n      swap1\n      sload\n      swap1\n      0x0100\n      exp\n      swap1\n      div\n      0xffffffffffffffffffffffffffffffffffffffff\n      and\n      0xffffffffffffffffffffffffffffffffffffffff\n      and\n      dup2\n      mstore\n      0x20\n      add\n      swap1\n      0x01\n      add\n      swap1\n      dup1\n      dup4\n      gt\n      tag_59\n      jumpi\n    tag_58:\n      pop\n      pop\n      pop\n      pop\n      pop\n        /* \"contracts/Marriage.sol\":1165:1166  d */\n      0x00\n        /* \"contracts/Marriage.sol\":1165:1176  d.confirmed */\n      0x01\n      add\n        /* \"contracts/Marriage.sol\":1137:1177  areArraysEqual(d.addresses, d.confirmed) */\n      dup1\n      sload\n      dup1\n      0x20\n      mul\n      0x20\n      add\n      mload(0x40)\n      swap1\n      dup2\n      add\n      0x40\n      mstore\n      dup1\n      swap3\n      swap2\n      swap1\n      dup2\n      dup2\n      mstore\n      0x20\n      add\n      dup3\n      dup1\n      sload\n      dup1\n      iszero\n      tag_60\n      jumpi\n      0x20\n      mul\n      dup3\n      add\n      swap2\n      swap1\n      0x00\n      mstore\n      keccak256(0x00, 0x20)\n      swap1\n    tag_61:\n      dup2\n      0x00\n      swap1\n      sload\n      swap1\n      0x0100\n      exp\n      swap1\n      div\n      0xffffffffffffffffffffffffffffffffffffffff\n      and\n      0xffffffffffffffffffffffffffffffffffffffff\n      and\n      dup2\n      mstore\n      0x20\n      add\n      swap1\n      0x01\n      add\n      swap1\n      dup1\n      dup4\n      gt\n      tag_61\n      jumpi\n    tag_60:\n      pop\n      pop\n      pop\n      pop\n      pop\n        /* \"contracts/Marriage.sol\":1137:1151  areArraysEqual */\n      tag_62\n        /* \"contracts/Marriage.sol\":1137:1177  areArraysEqual(d.addresses, d.confirmed) */\n      jump\t// in\n    tag_57:\n        /* \"contracts/Marriage.sol\":1134:1223  if(areArraysEqual(d.addresses, d.confirmed)){... */\n      iszero\n      tag_63\n      jumpi\n        /* \"contracts/Marriage.sol\":1207:1208  1 */\n      0x01\n        /* \"contracts/Marriage.sol\":1196:1197  d */\n      0x00\n        /* \"contracts/Marriage.sol\":1196:1204  d.status */\n      0x02\n      add\n      0x00\n        /* \"contracts/Marriage.sol\":1196:1208  d.status = 1 */\n      0x0100\n      exp\n      dup2\n      sload\n      dup2\n      0xff\n      mul\n      not\n      and\n      swap1\n      dup4\n      0xff\n      and\n      mul\n      or\n      swap1\n      sstore\n      pop\n        /* \"contracts/Marriage.sol\":1134:1223  if(areArraysEqual(d.addresses, d.confirmed)){... */\n    tag_63:\n        /* \"contracts/Marriage.sol\":1241:1280  addressInArray(d.confirmed, msg.sender) */\n      tag_64\n        /* \"contracts/Marriage.sol\":1256:1257  d */\n      0x00\n        /* \"contracts/Marriage.sol\":1256:1267  d.confirmed */\n      0x01\n      add\n        /* \"contracts/Marriage.sol\":1241:1280  addressInArray(d.confirmed, msg.sender) */\n      dup1\n      sload\n      dup1\n      0x20\n      mul\n      0x20\n      add\n      mload(0x40)\n      swap1\n      dup2\n      add\n      0x40\n      mstore\n      dup1\n      swap3\n      swap2\n      swap1\n      dup2\n      dup2\n      mstore\n      0x20\n      add\n      dup3\n      dup1\n      sload\n      dup1\n      iszero\n      tag_65\n      jumpi\n      0x20\n      mul\n      dup3\n      add\n      swap2\n      swap1\n      0x00\n      mstore\n      keccak256(0x00, 0x20)\n      swap1\n    tag_66:\n      dup2\n      0x00\n      swap1\n      sload\n      swap1\n      0x0100\n      exp\n      swap1\n      div\n      0xffffffffffffffffffffffffffffffffffffffff\n      and\n      0xffffffffffffffffffffffffffffffffffffffff\n      and\n      dup2\n      mstore\n      0x20\n      add\n      swap1\n      0x01\n      add\n      swap1\n      dup1\n      dup4\n      gt\n      tag_66\n      jumpi\n    tag_65:\n      pop\n      pop\n      pop\n      pop\n      pop\n        /* \"contracts/Marriage.sol\":1269:1279  msg.sender */\n      caller\n        /* \"contracts/Marriage.sol\":1241:1255  addressInArray */\n      tag_67\n        /* \"contracts/Marriage.sol\":1241:1280  addressInArray(d.confirmed, msg.sender) */\n      jump\t// in\n    tag_64:\n        /* \"contracts/Marriage.sol\":1237:1343  if(!addressInArray(d.confirmed, msg.sender)) {... */\n      tag_68\n      jumpi\n        /* \"contracts/Marriage.sol\":1300:1301  d */\n      0x00\n        /* \"contracts/Marriage.sol\":1300:1311  d.confirmed */\n      0x01\n      add\n        /* \"contracts/Marriage.sol\":1317:1327  msg.sender */\n      caller\n        /* \"contracts/Marriage.sol\":1300:1328  d.confirmed.push(msg.sender) */\n      swap1\n      dup1\n      0x01\n      dup2\n      sload\n      add\n      dup1\n      dup3\n      sstore\n      dup1\n      swap2\n      pop\n      pop\n      0x01\n      swap1\n      sub\n      swap1\n      0x00\n      mstore\n      keccak256(0x00, 0x20)\n      add\n      0x00\n      swap1\n      swap2\n      swap1\n      swap2\n      swap1\n      swap2\n      0x0100\n      exp\n      dup2\n      sload\n      dup2\n      0xffffffffffffffffffffffffffffffffffffffff\n      mul\n      not\n      and\n      swap1\n      dup4\n      0xffffffffffffffffffffffffffffffffffffffff\n      and\n      mul\n      or\n      swap1\n      sstore\n      pop\n        /* \"contracts/Marriage.sol\":1237:1343  if(!addressInArray(d.confirmed, msg.sender)) {... */\n    tag_68:\n        /* \"contracts/Marriage.sol\":730:1372  if(_id == 0x0000000000000000000000000000000000000000000000000000000000000000){... */\n    tag_53:\n        /* \"contracts/Marriage.sol\":1389:1432  bytesInArray(idsByAddress[msg.sender], _id) */\n      tag_70\n        /* \"contracts/Marriage.sol\":1402:1414  idsByAddress */\n      0x06\n        /* \"contracts/Marriage.sol\":1402:1426  idsByAddress[msg.sender] */\n      0x00\n        /* \"contracts/Marriage.sol\":1415:1425  msg.sender */\n      caller\n        /* \"contracts/Marriage.sol\":1402:1426  idsByAddress[msg.sender] */\n      0xffffffffffffffffffffffffffffffffffffffff\n      and\n      0xffffffffffffffffffffffffffffffffffffffff\n      and\n      dup2\n      mstore\n      0x20\n      add\n      swap1\n      dup2\n      mstore\n      0x20\n      add\n      0x00\n      keccak256\n        /* \"contracts/Marriage.sol\":1389:1432  bytesInArray(idsByAddress[msg.sender], _id) */\n      dup1\n      sload\n      dup1\n      0x20\n      mul\n      0x20\n      add\n      mload(0x40)\n      swap1\n      dup2\n      add\n      0x40\n      mstore\n      dup1\n      swap3\n      swap2\n      swap1\n      dup2\n      dup2\n      mstore\n      0x20\n      add\n      dup3\n      dup1\n      sload\n      dup1\n      iszero\n      tag_71\n      jumpi\n      0x20\n      mul\n      dup3\n      add\n      swap2\n      swap1\n      0x00\n      mstore\n      keccak256(0x00, 0x20)\n      swap1\n    tag_72:\n      dup2\n      sload\n      dup2\n      mstore\n      0x20\n      add\n      swap1\n      0x01\n      add\n      swap1\n      dup1\n      dup4\n      gt\n      tag_72\n      jumpi\n    tag_71:\n      pop\n      pop\n      pop\n      pop\n      pop\n        /* \"contracts/Marriage.sol\":1428:1431  _id */\n      dup5\n        /* \"contracts/Marriage.sol\":1389:1401  bytesInArray */\n      tag_73\n        /* \"contracts/Marriage.sol\":1389:1432  bytesInArray(idsByAddress[msg.sender], _id) */\n      jump\t// in\n    tag_70:\n        /* \"contracts/Marriage.sol\":1385:1502  if(!bytesInArray(idsByAddress[msg.sender], _id)){... */\n      tag_74\n      jumpi\n        /* \"contracts/Marriage.sol\":1451:1463  idsByAddress */\n      0x06\n        /* \"contracts/Marriage.sol\":1451:1475  idsByAddress[msg.sender] */\n      0x00\n        /* \"contracts/Marriage.sol\":1464:1474  msg.sender */\n      caller\n        /* \"contracts/Marriage.sol\":1451:1475  idsByAddress[msg.sender] */\n      0xffffffffffffffffffffffffffffffffffffffff\n      and\n      0xffffffffffffffffffffffffffffffffffffffff\n      and\n      dup2\n      mstore\n      0x20\n      add\n      swap1\n      dup2\n      mstore\n      0x20\n      add\n      0x00\n      keccak256\n        /* \"contracts/Marriage.sol\":1481:1484  _id */\n      dup4\n        /* \"contracts/Marriage.sol\":1451:1485  idsByAddress[msg.sender].push(_id) */\n      swap1\n      dup1\n      0x01\n      dup2\n      sload\n      add\n      dup1\n      dup3\n      sstore\n      dup1\n      swap2\n      pop\n      pop\n      0x01\n      swap1\n      sub\n      swap1\n      0x00\n      mstore\n      keccak256(0x00, 0x20)\n      add\n      0x00\n      swap1\n      swap2\n      swap1\n      swap2\n      swap1\n      swap2\n      pop\n      sstore\n        /* \"contracts/Marriage.sol\":1385:1502  if(!bytesInArray(idsByAddress[msg.sender], _id)){... */\n    tag_74:\n        /* \"contracts/Marriage.sol\":1538:1539  d */\n      0x00\n        /* \"contracts/Marriage.sol\":1519:1530  detailsById */\n      0x05\n        /* \"contracts/Marriage.sol\":1519:1535  detailsById[_id] */\n      0x00\n        /* \"contracts/Marriage.sol\":1531:1534  _id */\n      dup6\n        /* \"contracts/Marriage.sol\":1519:1535  detailsById[_id] */\n      dup2\n      mstore\n      0x20\n      add\n      swap1\n      dup2\n      mstore\n      0x20\n      add\n      0x00\n      keccak256\n        /* \"contracts/Marriage.sol\":1519:1539  detailsById[_id] = d */\n      0x00\n      dup3\n      add\n      dup2\n      0x00\n      add\n      swap1\n      dup1\n      sload\n      tag_76\n      swap3\n      swap2\n      swap1\n      tag_43\n      jump\t// in\n    tag_76:\n      pop\n      0x01\n      dup3\n      add\n      dup2\n      0x01\n      add\n      swap1\n      dup1\n      sload\n      tag_77\n      swap3\n      swap2\n      swap1\n      tag_43\n      jump\t// in\n    tag_77:\n      pop\n      0x02\n      dup3\n      add\n      0x00\n      swap1\n      sload\n      swap1\n      0x0100\n      exp\n      swap1\n      div\n      0xff\n      and\n      dup2\n      0x02\n      add\n      exp(0x0100, 0x00)\n      dup2\n      sload\n      dup2\n      0xff\n      mul\n      not\n      and\n      swap1\n      dup4\n      0xff\n      and\n      mul\n      or\n      swap1\n      sstore\n      pop\n      0x03\n      dup3\n      add\n      sload\n      dup2\n      0x03\n      add\n      sstore\n      0x04\n      dup3\n      add\n      dup2\n      0x04\n      add\n      swap1\n      dup2\n      tag_78\n      swap2\n      swap1\n      tag_46\n      jump\t// in\n    tag_78:\n      pop\n      swap1\n      pop\n      pop\n        /* \"contracts/Marriage.sol\":618:1586  function createContract(bytes32 _id, address[] memory _addresses, string memory _agreement ) public  {... */\n      pop\n      pop\n      pop\n      jump\t// out\n        /* \"contracts/Marriage.sol\":1592:1751  function createIdentifier(address[] memory uniqueAddresses) private pure returns (bytes32) {... */\n    tag_41:\n        /* \"contracts/Marriage.sol\":1674:1681  bytes32 */\n      0x00\n        /* \"contracts/Marriage.sol\":1727:1742  uniqueAddresses */\n      dup2\n        /* \"contracts/Marriage.sol\":1710:1743  abi.encodePacked(uniqueAddresses) */\n      add(0x20, mload(0x40))\n      tag_80\n      swap2\n      swap1\n      tag_81\n      jump\t// in\n    tag_80:\n      mload(0x40)\n      0x20\n      dup2\n      dup4\n      sub\n      sub\n      dup2\n      mstore\n      swap1\n      0x40\n      mstore\n        /* \"contracts/Marriage.sol\":1700:1744  keccak256(abi.encodePacked(uniqueAddresses)) */\n      dup1\n      mload\n      swap1\n      0x20\n      add\n      keccak256\n        /* \"contracts/Marriage.sol\":1693:1744  return keccak256(abi.encodePacked(uniqueAddresses)) */\n      swap1\n      pop\n        /* \"contracts/Marriage.sol\":1592:1751  function createIdentifier(address[] memory uniqueAddresses) private pure returns (bytes32) {... */\n      swap2\n      swap1\n      pop\n      jump\t// out\n        /* \"contracts/Marriage.sol\":2287:2806  function areArraysEqual(address[] memory arr1, address[] memory arr2) private pure returns (bool) {... */\n    tag_62:\n        /* \"contracts/Marriage.sol\":2379:2383  bool */\n      0x00\n        /* \"contracts/Marriage.sol\":2413:2417  arr2 */\n      dup2\n        /* \"contracts/Marriage.sol\":2413:2424  arr2.length */\n      mload\n        /* \"contracts/Marriage.sol\":2398:2402  arr1 */\n      dup4\n        /* \"contracts/Marriage.sol\":2398:2409  arr1.length */\n      mload\n        /* \"contracts/Marriage.sol\":2398:2424  arr1.length != arr2.length */\n      eq\n        /* \"contracts/Marriage.sol\":2395:2463  if(arr1.length != arr2.length) {... */\n      tag_83\n      jumpi\n        /* \"contracts/Marriage.sol\":2447:2452  false */\n      0x00\n        /* \"contracts/Marriage.sol\":2440:2452  return false */\n      swap1\n      pop\n      jump(tag_82)\n        /* \"contracts/Marriage.sol\":2395:2463  if(arr1.length != arr2.length) {... */\n    tag_83:\n        /* \"contracts/Marriage.sol\":2500:2545  quickSort(arr1, int(0), int(arr1.length - 1)) */\n      tag_84\n        /* \"contracts/Marriage.sol\":2510:2514  arr1 */\n      dup4\n        /* \"contracts/Marriage.sol\":2520:2521  0 */\n      0x00\n        /* \"contracts/Marriage.sol\":2542:2543  1 */\n      0x01\n        /* \"contracts/Marriage.sol\":2528:2532  arr1 */\n      dup7\n        /* \"contracts/Marriage.sol\":2528:2539  arr1.length */\n      mload\n        /* \"contracts/Marriage.sol\":2528:2543  arr1.length - 1 */\n      tag_85\n      swap2\n      swap1\n      tag_86\n      jump\t// in\n    tag_85:\n        /* \"contracts/Marriage.sol\":2500:2509  quickSort */\n      tag_87\n        /* \"contracts/Marriage.sol\":2500:2545  quickSort(arr1, int(0), int(arr1.length - 1)) */\n      jump\t// in\n    tag_84:\n        /* \"contracts/Marriage.sol\":2555:2600  quickSort(arr2, int(0), int(arr2.length - 1)) */\n      tag_88\n        /* \"contracts/Marriage.sol\":2565:2569  arr2 */\n      dup3\n        /* \"contracts/Marriage.sol\":2575:2576  0 */\n      0x00\n        /* \"contracts/Marriage.sol\":2597:2598  1 */\n      0x01\n        /* \"contracts/Marriage.sol\":2583:2587  arr2 */\n      dup6\n        /* \"contracts/Marriage.sol\":2583:2594  arr2.length */\n      mload\n        /* \"contracts/Marriage.sol\":2583:2598  arr2.length - 1 */\n      tag_89\n      swap2\n      swap1\n      tag_86\n      jump\t// in\n    tag_89:\n        /* \"contracts/Marriage.sol\":2555:2564  quickSort */\n      tag_87\n        /* \"contracts/Marriage.sol\":2555:2600  quickSort(arr2, int(0), int(arr2.length - 1)) */\n      jump\t// in\n    tag_88:\n        /* \"contracts/Marriage.sol\":2652:2658  uint i */\n      0x00\n        /* \"contracts/Marriage.sol\":2648:2778  for(uint i = 0; i < arr1.length; i++) {... */\n    tag_90:\n        /* \"contracts/Marriage.sol\":2668:2672  arr1 */\n      dup4\n        /* \"contracts/Marriage.sol\":2668:2679  arr1.length */\n      mload\n        /* \"contracts/Marriage.sol\":2664:2665  i */\n      dup2\n        /* \"contracts/Marriage.sol\":2664:2679  i < arr1.length */\n      lt\n        /* \"contracts/Marriage.sol\":2648:2778  for(uint i = 0; i < arr1.length; i++) {... */\n      iszero\n      tag_91\n      jumpi\n        /* \"contracts/Marriage.sol\":2714:2718  arr2 */\n      dup3\n        /* \"contracts/Marriage.sol\":2719:2720  i */\n      dup2\n        /* \"contracts/Marriage.sol\":2714:2721  arr2[i] */\n      dup2\n      mload\n      dup2\n      lt\n      tag_93\n      jumpi\n      tag_94\n      tag_95\n      jump\t// in\n    tag_94:\n    tag_93:\n      0x20\n      mul\n      0x20\n      add\n      add\n      mload\n        /* \"contracts/Marriage.sol\":2703:2721  arr1[i] != arr2[i] */\n      0xffffffffffffffffffffffffffffffffffffffff\n      and\n        /* \"contracts/Marriage.sol\":2703:2707  arr1 */\n      dup5\n        /* \"contracts/Marriage.sol\":2708:2709  i */\n      dup3\n        /* \"contracts/Marriage.sol\":2703:2710  arr1[i] */\n      dup2\n      mload\n      dup2\n      lt\n      tag_96\n      jumpi\n      tag_97\n      tag_95\n      jump\t// in\n    tag_97:\n    tag_96:\n      0x20\n      mul\n      0x20\n      add\n      add\n      mload\n        /* \"contracts/Marriage.sol\":2703:2721  arr1[i] != arr2[i] */\n      0xffffffffffffffffffffffffffffffffffffffff\n      and\n      eq\n        /* \"contracts/Marriage.sol\":2700:2768  if(arr1[i] != arr2[i]) {... */\n      tag_98\n      jumpi\n        /* \"contracts/Marriage.sol\":2748:2753  false */\n      0x00\n        /* \"contracts/Marriage.sol\":2741:2753  return false */\n      swap2\n      pop\n      pop\n      jump(tag_82)\n        /* \"contracts/Marriage.sol\":2700:2768  if(arr1[i] != arr2[i]) {... */\n    tag_98:\n        /* \"contracts/Marriage.sol\":2681:2684  i++ */\n      dup1\n      dup1\n      0x01\n      add\n      swap2\n      pop\n      pop\n        /* \"contracts/Marriage.sol\":2648:2778  for(uint i = 0; i < arr1.length; i++) {... */\n      jump(tag_90)\n    tag_91:\n      pop\n        /* \"contracts/Marriage.sol\":2795:2799  true */\n      0x01\n        /* \"contracts/Marriage.sol\":2788:2799  return true */\n      swap1\n      pop\n        /* \"contracts/Marriage.sol\":2287:2806  function areArraysEqual(address[] memory arr1, address[] memory arr2) private pure returns (bool) {... */\n    tag_82:\n      swap3\n      swap2\n      pop\n      pop\n      jump\t// out\n        /* \"contracts/Marriage.sol\":2021:2281  function addressInArray(address[] memory array, address value) private pure returns (bool) {... */\n    tag_67:\n        /* \"contracts/Marriage.sol\":2106:2110  bool */\n      0x00\n        /* \"contracts/Marriage.sol\":2127:2133  uint i */\n      dup1\n        /* \"contracts/Marriage.sol\":2136:2137  0 */\n      0x00\n        /* \"contracts/Marriage.sol\":2127:2137  uint i = 0 */\n      swap1\n      pop\n        /* \"contracts/Marriage.sol\":2122:2253  for (uint i = 0; i < array.length; i++) {... */\n    tag_100:\n        /* \"contracts/Marriage.sol\":2143:2148  array */\n      dup4\n        /* \"contracts/Marriage.sol\":2143:2155  array.length */\n      mload\n        /* \"contracts/Marriage.sol\":2139:2140  i */\n      dup2\n        /* \"contracts/Marriage.sol\":2139:2155  i < array.length */\n      lt\n        /* \"contracts/Marriage.sol\":2122:2253  for (uint i = 0; i < array.length; i++) {... */\n      iszero\n      tag_101\n      jumpi\n        /* \"contracts/Marriage.sol\":2192:2197  value */\n      dup3\n        /* \"contracts/Marriage.sol\":2180:2197  array[i] == value */\n      0xffffffffffffffffffffffffffffffffffffffff\n      and\n        /* \"contracts/Marriage.sol\":2180:2185  array */\n      dup5\n        /* \"contracts/Marriage.sol\":2186:2187  i */\n      dup3\n        /* \"contracts/Marriage.sol\":2180:2188  array[i] */\n      dup2\n      mload\n      dup2\n      lt\n      tag_103\n      jumpi\n      tag_104\n      tag_95\n      jump\t// in\n    tag_104:\n    tag_103:\n      0x20\n      mul\n      0x20\n      add\n      add\n      mload\n        /* \"contracts/Marriage.sol\":2180:2197  array[i] == value */\n      0xffffffffffffffffffffffffffffffffffffffff\n      and\n      sub\n        /* \"contracts/Marriage.sol\":2176:2243  if (array[i] == value) {... */\n      tag_105\n      jumpi\n        /* \"contracts/Marriage.sol\":2224:2228  true */\n      0x01\n        /* \"contracts/Marriage.sol\":2217:2228  return true */\n      swap2\n      pop\n      pop\n      jump(tag_99)\n        /* \"contracts/Marriage.sol\":2176:2243  if (array[i] == value) {... */\n    tag_105:\n        /* \"contracts/Marriage.sol\":2157:2160  i++ */\n      dup1\n      dup1\n      0x01\n      add\n      swap2\n      pop\n      pop\n        /* \"contracts/Marriage.sol\":2122:2253  for (uint i = 0; i < array.length; i++) {... */\n      jump(tag_100)\n    tag_101:\n      pop\n        /* \"contracts/Marriage.sol\":2269:2274  false */\n      0x00\n        /* \"contracts/Marriage.sol\":2262:2274  return false */\n      swap1\n      pop\n        /* \"contracts/Marriage.sol\":2021:2281  function addressInArray(address[] memory array, address value) private pure returns (bool) {... */\n    tag_99:\n      swap3\n      swap2\n      pop\n      pop\n      jump\t// out\n        /* \"contracts/Marriage.sol\":1757:2015  function bytesInArray(bytes32[] memory array, bytes32 value) private pure returns (bool) {... */\n    tag_73:\n        /* \"contracts/Marriage.sol\":1840:1844  bool */\n      0x00\n        /* \"contracts/Marriage.sol\":1861:1867  uint i */\n      dup1\n        /* \"contracts/Marriage.sol\":1870:1871  0 */\n      0x00\n        /* \"contracts/Marriage.sol\":1861:1871  uint i = 0 */\n      swap1\n      pop\n        /* \"contracts/Marriage.sol\":1856:1987  for (uint i = 0; i < array.length; i++) {... */\n    tag_107:\n        /* \"contracts/Marriage.sol\":1877:1882  array */\n      dup4\n        /* \"contracts/Marriage.sol\":1877:1889  array.length */\n      mload\n        /* \"contracts/Marriage.sol\":1873:1874  i */\n      dup2\n        /* \"contracts/Marriage.sol\":1873:1889  i < array.length */\n      lt\n        /* \"contracts/Marriage.sol\":1856:1987  for (uint i = 0; i < array.length; i++) {... */\n      iszero\n      tag_108\n      jumpi\n        /* \"contracts/Marriage.sol\":1926:1931  value */\n      dup3\n        /* \"contracts/Marriage.sol\":1914:1919  array */\n      dup5\n        /* \"contracts/Marriage.sol\":1920:1921  i */\n      dup3\n        /* \"contracts/Marriage.sol\":1914:1922  array[i] */\n      dup2\n      mload\n      dup2\n      lt\n      tag_110\n      jumpi\n      tag_111\n      tag_95\n      jump\t// in\n    tag_111:\n    tag_110:\n      0x20\n      mul\n      0x20\n      add\n      add\n      mload\n        /* \"contracts/Marriage.sol\":1914:1931  array[i] == value */\n      sub\n        /* \"contracts/Marriage.sol\":1910:1977  if (array[i] == value) {... */\n      tag_112\n      jumpi\n        /* \"contracts/Marriage.sol\":1958:1962  true */\n      0x01\n        /* \"contracts/Marriage.sol\":1951:1962  return true */\n      swap2\n      pop\n      pop\n      jump(tag_106)\n        /* \"contracts/Marriage.sol\":1910:1977  if (array[i] == value) {... */\n    tag_112:\n        /* \"contracts/Marriage.sol\":1891:1894  i++ */\n      dup1\n      dup1\n      0x01\n      add\n      swap2\n      pop\n      pop\n        /* \"contracts/Marriage.sol\":1856:1987  for (uint i = 0; i < array.length; i++) {... */\n      jump(tag_107)\n    tag_108:\n      pop\n        /* \"contracts/Marriage.sol\":2003:2008  false */\n      0x00\n        /* \"contracts/Marriage.sol\":1996:2008  return false */\n      swap1\n      pop\n        /* \"contracts/Marriage.sol\":1757:2015  function bytesInArray(bytes32[] memory array, bytes32 value) private pure returns (bool) {... */\n    tag_106:\n      swap3\n      swap2\n      pop\n      pop\n      jump\t// out\n        /* \"contracts/Marriage.sol\":2812:3432  function quickSort(address[] memory arr, int left, int right) private pure {... */\n    tag_87:\n        /* \"contracts/Marriage.sol\":2897:2902  int i */\n      0x00\n        /* \"contracts/Marriage.sol\":2905:2909  left */\n      dup3\n        /* \"contracts/Marriage.sol\":2897:2909  int i = left */\n      swap1\n      pop\n        /* \"contracts/Marriage.sol\":2919:2924  int j */\n      0x00\n        /* \"contracts/Marriage.sol\":2927:2932  right */\n      dup3\n        /* \"contracts/Marriage.sol\":2919:2932  int j = right */\n      swap1\n      pop\n        /* \"contracts/Marriage.sol\":2948:2949  j */\n      dup1\n        /* \"contracts/Marriage.sol\":2945:2946  i */\n      dup3\n        /* \"contracts/Marriage.sol\":2945:2949  i==j */\n      sub\n        /* \"contracts/Marriage.sol\":2942:2958  if(i==j) return; */\n      tag_114\n      jumpi\n        /* \"contracts/Marriage.sol\":2951:2958  return; */\n      pop\n      pop\n      jump(tag_113)\n        /* \"contracts/Marriage.sol\":2942:2958  if(i==j) return; */\n    tag_114:\n        /* \"contracts/Marriage.sol\":2967:2980  address pivot */\n      0x00\n        /* \"contracts/Marriage.sol\":2983:2986  arr */\n      dup6\n        /* \"contracts/Marriage.sol\":3016:3017  2 */\n      0x02\n        /* \"contracts/Marriage.sol\":3008:3012  left */\n      dup7\n        /* \"contracts/Marriage.sol\":3000:3005  right */\n      dup7\n        /* \"contracts/Marriage.sol\":3000:3012  right - left */\n      tag_115\n      swap2\n      swap1\n      tag_116\n      jump\t// in\n    tag_115:\n        /* \"contracts/Marriage.sol\":2999:3017  (right - left) / 2 */\n      tag_117\n      swap2\n      swap1\n      tag_118\n      jump\t// in\n    tag_117:\n        /* \"contracts/Marriage.sol\":2992:2996  left */\n      dup7\n        /* \"contracts/Marriage.sol\":2992:3017  left + (right - left) / 2 */\n      tag_119\n      swap2\n      swap1\n      tag_120\n      jump\t// in\n    tag_119:\n        /* \"contracts/Marriage.sol\":2983:3019  arr[uint(left + (right - left) / 2)] */\n      dup2\n      mload\n      dup2\n      lt\n      tag_121\n      jumpi\n      tag_122\n      tag_95\n      jump\t// in\n    tag_122:\n    tag_121:\n      0x20\n      mul\n      0x20\n      add\n      add\n      mload\n        /* \"contracts/Marriage.sol\":2967:3019  address pivot = arr[uint(left + (right - left) / 2)] */\n      swap1\n      pop\n        /* \"contracts/Marriage.sol\":3029:3306  while (i <= j) {... */\n    tag_123:\n        /* \"contracts/Marriage.sol\":3041:3042  j */\n      dup2\n        /* \"contracts/Marriage.sol\":3036:3037  i */\n      dup4\n        /* \"contracts/Marriage.sol\":3036:3042  i <= j */\n      sgt\n        /* \"contracts/Marriage.sol\":3029:3306  while (i <= j) {... */\n      tag_124\n      jumpi\n        /* \"contracts/Marriage.sol\":3058:3090  while (arr[uint(i)] < pivot) i++ */\n    tag_125:\n        /* \"contracts/Marriage.sol\":3080:3085  pivot */\n      dup1\n        /* \"contracts/Marriage.sol\":3065:3085  arr[uint(i)] < pivot */\n      0xffffffffffffffffffffffffffffffffffffffff\n      and\n        /* \"contracts/Marriage.sol\":3065:3068  arr */\n      dup7\n        /* \"contracts/Marriage.sol\":3074:3075  i */\n      dup5\n        /* \"contracts/Marriage.sol\":3065:3077  arr[uint(i)] */\n      dup2\n      mload\n      dup2\n      lt\n      tag_127\n      jumpi\n      tag_128\n      tag_95\n      jump\t// in\n    tag_128:\n    tag_127:\n      0x20\n      mul\n      0x20\n      add\n      add\n      mload\n        /* \"contracts/Marriage.sol\":3065:3085  arr[uint(i)] < pivot */\n      0xffffffffffffffffffffffffffffffffffffffff\n      and\n      lt\n        /* \"contracts/Marriage.sol\":3058:3090  while (arr[uint(i)] < pivot) i++ */\n      iszero\n      tag_126\n      jumpi\n        /* \"contracts/Marriage.sol\":3087:3090  i++ */\n      dup3\n      dup1\n      tag_129\n      swap1\n      tag_130\n      jump\t// in\n    tag_129:\n      swap4\n      pop\n      pop\n        /* \"contracts/Marriage.sol\":3058:3090  while (arr[uint(i)] < pivot) i++ */\n      jump(tag_125)\n    tag_126:\n        /* \"contracts/Marriage.sol\":3104:3136  while (pivot < arr[uint(j)]) j-- */\n    tag_131:\n        /* \"contracts/Marriage.sol\":3119:3122  arr */\n      dup6\n        /* \"contracts/Marriage.sol\":3128:3129  j */\n      dup3\n        /* \"contracts/Marriage.sol\":3119:3131  arr[uint(j)] */\n      dup2\n      mload\n      dup2\n      lt\n      tag_133\n      jumpi\n      tag_134\n      tag_95\n      jump\t// in\n    tag_134:\n    tag_133:\n      0x20\n      mul\n      0x20\n      add\n      add\n      mload\n        /* \"contracts/Marriage.sol\":3111:3131  pivot < arr[uint(j)] */\n      0xffffffffffffffffffffffffffffffffffffffff\n      and\n        /* \"contracts/Marriage.sol\":3111:3116  pivot */\n      dup2\n        /* \"contracts/Marriage.sol\":3111:3131  pivot < arr[uint(j)] */\n      0xffffffffffffffffffffffffffffffffffffffff\n      and\n      lt\n        /* \"contracts/Marriage.sol\":3104:3136  while (pivot < arr[uint(j)]) j-- */\n      iszero\n      tag_132\n      jumpi\n        /* \"contracts/Marriage.sol\":3133:3136  j-- */\n      dup2\n      dup1\n      tag_135\n      swap1\n      tag_136\n      jump\t// in\n    tag_135:\n      swap3\n      pop\n      pop\n        /* \"contracts/Marriage.sol\":3104:3136  while (pivot < arr[uint(j)]) j-- */\n      jump(tag_131)\n    tag_132:\n        /* \"contracts/Marriage.sol\":3159:3160  j */\n      dup2\n        /* \"contracts/Marriage.sol\":3154:3155  i */\n      dup4\n        /* \"contracts/Marriage.sol\":3154:3160  i <= j */\n      sgt\n        /* \"contracts/Marriage.sol\":3150:3296  if (i <= j) {... */\n      tag_137\n      jumpi\n        /* \"contracts/Marriage.sol\":3212:3215  arr */\n      dup6\n        /* \"contracts/Marriage.sol\":3221:3222  j */\n      dup3\n        /* \"contracts/Marriage.sol\":3212:3224  arr[uint(j)] */\n      dup2\n      mload\n      dup2\n      lt\n      tag_138\n      jumpi\n      tag_139\n      tag_95\n      jump\t// in\n    tag_139:\n    tag_138:\n      0x20\n      mul\n      0x20\n      add\n      add\n      mload\n        /* \"contracts/Marriage.sol\":3226:3229  arr */\n      dup7\n        /* \"contracts/Marriage.sol\":3235:3236  i */\n      dup5\n        /* \"contracts/Marriage.sol\":3226:3238  arr[uint(i)] */\n      dup2\n      mload\n      dup2\n      lt\n      tag_140\n      jumpi\n      tag_141\n      tag_95\n      jump\t// in\n    tag_141:\n    tag_140:\n      0x20\n      mul\n      0x20\n      add\n      add\n      mload\n        /* \"contracts/Marriage.sol\":3181:3184  arr */\n      dup8\n        /* \"contracts/Marriage.sol\":3190:3191  i */\n      dup6\n        /* \"contracts/Marriage.sol\":3181:3193  arr[uint(i)] */\n      dup2\n      mload\n      dup2\n      lt\n      tag_142\n      jumpi\n      tag_143\n      tag_95\n      jump\t// in\n    tag_143:\n    tag_142:\n      0x20\n      mul\n      0x20\n      add\n      add\n        /* \"contracts/Marriage.sol\":3195:3198  arr */\n      dup9\n        /* \"contracts/Marriage.sol\":3204:3205  j */\n      dup6\n        /* \"contracts/Marriage.sol\":3195:3207  arr[uint(j)] */\n      dup2\n      mload\n      dup2\n      lt\n      tag_144\n      jumpi\n      tag_145\n      tag_95\n      jump\t// in\n    tag_145:\n    tag_144:\n      0x20\n      mul\n      0x20\n      add\n      add\n        /* \"contracts/Marriage.sol\":3180:3239  (arr[uint(i)], arr[uint(j)]) = (arr[uint(j)], arr[uint(i)]) */\n      dup3\n      0xffffffffffffffffffffffffffffffffffffffff\n      and\n      0xffffffffffffffffffffffffffffffffffffffff\n      and\n      dup2\n      mstore\n      pop\n      dup3\n      0xffffffffffffffffffffffffffffffffffffffff\n      and\n      0xffffffffffffffffffffffffffffffffffffffff\n      and\n      dup2\n      mstore\n      pop\n      pop\n      pop\n        /* \"contracts/Marriage.sol\":3257:3260  i++ */\n      dup3\n      dup1\n      tag_146\n      swap1\n      tag_130\n      jump\t// in\n    tag_146:\n      swap4\n      pop\n      pop\n        /* \"contracts/Marriage.sol\":3278:3281  j-- */\n      dup2\n      dup1\n      tag_147\n      swap1\n      tag_136\n      jump\t// in\n    tag_147:\n      swap3\n      pop\n      pop\n        /* \"contracts/Marriage.sol\":3150:3296  if (i <= j) {... */\n    tag_137:\n        /* \"contracts/Marriage.sol\":3029:3306  while (i <= j) {... */\n      jump(tag_123)\n    tag_124:\n        /* \"contracts/Marriage.sol\":3326:3327  j */\n      dup2\n        /* \"contracts/Marriage.sol\":3319:3323  left */\n      dup6\n        /* \"contracts/Marriage.sol\":3319:3327  left < j */\n      slt\n        /* \"contracts/Marriage.sol\":3315:3364  if (left < j)... */\n      iszero\n      tag_148\n      jumpi\n        /* \"contracts/Marriage.sol\":3341:3364  quickSort(arr, left, j) */\n      tag_149\n        /* \"contracts/Marriage.sol\":3351:3354  arr */\n      dup7\n        /* \"contracts/Marriage.sol\":3356:3360  left */\n      dup7\n        /* \"contracts/Marriage.sol\":3362:3363  j */\n      dup5\n        /* \"contracts/Marriage.sol\":3341:3350  quickSort */\n      tag_87\n        /* \"contracts/Marriage.sol\":3341:3364  quickSort(arr, left, j) */\n      jump\t// in\n    tag_149:\n        /* \"contracts/Marriage.sol\":3315:3364  if (left < j)... */\n    tag_148:\n        /* \"contracts/Marriage.sol\":3382:3387  right */\n      dup4\n        /* \"contracts/Marriage.sol\":3378:3379  i */\n      dup4\n        /* \"contracts/Marriage.sol\":3378:3387  i < right */\n      slt\n        /* \"contracts/Marriage.sol\":3374:3425  if (i < right)... */\n      iszero\n      tag_150\n      jumpi\n        /* \"contracts/Marriage.sol\":3401:3425  quickSort(arr, i, right) */\n      tag_151\n        /* \"contracts/Marriage.sol\":3411:3414  arr */\n      dup7\n        /* \"contracts/Marriage.sol\":3416:3417  i */\n      dup5\n        /* \"contracts/Marriage.sol\":3419:3424  right */\n      dup7\n        /* \"contracts/Marriage.sol\":3401:3410  quickSort */\n      tag_87\n        /* \"contracts/Marriage.sol\":3401:3425  quickSort(arr, i, right) */\n      jump\t// in\n    tag_151:\n        /* \"contracts/Marriage.sol\":3374:3425  if (i < right)... */\n    tag_150:\n        /* \"contracts/Marriage.sol\":2887:3432  {... */\n      pop\n      pop\n      pop\n        /* \"contracts/Marriage.sol\":2812:3432  function quickSort(address[] memory arr, int left, int right) private pure {... */\n    tag_113:\n      pop\n      pop\n      pop\n      jump\t// out\n    tag_26:\n      mload(0x40)\n      dup1\n      0xa0\n      add\n      0x40\n      mstore\n      dup1\n      0x60\n      dup2\n      mstore\n      0x20\n      add\n      0x60\n      dup2\n      mstore\n      0x20\n      add\n      and(0xff, 0x00)\n      dup2\n      mstore\n      0x20\n      add\n      0x00\n      dup2\n      mstore\n      0x20\n      add\n      0x60\n      dup2\n      mstore\n      pop\n      swap1\n      jump\t// out\n    tag_43:\n      dup3\n      dup1\n      sload\n      dup3\n      dup3\n      sstore\n      swap1\n      0x00\n      mstore\n      keccak256(0x00, 0x20)\n      swap1\n      dup2\n      add\n      swap3\n      dup3\n      iszero\n      tag_152\n      jumpi\n      0x00\n      mstore\n      keccak256(0x00, 0x20)\n      swap2\n      dup3\n      add\n    tag_153:\n      dup3\n      dup2\n      gt\n      iszero\n      tag_154\n      jumpi\n      dup3\n      sload\n      dup3\n      sstore\n      swap2\n      0x01\n      add\n      swap2\n      swap1\n      0x01\n      add\n      swap1\n      jump(tag_153)\n    tag_154:\n    tag_152:\n      pop\n      swap1\n      pop\n      tag_155\n      swap2\n      swap1\n      tag_156\n      jump\t// in\n    tag_155:\n      pop\n      swap1\n      jump\t// out\n    tag_48:\n      dup3\n      dup1\n      sload\n      dup3\n      dup3\n      sstore\n      swap1\n      0x00\n      mstore\n      keccak256(0x00, 0x20)\n      swap1\n      dup2\n      add\n      swap3\n      dup3\n      iszero\n      tag_157\n      jumpi\n      swap2\n      0x20\n      mul\n      dup3\n      add\n    tag_158:\n      dup3\n      dup2\n      gt\n      iszero\n      tag_159\n      jumpi\n      dup3\n      mload\n      dup3\n      exp(0x0100, 0x00)\n      dup2\n      sload\n      dup2\n      0xffffffffffffffffffffffffffffffffffffffff\n      mul\n      not\n      and\n      swap1\n      dup4\n      0xffffffffffffffffffffffffffffffffffffffff\n      and\n      mul\n      or\n      swap1\n      sstore\n      pop\n      swap2\n      0x20\n      add\n      swap2\n      swap1\n      0x01\n      add\n      swap1\n      jump(tag_158)\n    tag_159:\n    tag_157:\n      pop\n      swap1\n      pop\n      tag_160\n      swap2\n      swap1\n      tag_156\n      jump\t// in\n    tag_160:\n      pop\n      swap1\n      jump\t// out\n    tag_50:\n      dup3\n      dup1\n      sload\n      dup3\n      dup3\n      sstore\n      swap1\n      0x00\n      mstore\n      keccak256(0x00, 0x20)\n      swap1\n      dup2\n      add\n      swap3\n      dup3\n      iszero\n      tag_161\n      jumpi\n      swap2\n      0x20\n      mul\n      dup3\n      add\n    tag_162:\n      dup3\n      dup2\n      gt\n      iszero\n      tag_163\n      jumpi\n      dup3\n      mload\n      dup3\n      exp(0x0100, 0x00)\n      dup2\n      sload\n      dup2\n      0xffffffffffffffffffffffffffffffffffffffff\n      mul\n      not\n      and\n      swap1\n      dup4\n      0xffffffffffffffffffffffffffffffffffffffff\n      and\n      mul\n      or\n      swap1\n      sstore\n      pop\n      swap2\n      0x20\n      add\n      swap2\n      swap1\n      0x01\n      add\n      swap1\n      jump(tag_162)\n    tag_163:\n    tag_161:\n      pop\n      swap1\n      pop\n      tag_164\n      swap2\n      swap1\n      tag_156\n      jump\t// in\n    tag_164:\n      pop\n      swap1\n      jump\t// out\n    tag_156:\n    tag_165:\n      dup1\n      dup3\n      gt\n      iszero\n      tag_166\n      jumpi\n      0x00\n      dup2\n      0x00\n      swap1\n      sstore\n      pop\n      0x01\n      add\n      jump(tag_165)\n    tag_166:\n      pop\n      swap1\n      jump\t// out\n        /* \"#utility.yul\":7:82   */\n    tag_167:\n        /* \"#utility.yul\":40:46   */\n      0x00\n        /* \"#utility.yul\":73:75   */\n      0x40\n        /* \"#utility.yul\":67:76   */\n      mload\n        /* \"#utility.yul\":57:76   */\n      swap1\n      pop\n        /* \"#utility.yul\":7:82   */\n      swap1\n      jump\t// out\n        /* \"#utility.yul\":88:205   */\n    tag_168:\n        /* \"#utility.yul\":197:198   */\n      0x00\n        /* \"#utility.yul\":194:195   */\n      dup1\n        /* \"#utility.yul\":187:199   */\n      revert\n        /* \"#utility.yul\":211:328   */\n    tag_169:\n        /* \"#utility.yul\":320:321   */\n      0x00\n        /* \"#utility.yul\":317:318   */\n      dup1\n        /* \"#utility.yul\":310:322   */\n      revert\n        /* \"#utility.yul\":334:460   */\n    tag_170:\n        /* \"#utility.yul\":371:378   */\n      0x00\n        /* \"#utility.yul\":411:453   */\n      0xffffffffffffffffffffffffffffffffffffffff\n        /* \"#utility.yul\":404:409   */\n      dup3\n        /* \"#utility.yul\":400:454   */\n      and\n        /* \"#utility.yul\":389:454   */\n      swap1\n      pop\n        /* \"#utility.yul\":334:460   */\n      swap2\n      swap1\n      pop\n      jump\t// out\n        /* \"#utility.yul\":466:562   */\n    tag_171:\n        /* \"#utility.yul\":503:510   */\n      0x00\n        /* \"#utility.yul\":532:556   */\n      tag_244\n        /* \"#utility.yul\":550:555   */\n      dup3\n        /* \"#utility.yul\":532:556   */\n      tag_170\n      jump\t// in\n    tag_244:\n        /* \"#utility.yul\":521:556   */\n      swap1\n      pop\n        /* \"#utility.yul\":466:562   */\n      swap2\n      swap1\n      pop\n      jump\t// out\n        /* \"#utility.yul\":568:690   */\n    tag_172:\n        /* \"#utility.yul\":641:665   */\n      tag_246\n        /* \"#utility.yul\":659:664   */\n      dup2\n        /* \"#utility.yul\":641:665   */\n      tag_171\n      jump\t// in\n    tag_246:\n        /* \"#utility.yul\":634:639   */\n      dup2\n        /* \"#utility.yul\":631:666   */\n      eq\n        /* \"#utility.yul\":621:684   */\n      tag_247\n      jumpi\n        /* \"#utility.yul\":680:681   */\n      0x00\n        /* \"#utility.yul\":677:678   */\n      dup1\n        /* \"#utility.yul\":670:682   */\n      revert\n        /* \"#utility.yul\":621:684   */\n    tag_247:\n        /* \"#utility.yul\":568:690   */\n      pop\n      jump\t// out\n        /* \"#utility.yul\":696:835   */\n    tag_173:\n        /* \"#utility.yul\":742:747   */\n      0x00\n        /* \"#utility.yul\":780:786   */\n      dup2\n        /* \"#utility.yul\":767:787   */\n      calldataload\n        /* \"#utility.yul\":758:787   */\n      swap1\n      pop\n        /* \"#utility.yul\":796:829   */\n      tag_249\n        /* \"#utility.yul\":823:828   */\n      dup2\n        /* \"#utility.yul\":796:829   */\n      tag_172\n      jump\t// in\n    tag_249:\n        /* \"#utility.yul\":696:835   */\n      swap3\n      swap2\n      pop\n      pop\n      jump\t// out\n        /* \"#utility.yul\":841:1170   */\n    tag_8:\n        /* \"#utility.yul\":900:906   */\n      0x00\n        /* \"#utility.yul\":949:951   */\n      0x20\n        /* \"#utility.yul\":937:946   */\n      dup3\n        /* \"#utility.yul\":928:935   */\n      dup5\n        /* \"#utility.yul\":924:947   */\n      sub\n        /* \"#utility.yul\":920:952   */\n      slt\n        /* \"#utility.yul\":917:1036   */\n      iszero\n      tag_251\n      jumpi\n        /* \"#utility.yul\":955:1034   */\n      tag_252\n      tag_168\n      jump\t// in\n    tag_252:\n        /* \"#utility.yul\":917:1036   */\n    tag_251:\n        /* \"#utility.yul\":1075:1076   */\n      0x00\n        /* \"#utility.yul\":1100:1153   */\n      tag_253\n        /* \"#utility.yul\":1145:1152   */\n      dup5\n        /* \"#utility.yul\":1136:1142   */\n      dup3\n        /* \"#utility.yul\":1125:1134   */\n      dup6\n        /* \"#utility.yul\":1121:1143   */\n      add\n        /* \"#utility.yul\":1100:1153   */\n      tag_173\n      jump\t// in\n    tag_253:\n        /* \"#utility.yul\":1090:1153   */\n      swap2\n      pop\n        /* \"#utility.yul\":1046:1163   */\n      pop\n        /* \"#utility.yul\":841:1170   */\n      swap3\n      swap2\n      pop\n      pop\n      jump\t// out\n        /* \"#utility.yul\":1176:1290   */\n    tag_174:\n        /* \"#utility.yul\":1243:1249   */\n      0x00\n        /* \"#utility.yul\":1277:1282   */\n      dup2\n        /* \"#utility.yul\":1271:1283   */\n      mload\n        /* \"#utility.yul\":1261:1283   */\n      swap1\n      pop\n        /* \"#utility.yul\":1176:1290   */\n      swap2\n      swap1\n      pop\n      jump\t// out\n        /* \"#utility.yul\":1296:1480   */\n    tag_175:\n        /* \"#utility.yul\":1395:1406   */\n      0x00\n        /* \"#utility.yul\":1429:1435   */\n      dup3\n        /* \"#utility.yul\":1424:1427   */\n      dup3\n        /* \"#utility.yul\":1417:1436   */\n      mstore\n        /* \"#utility.yul\":1469:1473   */\n      0x20\n        /* \"#utility.yul\":1464:1467   */\n      dup3\n        /* \"#utility.yul\":1460:1474   */\n      add\n        /* \"#utility.yul\":1445:1474   */\n      swap1\n      pop\n        /* \"#utility.yul\":1296:1480   */\n      swap3\n      swap2\n      pop\n      pop\n      jump\t// out\n        /* \"#utility.yul\":1486:1618   */\n    tag_176:\n        /* \"#utility.yul\":1553:1557   */\n      0x00\n        /* \"#utility.yul\":1576:1579   */\n      dup2\n        /* \"#utility.yul\":1568:1579   */\n      swap1\n      pop\n        /* \"#utility.yul\":1606:1610   */\n      0x20\n        /* \"#utility.yul\":1601:1604   */\n      dup3\n        /* \"#utility.yul\":1597:1611   */\n      add\n        /* \"#utility.yul\":1589:1611   */\n      swap1\n      pop\n        /* \"#utility.yul\":1486:1618   */\n      swap2\n      swap1\n      pop\n      jump\t// out\n        /* \"#utility.yul\":1624:1701   */\n    tag_177:\n        /* \"#utility.yul\":1661:1668   */\n      0x00\n        /* \"#utility.yul\":1690:1695   */\n      dup2\n        /* \"#utility.yul\":1679:1695   */\n      swap1\n      pop\n        /* \"#utility.yul\":1624:1701   */\n      swap2\n      swap1\n      pop\n      jump\t// out\n        /* \"#utility.yul\":1707:1815   */\n    tag_178:\n        /* \"#utility.yul\":1784:1808   */\n      tag_259\n        /* \"#utility.yul\":1802:1807   */\n      dup2\n        /* \"#utility.yul\":1784:1808   */\n      tag_177\n      jump\t// in\n    tag_259:\n        /* \"#utility.yul\":1779:1782   */\n      dup3\n        /* \"#utility.yul\":1772:1809   */\n      mstore\n        /* \"#utility.yul\":1707:1815   */\n      pop\n      pop\n      jump\t// out\n        /* \"#utility.yul\":1821:2000   */\n    tag_179:\n        /* \"#utility.yul\":1890:1900   */\n      0x00\n        /* \"#utility.yul\":1911:1957   */\n      tag_261\n        /* \"#utility.yul\":1953:1956   */\n      dup4\n        /* \"#utility.yul\":1945:1951   */\n      dup4\n        /* \"#utility.yul\":1911:1957   */\n      tag_178\n      jump\t// in\n    tag_261:\n        /* \"#utility.yul\":1989:1993   */\n      0x20\n        /* \"#utility.yul\":1984:1987   */\n      dup4\n        /* \"#utility.yul\":1980:1994   */\n      add\n        /* \"#utility.yul\":1966:1994   */\n      swap1\n      pop\n        /* \"#utility.yul\":1821:2000   */\n      swap3\n      swap2\n      pop\n      pop\n      jump\t// out\n        /* \"#utility.yul\":2006:2119   */\n    tag_180:\n        /* \"#utility.yul\":2076:2080   */\n      0x00\n        /* \"#utility.yul\":2108:2112   */\n      0x20\n        /* \"#utility.yul\":2103:2106   */\n      dup3\n        /* \"#utility.yul\":2099:2113   */\n      add\n        /* \"#utility.yul\":2091:2113   */\n      swap1\n      pop\n        /* \"#utility.yul\":2006:2119   */\n      swap2\n      swap1\n      pop\n      jump\t// out\n        /* \"#utility.yul\":2155:2887   */\n    tag_181:\n        /* \"#utility.yul\":2274:2277   */\n      0x00\n        /* \"#utility.yul\":2303:2357   */\n      tag_264\n        /* \"#utility.yul\":2351:2356   */\n      dup3\n        /* \"#utility.yul\":2303:2357   */\n      tag_174\n      jump\t// in\n    tag_264:\n        /* \"#utility.yul\":2373:2459   */\n      tag_265\n        /* \"#utility.yul\":2452:2458   */\n      dup2\n        /* \"#utility.yul\":2447:2450   */\n      dup6\n        /* \"#utility.yul\":2373:2459   */\n      tag_175\n      jump\t// in\n    tag_265:\n        /* \"#utility.yul\":2366:2459   */\n      swap4\n      pop\n        /* \"#utility.yul\":2483:2539   */\n      tag_266\n        /* \"#utility.yul\":2533:2538   */\n      dup4\n        /* \"#utility.yul\":2483:2539   */\n      tag_176\n      jump\t// in\n    tag_266:\n        /* \"#utility.yul\":2562:2569   */\n      dup1\n        /* \"#utility.yul\":2593:2594   */\n      0x00\n        /* \"#utility.yul\":2578:2862   */\n    tag_267:\n        /* \"#utility.yul\":2603:2609   */\n      dup4\n        /* \"#utility.yul\":2600:2601   */\n      dup2\n        /* \"#utility.yul\":2597:2610   */\n      lt\n        /* \"#utility.yul\":2578:2862   */\n      iszero\n      tag_269\n      jumpi\n        /* \"#utility.yul\":2679:2685   */\n      dup2\n        /* \"#utility.yul\":2673:2686   */\n      mload\n        /* \"#utility.yul\":2706:2769   */\n      tag_270\n        /* \"#utility.yul\":2765:2768   */\n      dup9\n        /* \"#utility.yul\":2750:2763   */\n      dup3\n        /* \"#utility.yul\":2706:2769   */\n      tag_179\n      jump\t// in\n    tag_270:\n        /* \"#utility.yul\":2699:2769   */\n      swap8\n      pop\n        /* \"#utility.yul\":2792:2852   */\n      tag_271\n        /* \"#utility.yul\":2845:2851   */\n      dup4\n        /* \"#utility.yul\":2792:2852   */\n      tag_180\n      jump\t// in\n    tag_271:\n        /* \"#utility.yul\":2782:2852   */\n      swap3\n      pop\n        /* \"#utility.yul\":2638:2862   */\n      pop\n        /* \"#utility.yul\":2625:2626   */\n      0x01\n        /* \"#utility.yul\":2622:2623   */\n      dup2\n        /* \"#utility.yul\":2618:2627   */\n      add\n        /* \"#utility.yul\":2613:2627   */\n      swap1\n      pop\n        /* \"#utility.yul\":2578:2862   */\n      jump(tag_267)\n    tag_269:\n        /* \"#utility.yul\":2582:2596   */\n      pop\n        /* \"#utility.yul\":2878:2881   */\n      dup6\n        /* \"#utility.yul\":2871:2881   */\n      swap4\n      pop\n        /* \"#utility.yul\":2279:2887   */\n      pop\n      pop\n      pop\n        /* \"#utility.yul\":2155:2887   */\n      swap3\n      swap2\n      pop\n      pop\n      jump\t// out\n        /* \"#utility.yul\":2893:3266   */\n    tag_11:\n        /* \"#utility.yul\":3036:3040   */\n      0x00\n        /* \"#utility.yul\":3074:3076   */\n      0x20\n        /* \"#utility.yul\":3063:3072   */\n      dup3\n        /* \"#utility.yul\":3059:3077   */\n      add\n        /* \"#utility.yul\":3051:3077   */\n      swap1\n      pop\n        /* \"#utility.yul\":3123:3132   */\n      dup2\n        /* \"#utility.yul\":3117:3121   */\n      dup2\n        /* \"#utility.yul\":3113:3133   */\n      sub\n        /* \"#utility.yul\":3109:3110   */\n      0x00\n        /* \"#utility.yul\":3098:3107   */\n      dup4\n        /* \"#utility.yul\":3094:3111   */\n      add\n        /* \"#utility.yul\":3087:3134   */\n      mstore\n        /* \"#utility.yul\":3151:3259   */\n      tag_273\n        /* \"#utility.yul\":3254:3258   */\n      dup2\n        /* \"#utility.yul\":3245:3251   */\n      dup5\n        /* \"#utility.yul\":3151:3259   */\n      tag_181\n      jump\t// in\n    tag_273:\n        /* \"#utility.yul\":3143:3259   */\n      swap1\n      pop\n        /* \"#utility.yul\":2893:3266   */\n      swap3\n      swap2\n      pop\n      pop\n      jump\t// out\n        /* \"#utility.yul\":3272:3394   */\n    tag_182:\n        /* \"#utility.yul\":3345:3369   */\n      tag_275\n        /* \"#utility.yul\":3363:3368   */\n      dup2\n        /* \"#utility.yul\":3345:3369   */\n      tag_177\n      jump\t// in\n    tag_275:\n        /* \"#utility.yul\":3338:3343   */\n      dup2\n        /* \"#utility.yul\":3335:3370   */\n      eq\n        /* \"#utility.yul\":3325:3388   */\n      tag_276\n      jumpi\n        /* \"#utility.yul\":3384:3385   */\n      0x00\n        /* \"#utility.yul\":3381:3382   */\n      dup1\n        /* \"#utility.yul\":3374:3386   */\n      revert\n        /* \"#utility.yul\":3325:3388   */\n    tag_276:\n        /* \"#utility.yul\":3272:3394   */\n      pop\n      jump\t// out\n        /* \"#utility.yul\":3400:3539   */\n    tag_183:\n        /* \"#utility.yul\":3446:3451   */\n      0x00\n        /* \"#utility.yul\":3484:3490   */\n      dup2\n        /* \"#utility.yul\":3471:3491   */\n      calldataload\n        /* \"#utility.yul\":3462:3491   */\n      swap1\n      pop\n        /* \"#utility.yul\":3500:3533   */\n      tag_278\n        /* \"#utility.yul\":3527:3532   */\n      dup2\n        /* \"#utility.yul\":3500:3533   */\n      tag_182\n      jump\t// in\n    tag_278:\n        /* \"#utility.yul\":3400:3539   */\n      swap3\n      swap2\n      pop\n      pop\n      jump\t// out\n        /* \"#utility.yul\":3545:3874   */\n    tag_14:\n        /* \"#utility.yul\":3604:3610   */\n      0x00\n        /* \"#utility.yul\":3653:3655   */\n      0x20\n        /* \"#utility.yul\":3641:3650   */\n      dup3\n        /* \"#utility.yul\":3632:3639   */\n      dup5\n        /* \"#utility.yul\":3628:3651   */\n      sub\n        /* \"#utility.yul\":3624:3656   */\n      slt\n        /* \"#utility.yul\":3621:3740   */\n      iszero\n      tag_280\n      jumpi\n        /* \"#utility.yul\":3659:3738   */\n      tag_281\n      tag_168\n      jump\t// in\n    tag_281:\n        /* \"#utility.yul\":3621:3740   */\n    tag_280:\n        /* \"#utility.yul\":3779:3780   */\n      0x00\n        /* \"#utility.yul\":3804:3857   */\n      tag_282\n        /* \"#utility.yul\":3849:3856   */\n      dup5\n        /* \"#utility.yul\":3840:3846   */\n      dup3\n        /* \"#utility.yul\":3829:3838   */\n      dup6\n        /* \"#utility.yul\":3825:3847   */\n      add\n        /* \"#utility.yul\":3804:3857   */\n      tag_183\n      jump\t// in\n    tag_282:\n        /* \"#utility.yul\":3794:3857   */\n      swap2\n      pop\n        /* \"#utility.yul\":3750:3867   */\n      pop\n        /* \"#utility.yul\":3545:3874   */\n      swap3\n      swap2\n      pop\n      pop\n      jump\t// out\n        /* \"#utility.yul\":3880:3994   */\n    tag_184:\n        /* \"#utility.yul\":3947:3953   */\n      0x00\n        /* \"#utility.yul\":3981:3986   */\n      dup2\n        /* \"#utility.yul\":3975:3987   */\n      mload\n        /* \"#utility.yul\":3965:3987   */\n      swap1\n      pop\n        /* \"#utility.yul\":3880:3994   */\n      swap2\n      swap1\n      pop\n      jump\t// out\n        /* \"#utility.yul\":4000:4174   */\n    tag_185:\n        /* \"#utility.yul\":4089:4100   */\n      0x00\n        /* \"#utility.yul\":4123:4129   */\n      dup3\n        /* \"#utility.yul\":4118:4121   */\n      dup3\n        /* \"#utility.yul\":4111:4130   */\n      mstore\n        /* \"#utility.yul\":4163:4167   */\n      0x20\n        /* \"#utility.yul\":4158:4161   */\n      dup3\n        /* \"#utility.yul\":4154:4168   */\n      add\n        /* \"#utility.yul\":4139:4168   */\n      swap1\n      pop\n        /* \"#utility.yul\":4000:4174   */\n      swap3\n      swap2\n      pop\n      pop\n      jump\t// out\n        /* \"#utility.yul\":4180:4312   */\n    tag_186:\n        /* \"#utility.yul\":4247:4251   */\n      0x00\n        /* \"#utility.yul\":4270:4273   */\n      dup2\n        /* \"#utility.yul\":4262:4273   */\n      swap1\n      pop\n        /* \"#utility.yul\":4300:4304   */\n      0x20\n        /* \"#utility.yul\":4295:4298   */\n      dup3\n        /* \"#utility.yul\":4291:4305   */\n      add\n        /* \"#utility.yul\":4283:4305   */\n      swap1\n      pop\n        /* \"#utility.yul\":4180:4312   */\n      swap2\n      swap1\n      pop\n      jump\t// out\n        /* \"#utility.yul\":4318:4426   */\n    tag_187:\n        /* \"#utility.yul\":4395:4419   */\n      tag_287\n        /* \"#utility.yul\":4413:4418   */\n      dup2\n        /* \"#utility.yul\":4395:4419   */\n      tag_171\n      jump\t// in\n    tag_287:\n        /* \"#utility.yul\":4390:4393   */\n      dup3\n        /* \"#utility.yul\":4383:4420   */\n      mstore\n        /* \"#utility.yul\":4318:4426   */\n      pop\n      pop\n      jump\t// out\n        /* \"#utility.yul\":4432:4611   */\n    tag_188:\n        /* \"#utility.yul\":4501:4511   */\n      0x00\n        /* \"#utility.yul\":4522:4568   */\n      tag_289\n        /* \"#utility.yul\":4564:4567   */\n      dup4\n        /* \"#utility.yul\":4556:4562   */\n      dup4\n        /* \"#utility.yul\":4522:4568   */\n      tag_187\n      jump\t// in\n    tag_289:\n        /* \"#utility.yul\":4600:4604   */\n      0x20\n        /* \"#utility.yul\":4595:4598   */\n      dup4\n        /* \"#utility.yul\":4591:4605   */\n      add\n        /* \"#utility.yul\":4577:4605   */\n      swap1\n      pop\n        /* \"#utility.yul\":4432:4611   */\n      swap3\n      swap2\n      pop\n      pop\n      jump\t// out\n        /* \"#utility.yul\":4617:4730   */\n    tag_189:\n        /* \"#utility.yul\":4687:4691   */\n      0x00\n        /* \"#utility.yul\":4719:4723   */\n      0x20\n        /* \"#utility.yul\":4714:4717   */\n      dup3\n        /* \"#utility.yul\":4710:4724   */\n      add\n        /* \"#utility.yul\":4702:4724   */\n      swap1\n      pop\n        /* \"#utility.yul\":4617:4730   */\n      swap2\n      swap1\n      pop\n      jump\t// out\n        /* \"#utility.yul\":4766:5478   */\n    tag_190:\n        /* \"#utility.yul\":4875:4878   */\n      0x00\n        /* \"#utility.yul\":4904:4958   */\n      tag_292\n        /* \"#utility.yul\":4952:4957   */\n      dup3\n        /* \"#utility.yul\":4904:4958   */\n      tag_184\n      jump\t// in\n    tag_292:\n        /* \"#utility.yul\":4974:5050   */\n      tag_293\n        /* \"#utility.yul\":5043:5049   */\n      dup2\n        /* \"#utility.yul\":5038:5041   */\n      dup6\n        /* \"#utility.yul\":4974:5050   */\n      tag_185\n      jump\t// in\n    tag_293:\n        /* \"#utility.yul\":4967:5050   */\n      swap4\n      pop\n        /* \"#utility.yul\":5074:5130   */\n      tag_294\n        /* \"#utility.yul\":5124:5129   */\n      dup4\n        /* \"#utility.yul\":5074:5130   */\n      tag_186\n      jump\t// in\n    tag_294:\n        /* \"#utility.yul\":5153:5160   */\n      dup1\n        /* \"#utility.yul\":5184:5185   */\n      0x00\n        /* \"#utility.yul\":5169:5453   */\n    tag_295:\n        /* \"#utility.yul\":5194:5200   */\n      dup4\n        /* \"#utility.yul\":5191:5192   */\n      dup2\n        /* \"#utility.yul\":5188:5201   */\n      lt\n        /* \"#utility.yul\":5169:5453   */\n      iszero\n      tag_297\n      jumpi\n        /* \"#utility.yul\":5270:5276   */\n      dup2\n        /* \"#utility.yul\":5264:5277   */\n      mload\n        /* \"#utility.yul\":5297:5360   */\n      tag_298\n        /* \"#utility.yul\":5356:5359   */\n      dup9\n        /* \"#utility.yul\":5341:5354   */\n      dup3\n        /* \"#utility.yul\":5297:5360   */\n      tag_188\n      jump\t// in\n    tag_298:\n        /* \"#utility.yul\":5290:5360   */\n      swap8\n      pop\n        /* \"#utility.yul\":5383:5443   */\n      tag_299\n        /* \"#utility.yul\":5436:5442   */\n      dup4\n        /* \"#utility.yul\":5383:5443   */\n      tag_189\n      jump\t// in\n    tag_299:\n        /* \"#utility.yul\":5373:5443   */\n      swap3\n      pop\n        /* \"#utility.yul\":5229:5453   */\n      pop\n        /* \"#utility.yul\":5216:5217   */\n      0x01\n        /* \"#utility.yul\":5213:5214   */\n      dup2\n        /* \"#utility.yul\":5209:5218   */\n      add\n        /* \"#utility.yul\":5204:5218   */\n      swap1\n      pop\n        /* \"#utility.yul\":5169:5453   */\n      jump(tag_295)\n    tag_297:\n        /* \"#utility.yul\":5173:5187   */\n      pop\n        /* \"#utility.yul\":5469:5472   */\n      dup6\n        /* \"#utility.yul\":5462:5472   */\n      swap4\n      pop\n        /* \"#utility.yul\":4880:5478   */\n      pop\n      pop\n      pop\n        /* \"#utility.yul\":4766:5478   */\n      swap3\n      swap2\n      pop\n      pop\n      jump\t// out\n        /* \"#utility.yul\":5484:5570   */\n    tag_191:\n        /* \"#utility.yul\":5519:5526   */\n      0x00\n        /* \"#utility.yul\":5559:5563   */\n      0xff\n        /* \"#utility.yul\":5552:5557   */\n      dup3\n        /* \"#utility.yul\":5548:5564   */\n      and\n        /* \"#utility.yul\":5537:5564   */\n      swap1\n      pop\n        /* \"#utility.yul\":5484:5570   */\n      swap2\n      swap1\n      pop\n      jump\t// out\n        /* \"#utility.yul\":5576:5678   */\n    tag_192:\n        /* \"#utility.yul\":5649:5671   */\n      tag_302\n        /* \"#utility.yul\":5665:5670   */\n      dup2\n        /* \"#utility.yul\":5649:5671   */\n      tag_191\n      jump\t// in\n    tag_302:\n        /* \"#utility.yul\":5644:5647   */\n      dup3\n        /* \"#utility.yul\":5637:5672   */\n      mstore\n        /* \"#utility.yul\":5576:5678   */\n      pop\n      pop\n      jump\t// out\n        /* \"#utility.yul\":5684:5761   */\n    tag_193:\n        /* \"#utility.yul\":5721:5728   */\n      0x00\n        /* \"#utility.yul\":5750:5755   */\n      dup2\n        /* \"#utility.yul\":5739:5755   */\n      swap1\n      pop\n        /* \"#utility.yul\":5684:5761   */\n      swap2\n      swap1\n      pop\n      jump\t// out\n        /* \"#utility.yul\":5767:5875   */\n    tag_194:\n        /* \"#utility.yul\":5844:5868   */\n      tag_305\n        /* \"#utility.yul\":5862:5867   */\n      dup2\n        /* \"#utility.yul\":5844:5868   */\n      tag_193\n      jump\t// in\n    tag_305:\n        /* \"#utility.yul\":5839:5842   */\n      dup3\n        /* \"#utility.yul\":5832:5869   */\n      mstore\n        /* \"#utility.yul\":5767:5875   */\n      pop\n      pop\n      jump\t// out\n        /* \"#utility.yul\":5881:5980   */\n    tag_195:\n        /* \"#utility.yul\":5933:5939   */\n      0x00\n        /* \"#utility.yul\":5967:5972   */\n      dup2\n        /* \"#utility.yul\":5961:5973   */\n      mload\n        /* \"#utility.yul\":5951:5973   */\n      swap1\n      pop\n        /* \"#utility.yul\":5881:5980   */\n      swap2\n      swap1\n      pop\n      jump\t// out\n        /* \"#utility.yul\":5986:6145   */\n    tag_196:\n        /* \"#utility.yul\":6060:6071   */\n      0x00\n        /* \"#utility.yul\":6094:6100   */\n      dup3\n        /* \"#utility.yul\":6089:6092   */\n      dup3\n        /* \"#utility.yul\":6082:6101   */\n      mstore\n        /* \"#utility.yul\":6134:6138   */\n      0x20\n        /* \"#utility.yul\":6129:6132   */\n      dup3\n        /* \"#utility.yul\":6125:6139   */\n      add\n        /* \"#utility.yul\":6110:6139   */\n      swap1\n      pop\n        /* \"#utility.yul\":5986:6145   */\n      swap3\n      swap2\n      pop\n      pop\n      jump\t// out\n        /* \"#utility.yul\":6151:6397   */\n    tag_197:\n        /* \"#utility.yul\":6232:6233   */\n      0x00\n        /* \"#utility.yul\":6242:6355   */\n    tag_309:\n        /* \"#utility.yul\":6256:6262   */\n      dup4\n        /* \"#utility.yul\":6253:6254   */\n      dup2\n        /* \"#utility.yul\":6250:6263   */\n      lt\n        /* \"#utility.yul\":6242:6355   */\n      iszero\n      tag_311\n      jumpi\n        /* \"#utility.yul\":6341:6342   */\n      dup1\n        /* \"#utility.yul\":6336:6339   */\n      dup3\n        /* \"#utility.yul\":6332:6343   */\n      add\n        /* \"#utility.yul\":6326:6344   */\n      mload\n        /* \"#utility.yul\":6322:6323   */\n      dup2\n        /* \"#utility.yul\":6317:6320   */\n      dup5\n        /* \"#utility.yul\":6313:6324   */\n      add\n        /* \"#utility.yul\":6306:6345   */\n      mstore\n        /* \"#utility.yul\":6278:6280   */\n      0x20\n        /* \"#utility.yul\":6275:6276   */\n      dup2\n        /* \"#utility.yul\":6271:6281   */\n      add\n        /* \"#utility.yul\":6266:6281   */\n      swap1\n      pop\n        /* \"#utility.yul\":6242:6355   */\n      jump(tag_309)\n    tag_311:\n        /* \"#utility.yul\":6389:6390   */\n      0x00\n        /* \"#utility.yul\":6380:6386   */\n      dup5\n        /* \"#utility.yul\":6375:6378   */\n      dup5\n        /* \"#utility.yul\":6371:6387   */\n      add\n        /* \"#utility.yul\":6364:6391   */\n      mstore\n        /* \"#utility.yul\":6213:6397   */\n      pop\n        /* \"#utility.yul\":6151:6397   */\n      pop\n      pop\n      pop\n      jump\t// out\n        /* \"#utility.yul\":6403:6505   */\n    tag_198:\n        /* \"#utility.yul\":6444:6450   */\n      0x00\n        /* \"#utility.yul\":6495:6497   */\n      0x1f\n        /* \"#utility.yul\":6491:6498   */\n      not\n        /* \"#utility.yul\":6486:6488   */\n      0x1f\n        /* \"#utility.yul\":6479:6484   */\n      dup4\n        /* \"#utility.yul\":6475:6489   */\n      add\n        /* \"#utility.yul\":6471:6499   */\n      and\n        /* \"#utility.yul\":6461:6499   */\n      swap1\n      pop\n        /* \"#utility.yul\":6403:6505   */\n      swap2\n      swap1\n      pop\n      jump\t// out\n        /* \"#utility.yul\":6511:6868   */\n    tag_199:\n        /* \"#utility.yul\":6589:6592   */\n      0x00\n        /* \"#utility.yul\":6617:6656   */\n      tag_314\n        /* \"#utility.yul\":6650:6655   */\n      dup3\n        /* \"#utility.yul\":6617:6656   */\n      tag_195\n      jump\t// in\n    tag_314:\n        /* \"#utility.yul\":6672:6733   */\n      tag_315\n        /* \"#utility.yul\":6726:6732   */\n      dup2\n        /* \"#utility.yul\":6721:6724   */\n      dup6\n        /* \"#utility.yul\":6672:6733   */\n      tag_196\n      jump\t// in\n    tag_315:\n        /* \"#utility.yul\":6665:6733   */\n      swap4\n      pop\n        /* \"#utility.yul\":6742:6807   */\n      tag_316\n        /* \"#utility.yul\":6800:6806   */\n      dup2\n        /* \"#utility.yul\":6795:6798   */\n      dup6\n        /* \"#utility.yul\":6788:6792   */\n      0x20\n        /* \"#utility.yul\":6781:6786   */\n      dup7\n        /* \"#utility.yul\":6777:6793   */\n      add\n        /* \"#utility.yul\":6742:6807   */\n      tag_197\n      jump\t// in\n    tag_316:\n        /* \"#utility.yul\":6832:6861   */\n      tag_317\n        /* \"#utility.yul\":6854:6860   */\n      dup2\n        /* \"#utility.yul\":6832:6861   */\n      tag_198\n      jump\t// in\n    tag_317:\n        /* \"#utility.yul\":6827:6830   */\n      dup5\n        /* \"#utility.yul\":6823:6862   */\n      add\n        /* \"#utility.yul\":6816:6862   */\n      swap2\n      pop\n        /* \"#utility.yul\":6593:6868   */\n      pop\n        /* \"#utility.yul\":6511:6868   */\n      swap3\n      swap2\n      pop\n      pop\n      jump\t// out\n        /* \"#utility.yul\":6932:8271   */\n    tag_200:\n        /* \"#utility.yul\":7047:7050   */\n      0x00\n        /* \"#utility.yul\":7083:7087   */\n      0xa0\n        /* \"#utility.yul\":7078:7081   */\n      dup4\n        /* \"#utility.yul\":7074:7088   */\n      add\n        /* \"#utility.yul\":7175:7179   */\n      0x00\n        /* \"#utility.yul\":7168:7173   */\n      dup4\n        /* \"#utility.yul\":7164:7180   */\n      add\n        /* \"#utility.yul\":7158:7181   */\n      mload\n        /* \"#utility.yul\":7228:7231   */\n      dup5\n        /* \"#utility.yul\":7222:7226   */\n      dup3\n        /* \"#utility.yul\":7218:7232   */\n      sub\n        /* \"#utility.yul\":7211:7215   */\n      0x00\n        /* \"#utility.yul\":7206:7209   */\n      dup7\n        /* \"#utility.yul\":7202:7216   */\n      add\n        /* \"#utility.yul\":7195:7233   */\n      mstore\n        /* \"#utility.yul\":7254:7357   */\n      tag_319\n        /* \"#utility.yul\":7352:7356   */\n      dup3\n        /* \"#utility.yul\":7338:7350   */\n      dup3\n        /* \"#utility.yul\":7254:7357   */\n      tag_190\n      jump\t// in\n    tag_319:\n        /* \"#utility.yul\":7246:7357   */\n      swap2\n      pop\n        /* \"#utility.yul\":7098:7368   */\n      pop\n        /* \"#utility.yul\":7455:7459   */\n      0x20\n        /* \"#utility.yul\":7448:7453   */\n      dup4\n        /* \"#utility.yul\":7444:7460   */\n      add\n        /* \"#utility.yul\":7438:7461   */\n      mload\n        /* \"#utility.yul\":7508:7511   */\n      dup5\n        /* \"#utility.yul\":7502:7506   */\n      dup3\n        /* \"#utility.yul\":7498:7512   */\n      sub\n        /* \"#utility.yul\":7491:7495   */\n      0x20\n        /* \"#utility.yul\":7486:7489   */\n      dup7\n        /* \"#utility.yul\":7482:7496   */\n      add\n        /* \"#utility.yul\":7475:7513   */\n      mstore\n        /* \"#utility.yul\":7534:7637   */\n      tag_320\n        /* \"#utility.yul\":7632:7636   */\n      dup3\n        /* \"#utility.yul\":7618:7630   */\n      dup3\n        /* \"#utility.yul\":7534:7637   */\n      tag_190\n      jump\t// in\n    tag_320:\n        /* \"#utility.yul\":7526:7637   */\n      swap2\n      pop\n        /* \"#utility.yul\":7378:7648   */\n      pop\n        /* \"#utility.yul\":7732:7736   */\n      0x40\n        /* \"#utility.yul\":7725:7730   */\n      dup4\n        /* \"#utility.yul\":7721:7737   */\n      add\n        /* \"#utility.yul\":7715:7738   */\n      mload\n        /* \"#utility.yul\":7751:7810   */\n      tag_321\n        /* \"#utility.yul\":7804:7808   */\n      0x40\n        /* \"#utility.yul\":7799:7802   */\n      dup7\n        /* \"#utility.yul\":7795:7809   */\n      add\n        /* \"#utility.yul\":7781:7793   */\n      dup3\n        /* \"#utility.yul\":7751:7810   */\n      tag_192\n      jump\t// in\n    tag_321:\n        /* \"#utility.yul\":7658:7820   */\n      pop\n        /* \"#utility.yul\":7902:7906   */\n      0x60\n        /* \"#utility.yul\":7895:7900   */\n      dup4\n        /* \"#utility.yul\":7891:7907   */\n      add\n        /* \"#utility.yul\":7885:7908   */\n      mload\n        /* \"#utility.yul\":7921:7984   */\n      tag_322\n        /* \"#utility.yul\":7978:7982   */\n      0x60\n        /* \"#utility.yul\":7973:7976   */\n      dup7\n        /* \"#utility.yul\":7969:7983   */\n      add\n        /* \"#utility.yul\":7955:7967   */\n      dup3\n        /* \"#utility.yul\":7921:7984   */\n      tag_194\n      jump\t// in\n    tag_322:\n        /* \"#utility.yul\":7830:7994   */\n      pop\n        /* \"#utility.yul\":8081:8085   */\n      0x80\n        /* \"#utility.yul\":8074:8079   */\n      dup4\n        /* \"#utility.yul\":8070:8086   */\n      add\n        /* \"#utility.yul\":8064:8087   */\n      mload\n        /* \"#utility.yul\":8134:8137   */\n      dup5\n        /* \"#utility.yul\":8128:8132   */\n      dup3\n        /* \"#utility.yul\":8124:8138   */\n      sub\n        /* \"#utility.yul\":8117:8121   */\n      0x80\n        /* \"#utility.yul\":8112:8115   */\n      dup7\n        /* \"#utility.yul\":8108:8122   */\n      add\n        /* \"#utility.yul\":8101:8139   */\n      mstore\n        /* \"#utility.yul\":8160:8233   */\n      tag_323\n        /* \"#utility.yul\":8228:8232   */\n      dup3\n        /* \"#utility.yul\":8214:8226   */\n      dup3\n        /* \"#utility.yul\":8160:8233   */\n      tag_199\n      jump\t// in\n    tag_323:\n        /* \"#utility.yul\":8152:8233   */\n      swap2\n      pop\n        /* \"#utility.yul\":8004:8244   */\n      pop\n        /* \"#utility.yul\":8261:8265   */\n      dup1\n        /* \"#utility.yul\":8254:8265   */\n      swap2\n      pop\n        /* \"#utility.yul\":7052:8271   */\n      pop\n        /* \"#utility.yul\":6932:8271   */\n      swap3\n      swap2\n      pop\n      pop\n      jump\t// out\n        /* \"#utility.yul\":8277:8642   */\n    tag_17:\n        /* \"#utility.yul\":8416:8420   */\n      0x00\n        /* \"#utility.yul\":8454:8456   */\n      0x20\n        /* \"#utility.yul\":8443:8452   */\n      dup3\n        /* \"#utility.yul\":8439:8457   */\n      add\n        /* \"#utility.yul\":8431:8457   */\n      swap1\n      pop\n        /* \"#utility.yul\":8503:8512   */\n      dup2\n        /* \"#utility.yul\":8497:8501   */\n      dup2\n        /* \"#utility.yul\":8493:8513   */\n      sub\n        /* \"#utility.yul\":8489:8490   */\n      0x00\n        /* \"#utility.yul\":8478:8487   */\n      dup4\n        /* \"#utility.yul\":8474:8491   */\n      add\n        /* \"#utility.yul\":8467:8514   */\n      mstore\n        /* \"#utility.yul\":8531:8635   */\n      tag_325\n        /* \"#utility.yul\":8630:8634   */\n      dup2\n        /* \"#utility.yul\":8621:8627   */\n      dup5\n        /* \"#utility.yul\":8531:8635   */\n      tag_200\n      jump\t// in\n    tag_325:\n        /* \"#utility.yul\":8523:8635   */\n      swap1\n      pop\n        /* \"#utility.yul\":8277:8642   */\n      swap3\n      swap2\n      pop\n      pop\n      jump\t// out\n        /* \"#utility.yul\":8648:8765   */\n    tag_201:\n        /* \"#utility.yul\":8757:8758   */\n      0x00\n        /* \"#utility.yul\":8754:8755   */\n      dup1\n        /* \"#utility.yul\":8747:8759   */\n      revert\n        /* \"#utility.yul\":8771:8951   */\n    tag_202:\n        /* \"#utility.yul\":8819:8896   */\n      0x4e487b7100000000000000000000000000000000000000000000000000000000\n        /* \"#utility.yul\":8816:8817   */\n      0x00\n        /* \"#utility.yul\":8809:8897   */\n      mstore\n        /* \"#utility.yul\":8916:8920   */\n      0x41\n        /* \"#utility.yul\":8913:8914   */\n      0x04\n        /* \"#utility.yul\":8906:8921   */\n      mstore\n        /* \"#utility.yul\":8940:8944   */\n      0x24\n        /* \"#utility.yul\":8937:8938   */\n      0x00\n        /* \"#utility.yul\":8930:8945   */\n      revert\n        /* \"#utility.yul\":8957:9238   */\n    tag_203:\n        /* \"#utility.yul\":9040:9067   */\n      tag_329\n        /* \"#utility.yul\":9062:9066   */\n      dup3\n        /* \"#utility.yul\":9040:9067   */\n      tag_198\n      jump\t// in\n    tag_329:\n        /* \"#utility.yul\":9032:9038   */\n      dup2\n        /* \"#utility.yul\":9028:9068   */\n      add\n        /* \"#utility.yul\":9170:9176   */\n      dup2\n        /* \"#utility.yul\":9158:9168   */\n      dup2\n        /* \"#utility.yul\":9155:9177   */\n      lt\n        /* \"#utility.yul\":9134:9152   */\n      0xffffffffffffffff\n        /* \"#utility.yul\":9122:9132   */\n      dup3\n        /* \"#utility.yul\":9119:9153   */\n      gt\n        /* \"#utility.yul\":9116:9178   */\n      or\n        /* \"#utility.yul\":9113:9201   */\n      iszero\n      tag_330\n      jumpi\n        /* \"#utility.yul\":9181:9199   */\n      tag_331\n      tag_202\n      jump\t// in\n    tag_331:\n        /* \"#utility.yul\":9113:9201   */\n    tag_330:\n        /* \"#utility.yul\":9221:9231   */\n      dup1\n        /* \"#utility.yul\":9217:9219   */\n      0x40\n        /* \"#utility.yul\":9210:9232   */\n      mstore\n        /* \"#utility.yul\":9000:9238   */\n      pop\n        /* \"#utility.yul\":8957:9238   */\n      pop\n      pop\n      jump\t// out\n        /* \"#utility.yul\":9244:9373   */\n    tag_204:\n        /* \"#utility.yul\":9278:9284   */\n      0x00\n        /* \"#utility.yul\":9305:9325   */\n      tag_333\n      tag_167\n      jump\t// in\n    tag_333:\n        /* \"#utility.yul\":9295:9325   */\n      swap1\n      pop\n        /* \"#utility.yul\":9334:9367   */\n      tag_334\n        /* \"#utility.yul\":9362:9366   */\n      dup3\n        /* \"#utility.yul\":9354:9360   */\n      dup3\n        /* \"#utility.yul\":9334:9367   */\n      tag_203\n      jump\t// in\n    tag_334:\n        /* \"#utility.yul\":9244:9373   */\n      swap2\n      swap1\n      pop\n      jump\t// out\n        /* \"#utility.yul\":9379:9690   */\n    tag_205:\n        /* \"#utility.yul\":9456:9460   */\n      0x00\n        /* \"#utility.yul\":9546:9564   */\n      0xffffffffffffffff\n        /* \"#utility.yul\":9538:9544   */\n      dup3\n        /* \"#utility.yul\":9535:9565   */\n      gt\n        /* \"#utility.yul\":9532:9588   */\n      iszero\n      tag_336\n      jumpi\n        /* \"#utility.yul\":9568:9586   */\n      tag_337\n      tag_202\n      jump\t// in\n    tag_337:\n        /* \"#utility.yul\":9532:9588   */\n    tag_336:\n        /* \"#utility.yul\":9618:9622   */\n      0x20\n        /* \"#utility.yul\":9610:9616   */\n      dup3\n        /* \"#utility.yul\":9606:9623   */\n      mul\n        /* \"#utility.yul\":9598:9623   */\n      swap1\n      pop\n        /* \"#utility.yul\":9678:9682   */\n      0x20\n        /* \"#utility.yul\":9672:9676   */\n      dup2\n        /* \"#utility.yul\":9668:9683   */\n      add\n        /* \"#utility.yul\":9660:9683   */\n      swap1\n      pop\n        /* \"#utility.yul\":9379:9690   */\n      swap2\n      swap1\n      pop\n      jump\t// out\n        /* \"#utility.yul\":9696:9813   */\n    tag_206:\n        /* \"#utility.yul\":9805:9806   */\n      0x00\n        /* \"#utility.yul\":9802:9803   */\n      dup1\n        /* \"#utility.yul\":9795:9807   */\n      revert\n        /* \"#utility.yul\":9836:10546   */\n    tag_207:\n        /* \"#utility.yul\":9932:9937   */\n      0x00\n        /* \"#utility.yul\":9957:10038   */\n      tag_340\n        /* \"#utility.yul\":9973:10037   */\n      tag_341\n        /* \"#utility.yul\":10030:10036   */\n      dup5\n        /* \"#utility.yul\":9973:10037   */\n      tag_205\n      jump\t// in\n    tag_341:\n        /* \"#utility.yul\":9957:10038   */\n      tag_204\n      jump\t// in\n    tag_340:\n        /* \"#utility.yul\":9948:10038   */\n      swap1\n      pop\n        /* \"#utility.yul\":10058:10063   */\n      dup1\n        /* \"#utility.yul\":10087:10093   */\n      dup4\n        /* \"#utility.yul\":10080:10085   */\n      dup3\n        /* \"#utility.yul\":10073:10094   */\n      mstore\n        /* \"#utility.yul\":10121:10125   */\n      0x20\n        /* \"#utility.yul\":10114:10119   */\n      dup3\n        /* \"#utility.yul\":10110:10126   */\n      add\n        /* \"#utility.yul\":10103:10126   */\n      swap1\n      pop\n        /* \"#utility.yul\":10174:10178   */\n      0x20\n        /* \"#utility.yul\":10166:10172   */\n      dup5\n        /* \"#utility.yul\":10162:10179   */\n      mul\n        /* \"#utility.yul\":10154:10160   */\n      dup4\n        /* \"#utility.yul\":10150:10180   */\n      add\n        /* \"#utility.yul\":10203:10206   */\n      dup6\n        /* \"#utility.yul\":10195:10201   */\n      dup2\n        /* \"#utility.yul\":10192:10207   */\n      gt\n        /* \"#utility.yul\":10189:10311   */\n      iszero\n      tag_342\n      jumpi\n        /* \"#utility.yul\":10222:10301   */\n      tag_343\n      tag_206\n      jump\t// in\n    tag_343:\n        /* \"#utility.yul\":10189:10311   */\n    tag_342:\n        /* \"#utility.yul\":10337:10343   */\n      dup4\n        /* \"#utility.yul\":10320:10540   */\n    tag_344:\n        /* \"#utility.yul\":10354:10360   */\n      dup2\n        /* \"#utility.yul\":10349:10352   */\n      dup2\n        /* \"#utility.yul\":10346:10361   */\n      lt\n        /* \"#utility.yul\":10320:10540   */\n      iszero\n      tag_346\n      jumpi\n        /* \"#utility.yul\":10429:10432   */\n      dup1\n        /* \"#utility.yul\":10458:10495   */\n      tag_347\n        /* \"#utility.yul\":10491:10494   */\n      dup9\n        /* \"#utility.yul\":10479:10489   */\n      dup3\n        /* \"#utility.yul\":10458:10495   */\n      tag_173\n      jump\t// in\n    tag_347:\n        /* \"#utility.yul\":10453:10456   */\n      dup5\n        /* \"#utility.yul\":10446:10496   */\n      mstore\n        /* \"#utility.yul\":10525:10529   */\n      0x20\n        /* \"#utility.yul\":10520:10523   */\n      dup5\n        /* \"#utility.yul\":10516:10530   */\n      add\n        /* \"#utility.yul\":10509:10530   */\n      swap4\n      pop\n        /* \"#utility.yul\":10396:10540   */\n      pop\n        /* \"#utility.yul\":10380:10384   */\n      0x20\n        /* \"#utility.yul\":10375:10378   */\n      dup2\n        /* \"#utility.yul\":10371:10385   */\n      add\n        /* \"#utility.yul\":10364:10385   */\n      swap1\n      pop\n        /* \"#utility.yul\":10320:10540   */\n      jump(tag_344)\n    tag_346:\n        /* \"#utility.yul\":10324:10345   */\n      pop\n        /* \"#utility.yul\":9938:10546   */\n      pop\n      pop\n        /* \"#utility.yul\":9836:10546   */\n      swap4\n      swap3\n      pop\n      pop\n      pop\n      jump\t// out\n        /* \"#utility.yul\":10569:10939   */\n    tag_208:\n        /* \"#utility.yul\":10640:10645   */\n      0x00\n        /* \"#utility.yul\":10689:10692   */\n      dup3\n        /* \"#utility.yul\":10682:10686   */\n      0x1f\n        /* \"#utility.yul\":10674:10680   */\n      dup4\n        /* \"#utility.yul\":10670:10687   */\n      add\n        /* \"#utility.yul\":10666:10693   */\n      slt\n        /* \"#utility.yul\":10656:10778   */\n      tag_349\n      jumpi\n        /* \"#utility.yul\":10697:10776   */\n      tag_350\n      tag_201\n      jump\t// in\n    tag_350:\n        /* \"#utility.yul\":10656:10778   */\n    tag_349:\n        /* \"#utility.yul\":10814:10820   */\n      dup2\n        /* \"#utility.yul\":10801:10821   */\n      calldataload\n        /* \"#utility.yul\":10839:10933   */\n      tag_351\n        /* \"#utility.yul\":10929:10932   */\n      dup5\n        /* \"#utility.yul\":10921:10927   */\n      dup3\n        /* \"#utility.yul\":10914:10918   */\n      0x20\n        /* \"#utility.yul\":10906:10912   */\n      dup7\n        /* \"#utility.yul\":10902:10919   */\n      add\n        /* \"#utility.yul\":10839:10933   */\n      tag_207\n      jump\t// in\n    tag_351:\n        /* \"#utility.yul\":10830:10933   */\n      swap2\n      pop\n        /* \"#utility.yul\":10646:10939   */\n      pop\n        /* \"#utility.yul\":10569:10939   */\n      swap3\n      swap2\n      pop\n      pop\n      jump\t// out\n        /* \"#utility.yul\":10945:11062   */\n    tag_209:\n        /* \"#utility.yul\":11054:11055   */\n      0x00\n        /* \"#utility.yul\":11051:11052   */\n      dup1\n        /* \"#utility.yul\":11044:11056   */\n      revert\n        /* \"#utility.yul\":11068:11376   */\n    tag_210:\n        /* \"#utility.yul\":11130:11134   */\n      0x00\n        /* \"#utility.yul\":11220:11238   */\n      0xffffffffffffffff\n        /* \"#utility.yul\":11212:11218   */\n      dup3\n        /* \"#utility.yul\":11209:11239   */\n      gt\n        /* \"#utility.yul\":11206:11262   */\n      iszero\n      tag_354\n      jumpi\n        /* \"#utility.yul\":11242:11260   */\n      tag_355\n      tag_202\n      jump\t// in\n    tag_355:\n        /* \"#utility.yul\":11206:11262   */\n    tag_354:\n        /* \"#utility.yul\":11280:11309   */\n      tag_356\n        /* \"#utility.yul\":11302:11308   */\n      dup3\n        /* \"#utility.yul\":11280:11309   */\n      tag_198\n      jump\t// in\n    tag_356:\n        /* \"#utility.yul\":11272:11309   */\n      swap1\n      pop\n        /* \"#utility.yul\":11364:11368   */\n      0x20\n        /* \"#utility.yul\":11358:11362   */\n      dup2\n        /* \"#utility.yul\":11354:11369   */\n      add\n        /* \"#utility.yul\":11346:11369   */\n      swap1\n      pop\n        /* \"#utility.yul\":11068:11376   */\n      swap2\n      swap1\n      pop\n      jump\t// out\n        /* \"#utility.yul\":11382:11528   */\n    tag_211:\n        /* \"#utility.yul\":11479:11485   */\n      dup3\n        /* \"#utility.yul\":11474:11477   */\n      dup2\n        /* \"#utility.yul\":11469:11472   */\n      dup4\n        /* \"#utility.yul\":11456:11486   */\n      calldatacopy\n        /* \"#utility.yul\":11520:11521   */\n      0x00\n        /* \"#utility.yul\":11511:11517   */\n      dup4\n        /* \"#utility.yul\":11506:11509   */\n      dup4\n        /* \"#utility.yul\":11502:11518   */\n      add\n        /* \"#utility.yul\":11495:11522   */\n      mstore\n        /* \"#utility.yul\":11382:11528   */\n      pop\n      pop\n      pop\n      jump\t// out\n        /* \"#utility.yul\":11534:11959   */\n    tag_212:\n        /* \"#utility.yul\":11612:11617   */\n      0x00\n        /* \"#utility.yul\":11637:11703   */\n      tag_359\n        /* \"#utility.yul\":11653:11702   */\n      tag_360\n        /* \"#utility.yul\":11695:11701   */\n      dup5\n        /* \"#utility.yul\":11653:11702   */\n      tag_210\n      jump\t// in\n    tag_360:\n        /* \"#utility.yul\":11637:11703   */\n      tag_204\n      jump\t// in\n    tag_359:\n        /* \"#utility.yul\":11628:11703   */\n      swap1\n      pop\n        /* \"#utility.yul\":11726:11732   */\n      dup3\n        /* \"#utility.yul\":11719:11724   */\n      dup2\n        /* \"#utility.yul\":11712:11733   */\n      mstore\n        /* \"#utility.yul\":11764:11768   */\n      0x20\n        /* \"#utility.yul\":11757:11762   */\n      dup2\n        /* \"#utility.yul\":11753:11769   */\n      add\n        /* \"#utility.yul\":11802:11805   */\n      dup5\n        /* \"#utility.yul\":11793:11799   */\n      dup5\n        /* \"#utility.yul\":11788:11791   */\n      dup5\n        /* \"#utility.yul\":11784:11800   */\n      add\n        /* \"#utility.yul\":11781:11806   */\n      gt\n        /* \"#utility.yul\":11778:11890   */\n      iszero\n      tag_361\n      jumpi\n        /* \"#utility.yul\":11809:11888   */\n      tag_362\n      tag_209\n      jump\t// in\n    tag_362:\n        /* \"#utility.yul\":11778:11890   */\n    tag_361:\n        /* \"#utility.yul\":11899:11953   */\n      tag_363\n        /* \"#utility.yul\":11946:11952   */\n      dup5\n        /* \"#utility.yul\":11941:11944   */\n      dup3\n        /* \"#utility.yul\":11936:11939   */\n      dup6\n        /* \"#utility.yul\":11899:11953   */\n      tag_211\n      jump\t// in\n    tag_363:\n        /* \"#utility.yul\":11618:11959   */\n      pop\n        /* \"#utility.yul\":11534:11959   */\n      swap4\n      swap3\n      pop\n      pop\n      pop\n      jump\t// out\n        /* \"#utility.yul\":11979:12319   */\n    tag_213:\n        /* \"#utility.yul\":12035:12040   */\n      0x00\n        /* \"#utility.yul\":12084:12087   */\n      dup3\n        /* \"#utility.yul\":12077:12081   */\n      0x1f\n        /* \"#utility.yul\":12069:12075   */\n      dup4\n        /* \"#utility.yul\":12065:12082   */\n      add\n        /* \"#utility.yul\":12061:12088   */\n      slt\n        /* \"#utility.yul\":12051:12173   */\n      tag_365\n      jumpi\n        /* \"#utility.yul\":12092:12171   */\n      tag_366\n      tag_201\n      jump\t// in\n    tag_366:\n        /* \"#utility.yul\":12051:12173   */\n    tag_365:\n        /* \"#utility.yul\":12209:12215   */\n      dup2\n        /* \"#utility.yul\":12196:12216   */\n      calldataload\n        /* \"#utility.yul\":12234:12313   */\n      tag_367\n        /* \"#utility.yul\":12309:12312   */\n      dup5\n        /* \"#utility.yul\":12301:12307   */\n      dup3\n        /* \"#utility.yul\":12294:12298   */\n      0x20\n        /* \"#utility.yul\":12286:12292   */\n      dup7\n        /* \"#utility.yul\":12282:12299   */\n      add\n        /* \"#utility.yul\":12234:12313   */\n      tag_212\n      jump\t// in\n    tag_367:\n        /* \"#utility.yul\":12225:12313   */\n      swap2\n      pop\n        /* \"#utility.yul\":12041:12319   */\n      pop\n        /* \"#utility.yul\":11979:12319   */\n      swap3\n      swap2\n      pop\n      pop\n      jump\t// out\n        /* \"#utility.yul\":12325:13334   */\n    tag_20:\n        /* \"#utility.yul\":12437:12443   */\n      0x00\n        /* \"#utility.yul\":12445:12451   */\n      dup1\n        /* \"#utility.yul\":12453:12459   */\n      0x00\n        /* \"#utility.yul\":12502:12504   */\n      0x60\n        /* \"#utility.yul\":12490:12499   */\n      dup5\n        /* \"#utility.yul\":12481:12488   */\n      dup7\n        /* \"#utility.yul\":12477:12500   */\n      sub\n        /* \"#utility.yul\":12473:12505   */\n      slt\n        /* \"#utility.yul\":12470:12589   */\n      iszero\n      tag_369\n      jumpi\n        /* \"#utility.yul\":12508:12587   */\n      tag_370\n      tag_168\n      jump\t// in\n    tag_370:\n        /* \"#utility.yul\":12470:12589   */\n    tag_369:\n        /* \"#utility.yul\":12628:12629   */\n      0x00\n        /* \"#utility.yul\":12653:12706   */\n      tag_371\n        /* \"#utility.yul\":12698:12705   */\n      dup7\n        /* \"#utility.yul\":12689:12695   */\n      dup3\n        /* \"#utility.yul\":12678:12687   */\n      dup8\n        /* \"#utility.yul\":12674:12696   */\n      add\n        /* \"#utility.yul\":12653:12706   */\n      tag_183\n      jump\t// in\n    tag_371:\n        /* \"#utility.yul\":12643:12706   */\n      swap4\n      pop\n        /* \"#utility.yul\":12599:12716   */\n      pop\n        /* \"#utility.yul\":12783:12785   */\n      0x20\n        /* \"#utility.yul\":12772:12781   */\n      dup5\n        /* \"#utility.yul\":12768:12786   */\n      add\n        /* \"#utility.yul\":12755:12787   */\n      calldataload\n        /* \"#utility.yul\":12814:12832   */\n      0xffffffffffffffff\n        /* \"#utility.yul\":12806:12812   */\n      dup2\n        /* \"#utility.yul\":12803:12833   */\n      gt\n        /* \"#utility.yul\":12800:12917   */\n      iszero\n      tag_372\n      jumpi\n        /* \"#utility.yul\":12836:12915   */\n      tag_373\n      tag_169\n      jump\t// in\n    tag_373:\n        /* \"#utility.yul\":12800:12917   */\n    tag_372:\n        /* \"#utility.yul\":12941:13019   */\n      tag_374\n        /* \"#utility.yul\":13011:13018   */\n      dup7\n        /* \"#utility.yul\":13002:13008   */\n      dup3\n        /* \"#utility.yul\":12991:13000   */\n      dup8\n        /* \"#utility.yul\":12987:13009   */\n      add\n        /* \"#utility.yul\":12941:13019   */\n      tag_208\n      jump\t// in\n    tag_374:\n        /* \"#utility.yul\":12931:13019   */\n      swap3\n      pop\n        /* \"#utility.yul\":12726:13029   */\n      pop\n        /* \"#utility.yul\":13096:13098   */\n      0x40\n        /* \"#utility.yul\":13085:13094   */\n      dup5\n        /* \"#utility.yul\":13081:13099   */\n      add\n        /* \"#utility.yul\":13068:13100   */\n      calldataload\n        /* \"#utility.yul\":13127:13145   */\n      0xffffffffffffffff\n        /* \"#utility.yul\":13119:13125   */\n      dup2\n        /* \"#utility.yul\":13116:13146   */\n      gt\n        /* \"#utility.yul\":13113:13230   */\n      iszero\n      tag_375\n      jumpi\n        /* \"#utility.yul\":13149:13228   */\n      tag_376\n      tag_169\n      jump\t// in\n    tag_376:\n        /* \"#utility.yul\":13113:13230   */\n    tag_375:\n        /* \"#utility.yul\":13254:13317   */\n      tag_377\n        /* \"#utility.yul\":13309:13316   */\n      dup7\n        /* \"#utility.yul\":13300:13306   */\n      dup3\n        /* \"#utility.yul\":13289:13298   */\n      dup8\n        /* \"#utility.yul\":13285:13307   */\n      add\n        /* \"#utility.yul\":13254:13317   */\n      tag_213\n      jump\t// in\n    tag_377:\n        /* \"#utility.yul\":13244:13317   */\n      swap2\n      pop\n        /* \"#utility.yul\":13039:13327   */\n      pop\n        /* \"#utility.yul\":12325:13334   */\n      swap3\n      pop\n      swap3\n      pop\n      swap3\n      jump\t// out\n        /* \"#utility.yul\":13340:13520   */\n    tag_214:\n        /* \"#utility.yul\":13388:13465   */\n      0x4e487b7100000000000000000000000000000000000000000000000000000000\n        /* \"#utility.yul\":13385:13386   */\n      0x00\n        /* \"#utility.yul\":13378:13466   */\n      mstore\n        /* \"#utility.yul\":13485:13489   */\n      0x22\n        /* \"#utility.yul\":13482:13483   */\n      0x04\n        /* \"#utility.yul\":13475:13490   */\n      mstore\n        /* \"#utility.yul\":13509:13513   */\n      0x24\n        /* \"#utility.yul\":13506:13507   */\n      0x00\n        /* \"#utility.yul\":13499:13514   */\n      revert\n        /* \"#utility.yul\":13526:13846   */\n    tag_33:\n        /* \"#utility.yul\":13570:13576   */\n      0x00\n        /* \"#utility.yul\":13607:13608   */\n      0x02\n        /* \"#utility.yul\":13601:13605   */\n      dup3\n        /* \"#utility.yul\":13597:13609   */\n      div\n        /* \"#utility.yul\":13587:13609   */\n      swap1\n      pop\n        /* \"#utility.yul\":13654:13655   */\n      0x01\n        /* \"#utility.yul\":13648:13652   */\n      dup3\n        /* \"#utility.yul\":13644:13656   */\n      and\n        /* \"#utility.yul\":13675:13693   */\n      dup1\n        /* \"#utility.yul\":13665:13746   */\n      tag_380\n      jumpi\n        /* \"#utility.yul\":13731:13735   */\n      0x7f\n        /* \"#utility.yul\":13723:13729   */\n      dup3\n        /* \"#utility.yul\":13719:13736   */\n      and\n        /* \"#utility.yul\":13709:13736   */\n      swap2\n      pop\n        /* \"#utility.yul\":13665:13746   */\n    tag_380:\n        /* \"#utility.yul\":13793:13795   */\n      0x20\n        /* \"#utility.yul\":13785:13791   */\n      dup3\n        /* \"#utility.yul\":13782:13796   */\n      lt\n        /* \"#utility.yul\":13762:13780   */\n      dup2\n        /* \"#utility.yul\":13759:13797   */\n      sub\n        /* \"#utility.yul\":13756:13840   */\n      tag_381\n      jumpi\n        /* \"#utility.yul\":13812:13830   */\n      tag_382\n      tag_214\n      jump\t// in\n    tag_382:\n        /* \"#utility.yul\":13756:13840   */\n    tag_381:\n        /* \"#utility.yul\":13577:13846   */\n      pop\n        /* \"#utility.yul\":13526:13846   */\n      swap2\n      swap1\n      pop\n      jump\t// out\n        /* \"#utility.yul\":13852:14001   */\n    tag_215:\n        /* \"#utility.yul\":13901:13907   */\n      0x00\n        /* \"#utility.yul\":13935:13940   */\n      dup2\n        /* \"#utility.yul\":13929:13941   */\n      sload\n        /* \"#utility.yul\":13919:13941   */\n      swap1\n      pop\n        /* \"#utility.yul\":13961:13994   */\n      tag_384\n        /* \"#utility.yul\":13987:13993   */\n      dup2\n        /* \"#utility.yul\":13961:13994   */\n      tag_33\n      jump\t// in\n    tag_384:\n        /* \"#utility.yul\":13951:13994   */\n      swap1\n      pop\n        /* \"#utility.yul\":13852:14001   */\n      swap2\n      swap1\n      pop\n      jump\t// out\n        /* \"#utility.yul\":14007:14148   */\n    tag_216:\n        /* \"#utility.yul\":14056:14060   */\n      0x00\n        /* \"#utility.yul\":14079:14082   */\n      dup2\n        /* \"#utility.yul\":14071:14082   */\n      swap1\n      pop\n        /* \"#utility.yul\":14102:14105   */\n      dup2\n        /* \"#utility.yul\":14099:14100   */\n      0x00\n        /* \"#utility.yul\":14092:14106   */\n      mstore\n        /* \"#utility.yul\":14136:14140   */\n      0x20\n        /* \"#utility.yul\":14133:14134   */\n      0x00\n        /* \"#utility.yul\":14123:14141   */\n      keccak256\n        /* \"#utility.yul\":14115:14141   */\n      swap1\n      pop\n        /* \"#utility.yul\":14007:14148   */\n      swap2\n      swap1\n      pop\n      jump\t// out\n        /* \"#utility.yul\":14154:14247   */\n    tag_217:\n        /* \"#utility.yul\":14191:14197   */\n      0x00\n        /* \"#utility.yul\":14238:14240   */\n      0x20\n        /* \"#utility.yul\":14233:14235   */\n      0x1f\n        /* \"#utility.yul\":14226:14231   */\n      dup4\n        /* \"#utility.yul\":14222:14236   */\n      add\n        /* \"#utility.yul\":14218:14241   */\n      div\n        /* \"#utility.yul\":14208:14241   */\n      swap1\n      pop\n        /* \"#utility.yul\":14154:14247   */\n      swap2\n      swap1\n      pop\n      jump\t// out\n        /* \"#utility.yul\":14253:14360   */\n    tag_218:\n        /* \"#utility.yul\":14297:14305   */\n      0x00\n        /* \"#utility.yul\":14347:14352   */\n      dup3\n        /* \"#utility.yul\":14341:14345   */\n      dup3\n        /* \"#utility.yul\":14337:14353   */\n      shl\n        /* \"#utility.yul\":14316:14353   */\n      swap1\n      pop\n        /* \"#utility.yul\":14253:14360   */\n      swap3\n      swap2\n      pop\n      pop\n      jump\t// out\n        /* \"#utility.yul\":14366:14759   */\n    tag_219:\n        /* \"#utility.yul\":14435:14441   */\n      0x00\n        /* \"#utility.yul\":14485:14486   */\n      0x08\n        /* \"#utility.yul\":14473:14483   */\n      dup4\n        /* \"#utility.yul\":14469:14487   */\n      mul\n        /* \"#utility.yul\":14508:14605   */\n      tag_389\n        /* \"#utility.yul\":14538:14604   */\n      0xffffffffffffffffffffffffffffffffffffffffffffffffffffffffffffffff\n        /* \"#utility.yul\":14527:14536   */\n      dup3\n        /* \"#utility.yul\":14508:14605   */\n      tag_218\n      jump\t// in\n    tag_389:\n        /* \"#utility.yul\":14626:14665   */\n      tag_390\n        /* \"#utility.yul\":14656:14664   */\n      dup7\n        /* \"#utility.yul\":14645:14654   */\n      dup4\n        /* \"#utility.yul\":14626:14665   */\n      tag_218\n      jump\t// in\n    tag_390:\n        /* \"#utility.yul\":14614:14665   */\n      swap6\n      pop\n        /* \"#utility.yul\":14698:14702   */\n      dup1\n        /* \"#utility.yul\":14694:14703   */\n      not\n        /* \"#utility.yul\":14687:14692   */\n      dup5\n        /* \"#utility.yul\":14683:14704   */\n      and\n        /* \"#utility.yul\":14674:14704   */\n      swap4\n      pop\n        /* \"#utility.yul\":14747:14751   */\n      dup1\n        /* \"#utility.yul\":14737:14745   */\n      dup7\n        /* \"#utility.yul\":14733:14752   */\n      and\n        /* \"#utility.yul\":14726:14731   */\n      dup5\n        /* \"#utility.yul\":14723:14753   */\n      or\n        /* \"#utility.yul\":14713:14753   */\n      swap3\n      pop\n        /* \"#utility.yul\":14442:14759   */\n      pop\n      pop\n        /* \"#utility.yul\":14366:14759   */\n      swap4\n      swap3\n      pop\n      pop\n      pop\n      jump\t// out\n        /* \"#utility.yul\":14765:14825   */\n    tag_220:\n        /* \"#utility.yul\":14793:14796   */\n      0x00\n        /* \"#utility.yul\":14814:14819   */\n      dup2\n        /* \"#utility.yul\":14807:14819   */\n      swap1\n      pop\n        /* \"#utility.yul\":14765:14825   */\n      swap2\n      swap1\n      pop\n      jump\t// out\n        /* \"#utility.yul\":14831:14973   */\n    tag_221:\n        /* \"#utility.yul\":14881:14890   */\n      0x00\n        /* \"#utility.yul\":14914:14967   */\n      tag_393\n        /* \"#utility.yul\":14932:14966   */\n      tag_394\n        /* \"#utility.yul\":14941:14965   */\n      tag_395\n        /* \"#utility.yul\":14959:14964   */\n      dup5\n        /* \"#utility.yul\":14941:14965   */\n      tag_193\n      jump\t// in\n    tag_395:\n        /* \"#utility.yul\":14932:14966   */\n      tag_220\n      jump\t// in\n    tag_394:\n        /* \"#utility.yul\":14914:14967   */\n      tag_193\n      jump\t// in\n    tag_393:\n        /* \"#utility.yul\":14901:14967   */\n      swap1\n      pop\n        /* \"#utility.yul\":14831:14973   */\n      swap2\n      swap1\n      pop\n      jump\t// out\n        /* \"#utility.yul\":14979:15054   */\n    tag_222:\n        /* \"#utility.yul\":15022:15025   */\n      0x00\n        /* \"#utility.yul\":15043:15048   */\n      dup2\n        /* \"#utility.yul\":15036:15048   */\n      swap1\n      pop\n        /* \"#utility.yul\":14979:15054   */\n      swap2\n      swap1\n      pop\n      jump\t// out\n        /* \"#utility.yul\":15060:15329   */\n    tag_223:\n        /* \"#utility.yul\":15170:15209   */\n      tag_398\n        /* \"#utility.yul\":15201:15208   */\n      dup4\n        /* \"#utility.yul\":15170:15209   */\n      tag_221\n      jump\t// in\n    tag_398:\n        /* \"#utility.yul\":15231:15322   */\n      tag_399\n        /* \"#utility.yul\":15280:15321   */\n      tag_400\n        /* \"#utility.yul\":15304:15320   */\n      dup3\n        /* \"#utility.yul\":15280:15321   */\n      tag_222\n      jump\t// in\n    tag_400:\n        /* \"#utility.yul\":15272:15278   */\n      dup5\n        /* \"#utility.yul\":15265:15269   */\n      dup5\n        /* \"#utility.yul\":15259:15270   */\n      sload\n        /* \"#utility.yul\":15231:15322   */\n      tag_219\n      jump\t// in\n    tag_399:\n        /* \"#utility.yul\":15225:15229   */\n      dup3\n        /* \"#utility.yul\":15218:15323   */\n      sstore\n        /* \"#utility.yul\":15136:15329   */\n      pop\n        /* \"#utility.yul\":15060:15329   */\n      pop\n      pop\n      pop\n      jump\t// out\n        /* \"#utility.yul\":15335:15408   */\n    tag_224:\n        /* \"#utility.yul\":15380:15383   */\n      0x00\n        /* \"#utility.yul\":15335:15408   */\n      swap1\n      jump\t// out\n        /* \"#utility.yul\":15414:15603   */\n    tag_225:\n        /* \"#utility.yul\":15491:15523   */\n      tag_403\n      tag_224\n      jump\t// in\n    tag_403:\n        /* \"#utility.yul\":15532:15597   */\n      tag_404\n        /* \"#utility.yul\":15590:15596   */\n      dup2\n        /* \"#utility.yul\":15582:15588   */\n      dup5\n        /* \"#utility.yul\":15576:15580   */\n      dup5\n        /* \"#utility.yul\":15532:15597   */\n      tag_223\n      jump\t// in\n    tag_404:\n        /* \"#utility.yul\":15467:15603   */\n      pop\n        /* \"#utility.yul\":15414:15603   */\n      pop\n      pop\n      jump\t// out\n        /* \"#utility.yul\":15609:15795   */\n    tag_226:\n        /* \"#utility.yul\":15669:15789   */\n    tag_406:\n        /* \"#utility.yul\":15686:15689   */\n      dup2\n        /* \"#utility.yul\":15679:15684   */\n      dup2\n        /* \"#utility.yul\":15676:15690   */\n      lt\n        /* \"#utility.yul\":15669:15789   */\n      iszero\n      tag_408\n      jumpi\n        /* \"#utility.yul\":15740:15779   */\n      tag_409\n        /* \"#utility.yul\":15777:15778   */\n      0x00\n        /* \"#utility.yul\":15770:15775   */\n      dup3\n        /* \"#utility.yul\":15740:15779   */\n      tag_225\n      jump\t// in\n    tag_409:\n        /* \"#utility.yul\":15713:15714   */\n      0x01\n        /* \"#utility.yul\":15706:15711   */\n      dup2\n        /* \"#utility.yul\":15702:15715   */\n      add\n        /* \"#utility.yul\":15693:15715   */\n      swap1\n      pop\n        /* \"#utility.yul\":15669:15789   */\n      jump(tag_406)\n    tag_408:\n        /* \"#utility.yul\":15609:15795   */\n      pop\n      pop\n      jump\t// out\n        /* \"#utility.yul\":15801:16344   */\n    tag_227:\n        /* \"#utility.yul\":15902:15904   */\n      0x1f\n        /* \"#utility.yul\":15897:15900   */\n      dup3\n        /* \"#utility.yul\":15894:15905   */\n      gt\n        /* \"#utility.yul\":15891:16337   */\n      iszero\n      tag_411\n      jumpi\n        /* \"#utility.yul\":15936:15974   */\n      tag_412\n        /* \"#utility.yul\":15968:15973   */\n      dup2\n        /* \"#utility.yul\":15936:15974   */\n      tag_216\n      jump\t// in\n    tag_412:\n        /* \"#utility.yul\":16020:16049   */\n      tag_413\n        /* \"#utility.yul\":16038:16048   */\n      dup5\n        /* \"#utility.yul\":16020:16049   */\n      tag_217\n      jump\t// in\n    tag_413:\n        /* \"#utility.yul\":16010:16018   */\n      dup2\n        /* \"#utility.yul\":16006:16050   */\n      add\n        /* \"#utility.yul\":16203:16205   */\n      0x20\n        /* \"#utility.yul\":16191:16201   */\n      dup6\n        /* \"#utility.yul\":16188:16206   */\n      lt\n        /* \"#utility.yul\":16185:16234   */\n      iszero\n      tag_414\n      jumpi\n        /* \"#utility.yul\":16224:16232   */\n      dup2\n        /* \"#utility.yul\":16209:16232   */\n      swap1\n      pop\n        /* \"#utility.yul\":16185:16234   */\n    tag_414:\n        /* \"#utility.yul\":16247:16327   */\n      tag_415\n        /* \"#utility.yul\":16303:16325   */\n      tag_416\n        /* \"#utility.yul\":16321:16324   */\n      dup6\n        /* \"#utility.yul\":16303:16325   */\n      tag_217\n      jump\t// in\n    tag_416:\n        /* \"#utility.yul\":16293:16301   */\n      dup4\n        /* \"#utility.yul\":16289:16326   */\n      add\n        /* \"#utility.yul\":16276:16287   */\n      dup3\n        /* \"#utility.yul\":16247:16327   */\n      tag_226\n      jump\t// in\n    tag_415:\n        /* \"#utility.yul\":15906:16337   */\n      pop\n      pop\n        /* \"#utility.yul\":15891:16337   */\n    tag_411:\n        /* \"#utility.yul\":15801:16344   */\n      pop\n      pop\n      pop\n      jump\t// out\n        /* \"#utility.yul\":16350:16467   */\n    tag_228:\n        /* \"#utility.yul\":16404:16412   */\n      0x00\n        /* \"#utility.yul\":16454:16459   */\n      dup3\n        /* \"#utility.yul\":16448:16452   */\n      dup3\n        /* \"#utility.yul\":16444:16460   */\n      shr\n        /* \"#utility.yul\":16423:16460   */\n      swap1\n      pop\n        /* \"#utility.yul\":16350:16467   */\n      swap3\n      swap2\n      pop\n      pop\n      jump\t// out\n        /* \"#utility.yul\":16473:16642   */\n    tag_229:\n        /* \"#utility.yul\":16517:16523   */\n      0x00\n        /* \"#utility.yul\":16550:16601   */\n      tag_419\n        /* \"#utility.yul\":16598:16599   */\n      0x00\n        /* \"#utility.yul\":16594:16600   */\n      not\n        /* \"#utility.yul\":16586:16591   */\n      dup5\n        /* \"#utility.yul\":16583:16584   */\n      0x08\n        /* \"#utility.yul\":16579:16592   */\n      mul\n        /* \"#utility.yul\":16550:16601   */\n      tag_228\n      jump\t// in\n    tag_419:\n        /* \"#utility.yul\":16546:16602   */\n      not\n        /* \"#utility.yul\":16631:16635   */\n      dup1\n        /* \"#utility.yul\":16625:16629   */\n      dup4\n        /* \"#utility.yul\":16621:16636   */\n      and\n        /* \"#utility.yul\":16611:16636   */\n      swap2\n      pop\n        /* \"#utility.yul\":16524:16642   */\n      pop\n        /* \"#utility.yul\":16473:16642   */\n      swap3\n      swap2\n      pop\n      pop\n      jump\t// out\n        /* \"#utility.yul\":16647:16942   */\n    tag_230:\n        /* \"#utility.yul\":16723:16727   */\n      0x00\n        /* \"#utility.yul\":16869:16898   */\n      tag_421\n        /* \"#utility.yul\":16894:16897   */\n      dup4\n        /* \"#utility.yul\":16888:16892   */\n      dup4\n        /* \"#utility.yul\":16869:16898   */\n      tag_229\n      jump\t// in\n    tag_421:\n        /* \"#utility.yul\":16861:16898   */\n      swap2\n      pop\n        /* \"#utility.yul\":16931:16934   */\n      dup3\n        /* \"#utility.yul\":16928:16929   */\n      0x02\n        /* \"#utility.yul\":16924:16935   */\n      mul\n        /* \"#utility.yul\":16918:16922   */\n      dup3\n        /* \"#utility.yul\":16915:16936   */\n      or\n        /* \"#utility.yul\":16907:16936   */\n      swap1\n      pop\n        /* \"#utility.yul\":16647:16942   */\n      swap3\n      swap2\n      pop\n      pop\n      jump\t// out\n        /* \"#utility.yul\":16947:18398   */\n    tag_46:\n        /* \"#utility.yul\":17058:17061   */\n      dup2\n        /* \"#utility.yul\":17052:17056   */\n      dup2\n        /* \"#utility.yul\":17049:17062   */\n      sub\n        /* \"#utility.yul\":17046:17072   */\n      tag_423\n      jumpi\n        /* \"#utility.yul\":17065:17070   */\n      pop\n      pop\n      jump(tag_422)\n        /* \"#utility.yul\":17046:17072   */\n    tag_423:\n        /* \"#utility.yul\":17096:17130   */\n      tag_424\n        /* \"#utility.yul\":17126:17129   */\n      dup3\n        /* \"#utility.yul\":17096:17130   */\n      tag_215\n      jump\t// in\n    tag_424:\n        /* \"#utility.yul\":17195:17213   */\n      0xffffffffffffffff\n        /* \"#utility.yul\":17187:17193   */\n      dup2\n        /* \"#utility.yul\":17184:17214   */\n      gt\n        /* \"#utility.yul\":17181:17237   */\n      iszero\n      tag_425\n      jumpi\n        /* \"#utility.yul\":17217:17235   */\n      tag_426\n      tag_202\n      jump\t// in\n    tag_426:\n        /* \"#utility.yul\":17181:17237   */\n    tag_425:\n        /* \"#utility.yul\":17261:17299   */\n      tag_427\n        /* \"#utility.yul\":17293:17297   */\n      dup3\n        /* \"#utility.yul\":17287:17298   */\n      sload\n        /* \"#utility.yul\":17261:17299   */\n      tag_33\n      jump\t// in\n    tag_427:\n        /* \"#utility.yul\":17346:17413   */\n      tag_428\n        /* \"#utility.yul\":17406:17412   */\n      dup3\n        /* \"#utility.yul\":17398:17404   */\n      dup3\n        /* \"#utility.yul\":17392:17396   */\n      dup6\n        /* \"#utility.yul\":17346:17413   */\n      tag_227\n      jump\t// in\n    tag_428:\n        /* \"#utility.yul\":17440:17441   */\n      0x00\n        /* \"#utility.yul\":17469:17471   */\n      0x1f\n        /* \"#utility.yul\":17461:17467   */\n      dup4\n        /* \"#utility.yul\":17458:17472   */\n      gt\n        /* \"#utility.yul\":17486:17487   */\n      0x01\n        /* \"#utility.yul\":17481:18153   */\n      dup2\n      eq\n      tag_430\n      jumpi\n        /* \"#utility.yul\":18197:18198   */\n      0x00\n        /* \"#utility.yul\":18214:18220   */\n      dup5\n        /* \"#utility.yul\":18211:18288   */\n      iszero\n      tag_431\n      jumpi\n        /* \"#utility.yul\":18263:18272   */\n      dup3\n        /* \"#utility.yul\":18258:18261   */\n      dup8\n        /* \"#utility.yul\":18254:18273   */\n      add\n        /* \"#utility.yul\":18248:18274   */\n      sload\n        /* \"#utility.yul\":18239:18274   */\n      swap1\n      pop\n        /* \"#utility.yul\":18211:18288   */\n    tag_431:\n        /* \"#utility.yul\":18314:18381   */\n      tag_432\n        /* \"#utility.yul\":18374:18380   */\n      dup6\n        /* \"#utility.yul\":18367:18372   */\n      dup3\n        /* \"#utility.yul\":18314:18381   */\n      tag_230\n      jump\t// in\n    tag_432:\n        /* \"#utility.yul\":18308:18312   */\n      dup7\n        /* \"#utility.yul\":18301:18382   */\n      sstore\n        /* \"#utility.yul\":18170:18392   */\n      pop\n        /* \"#utility.yul\":17451:18392   */\n      jump(tag_429)\n        /* \"#utility.yul\":17481:18153   */\n    tag_430:\n        /* \"#utility.yul\":17533:17537   */\n      0x1f\n        /* \"#utility.yul\":17529:17538   */\n      not\n        /* \"#utility.yul\":17521:17527   */\n      dup5\n        /* \"#utility.yul\":17517:17539   */\n      and\n        /* \"#utility.yul\":17559:17595   */\n      tag_433\n        /* \"#utility.yul\":17591:17594   */\n      dup8\n        /* \"#utility.yul\":17559:17595   */\n      tag_216\n      jump\t// in\n    tag_433:\n        /* \"#utility.yul\":17552:17595   */\n      swap7\n      pop\n        /* \"#utility.yul\":17622:17659   */\n      tag_434\n        /* \"#utility.yul\":17654:17658   */\n      dup7\n        /* \"#utility.yul\":17622:17659   */\n      tag_216\n      jump\t// in\n    tag_434:\n        /* \"#utility.yul\":17681:17682   */\n      0x00\n        /* \"#utility.yul\":17695:17902   */\n    tag_435:\n        /* \"#utility.yul\":17709:17716   */\n      dup3\n        /* \"#utility.yul\":17706:17707   */\n      dup2\n        /* \"#utility.yul\":17703:17717   */\n      lt\n        /* \"#utility.yul\":17695:17902   */\n      iszero\n      tag_437\n      jumpi\n        /* \"#utility.yul\":17788:17797   */\n      dup5\n        /* \"#utility.yul\":17783:17786   */\n      dup10\n        /* \"#utility.yul\":17779:17798   */\n      add\n        /* \"#utility.yul\":17773:17799   */\n      sload\n        /* \"#utility.yul\":17765:17771   */\n      dup3\n        /* \"#utility.yul\":17758:17800   */\n      sstore\n        /* \"#utility.yul\":17839:17840   */\n      0x01\n        /* \"#utility.yul\":17831:17837   */\n      dup3\n        /* \"#utility.yul\":17827:17841   */\n      add\n        /* \"#utility.yul\":17817:17841   */\n      swap2\n      pop\n        /* \"#utility.yul\":17886:17887   */\n      0x01\n        /* \"#utility.yul\":17875:17884   */\n      dup6\n        /* \"#utility.yul\":17871:17888   */\n      add\n        /* \"#utility.yul\":17858:17888   */\n      swap5\n      pop\n        /* \"#utility.yul\":17732:17736   */\n      0x20\n        /* \"#utility.yul\":17729:17730   */\n      dup2\n        /* \"#utility.yul\":17725:17737   */\n      add\n        /* \"#utility.yul\":17720:17737   */\n      swap1\n      pop\n        /* \"#utility.yul\":17695:17902   */\n      jump(tag_435)\n    tag_437:\n        /* \"#utility.yul\":17930:17936   */\n      dup7\n        /* \"#utility.yul\":17921:17928   */\n      dup4\n        /* \"#utility.yul\":17918:17937   */\n      lt\n        /* \"#utility.yul\":17915:18094   */\n      iszero\n      tag_438\n      jumpi\n        /* \"#utility.yul\":17988:17997   */\n      dup5\n        /* \"#utility.yul\":17983:17986   */\n      dup10\n        /* \"#utility.yul\":17979:17998   */\n      add\n        /* \"#utility.yul\":17973:17999   */\n      sload\n        /* \"#utility.yul\":18031:18079   */\n      tag_439\n        /* \"#utility.yul\":18073:18077   */\n      0x1f\n        /* \"#utility.yul\":18065:18071   */\n      dup10\n        /* \"#utility.yul\":18061:18078   */\n      and\n        /* \"#utility.yul\":18050:18059   */\n      dup3\n        /* \"#utility.yul\":18031:18079   */\n      tag_229\n      jump\t// in\n    tag_439:\n        /* \"#utility.yul\":18023:18029   */\n      dup4\n        /* \"#utility.yul\":18016:18080   */\n      sstore\n        /* \"#utility.yul\":17938:18094   */\n      pop\n        /* \"#utility.yul\":17915:18094   */\n    tag_438:\n        /* \"#utility.yul\":18140:18141   */\n      0x01\n        /* \"#utility.yul\":18136:18137   */\n      0x02\n        /* \"#utility.yul\":18128:18134   */\n      dup9\n        /* \"#utility.yul\":18124:18138   */\n      mul\n        /* \"#utility.yul\":18120:18142   */\n      add\n        /* \"#utility.yul\":18114:18118   */\n      dup9\n        /* \"#utility.yul\":18107:18143   */\n      sstore\n        /* \"#utility.yul\":17488:18153   */\n      pop\n      pop\n      pop\n        /* \"#utility.yul\":17451:18392   */\n    tag_429:\n      pop\n        /* \"#utility.yul\":17036:18398   */\n      pop\n      pop\n      pop\n        /* \"#utility.yul\":16947:18398   */\n      pop\n      pop\n    tag_422:\n      jump\t// out\n        /* \"#utility.yul\":18404:19799   */\n    tag_52:\n        /* \"#utility.yul\":18521:18558   */\n      tag_441\n        /* \"#utility.yul\":18554:18557   */\n      dup3\n        /* \"#utility.yul\":18521:18558   */\n      tag_195\n      jump\t// in\n    tag_441:\n        /* \"#utility.yul\":18623:18641   */\n      0xffffffffffffffff\n        /* \"#utility.yul\":18615:18621   */\n      dup2\n        /* \"#utility.yul\":18612:18642   */\n      gt\n        /* \"#utility.yul\":18609:18665   */\n      iszero\n      tag_442\n      jumpi\n        /* \"#utility.yul\":18645:18663   */\n      tag_443\n      tag_202\n      jump\t// in\n    tag_443:\n        /* \"#utility.yul\":18609:18665   */\n    tag_442:\n        /* \"#utility.yul\":18689:18727   */\n      tag_444\n        /* \"#utility.yul\":18721:18725   */\n      dup3\n        /* \"#utility.yul\":18715:18726   */\n      sload\n        /* \"#utility.yul\":18689:18727   */\n      tag_33\n      jump\t// in\n    tag_444:\n        /* \"#utility.yul\":18774:18841   */\n      tag_445\n        /* \"#utility.yul\":18834:18840   */\n      dup3\n        /* \"#utility.yul\":18826:18832   */\n      dup3\n        /* \"#utility.yul\":18820:18824   */\n      dup6\n        /* \"#utility.yul\":18774:18841   */\n      tag_227\n      jump\t// in\n    tag_445:\n        /* \"#utility.yul\":18868:18869   */\n      0x00\n        /* \"#utility.yul\":18892:18896   */\n      0x20\n        /* \"#utility.yul\":18879:18896   */\n      swap1\n      pop\n        /* \"#utility.yul\":18924:18926   */\n      0x1f\n        /* \"#utility.yul\":18916:18922   */\n      dup4\n        /* \"#utility.yul\":18913:18927   */\n      gt\n        /* \"#utility.yul\":18941:18942   */\n      0x01\n        /* \"#utility.yul\":18936:19554   */\n      dup2\n      eq\n      tag_447\n      jumpi\n        /* \"#utility.yul\":19598:19599   */\n      0x00\n        /* \"#utility.yul\":19615:19621   */\n      dup5\n        /* \"#utility.yul\":19612:19689   */\n      iszero\n      tag_448\n      jumpi\n        /* \"#utility.yul\":19664:19673   */\n      dup3\n        /* \"#utility.yul\":19659:19662   */\n      dup8\n        /* \"#utility.yul\":19655:19674   */\n      add\n        /* \"#utility.yul\":19649:19675   */\n      mload\n        /* \"#utility.yul\":19640:19675   */\n      swap1\n      pop\n        /* \"#utility.yul\":19612:19689   */\n    tag_448:\n        /* \"#utility.yul\":19715:19782   */\n      tag_449\n        /* \"#utility.yul\":19775:19781   */\n      dup6\n        /* \"#utility.yul\":19768:19773   */\n      dup3\n        /* \"#utility.yul\":19715:19782   */\n      tag_230\n      jump\t// in\n    tag_449:\n        /* \"#utility.yul\":19709:19713   */\n      dup7\n        /* \"#utility.yul\":19702:19783   */\n      sstore\n        /* \"#utility.yul\":19571:19793   */\n      pop\n        /* \"#utility.yul\":18906:19793   */\n      jump(tag_446)\n        /* \"#utility.yul\":18936:19554   */\n    tag_447:\n        /* \"#utility.yul\":18988:18992   */\n      0x1f\n        /* \"#utility.yul\":18984:18993   */\n      not\n        /* \"#utility.yul\":18976:18982   */\n      dup5\n        /* \"#utility.yul\":18972:18994   */\n      and\n        /* \"#utility.yul\":19022:19059   */\n      tag_450\n        /* \"#utility.yul\":19054:19058   */\n      dup7\n        /* \"#utility.yul\":19022:19059   */\n      tag_216\n      jump\t// in\n    tag_450:\n        /* \"#utility.yul\":19081:19082   */\n      0x00\n        /* \"#utility.yul\":19095:19303   */\n    tag_451:\n        /* \"#utility.yul\":19109:19116   */\n      dup3\n        /* \"#utility.yul\":19106:19107   */\n      dup2\n        /* \"#utility.yul\":19103:19117   */\n      lt\n        /* \"#utility.yul\":19095:19303   */\n      iszero\n      tag_453\n      jumpi\n        /* \"#utility.yul\":19188:19197   */\n      dup5\n        /* \"#utility.yul\":19183:19186   */\n      dup10\n        /* \"#utility.yul\":19179:19198   */\n      add\n        /* \"#utility.yul\":19173:19199   */\n      mload\n        /* \"#utility.yul\":19165:19171   */\n      dup3\n        /* \"#utility.yul\":19158:19200   */\n      sstore\n        /* \"#utility.yul\":19239:19240   */\n      0x01\n        /* \"#utility.yul\":19231:19237   */\n      dup3\n        /* \"#utility.yul\":19227:19241   */\n      add\n        /* \"#utility.yul\":19217:19241   */\n      swap2\n      pop\n        /* \"#utility.yul\":19286:19288   */\n      0x20\n        /* \"#utility.yul\":19275:19284   */\n      dup6\n        /* \"#utility.yul\":19271:19289   */\n      add\n        /* \"#utility.yul\":19258:19289   */\n      swap5\n      pop\n        /* \"#utility.yul\":19132:19136   */\n      0x20\n        /* \"#utility.yul\":19129:19130   */\n      dup2\n        /* \"#utility.yul\":19125:19137   */\n      add\n        /* \"#utility.yul\":19120:19137   */\n      swap1\n      pop\n        /* \"#utility.yul\":19095:19303   */\n      jump(tag_451)\n    tag_453:\n        /* \"#utility.yul\":19331:19337   */\n      dup7\n        /* \"#utility.yul\":19322:19329   */\n      dup4\n        /* \"#utility.yul\":19319:19338   */\n      lt\n        /* \"#utility.yul\":19316:19495   */\n      iszero\n      tag_454\n      jumpi\n        /* \"#utility.yul\":19389:19398   */\n      dup5\n        /* \"#utility.yul\":19384:19387   */\n      dup10\n        /* \"#utility.yul\":19380:19399   */\n      add\n        /* \"#utility.yul\":19374:19400   */\n      mload\n        /* \"#utility.yul\":19432:19480   */\n      tag_455\n        /* \"#utility.yul\":19474:19478   */\n      0x1f\n        /* \"#utility.yul\":19466:19472   */\n      dup10\n        /* \"#utility.yul\":19462:19479   */\n      and\n        /* \"#utility.yul\":19451:19460   */\n      dup3\n        /* \"#utility.yul\":19432:19480   */\n      tag_229\n      jump\t// in\n    tag_455:\n        /* \"#utility.yul\":19424:19430   */\n      dup4\n        /* \"#utility.yul\":19417:19481   */\n      sstore\n        /* \"#utility.yul\":19339:19495   */\n      pop\n        /* \"#utility.yul\":19316:19495   */\n    tag_454:\n        /* \"#utility.yul\":19541:19542   */\n      0x01\n        /* \"#utility.yul\":19537:19538   */\n      0x02\n        /* \"#utility.yul\":19529:19535   */\n      dup9\n        /* \"#utility.yul\":19525:19539   */\n      mul\n        /* \"#utility.yul\":19521:19543   */\n      add\n        /* \"#utility.yul\":19515:19519   */\n      dup9\n        /* \"#utility.yul\":19508:19544   */\n      sstore\n        /* \"#utility.yul\":18943:19554   */\n      pop\n      pop\n      pop\n        /* \"#utility.yul\":18906:19793   */\n    tag_446:\n      pop\n        /* \"#utility.yul\":18496:19799   */\n      pop\n      pop\n      pop\n        /* \"#utility.yul\":18404:19799   */\n      pop\n      pop\n      jump\t// out\n        /* \"#utility.yul\":19805:19968   */\n    tag_231:\n        /* \"#utility.yul\":19922:19933   */\n      0x00\n        /* \"#utility.yul\":19959:19962   */\n      dup2\n        /* \"#utility.yul\":19944:19962   */\n      swap1\n      pop\n        /* \"#utility.yul\":19805:19968   */\n      swap3\n      swap2\n      pop\n      pop\n      jump\t// out\n        /* \"#utility.yul\":19974:20090   */\n    tag_232:\n        /* \"#utility.yul\":20059:20083   */\n      tag_458\n        /* \"#utility.yul\":20077:20082   */\n      dup2\n        /* \"#utility.yul\":20059:20083   */\n      tag_171\n      jump\t// in\n    tag_458:\n        /* \"#utility.yul\":20054:20057   */\n      dup3\n        /* \"#utility.yul\":20047:20084   */\n      mstore\n        /* \"#utility.yul\":19974:20090   */\n      pop\n      pop\n      jump\t// out\n        /* \"#utility.yul\":20096:20291   */\n    tag_233:\n        /* \"#utility.yul\":20173:20183   */\n      0x00\n        /* \"#utility.yul\":20194:20248   */\n      tag_460\n        /* \"#utility.yul\":20244:20247   */\n      dup4\n        /* \"#utility.yul\":20236:20242   */\n      dup4\n        /* \"#utility.yul\":20194:20248   */\n      tag_232\n      jump\t// in\n    tag_460:\n        /* \"#utility.yul\":20280:20284   */\n      0x20\n        /* \"#utility.yul\":20275:20278   */\n      dup4\n        /* \"#utility.yul\":20271:20285   */\n      add\n        /* \"#utility.yul\":20257:20285   */\n      swap1\n      pop\n        /* \"#utility.yul\":20096:20291   */\n      swap3\n      swap2\n      pop\n      pop\n      jump\t// out\n        /* \"#utility.yul\":20327:21103   */\n    tag_234:\n        /* \"#utility.yul\":20464:20467   */\n      0x00\n        /* \"#utility.yul\":20493:20547   */\n      tag_462\n        /* \"#utility.yul\":20541:20546   */\n      dup3\n        /* \"#utility.yul\":20493:20547   */\n      tag_184\n      jump\t// in\n    tag_462:\n        /* \"#utility.yul\":20563:20667   */\n      tag_463\n        /* \"#utility.yul\":20660:20666   */\n      dup2\n        /* \"#utility.yul\":20655:20658   */\n      dup6\n        /* \"#utility.yul\":20563:20667   */\n      tag_231\n      jump\t// in\n    tag_463:\n        /* \"#utility.yul\":20556:20667   */\n      swap4\n      pop\n        /* \"#utility.yul\":20691:20747   */\n      tag_464\n        /* \"#utility.yul\":20741:20746   */\n      dup4\n        /* \"#utility.yul\":20691:20747   */\n      tag_186\n      jump\t// in\n    tag_464:\n        /* \"#utility.yul\":20770:20777   */\n      dup1\n        /* \"#utility.yul\":20801:20802   */\n      0x00\n        /* \"#utility.yul\":20786:21078   */\n    tag_465:\n        /* \"#utility.yul\":20811:20817   */\n      dup4\n        /* \"#utility.yul\":20808:20809   */\n      dup2\n        /* \"#utility.yul\":20805:20818   */\n      lt\n        /* \"#utility.yul\":20786:21078   */\n      iszero\n      tag_467\n      jumpi\n        /* \"#utility.yul\":20887:20893   */\n      dup2\n        /* \"#utility.yul\":20881:20894   */\n      mload\n        /* \"#utility.yul\":20914:20985   */\n      tag_468\n        /* \"#utility.yul\":20981:20984   */\n      dup9\n        /* \"#utility.yul\":20966:20979   */\n      dup3\n        /* \"#utility.yul\":20914:20985   */\n      tag_233\n      jump\t// in\n    tag_468:\n        /* \"#utility.yul\":20907:20985   */\n      swap8\n      pop\n        /* \"#utility.yul\":21008:21068   */\n      tag_469\n        /* \"#utility.yul\":21061:21067   */\n      dup4\n        /* \"#utility.yul\":21008:21068   */\n      tag_189\n      jump\t// in\n    tag_469:\n        /* \"#utility.yul\":20998:21068   */\n      swap3\n      pop\n        /* \"#utility.yul\":20846:21078   */\n      pop\n        /* \"#utility.yul\":20833:20834   */\n      0x01\n        /* \"#utility.yul\":20830:20831   */\n      dup2\n        /* \"#utility.yul\":20826:20835   */\n      add\n        /* \"#utility.yul\":20821:20835   */\n      swap1\n      pop\n        /* \"#utility.yul\":20786:21078   */\n      jump(tag_465)\n    tag_467:\n        /* \"#utility.yul\":20790:20804   */\n      pop\n        /* \"#utility.yul\":21094:21097   */\n      dup6\n        /* \"#utility.yul\":21087:21097   */\n      swap4\n      pop\n        /* \"#utility.yul\":20469:21103   */\n      pop\n      pop\n      pop\n        /* \"#utility.yul\":20327:21103   */\n      swap3\n      swap2\n      pop\n      pop\n      jump\t// out\n        /* \"#utility.yul\":21109:21444   */\n    tag_81:\n        /* \"#utility.yul\":21271:21274   */\n      0x00\n        /* \"#utility.yul\":21293:21418   */\n      tag_471\n        /* \"#utility.yul\":21414:21417   */\n      dup3\n        /* \"#utility.yul\":21405:21411   */\n      dup5\n        /* \"#utility.yul\":21293:21418   */\n      tag_234\n      jump\t// in\n    tag_471:\n        /* \"#utility.yul\":21286:21418   */\n      swap2\n      pop\n        /* \"#utility.yul\":21435:21438   */\n      dup2\n        /* \"#utility.yul\":21428:21438   */\n      swap1\n      pop\n        /* \"#utility.yul\":21109:21444   */\n      swap3\n      swap2\n      pop\n      pop\n      jump\t// out\n        /* \"#utility.yul\":21450:21630   */\n    tag_235:\n        /* \"#utility.yul\":21498:21575   */\n      0x4e487b7100000000000000000000000000000000000000000000000000000000\n        /* \"#utility.yul\":21495:21496   */\n      0x00\n        /* \"#utility.yul\":21488:21576   */\n      mstore\n        /* \"#utility.yul\":21595:21599   */\n      0x11\n        /* \"#utility.yul\":21592:21593   */\n      0x04\n        /* \"#utility.yul\":21585:21600   */\n      mstore\n        /* \"#utility.yul\":21619:21623   */\n      0x24\n        /* \"#utility.yul\":21616:21617   */\n      0x00\n        /* \"#utility.yul\":21609:21624   */\n      revert\n        /* \"#utility.yul\":21636:21830   */\n    tag_86:\n        /* \"#utility.yul\":21676:21680   */\n      0x00\n        /* \"#utility.yul\":21696:21716   */\n      tag_474\n        /* \"#utility.yul\":21714:21715   */\n      dup3\n        /* \"#utility.yul\":21696:21716   */\n      tag_193\n      jump\t// in\n    tag_474:\n        /* \"#utility.yul\":21691:21716   */\n      swap2\n      pop\n        /* \"#utility.yul\":21730:21750   */\n      tag_475\n        /* \"#utility.yul\":21748:21749   */\n      dup4\n        /* \"#utility.yul\":21730:21750   */\n      tag_193\n      jump\t// in\n    tag_475:\n        /* \"#utility.yul\":21725:21750   */\n      swap3\n      pop\n        /* \"#utility.yul\":21774:21775   */\n      dup3\n        /* \"#utility.yul\":21771:21772   */\n      dup3\n        /* \"#utility.yul\":21767:21776   */\n      sub\n        /* \"#utility.yul\":21759:21776   */\n      swap1\n      pop\n        /* \"#utility.yul\":21798:21799   */\n      dup2\n        /* \"#utility.yul\":21792:21796   */\n      dup2\n        /* \"#utility.yul\":21789:21800   */\n      gt\n        /* \"#utility.yul\":21786:21823   */\n      iszero\n      tag_476\n      jumpi\n        /* \"#utility.yul\":21803:21821   */\n      tag_477\n      tag_235\n      jump\t// in\n    tag_477:\n        /* \"#utility.yul\":21786:21823   */\n    tag_476:\n        /* \"#utility.yul\":21636:21830   */\n      swap3\n      swap2\n      pop\n      pop\n      jump\t// out\n        /* \"#utility.yul\":21836:22016   */\n    tag_95:\n        /* \"#utility.yul\":21884:21961   */\n      0x4e487b7100000000000000000000000000000000000000000000000000000000\n        /* \"#utility.yul\":21881:21882   */\n      0x00\n        /* \"#utility.yul\":21874:21962   */\n      mstore\n        /* \"#utility.yul\":21981:21985   */\n      0x32\n        /* \"#utility.yul\":21978:21979   */\n      0x04\n        /* \"#utility.yul\":21971:21986   */\n      mstore\n        /* \"#utility.yul\":22005:22009   */\n      0x24\n        /* \"#utility.yul\":22002:22003   */\n      0x00\n        /* \"#utility.yul\":21995:22010   */\n      revert\n        /* \"#utility.yul\":22022:22098   */\n    tag_236:\n        /* \"#utility.yul\":22058:22065   */\n      0x00\n        /* \"#utility.yul\":22087:22092   */\n      dup2\n        /* \"#utility.yul\":22076:22092   */\n      swap1\n      pop\n        /* \"#utility.yul\":22022:22098   */\n      swap2\n      swap1\n      pop\n      jump\t// out\n        /* \"#utility.yul\":22104:22476   */\n    tag_116:\n        /* \"#utility.yul\":22143:22147   */\n      0x00\n        /* \"#utility.yul\":22163:22182   */\n      tag_481\n        /* \"#utility.yul\":22180:22181   */\n      dup3\n        /* \"#utility.yul\":22163:22182   */\n      tag_236\n      jump\t// in\n    tag_481:\n        /* \"#utility.yul\":22158:22182   */\n      swap2\n      pop\n        /* \"#utility.yul\":22196:22215   */\n      tag_482\n        /* \"#utility.yul\":22213:22214   */\n      dup4\n        /* \"#utility.yul\":22196:22215   */\n      tag_236\n      jump\t// in\n    tag_482:\n        /* \"#utility.yul\":22191:22215   */\n      swap3\n      pop\n        /* \"#utility.yul\":22239:22240   */\n      dup3\n        /* \"#utility.yul\":22236:22237   */\n      dup3\n        /* \"#utility.yul\":22232:22241   */\n      sub\n        /* \"#utility.yul\":22224:22241   */\n      swap1\n      pop\n        /* \"#utility.yul\":22433:22434   */\n      dup2\n        /* \"#utility.yul\":22427:22431   */\n      dup2\n        /* \"#utility.yul\":22423:22435   */\n      slt\n        /* \"#utility.yul\":22419:22420   */\n      0x00\n        /* \"#utility.yul\":22416:22417   */\n      dup5\n        /* \"#utility.yul\":22412:22421   */\n      slt\n        /* \"#utility.yul\":22408:22436   */\n      and\n        /* \"#utility.yul\":22391:22392   */\n      dup3\n        /* \"#utility.yul\":22385:22389   */\n      dup3\n        /* \"#utility.yul\":22381:22393   */\n      sgt\n        /* \"#utility.yul\":22376:22377   */\n      0x00\n        /* \"#utility.yul\":22373:22374   */\n      dup6\n        /* \"#utility.yul\":22369:22378   */\n      slt\n        /* \"#utility.yul\":22362:22379   */\n      iszero\n        /* \"#utility.yul\":22358:22394   */\n      and\n        /* \"#utility.yul\":22342:22446   */\n      or\n        /* \"#utility.yul\":22339:22469   */\n      iszero\n      tag_483\n      jumpi\n        /* \"#utility.yul\":22449:22467   */\n      tag_484\n      tag_235\n      jump\t// in\n    tag_484:\n        /* \"#utility.yul\":22339:22469   */\n    tag_483:\n        /* \"#utility.yul\":22104:22476   */\n      swap3\n      swap2\n      pop\n      pop\n      jump\t// out\n        /* \"#utility.yul\":22482:22662   */\n    tag_237:\n        /* \"#utility.yul\":22530:22607   */\n      0x4e487b7100000000000000000000000000000000000000000000000000000000\n        /* \"#utility.yul\":22527:22528   */\n      0x00\n        /* \"#utility.yul\":22520:22608   */\n      mstore\n        /* \"#utility.yul\":22627:22631   */\n      0x12\n        /* \"#utility.yul\":22624:22625   */\n      0x04\n        /* \"#utility.yul\":22617:22632   */\n      mstore\n        /* \"#utility.yul\":22651:22655   */\n      0x24\n        /* \"#utility.yul\":22648:22649   */\n      0x00\n        /* \"#utility.yul\":22641:22656   */\n      revert\n        /* \"#utility.yul\":22668:23053   */\n    tag_118:\n        /* \"#utility.yul\":22707:22708   */\n      0x00\n        /* \"#utility.yul\":22724:22743   */\n      tag_487\n        /* \"#utility.yul\":22741:22742   */\n      dup3\n        /* \"#utility.yul\":22724:22743   */\n      tag_236\n      jump\t// in\n    tag_487:\n        /* \"#utility.yul\":22719:22743   */\n      swap2\n      pop\n        /* \"#utility.yul\":22757:22776   */\n      tag_488\n        /* \"#utility.yul\":22774:22775   */\n      dup4\n        /* \"#utility.yul\":22757:22776   */\n      tag_236\n      jump\t// in\n    tag_488:\n        /* \"#utility.yul\":22752:22776   */\n      swap3\n      pop\n        /* \"#utility.yul\":22795:22796   */\n      dup3\n        /* \"#utility.yul\":22785:22820   */\n      tag_489\n      jumpi\n        /* \"#utility.yul\":22800:22818   */\n      tag_490\n      tag_237\n      jump\t// in\n    tag_490:\n        /* \"#utility.yul\":22785:22820   */\n    tag_489:\n        /* \"#utility.yul\":22986:22987   */\n      0x01\n        /* \"#utility.yul\":22983:22984   */\n      0x00\n        /* \"#utility.yul\":22979:22988   */\n      sub\n        /* \"#utility.yul\":22976:22977   */\n      dup4\n        /* \"#utility.yul\":22973:22989   */\n      eq\n        /* \"#utility.yul\":22892:22958   */\n      0x8000000000000000000000000000000000000000000000000000000000000000\n        /* \"#utility.yul\":22889:22890   */\n      dup4\n        /* \"#utility.yul\":22886:22959   */\n      eq\n        /* \"#utility.yul\":22869:22999   */\n      and\n        /* \"#utility.yul\":22866:23022   */\n      iszero\n      tag_491\n      jumpi\n        /* \"#utility.yul\":23002:23020   */\n      tag_492\n      tag_235\n      jump\t// in\n    tag_492:\n        /* \"#utility.yul\":22866:23022   */\n    tag_491:\n        /* \"#utility.yul\":23045:23046   */\n      dup3\n        /* \"#utility.yul\":23042:23043   */\n      dup3\n        /* \"#utility.yul\":23037:23047   */\n      sdiv\n        /* \"#utility.yul\":23032:23047   */\n      swap1\n      pop\n        /* \"#utility.yul\":22668:23053   */\n      swap3\n      swap2\n      pop\n      pop\n      jump\t// out\n        /* \"#utility.yul\":23059:23434   */\n    tag_120:\n        /* \"#utility.yul\":23098:23101   */\n      0x00\n        /* \"#utility.yul\":23117:23136   */\n      tag_494\n        /* \"#utility.yul\":23134:23135   */\n      dup3\n        /* \"#utility.yul\":23117:23136   */\n      tag_236\n      jump\t// in\n    tag_494:\n        /* \"#utility.yul\":23112:23136   */\n      swap2\n      pop\n        /* \"#utility.yul\":23150:23169   */\n      tag_495\n        /* \"#utility.yul\":23167:23168   */\n      dup4\n        /* \"#utility.yul\":23150:23169   */\n      tag_236\n      jump\t// in\n    tag_495:\n        /* \"#utility.yul\":23145:23169   */\n      swap3\n      pop\n        /* \"#utility.yul\":23192:23193   */\n      dup3\n        /* \"#utility.yul\":23189:23190   */\n      dup3\n        /* \"#utility.yul\":23185:23194   */\n      add\n        /* \"#utility.yul\":23178:23194   */\n      swap1\n      pop\n        /* \"#utility.yul\":23390:23391   */\n      dup3\n        /* \"#utility.yul\":23385:23388   */\n      dup2\n        /* \"#utility.yul\":23381:23392   */\n      slt\n        /* \"#utility.yul\":23374:23393   */\n      iszero\n        /* \"#utility.yul\":23370:23371   */\n      0x00\n        /* \"#utility.yul\":23367:23368   */\n      dup4\n        /* \"#utility.yul\":23363:23372   */\n      slt\n        /* \"#utility.yul\":23359:23394   */\n      and\n        /* \"#utility.yul\":23342:23343   */\n      dup4\n        /* \"#utility.yul\":23337:23340   */\n      dup3\n        /* \"#utility.yul\":23333:23344   */\n      slt\n        /* \"#utility.yul\":23328:23329   */\n      0x00\n        /* \"#utility.yul\":23325:23326   */\n      dup5\n        /* \"#utility.yul\":23321:23330   */\n      slt\n        /* \"#utility.yul\":23314:23331   */\n      iszero\n        /* \"#utility.yul\":23310:23345   */\n      and\n        /* \"#utility.yul\":23294:23404   */\n      or\n        /* \"#utility.yul\":23291:23427   */\n      iszero\n      tag_496\n      jumpi\n        /* \"#utility.yul\":23407:23425   */\n      tag_497\n      tag_235\n      jump\t// in\n    tag_497:\n        /* \"#utility.yul\":23291:23427   */\n    tag_496:\n        /* \"#utility.yul\":23059:23434   */\n      swap3\n      swap2\n      pop\n      pop\n      jump\t// out\n        /* \"#utility.yul\":23440:23671   */\n    tag_130:\n        /* \"#utility.yul\":23478:23481   */\n      0x00\n        /* \"#utility.yul\":23501:23524   */\n      tag_499\n        /* \"#utility.yul\":23518:23523   */\n      dup3\n        /* \"#utility.yul\":23501:23524   */\n      tag_236\n      jump\t// in\n    tag_499:\n        /* \"#utility.yul\":23492:23524   */\n      swap2\n      pop\n        /* \"#utility.yul\":23546:23612   */\n      0x7fffffffffffffffffffffffffffffffffffffffffffffffffffffffffffffff\n        /* \"#utility.yul\":23539:23544   */\n      dup3\n        /* \"#utility.yul\":23536:23613   */\n      sub\n        /* \"#utility.yul\":23533:23636   */\n      tag_500\n      jumpi\n        /* \"#utility.yul\":23616:23634   */\n      tag_501\n      tag_235\n      jump\t// in\n    tag_501:\n        /* \"#utility.yul\":23533:23636   */\n    tag_500:\n        /* \"#utility.yul\":23663:23664   */\n      0x01\n        /* \"#utility.yul\":23656:23661   */\n      dup3\n        /* \"#utility.yul\":23652:23665   */\n      add\n        /* \"#utility.yul\":23645:23665   */\n      swap1\n      pop\n        /* \"#utility.yul\":23440:23671   */\n      swap2\n      swap1\n      pop\n      jump\t// out\n        /* \"#utility.yul\":23677:23908   */\n    tag_136:\n        /* \"#utility.yul\":23715:23718   */\n      0x00\n        /* \"#utility.yul\":23738:23761   */\n      tag_503\n        /* \"#utility.yul\":23755:23760   */\n      dup3\n        /* \"#utility.yul\":23738:23761   */\n      tag_236\n      jump\t// in\n    tag_503:\n        /* \"#utility.yul\":23729:23761   */\n      swap2\n      pop\n        /* \"#utility.yul\":23783:23849   */\n      0x8000000000000000000000000000000000000000000000000000000000000000\n        /* \"#utility.yul\":23776:23781   */\n      dup3\n        /* \"#utility.yul\":23773:23850   */\n      sub\n        /* \"#utility.yul\":23770:23873   */\n      tag_504\n      jumpi\n        /* \"#utility.yul\":23853:23871   */\n      tag_505\n      tag_235\n      jump\t// in\n    tag_505:\n        /* \"#utility.yul\":23770:23873   */\n    tag_504:\n        /* \"#utility.yul\":23900:23901   */\n      0x01\n        /* \"#utility.yul\":23893:23898   */\n      dup3\n        /* \"#utility.yul\":23889:23902   */\n      sub\n        /* \"#utility.yul\":23882:23902   */\n      swap1\n      pop\n        /* \"#utility.yul\":23677:23908   */\n      swap2\n      swap1\n      pop\n      jump\t// out\n\n    auxdata: 0xa26469706673582212209c43d4a75c5fe38156a7ee52a831a94658d07df3baa57e2885aa8b44bd9ac50264736f6c63430008160033\n}\n",
				"bytecode": {
					"linkReferences": {},
					"object": "608060405234801561000f575f80fd5b50611bbe8061001d5f395ff3fe608060405234801561000f575f80fd5b506004361061003f575f3560e01c80632671b0d814610043578063984bc70014610073578063c3a47879146100a3575b5f80fd5b61005d60048036038101906100589190610efc565b6100bf565b60405161006a9190610fe7565b60405180910390f35b61008d60048036038101906100889190611031565b610152565b60405161009a9190611251565b60405180910390f35b6100bd60048036038101906100b89190611461565b610348565b005b606060065f8373ffffffffffffffffffffffffffffffffffffffff1673ffffffffffffffffffffffffffffffffffffffff1681526020019081526020015f2080548060200260200160405190810160405280929190818152602001828054801561014657602002820191905f5260205f20905b815481526020019060010190808311610132575b50505050509050919050565b61015a610cea565b60055f8381526020019081526020015f206040518060a00160405290815f82018054806020026020016040519081016040528092919081815260200182805480156101f757602002820191905f5260205f20905b815f9054906101000a900473ffffffffffffffffffffffffffffffffffffffff1673ffffffffffffffffffffffffffffffffffffffff16815260200190600101908083116101ae575b505050505081526020016001820180548060200260200160405190810160405280929190818152602001828054801561028257602002820191905f5260205f20905b815f9054906101000a900473ffffffffffffffffffffffffffffffffffffffff1673ffffffffffffffffffffffffffffffffffffffff1681526020019060010190808311610239575b50505050508152602001600282015f9054906101000a900460ff1660ff1660ff168152602001600382015481526020016004820180546102c190611516565b80601f01602080910402602001604051908101604052809291908181526020018280546102ed90611516565b80156103385780601f1061030f57610100808354040283529160200191610338565b820191905f5260205f20905b81548152906001019060200180831161031b57829003601f168201915b5050505050815250509050919050565b5f801b830361048a5761035a826108cd565b925060055f8481526020019081526020015f205f808201815f01908054610382929190610d1a565b506001820181600101908054610399929190610d1a565b50600282015f9054906101000a900460ff16816002015f6101000a81548160ff021916908360ff16021790555060038201548160030155600482018160040190816103e491906116f8565b50905050815f800190805190602001906103ff929190610d68565b5060405180602001604052803373ffffffffffffffffffffffffffffffffffffffff1673ffffffffffffffffffffffffffffffffffffffff168152505f60010190600161044d929190610def565b505f806002015f6101000a81548160ff021916908360ff160217905550425f60030181905550805f600401908161048491906117dd565b50610743565b60055f8481526020019081526020015f205f808201815f019080546104b0929190610d1a565b5060018201816001019080546104c7929190610d1a565b50600282015f9054906101000a900460ff16816002015f6101000a81548160ff021916908360ff160217905550600382015481600301556004820181600401908161051291906116f8565b509050506106295f800180548060200260200160405190810160405280929190818152602001828054801561059957602002820191905f5260205f20905b815f9054906101000a900473ffffffffffffffffffffffffffffffffffffffff1673ffffffffffffffffffffffffffffffffffffffff1681526020019060010190808311610550575b50505050505f60010180548060200260200160405190810160405280929190818152602001828054801561061f57602002820191905f5260205f20905b815f9054906101000a900473ffffffffffffffffffffffffffffffffffffffff1673ffffffffffffffffffffffffffffffffffffffff16815260200190600101908083116105d6575b50505050506108fc565b1561064c5760015f6002015f6101000a81548160ff021916908360ff1602179055505b6106db5f6001018054806020026020016040519081016040528092919081815260200182805480156106d057602002820191905f5260205f20905b815f9054906101000a900473ffffffffffffffffffffffffffffffffffffffff1673ffffffffffffffffffffffffffffffffffffffff1681526020019060010190808311610687575b5050505050336109d2565b610742575f60010133908060018154018082558091505060019003905f5260205f20015f9091909190916101000a81548173ffffffffffffffffffffffffffffffffffffffff021916908373ffffffffffffffffffffffffffffffffffffffff1602179055505b5b6107d660065f3373ffffffffffffffffffffffffffffffffffffffff1673ffffffffffffffffffffffffffffffffffffffff1681526020019081526020015f208054806020026020016040519081016040528092919081815260200182805480156107cb57602002820191905f5260205f20905b8154815260200190600101908083116107b7575b505050505084610a50565b61083c5760065f3373ffffffffffffffffffffffffffffffffffffffff1673ffffffffffffffffffffffffffffffffffffffff1681526020019081526020015f2083908060018154018082558091505060019003905f5260205f20015f90919091909150555b5f60055f8581526020019081526020015f205f8201815f01908054610862929190610d1a565b506001820181600101908054610879929190610d1a565b50600282015f9054906101000a900460ff16816002015f6101000a81548160ff021916908360ff16021790555060038201548160030155600482018160040190816108c491906116f8565b50905050505050565b5f816040516020016108df9190611938565b604051602081830303815290604052805190602001209050919050565b5f815183511461090e575f90506109cc565b610926835f60018651610921919061197b565b610aa2565b61093e825f60018551610939919061197b565b610aa2565b5f5b83518110156109c65782818151811061095c5761095b6119ae565b5b602002602001015173ffffffffffffffffffffffffffffffffffffffff1684828151811061098d5761098c6119ae565b5b602002602001015173ffffffffffffffffffffffffffffffffffffffff16146109b9575f9150506109cc565b8080600101915050610940565b50600190505b92915050565b5f805f90505b8351811015610a45578273ffffffffffffffffffffffffffffffffffffffff16848281518110610a0b57610a0a6119ae565b5b602002602001015173ffffffffffffffffffffffffffffffffffffffff1603610a38576001915050610a4a565b80806001019150506109d8565b505f90505b92915050565b5f805f90505b8351811015610a975782848281518110610a7357610a726119ae565b5b602002602001015103610a8a576001915050610a9c565b8080600101915050610a56565b505f90505b92915050565b5f8290505f829050808203610ab8575050610ce5565b5f8560028686610ac891906119e4565b610ad29190611a51565b86610add9190611ab9565b81518110610aee57610aed6119ae565b5b602002602001015190505b818313610cb9575b8073ffffffffffffffffffffffffffffffffffffffff16868481518110610b2b57610b2a6119ae565b5b602002602001015173ffffffffffffffffffffffffffffffffffffffff161015610b62578280610b5a90611afa565b935050610b01565b5b858281518110610b7657610b756119ae565b5b602002602001015173ffffffffffffffffffffffffffffffffffffffff168173ffffffffffffffffffffffffffffffffffffffff161015610bc4578180610bbc90611b41565b925050610b63565b818313610cb457858281518110610bde57610bdd6119ae565b5b6020026020010151868481518110610bf957610bf86119ae565b5b6020026020010151878581518110610c1457610c136119ae565b5b60200260200101888581518110610c2e57610c2d6119ae565b5b602002602001018273ffffffffffffffffffffffffffffffffffffffff1673ffffffffffffffffffffffffffffffffffffffff168152508273ffffffffffffffffffffffffffffffffffffffff1673ffffffffffffffffffffffffffffffffffffffff1681525050508280610ca290611afa565b9350508180610cb090611b41565b9250505b610af9565b81851215610ccd57610ccc868684610aa2565b5b83831215610ce157610ce0868486610aa2565b5b5050505b505050565b6040518060a0016040528060608152602001606081526020015f60ff1681526020015f8152602001606081525090565b828054828255905f5260205f20908101928215610d57575f5260205f209182015b82811115610d56578254825591600101919060010190610d3b565b5b509050610d649190610e76565b5090565b828054828255905f5260205f20908101928215610dde579160200282015b82811115610ddd578251825f6101000a81548173ffffffffffffffffffffffffffffffffffffffff021916908373ffffffffffffffffffffffffffffffffffffffff16021790555091602001919060010190610d86565b5b509050610deb9190610e76565b5090565b828054828255905f5260205f20908101928215610e65579160200282015b82811115610e64578251825f6101000a81548173ffffffffffffffffffffffffffffffffffffffff021916908373ffffffffffffffffffffffffffffffffffffffff16021790555091602001919060010190610e0d565b5b509050610e729190610e76565b5090565b5b80821115610e8d575f815f905550600101610e77565b5090565b5f604051905090565b5f80fd5b5f80fd5b5f73ffffffffffffffffffffffffffffffffffffffff82169050919050565b5f610ecb82610ea2565b9050919050565b610edb81610ec1565b8114610ee5575f80fd5b50565b5f81359050610ef681610ed2565b92915050565b5f60208284031215610f1157610f10610e9a565b5b5f610f1e84828501610ee8565b91505092915050565b5f81519050919050565b5f82825260208201905092915050565b5f819050602082019050919050565b5f819050919050565b610f6281610f50565b82525050565b5f610f738383610f59565b60208301905092915050565b5f602082019050919050565b5f610f9582610f27565b610f9f8185610f31565b9350610faa83610f41565b805f5b83811015610fda578151610fc18882610f68565b9750610fcc83610f7f565b925050600181019050610fad565b5085935050505092915050565b5f6020820190508181035f830152610fff8184610f8b565b905092915050565b61101081610f50565b811461101a575f80fd5b50565b5f8135905061102b81611007565b92915050565b5f6020828403121561104657611045610e9a565b5b5f6110538482850161101d565b91505092915050565b5f81519050919050565b5f82825260208201905092915050565b5f819050602082019050919050565b61108e81610ec1565b82525050565b5f61109f8383611085565b60208301905092915050565b5f602082019050919050565b5f6110c18261105c565b6110cb8185611066565b93506110d683611076565b805f5b838110156111065781516110ed8882611094565b97506110f8836110ab565b9250506001810190506110d9565b5085935050505092915050565b5f60ff82169050919050565b61112881611113565b82525050565b5f819050919050565b6111408161112e565b82525050565b5f81519050919050565b5f82825260208201905092915050565b5f5b8381101561117d578082015181840152602081019050611162565b5f8484015250505050565b5f601f19601f8301169050919050565b5f6111a282611146565b6111ac8185611150565b93506111bc818560208601611160565b6111c581611188565b840191505092915050565b5f60a083015f8301518482035f8601526111ea82826110b7565b9150506020830151848203602086015261120482826110b7565b9150506040830151611219604086018261111f565b50606083015161122c6060860182611137565b50608083015184820360808601526112448282611198565b9150508091505092915050565b5f6020820190508181035f83015261126981846111d0565b905092915050565b5f80fd5b7f4e487b71000000000000000000000000000000000000000000000000000000005f52604160045260245ffd5b6112ab82611188565b810181811067ffffffffffffffff821117156112ca576112c9611275565b5b80604052505050565b5f6112dc610e91565b90506112e882826112a2565b919050565b5f67ffffffffffffffff82111561130757611306611275565b5b602082029050602081019050919050565b5f80fd5b5f61132e611329846112ed565b6112d3565b9050808382526020820190506020840283018581111561135157611350611318565b5b835b8181101561137a57806113668882610ee8565b845260208401935050602081019050611353565b5050509392505050565b5f82601f83011261139857611397611271565b5b81356113a884826020860161131c565b91505092915050565b5f80fd5b5f67ffffffffffffffff8211156113cf576113ce611275565b5b6113d882611188565b9050602081019050919050565b828183375f83830152505050565b5f611405611400846113b5565b6112d3565b905082815260208101848484011115611421576114206113b1565b5b61142c8482856113e5565b509392505050565b5f82601f83011261144857611447611271565b5b81356114588482602086016113f3565b91505092915050565b5f805f6060848603121561147857611477610e9a565b5b5f6114858682870161101d565b935050602084013567ffffffffffffffff8111156114a6576114a5610e9e565b5b6114b286828701611384565b925050604084013567ffffffffffffffff8111156114d3576114d2610e9e565b5b6114df86828701611434565b9150509250925092565b7f4e487b71000000000000000000000000000000000000000000000000000000005f52602260045260245ffd5b5f600282049050600182168061152d57607f821691505b6020821081036115405761153f6114e9565b5b50919050565b5f8154905061155481611516565b9050919050565b5f819050815f5260205f209050919050565b5f6020601f8301049050919050565b5f82821b905092915050565b5f600883026115b77fffffffffffffffffffffffffffffffffffffffffffffffffffffffffffffffff8261157c565b6115c1868361157c565b95508019841693508086168417925050509392505050565b5f819050919050565b5f6115fc6115f76115f28461112e565b6115d9565b61112e565b9050919050565b5f819050919050565b611615836115e2565b61162961162182611603565b848454611588565b825550505050565b5f90565b61163d611631565b61164881848461160c565b505050565b5b8181101561166b576116605f82611635565b60018101905061164e565b5050565b601f8211156116b0576116818161155b565b61168a8461156d565b81016020851015611699578190505b6116ad6116a58561156d565b83018261164d565b50505b505050565b5f82821c905092915050565b5f6116d05f19846008026116b5565b1980831691505092915050565b5f6116e883836116c1565b9150826002028217905092915050565b8181036117065750506117db565b61170f82611546565b67ffffffffffffffff81111561172857611727611275565b5b6117328254611516565b61173d82828561166f565b5f601f83116001811461176a575f8415611758578287015490505b61176285826116dd565b8655506117d4565b601f1984166117788761155b565b96506117838661155b565b5f5b828110156117aa57848901548255600182019150600185019450602081019050611785565b868310156117c757848901546117c3601f8916826116c1565b8355505b6001600288020188555050505b5050505050505b565b6117e682611146565b67ffffffffffffffff8111156117ff576117fe611275565b5b6118098254611516565b61181482828561166f565b5f60209050601f831160018114611845575f8415611833578287015190505b61183d85826116dd565b8655506118a4565b601f1984166118538661155b565b5f5b8281101561187a57848901518255600182019150602085019450602081019050611855565b868310156118975784890151611893601f8916826116c1565b8355505b6001600288020188555050505b505050505050565b5f81905092915050565b6118bf81610ec1565b82525050565b5f6118d083836118b6565b60208301905092915050565b5f6118e68261105c565b6118f081856118ac565b93506118fb83611076565b805f5b8381101561192b57815161191288826118c5565b975061191d836110ab565b9250506001810190506118fe565b5085935050505092915050565b5f61194382846118dc565b915081905092915050565b7f4e487b71000000000000000000000000000000000000000000000000000000005f52601160045260245ffd5b5f6119858261112e565b91506119908361112e565b92508282039050818111156119a8576119a761194e565b5b92915050565b7f4e487b71000000000000000000000000000000000000000000000000000000005f52603260045260245ffd5b5f819050919050565b5f6119ee826119db565b91506119f9836119db565b925082820390508181125f8412168282135f851215161715611a1e57611a1d61194e565b5b92915050565b7f4e487b71000000000000000000000000000000000000000000000000000000005f52601260045260245ffd5b5f611a5b826119db565b9150611a66836119db565b925082611a7657611a75611a24565b5b60015f0383147f800000000000000000000000000000000000000000000000000000000000000083141615611aae57611aad61194e565b5b828205905092915050565b5f611ac3826119db565b9150611ace836119db565b92508282019050828112155f8312168382125f841215161715611af457611af361194e565b5b92915050565b5f611b04826119db565b91507f7fffffffffffffffffffffffffffffffffffffffffffffffffffffffffffffff8203611b3657611b3561194e565b5b600182019050919050565b5f611b4b826119db565b91507f80000000000000000000000000000000000000000000000000000000000000008203611b7d57611b7c61194e565b5b60018203905091905056fea26469706673582212209c43d4a75c5fe38156a7ee52a831a94658d07df3baa57e2885aa8b44bd9ac50264736f6c63430008160033",
					"opcodes": "PUSH1 0x80 PUSH1 0x40 MSTORE CALLVALUE DUP1 ISZERO PUSH2 0xF JUMPI PUSH0 DUP1 REVERT JUMPDEST POP PUSH2 0x1BBE DUP1 PUSH2 0x1D PUSH0 CODECOPY PUSH0 RETURN INVALID PUSH1 0x80 PUSH1 0x40 MSTORE CALLVALUE DUP1 ISZERO PUSH2 0xF JUMPI PUSH0 DUP1 REVERT JUMPDEST POP PUSH1 0x4 CALLDATASIZE LT PUSH2 0x3F JUMPI PUSH0 CALLDATALOAD PUSH1 0xE0 SHR DUP1 PUSH4 0x2671B0D8 EQ PUSH2 0x43 JUMPI DUP1 PUSH4 0x984BC700 EQ PUSH2 0x73 JUMPI DUP1 PUSH4 0xC3A47879 EQ PUSH2 0xA3 JUMPI JUMPDEST PUSH0 DUP1 REVERT JUMPDEST PUSH2 0x5D PUSH1 0x4 DUP1 CALLDATASIZE SUB DUP2 ADD SWAP1 PUSH2 0x58 SWAP2 SWAP1 PUSH2 0xEFC JUMP JUMPDEST PUSH2 0xBF JUMP JUMPDEST PUSH1 0x40 MLOAD PUSH2 0x6A SWAP2 SWAP1 PUSH2 0xFE7 JUMP JUMPDEST PUSH1 0x40 MLOAD DUP1 SWAP2 SUB SWAP1 RETURN JUMPDEST PUSH2 0x8D PUSH1 0x4 DUP1 CALLDATASIZE SUB DUP2 ADD SWAP1 PUSH2 0x88 SWAP2 SWAP1 PUSH2 0x1031 JUMP JUMPDEST PUSH2 0x152 JUMP JUMPDEST PUSH1 0x40 MLOAD PUSH2 0x9A SWAP2 SWAP1 PUSH2 0x1251 JUMP JUMPDEST PUSH1 0x40 MLOAD DUP1 SWAP2 SUB SWAP1 RETURN JUMPDEST PUSH2 0xBD PUSH1 0x4 DUP1 CALLDATASIZE SUB DUP2 ADD SWAP1 PUSH2 0xB8 SWAP2 SWAP1 PUSH2 0x1461 JUMP JUMPDEST PUSH2 0x348 JUMP JUMPDEST STOP JUMPDEST PUSH1 0x60 PUSH1 0x6 PUSH0 DUP4 PUSH20 0xFFFFFFFFFFFFFFFFFFFFFFFFFFFFFFFFFFFFFFFF AND PUSH20 0xFFFFFFFFFFFFFFFFFFFFFFFFFFFFFFFFFFFFFFFF AND DUP2 MSTORE PUSH1 0x20 ADD SWAP1 DUP2 MSTORE PUSH1 0x20 ADD PUSH0 KECCAK256 DUP1 SLOAD DUP1 PUSH1 0x20 MUL PUSH1 0x20 ADD PUSH1 0x40 MLOAD SWAP1 DUP2 ADD PUSH1 0x40 MSTORE DUP1 SWAP3 SWAP2 SWAP1 DUP2 DUP2 MSTORE PUSH1 0x20 ADD DUP3 DUP1 SLOAD DUP1 ISZERO PUSH2 0x146 JUMPI PUSH1 0x20 MUL DUP3 ADD SWAP2 SWAP1 PUSH0 MSTORE PUSH1 0x20 PUSH0 KECCAK256 SWAP1 JUMPDEST DUP2 SLOAD DUP2 MSTORE PUSH1 0x20 ADD SWAP1 PUSH1 0x1 ADD SWAP1 DUP1 DUP4 GT PUSH2 0x132 JUMPI JUMPDEST POP POP POP POP POP SWAP1 POP SWAP2 SWAP1 POP JUMP JUMPDEST PUSH2 0x15A PUSH2 0xCEA JUMP JUMPDEST PUSH1 0x5 PUSH0 DUP4 DUP2 MSTORE PUSH1 0x20 ADD SWAP1 DUP2 MSTORE PUSH1 0x20 ADD PUSH0 KECCAK256 PUSH1 0x40 MLOAD DUP1 PUSH1 0xA0 ADD PUSH1 0x40 MSTORE SWAP1 DUP2 PUSH0 DUP3 ADD DUP1 SLOAD DUP1 PUSH1 0x20 MUL PUSH1 0x20 ADD PUSH1 0x40 MLOAD SWAP1 DUP2 ADD PUSH1 0x40 MSTORE DUP1 SWAP3 SWAP2 SWAP1 DUP2 DUP2 MSTORE PUSH1 0x20 ADD DUP3 DUP1 SLOAD DUP1 ISZERO PUSH2 0x1F7 JUMPI PUSH1 0x20 MUL DUP3 ADD SWAP2 SWAP1 PUSH0 MSTORE PUSH1 0x20 PUSH0 KECCAK256 SWAP1 JUMPDEST DUP2 PUSH0 SWAP1 SLOAD SWAP1 PUSH2 0x100 EXP SWAP1 DIV PUSH20 0xFFFFFFFFFFFFFFFFFFFFFFFFFFFFFFFFFFFFFFFF AND PUSH20 0xFFFFFFFFFFFFFFFFFFFFFFFFFFFFFFFFFFFFFFFF AND DUP2 MSTORE PUSH1 0x20 ADD SWAP1 PUSH1 0x1 ADD SWAP1 DUP1 DUP4 GT PUSH2 0x1AE JUMPI JUMPDEST POP POP POP POP POP DUP2 MSTORE PUSH1 0x20 ADD PUSH1 0x1 DUP3 ADD DUP1 SLOAD DUP1 PUSH1 0x20 MUL PUSH1 0x20 ADD PUSH1 0x40 MLOAD SWAP1 DUP2 ADD PUSH1 0x40 MSTORE DUP1 SWAP3 SWAP2 SWAP1 DUP2 DUP2 MSTORE PUSH1 0x20 ADD DUP3 DUP1 SLOAD DUP1 ISZERO PUSH2 0x282 JUMPI PUSH1 0x20 MUL DUP3 ADD SWAP2 SWAP1 PUSH0 MSTORE PUSH1 0x20 PUSH0 KECCAK256 SWAP1 JUMPDEST DUP2 PUSH0 SWAP1 SLOAD SWAP1 PUSH2 0x100 EXP SWAP1 DIV PUSH20 0xFFFFFFFFFFFFFFFFFFFFFFFFFFFFFFFFFFFFFFFF AND PUSH20 0xFFFFFFFFFFFFFFFFFFFFFFFFFFFFFFFFFFFFFFFF AND DUP2 MSTORE PUSH1 0x20 ADD SWAP1 PUSH1 0x1 ADD SWAP1 DUP1 DUP4 GT PUSH2 0x239 JUMPI JUMPDEST POP POP POP POP POP DUP2 MSTORE PUSH1 0x20 ADD PUSH1 0x2 DUP3 ADD PUSH0 SWAP1 SLOAD SWAP1 PUSH2 0x100 EXP SWAP1 DIV PUSH1 0xFF AND PUSH1 0xFF AND PUSH1 0xFF AND DUP2 MSTORE PUSH1 0x20 ADD PUSH1 0x3 DUP3 ADD SLOAD DUP2 MSTORE PUSH1 0x20 ADD PUSH1 0x4 DUP3 ADD DUP1 SLOAD PUSH2 0x2C1 SWAP1 PUSH2 0x1516 JUMP JUMPDEST DUP1 PUSH1 0x1F ADD PUSH1 0x20 DUP1 SWAP2 DIV MUL PUSH1 0x20 ADD PUSH1 0x40 MLOAD SWAP1 DUP2 ADD PUSH1 0x40 MSTORE DUP1 SWAP3 SWAP2 SWAP1 DUP2 DUP2 MSTORE PUSH1 0x20 ADD DUP3 DUP1 SLOAD PUSH2 0x2ED SWAP1 PUSH2 0x1516 JUMP JUMPDEST DUP1 ISZERO PUSH2 0x338 JUMPI DUP1 PUSH1 0x1F LT PUSH2 0x30F JUMPI PUSH2 0x100 DUP1 DUP4 SLOAD DIV MUL DUP4 MSTORE SWAP2 PUSH1 0x20 ADD SWAP2 PUSH2 0x338 JUMP JUMPDEST DUP3 ADD SWAP2 SWAP1 PUSH0 MSTORE PUSH1 0x20 PUSH0 KECCAK256 SWAP1 JUMPDEST DUP2 SLOAD DUP2 MSTORE SWAP1 PUSH1 0x1 ADD SWAP1 PUSH1 0x20 ADD DUP1 DUP4 GT PUSH2 0x31B JUMPI DUP3 SWAP1 SUB PUSH1 0x1F AND DUP3 ADD SWAP2 JUMPDEST POP POP POP POP POP DUP2 MSTORE POP POP SWAP1 POP SWAP2 SWAP1 POP JUMP JUMPDEST PUSH0 DUP1 SHL DUP4 SUB PUSH2 0x48A JUMPI PUSH2 0x35A DUP3 PUSH2 0x8CD JUMP JUMPDEST SWAP3 POP PUSH1 0x5 PUSH0 DUP5 DUP2 MSTORE PUSH1 0x20 ADD SWAP1 DUP2 MSTORE PUSH1 0x20 ADD PUSH0 KECCAK256 PUSH0 DUP1 DUP3 ADD DUP2 PUSH0 ADD SWAP1 DUP1 SLOAD PUSH2 0x382 SWAP3 SWAP2 SWAP1 PUSH2 0xD1A JUMP JUMPDEST POP PUSH1 0x1 DUP3 ADD DUP2 PUSH1 0x1 ADD SWAP1 DUP1 SLOAD PUSH2 0x399 SWAP3 SWAP2 SWAP1 PUSH2 0xD1A JUMP JUMPDEST POP PUSH1 0x2 DUP3 ADD PUSH0 SWAP1 SLOAD SWAP1 PUSH2 0x100 EXP SWAP1 DIV PUSH1 0xFF AND DUP2 PUSH1 0x2 ADD PUSH0 PUSH2 0x100 EXP DUP2 SLOAD DUP2 PUSH1 0xFF MUL NOT AND SWAP1 DUP4 PUSH1 0xFF AND MUL OR SWAP1 SSTORE POP PUSH1 0x3 DUP3 ADD SLOAD DUP2 PUSH1 0x3 ADD SSTORE PUSH1 0x4 DUP3 ADD DUP2 PUSH1 0x4 ADD SWAP1 DUP2 PUSH2 0x3E4 SWAP2 SWAP1 PUSH2 0x16F8 JUMP JUMPDEST POP SWAP1 POP POP DUP2 PUSH0 DUP1 ADD SWAP1 DUP1 MLOAD SWAP1 PUSH1 0x20 ADD SWAP1 PUSH2 0x3FF SWAP3 SWAP2 SWAP1 PUSH2 0xD68 JUMP JUMPDEST POP PUSH1 0x40 MLOAD DUP1 PUSH1 0x20 ADD PUSH1 0x40 MSTORE DUP1 CALLER PUSH20 0xFFFFFFFFFFFFFFFFFFFFFFFFFFFFFFFFFFFFFFFF AND PUSH20 0xFFFFFFFFFFFFFFFFFFFFFFFFFFFFFFFFFFFFFFFF AND DUP2 MSTORE POP PUSH0 PUSH1 0x1 ADD SWAP1 PUSH1 0x1 PUSH2 0x44D SWAP3 SWAP2 SWAP1 PUSH2 0xDEF JUMP JUMPDEST POP PUSH0 DUP1 PUSH1 0x2 ADD PUSH0 PUSH2 0x100 EXP DUP2 SLOAD DUP2 PUSH1 0xFF MUL NOT AND SWAP1 DUP4 PUSH1 0xFF AND MUL OR SWAP1 SSTORE POP TIMESTAMP PUSH0 PUSH1 0x3 ADD DUP2 SWAP1 SSTORE POP DUP1 PUSH0 PUSH1 0x4 ADD SWAP1 DUP2 PUSH2 0x484 SWAP2 SWAP1 PUSH2 0x17DD JUMP JUMPDEST POP PUSH2 0x743 JUMP JUMPDEST PUSH1 0x5 PUSH0 DUP5 DUP2 MSTORE PUSH1 0x20 ADD SWAP1 DUP2 MSTORE PUSH1 0x20 ADD PUSH0 KECCAK256 PUSH0 DUP1 DUP3 ADD DUP2 PUSH0 ADD SWAP1 DUP1 SLOAD PUSH2 0x4B0 SWAP3 SWAP2 SWAP1 PUSH2 0xD1A JUMP JUMPDEST POP PUSH1 0x1 DUP3 ADD DUP2 PUSH1 0x1 ADD SWAP1 DUP1 SLOAD PUSH2 0x4C7 SWAP3 SWAP2 SWAP1 PUSH2 0xD1A JUMP JUMPDEST POP PUSH1 0x2 DUP3 ADD PUSH0 SWAP1 SLOAD SWAP1 PUSH2 0x100 EXP SWAP1 DIV PUSH1 0xFF AND DUP2 PUSH1 0x2 ADD PUSH0 PUSH2 0x100 EXP DUP2 SLOAD DUP2 PUSH1 0xFF MUL NOT AND SWAP1 DUP4 PUSH1 0xFF AND MUL OR SWAP1 SSTORE POP PUSH1 0x3 DUP3 ADD SLOAD DUP2 PUSH1 0x3 ADD SSTORE PUSH1 0x4 DUP3 ADD DUP2 PUSH1 0x4 ADD SWAP1 DUP2 PUSH2 0x512 SWAP2 SWAP1 PUSH2 0x16F8 JUMP JUMPDEST POP SWAP1 POP POP PUSH2 0x629 PUSH0 DUP1 ADD DUP1 SLOAD DUP1 PUSH1 0x20 MUL PUSH1 0x20 ADD PUSH1 0x40 MLOAD SWAP1 DUP2 ADD PUSH1 0x40 MSTORE DUP1 SWAP3 SWAP2 SWAP1 DUP2 DUP2 MSTORE PUSH1 0x20 ADD DUP3 DUP1 SLOAD DUP1 ISZERO PUSH2 0x599 JUMPI PUSH1 0x20 MUL DUP3 ADD SWAP2 SWAP1 PUSH0 MSTORE PUSH1 0x20 PUSH0 KECCAK256 SWAP1 JUMPDEST DUP2 PUSH0 SWAP1 SLOAD SWAP1 PUSH2 0x100 EXP SWAP1 DIV PUSH20 0xFFFFFFFFFFFFFFFFFFFFFFFFFFFFFFFFFFFFFFFF AND PUSH20 0xFFFFFFFFFFFFFFFFFFFFFFFFFFFFFFFFFFFFFFFF AND DUP2 MSTORE PUSH1 0x20 ADD SWAP1 PUSH1 0x1 ADD SWAP1 DUP1 DUP4 GT PUSH2 0x550 JUMPI JUMPDEST POP POP POP POP POP PUSH0 PUSH1 0x1 ADD DUP1 SLOAD DUP1 PUSH1 0x20 MUL PUSH1 0x20 ADD PUSH1 0x40 MLOAD SWAP1 DUP2 ADD PUSH1 0x40 MSTORE DUP1 SWAP3 SWAP2 SWAP1 DUP2 DUP2 MSTORE PUSH1 0x20 ADD DUP3 DUP1 SLOAD DUP1 ISZERO PUSH2 0x61F JUMPI PUSH1 0x20 MUL DUP3 ADD SWAP2 SWAP1 PUSH0 MSTORE PUSH1 0x20 PUSH0 KECCAK256 SWAP1 JUMPDEST DUP2 PUSH0 SWAP1 SLOAD SWAP1 PUSH2 0x100 EXP SWAP1 DIV PUSH20 0xFFFFFFFFFFFFFFFFFFFFFFFFFFFFFFFFFFFFFFFF AND PUSH20 0xFFFFFFFFFFFFFFFFFFFFFFFFFFFFFFFFFFFFFFFF AND DUP2 MSTORE PUSH1 0x20 ADD SWAP1 PUSH1 0x1 ADD SWAP1 DUP1 DUP4 GT PUSH2 0x5D6 JUMPI JUMPDEST POP POP POP POP POP PUSH2 0x8FC JUMP JUMPDEST ISZERO PUSH2 0x64C JUMPI PUSH1 0x1 PUSH0 PUSH1 0x2 ADD PUSH0 PUSH2 0x100 EXP DUP2 SLOAD DUP2 PUSH1 0xFF MUL NOT AND SWAP1 DUP4 PUSH1 0xFF AND MUL OR SWAP1 SSTORE POP JUMPDEST PUSH2 0x6DB PUSH0 PUSH1 0x1 ADD DUP1 SLOAD DUP1 PUSH1 0x20 MUL PUSH1 0x20 ADD PUSH1 0x40 MLOAD SWAP1 DUP2 ADD PUSH1 0x40 MSTORE DUP1 SWAP3 SWAP2 SWAP1 DUP2 DUP2 MSTORE PUSH1 0x20 ADD DUP3 DUP1 SLOAD DUP1 ISZERO PUSH2 0x6D0 JUMPI PUSH1 0x20 MUL DUP3 ADD SWAP2 SWAP1 PUSH0 MSTORE PUSH1 0x20 PUSH0 KECCAK256 SWAP1 JUMPDEST DUP2 PUSH0 SWAP1 SLOAD SWAP1 PUSH2 0x100 EXP SWAP1 DIV PUSH20 0xFFFFFFFFFFFFFFFFFFFFFFFFFFFFFFFFFFFFFFFF AND PUSH20 0xFFFFFFFFFFFFFFFFFFFFFFFFFFFFFFFFFFFFFFFF AND DUP2 MSTORE PUSH1 0x20 ADD SWAP1 PUSH1 0x1 ADD SWAP1 DUP1 DUP4 GT PUSH2 0x687 JUMPI JUMPDEST POP POP POP POP POP CALLER PUSH2 0x9D2 JUMP JUMPDEST PUSH2 0x742 JUMPI PUSH0 PUSH1 0x1 ADD CALLER SWAP1 DUP1 PUSH1 0x1 DUP2 SLOAD ADD DUP1 DUP3 SSTORE DUP1 SWAP2 POP POP PUSH1 0x1 SWAP1 SUB SWAP1 PUSH0 MSTORE PUSH1 0x20 PUSH0 KECCAK256 ADD PUSH0 SWAP1 SWAP2 SWAP1 SWAP2 SWAP1 SWAP2 PUSH2 0x100 EXP DUP2 SLOAD DUP2 PUSH20 0xFFFFFFFFFFFFFFFFFFFFFFFFFFFFFFFFFFFFFFFF MUL NOT AND SWAP1 DUP4 PUSH20 0xFFFFFFFFFFFFFFFFFFFFFFFFFFFFFFFFFFFFFFFF AND MUL OR SWAP1 SSTORE POP JUMPDEST JUMPDEST PUSH2 0x7D6 PUSH1 0x6 PUSH0 CALLER PUSH20 0xFFFFFFFFFFFFFFFFFFFFFFFFFFFFFFFFFFFFFFFF AND PUSH20 0xFFFFFFFFFFFFFFFFFFFFFFFFFFFFFFFFFFFFFFFF AND DUP2 MSTORE PUSH1 0x20 ADD SWAP1 DUP2 MSTORE PUSH1 0x20 ADD PUSH0 KECCAK256 DUP1 SLOAD DUP1 PUSH1 0x20 MUL PUSH1 0x20 ADD PUSH1 0x40 MLOAD SWAP1 DUP2 ADD PUSH1 0x40 MSTORE DUP1 SWAP3 SWAP2 SWAP1 DUP2 DUP2 MSTORE PUSH1 0x20 ADD DUP3 DUP1 SLOAD DUP1 ISZERO PUSH2 0x7CB JUMPI PUSH1 0x20 MUL DUP3 ADD SWAP2 SWAP1 PUSH0 MSTORE PUSH1 0x20 PUSH0 KECCAK256 SWAP1 JUMPDEST DUP2 SLOAD DUP2 MSTORE PUSH1 0x20 ADD SWAP1 PUSH1 0x1 ADD SWAP1 DUP1 DUP4 GT PUSH2 0x7B7 JUMPI JUMPDEST POP POP POP POP POP DUP5 PUSH2 0xA50 JUMP JUMPDEST PUSH2 0x83C JUMPI PUSH1 0x6 PUSH0 CALLER PUSH20 0xFFFFFFFFFFFFFFFFFFFFFFFFFFFFFFFFFFFFFFFF AND PUSH20 0xFFFFFFFFFFFFFFFFFFFFFFFFFFFFFFFFFFFFFFFF AND DUP2 MSTORE PUSH1 0x20 ADD SWAP1 DUP2 MSTORE PUSH1 0x20 ADD PUSH0 KECCAK256 DUP4 SWAP1 DUP1 PUSH1 0x1 DUP2 SLOAD ADD DUP1 DUP3 SSTORE DUP1 SWAP2 POP POP PUSH1 0x1 SWAP1 SUB SWAP1 PUSH0 MSTORE PUSH1 0x20 PUSH0 KECCAK256 ADD PUSH0 SWAP1 SWAP2 SWAP1 SWAP2 SWAP1 SWAP2 POP SSTORE JUMPDEST PUSH0 PUSH1 0x5 PUSH0 DUP6 DUP2 MSTORE PUSH1 0x20 ADD SWAP1 DUP2 MSTORE PUSH1 0x20 ADD PUSH0 KECCAK256 PUSH0 DUP3 ADD DUP2 PUSH0 ADD SWAP1 DUP1 SLOAD PUSH2 0x862 SWAP3 SWAP2 SWAP1 PUSH2 0xD1A JUMP JUMPDEST POP PUSH1 0x1 DUP3 ADD DUP2 PUSH1 0x1 ADD SWAP1 DUP1 SLOAD PUSH2 0x879 SWAP3 SWAP2 SWAP1 PUSH2 0xD1A JUMP JUMPDEST POP PUSH1 0x2 DUP3 ADD PUSH0 SWAP1 SLOAD SWAP1 PUSH2 0x100 EXP SWAP1 DIV PUSH1 0xFF AND DUP2 PUSH1 0x2 ADD PUSH0 PUSH2 0x100 EXP DUP2 SLOAD DUP2 PUSH1 0xFF MUL NOT AND SWAP1 DUP4 PUSH1 0xFF AND MUL OR SWAP1 SSTORE POP PUSH1 0x3 DUP3 ADD SLOAD DUP2 PUSH1 0x3 ADD SSTORE PUSH1 0x4 DUP3 ADD DUP2 PUSH1 0x4 ADD SWAP1 DUP2 PUSH2 0x8C4 SWAP2 SWAP1 PUSH2 0x16F8 JUMP JUMPDEST POP SWAP1 POP POP POP POP POP JUMP JUMPDEST PUSH0 DUP2 PUSH1 0x40 MLOAD PUSH1 0x20 ADD PUSH2 0x8DF SWAP2 SWAP1 PUSH2 0x1938 JUMP JUMPDEST PUSH1 0x40 MLOAD PUSH1 0x20 DUP2 DUP4 SUB SUB DUP2 MSTORE SWAP1 PUSH1 0x40 MSTORE DUP1 MLOAD SWAP1 PUSH1 0x20 ADD KECCAK256 SWAP1 POP SWAP2 SWAP1 POP JUMP JUMPDEST PUSH0 DUP2 MLOAD DUP4 MLOAD EQ PUSH2 0x90E JUMPI PUSH0 SWAP1 POP PUSH2 0x9CC JUMP JUMPDEST PUSH2 0x926 DUP4 PUSH0 PUSH1 0x1 DUP7 MLOAD PUSH2 0x921 SWAP2 SWAP1 PUSH2 0x197B JUMP JUMPDEST PUSH2 0xAA2 JUMP JUMPDEST PUSH2 0x93E DUP3 PUSH0 PUSH1 0x1 DUP6 MLOAD PUSH2 0x939 SWAP2 SWAP1 PUSH2 0x197B JUMP JUMPDEST PUSH2 0xAA2 JUMP JUMPDEST PUSH0 JUMPDEST DUP4 MLOAD DUP2 LT ISZERO PUSH2 0x9C6 JUMPI DUP3 DUP2 DUP2 MLOAD DUP2 LT PUSH2 0x95C JUMPI PUSH2 0x95B PUSH2 0x19AE JUMP JUMPDEST JUMPDEST PUSH1 0x20 MUL PUSH1 0x20 ADD ADD MLOAD PUSH20 0xFFFFFFFFFFFFFFFFFFFFFFFFFFFFFFFFFFFFFFFF AND DUP5 DUP3 DUP2 MLOAD DUP2 LT PUSH2 0x98D JUMPI PUSH2 0x98C PUSH2 0x19AE JUMP JUMPDEST JUMPDEST PUSH1 0x20 MUL PUSH1 0x20 ADD ADD MLOAD PUSH20 0xFFFFFFFFFFFFFFFFFFFFFFFFFFFFFFFFFFFFFFFF AND EQ PUSH2 0x9B9 JUMPI PUSH0 SWAP2 POP POP PUSH2 0x9CC JUMP JUMPDEST DUP1 DUP1 PUSH1 0x1 ADD SWAP2 POP POP PUSH2 0x940 JUMP JUMPDEST POP PUSH1 0x1 SWAP1 POP JUMPDEST SWAP3 SWAP2 POP POP JUMP JUMPDEST PUSH0 DUP1 PUSH0 SWAP1 POP JUMPDEST DUP4 MLOAD DUP2 LT ISZERO PUSH2 0xA45 JUMPI DUP3 PUSH20 0xFFFFFFFFFFFFFFFFFFFFFFFFFFFFFFFFFFFFFFFF AND DUP5 DUP3 DUP2 MLOAD DUP2 LT PUSH2 0xA0B JUMPI PUSH2 0xA0A PUSH2 0x19AE JUMP JUMPDEST JUMPDEST PUSH1 0x20 MUL PUSH1 0x20 ADD ADD MLOAD PUSH20 0xFFFFFFFFFFFFFFFFFFFFFFFFFFFFFFFFFFFFFFFF AND SUB PUSH2 0xA38 JUMPI PUSH1 0x1 SWAP2 POP POP PUSH2 0xA4A JUMP JUMPDEST DUP1 DUP1 PUSH1 0x1 ADD SWAP2 POP POP PUSH2 0x9D8 JUMP JUMPDEST POP PUSH0 SWAP1 POP JUMPDEST SWAP3 SWAP2 POP POP JUMP JUMPDEST PUSH0 DUP1 PUSH0 SWAP1 POP JUMPDEST DUP4 MLOAD DUP2 LT ISZERO PUSH2 0xA97 JUMPI DUP3 DUP5 DUP3 DUP2 MLOAD DUP2 LT PUSH2 0xA73 JUMPI PUSH2 0xA72 PUSH2 0x19AE JUMP JUMPDEST JUMPDEST PUSH1 0x20 MUL PUSH1 0x20 ADD ADD MLOAD SUB PUSH2 0xA8A JUMPI PUSH1 0x1 SWAP2 POP POP PUSH2 0xA9C JUMP JUMPDEST DUP1 DUP1 PUSH1 0x1 ADD SWAP2 POP POP PUSH2 0xA56 JUMP JUMPDEST POP PUSH0 SWAP1 POP JUMPDEST SWAP3 SWAP2 POP POP JUMP JUMPDEST PUSH0 DUP3 SWAP1 POP PUSH0 DUP3 SWAP1 POP DUP1 DUP3 SUB PUSH2 0xAB8 JUMPI POP POP PUSH2 0xCE5 JUMP JUMPDEST PUSH0 DUP6 PUSH1 0x2 DUP7 DUP7 PUSH2 0xAC8 SWAP2 SWAP1 PUSH2 0x19E4 JUMP JUMPDEST PUSH2 0xAD2 SWAP2 SWAP1 PUSH2 0x1A51 JUMP JUMPDEST DUP7 PUSH2 0xADD SWAP2 SWAP1 PUSH2 0x1AB9 JUMP JUMPDEST DUP2 MLOAD DUP2 LT PUSH2 0xAEE JUMPI PUSH2 0xAED PUSH2 0x19AE JUMP JUMPDEST JUMPDEST PUSH1 0x20 MUL PUSH1 0x20 ADD ADD MLOAD SWAP1 POP JUMPDEST DUP2 DUP4 SGT PUSH2 0xCB9 JUMPI JUMPDEST DUP1 PUSH20 0xFFFFFFFFFFFFFFFFFFFFFFFFFFFFFFFFFFFFFFFF AND DUP7 DUP5 DUP2 MLOAD DUP2 LT PUSH2 0xB2B JUMPI PUSH2 0xB2A PUSH2 0x19AE JUMP JUMPDEST JUMPDEST PUSH1 0x20 MUL PUSH1 0x20 ADD ADD MLOAD PUSH20 0xFFFFFFFFFFFFFFFFFFFFFFFFFFFFFFFFFFFFFFFF AND LT ISZERO PUSH2 0xB62 JUMPI DUP3 DUP1 PUSH2 0xB5A SWAP1 PUSH2 0x1AFA JUMP JUMPDEST SWAP4 POP POP PUSH2 0xB01 JUMP JUMPDEST JUMPDEST DUP6 DUP3 DUP2 MLOAD DUP2 LT PUSH2 0xB76 JUMPI PUSH2 0xB75 PUSH2 0x19AE JUMP JUMPDEST JUMPDEST PUSH1 0x20 MUL PUSH1 0x20 ADD ADD MLOAD PUSH20 0xFFFFFFFFFFFFFFFFFFFFFFFFFFFFFFFFFFFFFFFF AND DUP2 PUSH20 0xFFFFFFFFFFFFFFFFFFFFFFFFFFFFFFFFFFFFFFFF AND LT ISZERO PUSH2 0xBC4 JUMPI DUP2 DUP1 PUSH2 0xBBC SWAP1 PUSH2 0x1B41 JUMP JUMPDEST SWAP3 POP POP PUSH2 0xB63 JUMP JUMPDEST DUP2 DUP4 SGT PUSH2 0xCB4 JUMPI DUP6 DUP3 DUP2 MLOAD DUP2 LT PUSH2 0xBDE JUMPI PUSH2 0xBDD PUSH2 0x19AE JUMP JUMPDEST JUMPDEST PUSH1 0x20 MUL PUSH1 0x20 ADD ADD MLOAD DUP7 DUP5 DUP2 MLOAD DUP2 LT PUSH2 0xBF9 JUMPI PUSH2 0xBF8 PUSH2 0x19AE JUMP JUMPDEST JUMPDEST PUSH1 0x20 MUL PUSH1 0x20 ADD ADD MLOAD DUP8 DUP6 DUP2 MLOAD DUP2 LT PUSH2 0xC14 JUMPI PUSH2 0xC13 PUSH2 0x19AE JUMP JUMPDEST JUMPDEST PUSH1 0x20 MUL PUSH1 0x20 ADD ADD DUP9 DUP6 DUP2 MLOAD DUP2 LT PUSH2 0xC2E JUMPI PUSH2 0xC2D PUSH2 0x19AE JUMP JUMPDEST JUMPDEST PUSH1 0x20 MUL PUSH1 0x20 ADD ADD DUP3 PUSH20 0xFFFFFFFFFFFFFFFFFFFFFFFFFFFFFFFFFFFFFFFF AND PUSH20 0xFFFFFFFFFFFFFFFFFFFFFFFFFFFFFFFFFFFFFFFF AND DUP2 MSTORE POP DUP3 PUSH20 0xFFFFFFFFFFFFFFFFFFFFFFFFFFFFFFFFFFFFFFFF AND PUSH20 0xFFFFFFFFFFFFFFFFFFFFFFFFFFFFFFFFFFFFFFFF AND DUP2 MSTORE POP POP POP DUP3 DUP1 PUSH2 0xCA2 SWAP1 PUSH2 0x1AFA JUMP JUMPDEST SWAP4 POP POP DUP2 DUP1 PUSH2 0xCB0 SWAP1 PUSH2 0x1B41 JUMP JUMPDEST SWAP3 POP POP JUMPDEST PUSH2 0xAF9 JUMP JUMPDEST DUP2 DUP6 SLT ISZERO PUSH2 0xCCD JUMPI PUSH2 0xCCC DUP7 DUP7 DUP5 PUSH2 0xAA2 JUMP JUMPDEST JUMPDEST DUP4 DUP4 SLT ISZERO PUSH2 0xCE1 JUMPI PUSH2 0xCE0 DUP7 DUP5 DUP7 PUSH2 0xAA2 JUMP JUMPDEST JUMPDEST POP POP POP JUMPDEST POP POP POP JUMP JUMPDEST PUSH1 0x40 MLOAD DUP1 PUSH1 0xA0 ADD PUSH1 0x40 MSTORE DUP1 PUSH1 0x60 DUP2 MSTORE PUSH1 0x20 ADD PUSH1 0x60 DUP2 MSTORE PUSH1 0x20 ADD PUSH0 PUSH1 0xFF AND DUP2 MSTORE PUSH1 0x20 ADD PUSH0 DUP2 MSTORE PUSH1 0x20 ADD PUSH1 0x60 DUP2 MSTORE POP SWAP1 JUMP JUMPDEST DUP3 DUP1 SLOAD DUP3 DUP3 SSTORE SWAP1 PUSH0 MSTORE PUSH1 0x20 PUSH0 KECCAK256 SWAP1 DUP2 ADD SWAP3 DUP3 ISZERO PUSH2 0xD57 JUMPI PUSH0 MSTORE PUSH1 0x20 PUSH0 KECCAK256 SWAP2 DUP3 ADD JUMPDEST DUP3 DUP2 GT ISZERO PUSH2 0xD56 JUMPI DUP3 SLOAD DUP3 SSTORE SWAP2 PUSH1 0x1 ADD SWAP2 SWAP1 PUSH1 0x1 ADD SWAP1 PUSH2 0xD3B JUMP JUMPDEST JUMPDEST POP SWAP1 POP PUSH2 0xD64 SWAP2 SWAP1 PUSH2 0xE76 JUMP JUMPDEST POP SWAP1 JUMP JUMPDEST DUP3 DUP1 SLOAD DUP3 DUP3 SSTORE SWAP1 PUSH0 MSTORE PUSH1 0x20 PUSH0 KECCAK256 SWAP1 DUP2 ADD SWAP3 DUP3 ISZERO PUSH2 0xDDE JUMPI SWAP2 PUSH1 0x20 MUL DUP3 ADD JUMPDEST DUP3 DUP2 GT ISZERO PUSH2 0xDDD JUMPI DUP3 MLOAD DUP3 PUSH0 PUSH2 0x100 EXP DUP2 SLOAD DUP2 PUSH20 0xFFFFFFFFFFFFFFFFFFFFFFFFFFFFFFFFFFFFFFFF MUL NOT AND SWAP1 DUP4 PUSH20 0xFFFFFFFFFFFFFFFFFFFFFFFFFFFFFFFFFFFFFFFF AND MUL OR SWAP1 SSTORE POP SWAP2 PUSH1 0x20 ADD SWAP2 SWAP1 PUSH1 0x1 ADD SWAP1 PUSH2 0xD86 JUMP JUMPDEST JUMPDEST POP SWAP1 POP PUSH2 0xDEB SWAP2 SWAP1 PUSH2 0xE76 JUMP JUMPDEST POP SWAP1 JUMP JUMPDEST DUP3 DUP1 SLOAD DUP3 DUP3 SSTORE SWAP1 PUSH0 MSTORE PUSH1 0x20 PUSH0 KECCAK256 SWAP1 DUP2 ADD SWAP3 DUP3 ISZERO PUSH2 0xE65 JUMPI SWAP2 PUSH1 0x20 MUL DUP3 ADD JUMPDEST DUP3 DUP2 GT ISZERO PUSH2 0xE64 JUMPI DUP3 MLOAD DUP3 PUSH0 PUSH2 0x100 EXP DUP2 SLOAD DUP2 PUSH20 0xFFFFFFFFFFFFFFFFFFFFFFFFFFFFFFFFFFFFFFFF MUL NOT AND SWAP1 DUP4 PUSH20 0xFFFFFFFFFFFFFFFFFFFFFFFFFFFFFFFFFFFFFFFF AND MUL OR SWAP1 SSTORE POP SWAP2 PUSH1 0x20 ADD SWAP2 SWAP1 PUSH1 0x1 ADD SWAP1 PUSH2 0xE0D JUMP JUMPDEST JUMPDEST POP SWAP1 POP PUSH2 0xE72 SWAP2 SWAP1 PUSH2 0xE76 JUMP JUMPDEST POP SWAP1 JUMP JUMPDEST JUMPDEST DUP1 DUP3 GT ISZERO PUSH2 0xE8D JUMPI PUSH0 DUP2 PUSH0 SWAP1 SSTORE POP PUSH1 0x1 ADD PUSH2 0xE77 JUMP JUMPDEST POP SWAP1 JUMP JUMPDEST PUSH0 PUSH1 0x40 MLOAD SWAP1 POP SWAP1 JUMP JUMPDEST PUSH0 DUP1 REVERT JUMPDEST PUSH0 DUP1 REVERT JUMPDEST PUSH0 PUSH20 0xFFFFFFFFFFFFFFFFFFFFFFFFFFFFFFFFFFFFFFFF DUP3 AND SWAP1 POP SWAP2 SWAP1 POP JUMP JUMPDEST PUSH0 PUSH2 0xECB DUP3 PUSH2 0xEA2 JUMP JUMPDEST SWAP1 POP SWAP2 SWAP1 POP JUMP JUMPDEST PUSH2 0xEDB DUP2 PUSH2 0xEC1 JUMP JUMPDEST DUP2 EQ PUSH2 0xEE5 JUMPI PUSH0 DUP1 REVERT JUMPDEST POP JUMP JUMPDEST PUSH0 DUP2 CALLDATALOAD SWAP1 POP PUSH2 0xEF6 DUP2 PUSH2 0xED2 JUMP JUMPDEST SWAP3 SWAP2 POP POP JUMP JUMPDEST PUSH0 PUSH1 0x20 DUP3 DUP5 SUB SLT ISZERO PUSH2 0xF11 JUMPI PUSH2 0xF10 PUSH2 0xE9A JUMP JUMPDEST JUMPDEST PUSH0 PUSH2 0xF1E DUP5 DUP3 DUP6 ADD PUSH2 0xEE8 JUMP JUMPDEST SWAP2 POP POP SWAP3 SWAP2 POP POP JUMP JUMPDEST PUSH0 DUP2 MLOAD SWAP1 POP SWAP2 SWAP1 POP JUMP JUMPDEST PUSH0 DUP3 DUP3 MSTORE PUSH1 0x20 DUP3 ADD SWAP1 POP SWAP3 SWAP2 POP POP JUMP JUMPDEST PUSH0 DUP2 SWAP1 POP PUSH1 0x20 DUP3 ADD SWAP1 POP SWAP2 SWAP1 POP JUMP JUMPDEST PUSH0 DUP2 SWAP1 POP SWAP2 SWAP1 POP JUMP JUMPDEST PUSH2 0xF62 DUP2 PUSH2 0xF50 JUMP JUMPDEST DUP3 MSTORE POP POP JUMP JUMPDEST PUSH0 PUSH2 0xF73 DUP4 DUP4 PUSH2 0xF59 JUMP JUMPDEST PUSH1 0x20 DUP4 ADD SWAP1 POP SWAP3 SWAP2 POP POP JUMP JUMPDEST PUSH0 PUSH1 0x20 DUP3 ADD SWAP1 POP SWAP2 SWAP1 POP JUMP JUMPDEST PUSH0 PUSH2 0xF95 DUP3 PUSH2 0xF27 JUMP JUMPDEST PUSH2 0xF9F DUP2 DUP6 PUSH2 0xF31 JUMP JUMPDEST SWAP4 POP PUSH2 0xFAA DUP4 PUSH2 0xF41 JUMP JUMPDEST DUP1 PUSH0 JUMPDEST DUP4 DUP2 LT ISZERO PUSH2 0xFDA JUMPI DUP2 MLOAD PUSH2 0xFC1 DUP9 DUP3 PUSH2 0xF68 JUMP JUMPDEST SWAP8 POP PUSH2 0xFCC DUP4 PUSH2 0xF7F JUMP JUMPDEST SWAP3 POP POP PUSH1 0x1 DUP2 ADD SWAP1 POP PUSH2 0xFAD JUMP JUMPDEST POP DUP6 SWAP4 POP POP POP POP SWAP3 SWAP2 POP POP JUMP JUMPDEST PUSH0 PUSH1 0x20 DUP3 ADD SWAP1 POP DUP2 DUP2 SUB PUSH0 DUP4 ADD MSTORE PUSH2 0xFFF DUP2 DUP5 PUSH2 0xF8B JUMP JUMPDEST SWAP1 POP SWAP3 SWAP2 POP POP JUMP JUMPDEST PUSH2 0x1010 DUP2 PUSH2 0xF50 JUMP JUMPDEST DUP2 EQ PUSH2 0x101A JUMPI PUSH0 DUP1 REVERT JUMPDEST POP JUMP JUMPDEST PUSH0 DUP2 CALLDATALOAD SWAP1 POP PUSH2 0x102B DUP2 PUSH2 0x1007 JUMP JUMPDEST SWAP3 SWAP2 POP POP JUMP JUMPDEST PUSH0 PUSH1 0x20 DUP3 DUP5 SUB SLT ISZERO PUSH2 0x1046 JUMPI PUSH2 0x1045 PUSH2 0xE9A JUMP JUMPDEST JUMPDEST PUSH0 PUSH2 0x1053 DUP5 DUP3 DUP6 ADD PUSH2 0x101D JUMP JUMPDEST SWAP2 POP POP SWAP3 SWAP2 POP POP JUMP JUMPDEST PUSH0 DUP2 MLOAD SWAP1 POP SWAP2 SWAP1 POP JUMP JUMPDEST PUSH0 DUP3 DUP3 MSTORE PUSH1 0x20 DUP3 ADD SWAP1 POP SWAP3 SWAP2 POP POP JUMP JUMPDEST PUSH0 DUP2 SWAP1 POP PUSH1 0x20 DUP3 ADD SWAP1 POP SWAP2 SWAP1 POP JUMP JUMPDEST PUSH2 0x108E DUP2 PUSH2 0xEC1 JUMP JUMPDEST DUP3 MSTORE POP POP JUMP JUMPDEST PUSH0 PUSH2 0x109F DUP4 DUP4 PUSH2 0x1085 JUMP JUMPDEST PUSH1 0x20 DUP4 ADD SWAP1 POP SWAP3 SWAP2 POP POP JUMP JUMPDEST PUSH0 PUSH1 0x20 DUP3 ADD SWAP1 POP SWAP2 SWAP1 POP JUMP JUMPDEST PUSH0 PUSH2 0x10C1 DUP3 PUSH2 0x105C JUMP JUMPDEST PUSH2 0x10CB DUP2 DUP6 PUSH2 0x1066 JUMP JUMPDEST SWAP4 POP PUSH2 0x10D6 DUP4 PUSH2 0x1076 JUMP JUMPDEST DUP1 PUSH0 JUMPDEST DUP4 DUP2 LT ISZERO PUSH2 0x1106 JUMPI DUP2 MLOAD PUSH2 0x10ED DUP9 DUP3 PUSH2 0x1094 JUMP JUMPDEST SWAP8 POP PUSH2 0x10F8 DUP4 PUSH2 0x10AB JUMP JUMPDEST SWAP3 POP POP PUSH1 0x1 DUP2 ADD SWAP1 POP PUSH2 0x10D9 JUMP JUMPDEST POP DUP6 SWAP4 POP POP POP POP SWAP3 SWAP2 POP POP JUMP JUMPDEST PUSH0 PUSH1 0xFF DUP3 AND SWAP1 POP SWAP2 SWAP1 POP JUMP JUMPDEST PUSH2 0x1128 DUP2 PUSH2 0x1113 JUMP JUMPDEST DUP3 MSTORE POP POP JUMP JUMPDEST PUSH0 DUP2 SWAP1 POP SWAP2 SWAP1 POP JUMP JUMPDEST PUSH2 0x1140 DUP2 PUSH2 0x112E JUMP JUMPDEST DUP3 MSTORE POP POP JUMP JUMPDEST PUSH0 DUP2 MLOAD SWAP1 POP SWAP2 SWAP1 POP JUMP JUMPDEST PUSH0 DUP3 DUP3 MSTORE PUSH1 0x20 DUP3 ADD SWAP1 POP SWAP3 SWAP2 POP POP JUMP JUMPDEST PUSH0 JUMPDEST DUP4 DUP2 LT ISZERO PUSH2 0x117D JUMPI DUP1 DUP3 ADD MLOAD DUP2 DUP5 ADD MSTORE PUSH1 0x20 DUP2 ADD SWAP1 POP PUSH2 0x1162 JUMP JUMPDEST PUSH0 DUP5 DUP5 ADD MSTORE POP POP POP POP JUMP JUMPDEST PUSH0 PUSH1 0x1F NOT PUSH1 0x1F DUP4 ADD AND SWAP1 POP SWAP2 SWAP1 POP JUMP JUMPDEST PUSH0 PUSH2 0x11A2 DUP3 PUSH2 0x1146 JUMP JUMPDEST PUSH2 0x11AC DUP2 DUP6 PUSH2 0x1150 JUMP JUMPDEST SWAP4 POP PUSH2 0x11BC DUP2 DUP6 PUSH1 0x20 DUP7 ADD PUSH2 0x1160 JUMP JUMPDEST PUSH2 0x11C5 DUP2 PUSH2 0x1188 JUMP JUMPDEST DUP5 ADD SWAP2 POP POP SWAP3 SWAP2 POP POP JUMP JUMPDEST PUSH0 PUSH1 0xA0 DUP4 ADD PUSH0 DUP4 ADD MLOAD DUP5 DUP3 SUB PUSH0 DUP7 ADD MSTORE PUSH2 0x11EA DUP3 DUP3 PUSH2 0x10B7 JUMP JUMPDEST SWAP2 POP POP PUSH1 0x20 DUP4 ADD MLOAD DUP5 DUP3 SUB PUSH1 0x20 DUP7 ADD MSTORE PUSH2 0x1204 DUP3 DUP3 PUSH2 0x10B7 JUMP JUMPDEST SWAP2 POP POP PUSH1 0x40 DUP4 ADD MLOAD PUSH2 0x1219 PUSH1 0x40 DUP7 ADD DUP3 PUSH2 0x111F JUMP JUMPDEST POP PUSH1 0x60 DUP4 ADD MLOAD PUSH2 0x122C PUSH1 0x60 DUP7 ADD DUP3 PUSH2 0x1137 JUMP JUMPDEST POP PUSH1 0x80 DUP4 ADD MLOAD DUP5 DUP3 SUB PUSH1 0x80 DUP7 ADD MSTORE PUSH2 0x1244 DUP3 DUP3 PUSH2 0x1198 JUMP JUMPDEST SWAP2 POP POP DUP1 SWAP2 POP POP SWAP3 SWAP2 POP POP JUMP JUMPDEST PUSH0 PUSH1 0x20 DUP3 ADD SWAP1 POP DUP2 DUP2 SUB PUSH0 DUP4 ADD MSTORE PUSH2 0x1269 DUP2 DUP5 PUSH2 0x11D0 JUMP JUMPDEST SWAP1 POP SWAP3 SWAP2 POP POP JUMP JUMPDEST PUSH0 DUP1 REVERT JUMPDEST PUSH32 0x4E487B7100000000000000000000000000000000000000000000000000000000 PUSH0 MSTORE PUSH1 0x41 PUSH1 0x4 MSTORE PUSH1 0x24 PUSH0 REVERT JUMPDEST PUSH2 0x12AB DUP3 PUSH2 0x1188 JUMP JUMPDEST DUP2 ADD DUP2 DUP2 LT PUSH8 0xFFFFFFFFFFFFFFFF DUP3 GT OR ISZERO PUSH2 0x12CA JUMPI PUSH2 0x12C9 PUSH2 0x1275 JUMP JUMPDEST JUMPDEST DUP1 PUSH1 0x40 MSTORE POP POP POP JUMP JUMPDEST PUSH0 PUSH2 0x12DC PUSH2 0xE91 JUMP JUMPDEST SWAP1 POP PUSH2 0x12E8 DUP3 DUP3 PUSH2 0x12A2 JUMP JUMPDEST SWAP2 SWAP1 POP JUMP JUMPDEST PUSH0 PUSH8 0xFFFFFFFFFFFFFFFF DUP3 GT ISZERO PUSH2 0x1307 JUMPI PUSH2 0x1306 PUSH2 0x1275 JUMP JUMPDEST JUMPDEST PUSH1 0x20 DUP3 MUL SWAP1 POP PUSH1 0x20 DUP2 ADD SWAP1 POP SWAP2 SWAP1 POP JUMP JUMPDEST PUSH0 DUP1 REVERT JUMPDEST PUSH0 PUSH2 0x132E PUSH2 0x1329 DUP5 PUSH2 0x12ED JUMP JUMPDEST PUSH2 0x12D3 JUMP JUMPDEST SWAP1 POP DUP1 DUP4 DUP3 MSTORE PUSH1 0x20 DUP3 ADD SWAP1 POP PUSH1 0x20 DUP5 MUL DUP4 ADD DUP6 DUP2 GT ISZERO PUSH2 0x1351 JUMPI PUSH2 0x1350 PUSH2 0x1318 JUMP JUMPDEST JUMPDEST DUP4 JUMPDEST DUP2 DUP2 LT ISZERO PUSH2 0x137A JUMPI DUP1 PUSH2 0x1366 DUP9 DUP3 PUSH2 0xEE8 JUMP JUMPDEST DUP5 MSTORE PUSH1 0x20 DUP5 ADD SWAP4 POP POP PUSH1 0x20 DUP2 ADD SWAP1 POP PUSH2 0x1353 JUMP JUMPDEST POP POP POP SWAP4 SWAP3 POP POP POP JUMP JUMPDEST PUSH0 DUP3 PUSH1 0x1F DUP4 ADD SLT PUSH2 0x1398 JUMPI PUSH2 0x1397 PUSH2 0x1271 JUMP JUMPDEST JUMPDEST DUP2 CALLDATALOAD PUSH2 0x13A8 DUP5 DUP3 PUSH1 0x20 DUP7 ADD PUSH2 0x131C JUMP JUMPDEST SWAP2 POP POP SWAP3 SWAP2 POP POP JUMP JUMPDEST PUSH0 DUP1 REVERT JUMPDEST PUSH0 PUSH8 0xFFFFFFFFFFFFFFFF DUP3 GT ISZERO PUSH2 0x13CF JUMPI PUSH2 0x13CE PUSH2 0x1275 JUMP JUMPDEST JUMPDEST PUSH2 0x13D8 DUP3 PUSH2 0x1188 JUMP JUMPDEST SWAP1 POP PUSH1 0x20 DUP2 ADD SWAP1 POP SWAP2 SWAP1 POP JUMP JUMPDEST DUP3 DUP2 DUP4 CALLDATACOPY PUSH0 DUP4 DUP4 ADD MSTORE POP POP POP JUMP JUMPDEST PUSH0 PUSH2 0x1405 PUSH2 0x1400 DUP5 PUSH2 0x13B5 JUMP JUMPDEST PUSH2 0x12D3 JUMP JUMPDEST SWAP1 POP DUP3 DUP2 MSTORE PUSH1 0x20 DUP2 ADD DUP5 DUP5 DUP5 ADD GT ISZERO PUSH2 0x1421 JUMPI PUSH2 0x1420 PUSH2 0x13B1 JUMP JUMPDEST JUMPDEST PUSH2 0x142C DUP5 DUP3 DUP6 PUSH2 0x13E5 JUMP JUMPDEST POP SWAP4 SWAP3 POP POP POP JUMP JUMPDEST PUSH0 DUP3 PUSH1 0x1F DUP4 ADD SLT PUSH2 0x1448 JUMPI PUSH2 0x1447 PUSH2 0x1271 JUMP JUMPDEST JUMPDEST DUP2 CALLDATALOAD PUSH2 0x1458 DUP5 DUP3 PUSH1 0x20 DUP7 ADD PUSH2 0x13F3 JUMP JUMPDEST SWAP2 POP POP SWAP3 SWAP2 POP POP JUMP JUMPDEST PUSH0 DUP1 PUSH0 PUSH1 0x60 DUP5 DUP7 SUB SLT ISZERO PUSH2 0x1478 JUMPI PUSH2 0x1477 PUSH2 0xE9A JUMP JUMPDEST JUMPDEST PUSH0 PUSH2 0x1485 DUP7 DUP3 DUP8 ADD PUSH2 0x101D JUMP JUMPDEST SWAP4 POP POP PUSH1 0x20 DUP5 ADD CALLDATALOAD PUSH8 0xFFFFFFFFFFFFFFFF DUP2 GT ISZERO PUSH2 0x14A6 JUMPI PUSH2 0x14A5 PUSH2 0xE9E JUMP JUMPDEST JUMPDEST PUSH2 0x14B2 DUP7 DUP3 DUP8 ADD PUSH2 0x1384 JUMP JUMPDEST SWAP3 POP POP PUSH1 0x40 DUP5 ADD CALLDATALOAD PUSH8 0xFFFFFFFFFFFFFFFF DUP2 GT ISZERO PUSH2 0x14D3 JUMPI PUSH2 0x14D2 PUSH2 0xE9E JUMP JUMPDEST JUMPDEST PUSH2 0x14DF DUP7 DUP3 DUP8 ADD PUSH2 0x1434 JUMP JUMPDEST SWAP2 POP POP SWAP3 POP SWAP3 POP SWAP3 JUMP JUMPDEST PUSH32 0x4E487B7100000000000000000000000000000000000000000000000000000000 PUSH0 MSTORE PUSH1 0x22 PUSH1 0x4 MSTORE PUSH1 0x24 PUSH0 REVERT JUMPDEST PUSH0 PUSH1 0x2 DUP3 DIV SWAP1 POP PUSH1 0x1 DUP3 AND DUP1 PUSH2 0x152D JUMPI PUSH1 0x7F DUP3 AND SWAP2 POP JUMPDEST PUSH1 0x20 DUP3 LT DUP2 SUB PUSH2 0x1540 JUMPI PUSH2 0x153F PUSH2 0x14E9 JUMP JUMPDEST JUMPDEST POP SWAP2 SWAP1 POP JUMP JUMPDEST PUSH0 DUP2 SLOAD SWAP1 POP PUSH2 0x1554 DUP2 PUSH2 0x1516 JUMP JUMPDEST SWAP1 POP SWAP2 SWAP1 POP JUMP JUMPDEST PUSH0 DUP2 SWAP1 POP DUP2 PUSH0 MSTORE PUSH1 0x20 PUSH0 KECCAK256 SWAP1 POP SWAP2 SWAP1 POP JUMP JUMPDEST PUSH0 PUSH1 0x20 PUSH1 0x1F DUP4 ADD DIV SWAP1 POP SWAP2 SWAP1 POP JUMP JUMPDEST PUSH0 DUP3 DUP3 SHL SWAP1 POP SWAP3 SWAP2 POP POP JUMP JUMPDEST PUSH0 PUSH1 0x8 DUP4 MUL PUSH2 0x15B7 PUSH32 0xFFFFFFFFFFFFFFFFFFFFFFFFFFFFFFFFFFFFFFFFFFFFFFFFFFFFFFFFFFFFFFFF DUP3 PUSH2 0x157C JUMP JUMPDEST PUSH2 0x15C1 DUP7 DUP4 PUSH2 0x157C JUMP JUMPDEST SWAP6 POP DUP1 NOT DUP5 AND SWAP4 POP DUP1 DUP7 AND DUP5 OR SWAP3 POP POP POP SWAP4 SWAP3 POP POP POP JUMP JUMPDEST PUSH0 DUP2 SWAP1 POP SWAP2 SWAP1 POP JUMP JUMPDEST PUSH0 PUSH2 0x15FC PUSH2 0x15F7 PUSH2 0x15F2 DUP5 PUSH2 0x112E JUMP JUMPDEST PUSH2 0x15D9 JUMP JUMPDEST PUSH2 0x112E JUMP JUMPDEST SWAP1 POP SWAP2 SWAP1 POP JUMP JUMPDEST PUSH0 DUP2 SWAP1 POP SWAP2 SWAP1 POP JUMP JUMPDEST PUSH2 0x1615 DUP4 PUSH2 0x15E2 JUMP JUMPDEST PUSH2 0x1629 PUSH2 0x1621 DUP3 PUSH2 0x1603 JUMP JUMPDEST DUP5 DUP5 SLOAD PUSH2 0x1588 JUMP JUMPDEST DUP3 SSTORE POP POP POP POP JUMP JUMPDEST PUSH0 SWAP1 JUMP JUMPDEST PUSH2 0x163D PUSH2 0x1631 JUMP JUMPDEST PUSH2 0x1648 DUP2 DUP5 DUP5 PUSH2 0x160C JUMP JUMPDEST POP POP POP JUMP JUMPDEST JUMPDEST DUP2 DUP2 LT ISZERO PUSH2 0x166B JUMPI PUSH2 0x1660 PUSH0 DUP3 PUSH2 0x1635 JUMP JUMPDEST PUSH1 0x1 DUP2 ADD SWAP1 POP PUSH2 0x164E JUMP JUMPDEST POP POP JUMP JUMPDEST PUSH1 0x1F DUP3 GT ISZERO PUSH2 0x16B0 JUMPI PUSH2 0x1681 DUP2 PUSH2 0x155B JUMP JUMPDEST PUSH2 0x168A DUP5 PUSH2 0x156D JUMP JUMPDEST DUP2 ADD PUSH1 0x20 DUP6 LT ISZERO PUSH2 0x1699 JUMPI DUP2 SWAP1 POP JUMPDEST PUSH2 0x16AD PUSH2 0x16A5 DUP6 PUSH2 0x156D JUMP JUMPDEST DUP4 ADD DUP3 PUSH2 0x164D JUMP JUMPDEST POP POP JUMPDEST POP POP POP JUMP JUMPDEST PUSH0 DUP3 DUP3 SHR SWAP1 POP SWAP3 SWAP2 POP POP JUMP JUMPDEST PUSH0 PUSH2 0x16D0 PUSH0 NOT DUP5 PUSH1 0x8 MUL PUSH2 0x16B5 JUMP JUMPDEST NOT DUP1 DUP4 AND SWAP2 POP POP SWAP3 SWAP2 POP POP JUMP JUMPDEST PUSH0 PUSH2 0x16E8 DUP4 DUP4 PUSH2 0x16C1 JUMP JUMPDEST SWAP2 POP DUP3 PUSH1 0x2 MUL DUP3 OR SWAP1 POP SWAP3 SWAP2 POP POP JUMP JUMPDEST DUP2 DUP2 SUB PUSH2 0x1706 JUMPI POP POP PUSH2 0x17DB JUMP JUMPDEST PUSH2 0x170F DUP3 PUSH2 0x1546 JUMP JUMPDEST PUSH8 0xFFFFFFFFFFFFFFFF DUP2 GT ISZERO PUSH2 0x1728 JUMPI PUSH2 0x1727 PUSH2 0x1275 JUMP JUMPDEST JUMPDEST PUSH2 0x1732 DUP3 SLOAD PUSH2 0x1516 JUMP JUMPDEST PUSH2 0x173D DUP3 DUP3 DUP6 PUSH2 0x166F JUMP JUMPDEST PUSH0 PUSH1 0x1F DUP4 GT PUSH1 0x1 DUP2 EQ PUSH2 0x176A JUMPI PUSH0 DUP5 ISZERO PUSH2 0x1758 JUMPI DUP3 DUP8 ADD SLOAD SWAP1 POP JUMPDEST PUSH2 0x1762 DUP6 DUP3 PUSH2 0x16DD JUMP JUMPDEST DUP7 SSTORE POP PUSH2 0x17D4 JUMP JUMPDEST PUSH1 0x1F NOT DUP5 AND PUSH2 0x1778 DUP8 PUSH2 0x155B JUMP JUMPDEST SWAP7 POP PUSH2 0x1783 DUP7 PUSH2 0x155B JUMP JUMPDEST PUSH0 JUMPDEST DUP3 DUP2 LT ISZERO PUSH2 0x17AA JUMPI DUP5 DUP10 ADD SLOAD DUP3 SSTORE PUSH1 0x1 DUP3 ADD SWAP2 POP PUSH1 0x1 DUP6 ADD SWAP5 POP PUSH1 0x20 DUP2 ADD SWAP1 POP PUSH2 0x1785 JUMP JUMPDEST DUP7 DUP4 LT ISZERO PUSH2 0x17C7 JUMPI DUP5 DUP10 ADD SLOAD PUSH2 0x17C3 PUSH1 0x1F DUP10 AND DUP3 PUSH2 0x16C1 JUMP JUMPDEST DUP4 SSTORE POP JUMPDEST PUSH1 0x1 PUSH1 0x2 DUP9 MUL ADD DUP9 SSTORE POP POP POP JUMPDEST POP POP POP POP POP POP JUMPDEST JUMP JUMPDEST PUSH2 0x17E6 DUP3 PUSH2 0x1146 JUMP JUMPDEST PUSH8 0xFFFFFFFFFFFFFFFF DUP2 GT ISZERO PUSH2 0x17FF JUMPI PUSH2 0x17FE PUSH2 0x1275 JUMP JUMPDEST JUMPDEST PUSH2 0x1809 DUP3 SLOAD PUSH2 0x1516 JUMP JUMPDEST PUSH2 0x1814 DUP3 DUP3 DUP6 PUSH2 0x166F JUMP JUMPDEST PUSH0 PUSH1 0x20 SWAP1 POP PUSH1 0x1F DUP4 GT PUSH1 0x1 DUP2 EQ PUSH2 0x1845 JUMPI PUSH0 DUP5 ISZERO PUSH2 0x1833 JUMPI DUP3 DUP8 ADD MLOAD SWAP1 POP JUMPDEST PUSH2 0x183D DUP6 DUP3 PUSH2 0x16DD JUMP JUMPDEST DUP7 SSTORE POP PUSH2 0x18A4 JUMP JUMPDEST PUSH1 0x1F NOT DUP5 AND PUSH2 0x1853 DUP7 PUSH2 0x155B JUMP JUMPDEST PUSH0 JUMPDEST DUP3 DUP2 LT ISZERO PUSH2 0x187A JUMPI DUP5 DUP10 ADD MLOAD DUP3 SSTORE PUSH1 0x1 DUP3 ADD SWAP2 POP PUSH1 0x20 DUP6 ADD SWAP5 POP PUSH1 0x20 DUP2 ADD SWAP1 POP PUSH2 0x1855 JUMP JUMPDEST DUP7 DUP4 LT ISZERO PUSH2 0x1897 JUMPI DUP5 DUP10 ADD MLOAD PUSH2 0x1893 PUSH1 0x1F DUP10 AND DUP3 PUSH2 0x16C1 JUMP JUMPDEST DUP4 SSTORE POP JUMPDEST PUSH1 0x1 PUSH1 0x2 DUP9 MUL ADD DUP9 SSTORE POP POP POP JUMPDEST POP POP POP POP POP POP JUMP JUMPDEST PUSH0 DUP2 SWAP1 POP SWAP3 SWAP2 POP POP JUMP JUMPDEST PUSH2 0x18BF DUP2 PUSH2 0xEC1 JUMP JUMPDEST DUP3 MSTORE POP POP JUMP JUMPDEST PUSH0 PUSH2 0x18D0 DUP4 DUP4 PUSH2 0x18B6 JUMP JUMPDEST PUSH1 0x20 DUP4 ADD SWAP1 POP SWAP3 SWAP2 POP POP JUMP JUMPDEST PUSH0 PUSH2 0x18E6 DUP3 PUSH2 0x105C JUMP JUMPDEST PUSH2 0x18F0 DUP2 DUP6 PUSH2 0x18AC JUMP JUMPDEST SWAP4 POP PUSH2 0x18FB DUP4 PUSH2 0x1076 JUMP JUMPDEST DUP1 PUSH0 JUMPDEST DUP4 DUP2 LT ISZERO PUSH2 0x192B JUMPI DUP2 MLOAD PUSH2 0x1912 DUP9 DUP3 PUSH2 0x18C5 JUMP JUMPDEST SWAP8 POP PUSH2 0x191D DUP4 PUSH2 0x10AB JUMP JUMPDEST SWAP3 POP POP PUSH1 0x1 DUP2 ADD SWAP1 POP PUSH2 0x18FE JUMP JUMPDEST POP DUP6 SWAP4 POP POP POP POP SWAP3 SWAP2 POP POP JUMP JUMPDEST PUSH0 PUSH2 0x1943 DUP3 DUP5 PUSH2 0x18DC JUMP JUMPDEST SWAP2 POP DUP2 SWAP1 POP SWAP3 SWAP2 POP POP JUMP JUMPDEST PUSH32 0x4E487B7100000000000000000000000000000000000000000000000000000000 PUSH0 MSTORE PUSH1 0x11 PUSH1 0x4 MSTORE PUSH1 0x24 PUSH0 REVERT JUMPDEST PUSH0 PUSH2 0x1985 DUP3 PUSH2 0x112E JUMP JUMPDEST SWAP2 POP PUSH2 0x1990 DUP4 PUSH2 0x112E JUMP JUMPDEST SWAP3 POP DUP3 DUP3 SUB SWAP1 POP DUP2 DUP2 GT ISZERO PUSH2 0x19A8 JUMPI PUSH2 0x19A7 PUSH2 0x194E JUMP JUMPDEST JUMPDEST SWAP3 SWAP2 POP POP JUMP JUMPDEST PUSH32 0x4E487B7100000000000000000000000000000000000000000000000000000000 PUSH0 MSTORE PUSH1 0x32 PUSH1 0x4 MSTORE PUSH1 0x24 PUSH0 REVERT JUMPDEST PUSH0 DUP2 SWAP1 POP SWAP2 SWAP1 POP JUMP JUMPDEST PUSH0 PUSH2 0x19EE DUP3 PUSH2 0x19DB JUMP JUMPDEST SWAP2 POP PUSH2 0x19F9 DUP4 PUSH2 0x19DB JUMP JUMPDEST SWAP3 POP DUP3 DUP3 SUB SWAP1 POP DUP2 DUP2 SLT PUSH0 DUP5 SLT AND DUP3 DUP3 SGT PUSH0 DUP6 SLT ISZERO AND OR ISZERO PUSH2 0x1A1E JUMPI PUSH2 0x1A1D PUSH2 0x194E JUMP JUMPDEST JUMPDEST SWAP3 SWAP2 POP POP JUMP JUMPDEST PUSH32 0x4E487B7100000000000000000000000000000000000000000000000000000000 PUSH0 MSTORE PUSH1 0x12 PUSH1 0x4 MSTORE PUSH1 0x24 PUSH0 REVERT JUMPDEST PUSH0 PUSH2 0x1A5B DUP3 PUSH2 0x19DB JUMP JUMPDEST SWAP2 POP PUSH2 0x1A66 DUP4 PUSH2 0x19DB JUMP JUMPDEST SWAP3 POP DUP3 PUSH2 0x1A76 JUMPI PUSH2 0x1A75 PUSH2 0x1A24 JUMP JUMPDEST JUMPDEST PUSH1 0x1 PUSH0 SUB DUP4 EQ PUSH32 0x8000000000000000000000000000000000000000000000000000000000000000 DUP4 EQ AND ISZERO PUSH2 0x1AAE JUMPI PUSH2 0x1AAD PUSH2 0x194E JUMP JUMPDEST JUMPDEST DUP3 DUP3 SDIV SWAP1 POP SWAP3 SWAP2 POP POP JUMP JUMPDEST PUSH0 PUSH2 0x1AC3 DUP3 PUSH2 0x19DB JUMP JUMPDEST SWAP2 POP PUSH2 0x1ACE DUP4 PUSH2 0x19DB JUMP JUMPDEST SWAP3 POP DUP3 DUP3 ADD SWAP1 POP DUP3 DUP2 SLT ISZERO PUSH0 DUP4 SLT AND DUP4 DUP3 SLT PUSH0 DUP5 SLT ISZERO AND OR ISZERO PUSH2 0x1AF4 JUMPI PUSH2 0x1AF3 PUSH2 0x194E JUMP JUMPDEST JUMPDEST SWAP3 SWAP2 POP POP JUMP JUMPDEST PUSH0 PUSH2 0x1B04 DUP3 PUSH2 0x19DB JUMP JUMPDEST SWAP2 POP PUSH32 0x7FFFFFFFFFFFFFFFFFFFFFFFFFFFFFFFFFFFFFFFFFFFFFFFFFFFFFFFFFFFFFFF DUP3 SUB PUSH2 0x1B36 JUMPI PUSH2 0x1B35 PUSH2 0x194E JUMP JUMPDEST JUMPDEST PUSH1 0x1 DUP3 ADD SWAP1 POP SWAP2 SWAP1 POP JUMP JUMPDEST PUSH0 PUSH2 0x1B4B DUP3 PUSH2 0x19DB JUMP JUMPDEST SWAP2 POP PUSH32 0x8000000000000000000000000000000000000000000000000000000000000000 DUP3 SUB PUSH2 0x1B7D JUMPI PUSH2 0x1B7C PUSH2 0x194E JUMP JUMPDEST JUMPDEST PUSH1 0x1 DUP3 SUB SWAP1 POP SWAP2 SWAP1 POP JUMP INVALID LOG2 PUSH5 0x6970667358 0x22 SLT KECCAK256 SWAP13 NUMBER 0xD4 0xA7 0x5C PUSH0 0xE3 DUP2 JUMP 0xA7 0xEE MSTORE 0xA8 BALANCE 0xA9 CHAINID PC 0xD0 PUSH30 0xF3BAA57E2885AA8B44BD9AC50264736F6C63430008160033000000000000 "
				},
				"gasEstimates": {
					"creation": {
						"codeDepositCost": "1420400",
						"executionCost": "1477",
						"totalCost": "1421877"
					},
					"external": {
						"createContract(bytes32,address[],string)": "infinite",
						"getDetails(bytes32)": "infinite",
						"getIds(address)": "infinite"
					},
					"internal": {
						"addressInArray(address[] memory,address)": "infinite",
						"areArraysEqual(address[] memory,address[] memory)": "infinite",
						"bytesInArray(bytes32[] memory,bytes32)": "infinite",
						"createIdentifier(address[] memory)": "infinite",
						"quickSort(address[] memory,int256,int256)": "infinite"
					}
				},
				"methodIdentifiers": {
					"createContract(bytes32,address[],string)": "c3a47879",
					"getDetails(bytes32)": "984bc700",
					"getIds(address)": "2671b0d8"
				}
			},
			"storageLayout": {
				"storage": [
					{
						"astId": 17,
						"contract": "contracts/Marriage.sol:Marriage",
						"label": "d",
						"offset": 0,
						"slot": "0",
						"type": "t_struct(Details)14_storage"
					},
					{
						"astId": 22,
						"contract": "contracts/Marriage.sol:Marriage",
						"label": "detailsById",
						"offset": 0,
						"slot": "5",
						"type": "t_mapping(t_bytes32,t_struct(Details)14_storage)"
					},
					{
						"astId": 27,
						"contract": "contracts/Marriage.sol:Marriage",
						"label": "idsByAddress",
						"offset": 0,
						"slot": "6",
						"type": "t_mapping(t_address,t_array(t_bytes32)dyn_storage)"
					}
				],
				"types": {
					"t_address": {
						"encoding": "inplace",
						"label": "address",
						"numberOfBytes": "20"
					},
					"t_array(t_address)dyn_storage": {
						"base": "t_address",
						"encoding": "dynamic_array",
						"label": "address[]",
						"numberOfBytes": "32"
					},
					"t_array(t_bytes32)dyn_storage": {
						"base": "t_bytes32",
						"encoding": "dynamic_array",
						"label": "bytes32[]",
						"numberOfBytes": "32"
					},
					"t_bytes32": {
						"encoding": "inplace",
						"label": "bytes32",
						"numberOfBytes": "32"
					},
					"t_mapping(t_address,t_array(t_bytes32)dyn_storage)": {
						"encoding": "mapping",
						"key": "t_address",
						"label": "mapping(address => bytes32[])",
						"numberOfBytes": "32",
						"value": "t_array(t_bytes32)dyn_storage"
					},
					"t_mapping(t_bytes32,t_struct(Details)14_storage)": {
						"encoding": "mapping",
						"key": "t_bytes32",
						"label": "mapping(bytes32 => struct Marriage.Details)",
						"numberOfBytes": "32",
						"value": "t_struct(Details)14_storage"
					},
					"t_string_storage": {
						"encoding": "bytes",
						"label": "string",
						"numberOfBytes": "32"
					},
					"t_struct(Details)14_storage": {
						"encoding": "inplace",
						"label": "struct Marriage.Details",
						"members": [
							{
								"astId": 4,
								"contract": "contracts/Marriage.sol:Marriage",
								"label": "addresses",
								"offset": 0,
								"slot": "0",
								"type": "t_array(t_address)dyn_storage"
							},
							{
								"astId": 7,
								"contract": "contracts/Marriage.sol:Marriage",
								"label": "confirmed",
								"offset": 0,
								"slot": "1",
								"type": "t_array(t_address)dyn_storage"
							},
							{
								"astId": 9,
								"contract": "contracts/Marriage.sol:Marriage",
								"label": "status",
								"offset": 0,
								"slot": "2",
								"type": "t_uint8"
							},
							{
								"astId": 11,
								"contract": "contracts/Marriage.sol:Marriage",
								"label": "date",
								"offset": 0,
								"slot": "3",
								"type": "t_uint256"
							},
							{
								"astId": 13,
								"contract": "contracts/Marriage.sol:Marriage",
								"label": "agreement",
								"offset": 0,
								"slot": "4",
								"type": "t_string_storage"
							}
						],
						"numberOfBytes": "160"
					},
					"t_uint256": {
						"encoding": "inplace",
						"label": "uint256",
						"numberOfBytes": "32"
					},
					"t_uint8": {
						"encoding": "inplace",
						"label": "uint8",
						"numberOfBytes": "1"
					}
				}
			},
			"userdoc": {
				"kind": "user",
				"methods": {},
				"version": 1
			}
		}
	}
}