{
	"contracts/Marriage.sol": {
		"Marriage": {
			"abi": [
				{
					"inputs": [
						{
							"internalType": "bytes32",
							"name": "_key",
							"type": "bytes32"
						},
						{
							"internalType": "address",
							"name": "_addr1",
							"type": "address"
						},
						{
							"internalType": "address",
							"name": "_addr2",
							"type": "address"
						},
						{
							"internalType": "uint8",
							"name": "_status",
							"type": "uint8"
						},
						{
							"internalType": "string",
							"name": "_agreement",
							"type": "string"
						}
					],
					"name": "createContract",
					"outputs": [],
					"stateMutability": "nonpayable",
					"type": "function"
				}
			],
			"devdoc": {
				"kind": "dev",
				"methods": {},
				"version": 1
			},
			"evm": {
				"assembly": "    /* \"contracts/Marriage.sol\":86:2579  contract Marriage is Util{... */\n  mstore(0x40, 0x80)\n  callvalue\n  dup1\n  iszero\n  tag_1\n  jumpi\n  0x00\n  dup1\n  revert\ntag_1:\n  pop\n  dataSize(sub_0)\n  dup1\n  dataOffset(sub_0)\n  0x00\n  codecopy\n  0x00\n  return\nstop\n\nsub_0: assembly {\n        /* \"contracts/Marriage.sol\":86:2579  contract Marriage is Util{... */\n      mstore(0x40, 0x80)\n      callvalue\n      dup1\n      iszero\n      tag_1\n      jumpi\n      0x00\n      dup1\n      revert\n    tag_1:\n      pop\n      jumpi(tag_2, lt(calldatasize, 0x04))\n      shr(0xe0, calldataload(0x00))\n      dup1\n      0xfc2cc9ee\n      eq\n      tag_3\n      jumpi\n    tag_2:\n      0x00\n      dup1\n      revert\n        /* \"contracts/Marriage.sol\":747:2225  function createContract(bytes32 _key, address _addr1, address _addr2, uint8 _status, string memory _agreement) public {... */\n    tag_3:\n      tag_4\n      0x04\n      dup1\n      calldatasize\n      sub\n      dup2\n      add\n      swap1\n      tag_5\n      swap2\n      swap1\n      tag_6\n      jump\t// in\n    tag_5:\n      tag_7\n      jump\t// in\n    tag_4:\n      stop\n    tag_7:\n        /* \"contracts/Marriage.sol\":934:951  bytes32 nullValue */\n      0x00\n        /* \"contracts/Marriage.sol\":954:1020  0x0000000000000000000000000000000000000000000000000000000000000000 */\n      dup1\n        /* \"contracts/Marriage.sol\":934:1020  bytes32 nullValue = 0x0000000000000000000000000000000000000000000000000000000000000000 */\n      0x00\n      shl\n      swap1\n      pop\n        /* \"contracts/Marriage.sol\":1031:1042  bytes32 key */\n      0x00\n        /* \"contracts/Marriage.sol\":1053:1062  nullValue */\n      dup2\n        /* \"contracts/Marriage.sol\":1045:1049  _key */\n      dup8\n        /* \"contracts/Marriage.sol\":1045:1062  _key == nullValue */\n      eq\n        /* \"contracts/Marriage.sol\":1045:1104  _key == nullValue ? createMappingKey(_addr1, _addr2) : _key */\n      tag_9\n      jumpi\n        /* \"contracts/Marriage.sol\":1100:1104  _key */\n      dup7\n        /* \"contracts/Marriage.sol\":1045:1104  _key == nullValue ? createMappingKey(_addr1, _addr2) : _key */\n      jump(tag_10)\n    tag_9:\n        /* \"contracts/Marriage.sol\":1065:1097  createMappingKey(_addr1, _addr2) */\n      tag_11\n        /* \"contracts/Marriage.sol\":1082:1088  _addr1 */\n      dup7\n        /* \"contracts/Marriage.sol\":1090:1096  _addr2 */\n      dup7\n        /* \"contracts/Marriage.sol\":1065:1081  createMappingKey */\n      tag_12\n        /* \"contracts/Marriage.sol\":1065:1097  createMappingKey(_addr1, _addr2) */\n      jump\t// in\n    tag_11:\n        /* \"contracts/Marriage.sol\":1045:1104  _key == nullValue ? createMappingKey(_addr1, _addr2) : _key */\n    tag_10:\n        /* \"contracts/Marriage.sol\":1031:1104  bytes32 key = _key == nullValue ? createMappingKey(_addr1, _addr2) : _key */\n      swap1\n      pop\n        /* \"contracts/Marriage.sol\":1117:1142  bool isContractRegistered */\n      0x00\n        /* \"contracts/Marriage.sol\":1145:1171  isContractSet(key, _addr1) */\n      tag_13\n        /* \"contracts/Marriage.sol\":1159:1162  key */\n      dup3\n        /* \"contracts/Marriage.sol\":1164:1170  _addr1 */\n      dup9\n        /* \"contracts/Marriage.sol\":1145:1158  isContractSet */\n      tag_14\n        /* \"contracts/Marriage.sol\":1145:1171  isContractSet(key, _addr1) */\n      jump\t// in\n    tag_13:\n        /* \"contracts/Marriage.sol\":1145:1201  isContractSet(key, _addr1) || isContractSet(key, _addr1) */\n      dup1\n      tag_15\n      jumpi\n      pop\n        /* \"contracts/Marriage.sol\":1175:1201  isContractSet(key, _addr1) */\n      tag_16\n        /* \"contracts/Marriage.sol\":1189:1192  key */\n      dup3\n        /* \"contracts/Marriage.sol\":1194:1200  _addr1 */\n      dup9\n        /* \"contracts/Marriage.sol\":1175:1188  isContractSet */\n      tag_14\n        /* \"contracts/Marriage.sol\":1175:1201  isContractSet(key, _addr1) */\n      jump\t// in\n    tag_16:\n        /* \"contracts/Marriage.sol\":1145:1201  isContractSet(key, _addr1) || isContractSet(key, _addr1) */\n    tag_15:\n        /* \"contracts/Marriage.sol\":1117:1201  bool isContractRegistered = isContractSet(key, _addr1) || isContractSet(key, _addr1) */\n      swap1\n      pop\n        /* \"contracts/Marriage.sol\":1218:1238  isContractRegistered */\n      dup1\n        /* \"contracts/Marriage.sol\":1214:1349  if(!isContractRegistered){... */\n      tag_17\n      jumpi\n        /* \"contracts/Marriage.sol\":1254:1270  addressMarriages */\n      0x01\n        /* \"contracts/Marriage.sol\":1254:1278  addressMarriages[_addr1] */\n      0x00\n        /* \"contracts/Marriage.sol\":1271:1277  _addr1 */\n      dup9\n        /* \"contracts/Marriage.sol\":1254:1278  addressMarriages[_addr1] */\n      0xffffffffffffffffffffffffffffffffffffffff\n      and\n      0xffffffffffffffffffffffffffffffffffffffff\n      and\n      dup2\n      mstore\n      0x20\n      add\n      swap1\n      dup2\n      mstore\n      0x20\n      add\n      0x00\n      keccak256\n        /* \"contracts/Marriage.sol\":1284:1287  key */\n      dup3\n        /* \"contracts/Marriage.sol\":1254:1288  addressMarriages[_addr1].push(key) */\n      swap1\n      dup1\n      0x01\n      dup2\n      sload\n      add\n      dup1\n      dup3\n      sstore\n      dup1\n      swap2\n      pop\n      pop\n      0x01\n      swap1\n      sub\n      swap1\n      0x00\n      mstore\n      keccak256(0x00, 0x20)\n      add\n      0x00\n      swap1\n      swap2\n      swap1\n      swap2\n      swap1\n      swap2\n      pop\n      sstore\n        /* \"contracts/Marriage.sol\":1303:1319  addressMarriages */\n      0x01\n        /* \"contracts/Marriage.sol\":1303:1327  addressMarriages[_addr2] */\n      0x00\n        /* \"contracts/Marriage.sol\":1320:1326  _addr2 */\n      dup8\n        /* \"contracts/Marriage.sol\":1303:1327  addressMarriages[_addr2] */\n      0xffffffffffffffffffffffffffffffffffffffff\n      and\n      0xffffffffffffffffffffffffffffffffffffffff\n      and\n      dup2\n      mstore\n      0x20\n      add\n      swap1\n      dup2\n      mstore\n      0x20\n      add\n      0x00\n      keccak256\n        /* \"contracts/Marriage.sol\":1333:1336  key */\n      dup3\n        /* \"contracts/Marriage.sol\":1303:1337  addressMarriages[_addr2].push(key) */\n      swap1\n      dup1\n      0x01\n      dup2\n      sload\n      add\n      dup1\n      dup3\n      sstore\n      dup1\n      swap2\n      pop\n      pop\n      0x01\n      swap1\n      sub\n      swap1\n      0x00\n      mstore\n      keccak256(0x00, 0x20)\n      add\n      0x00\n      swap1\n      swap2\n      swap1\n      swap2\n      swap1\n      swap2\n      pop\n      sstore\n        /* \"contracts/Marriage.sol\":1214:1349  if(!isContractRegistered){... */\n    tag_17:\n        /* \"contracts/Marriage.sol\":1412:1433  bytes32 agreementHash */\n      0x00\n        /* \"contracts/Marriage.sol\":1436:1454  toHash(_agreement) */\n      tag_20\n        /* \"contracts/Marriage.sol\":1443:1453  _agreement */\n      dup6\n        /* \"contracts/Marriage.sol\":1436:1442  toHash */\n      tag_21\n        /* \"contracts/Marriage.sol\":1436:1454  toHash(_agreement) */\n      jump\t// in\n    tag_20:\n        /* \"contracts/Marriage.sol\":1412:1454  bytes32 agreementHash = toHash(_agreement) */\n      swap1\n      pop\n        /* \"contracts/Marriage.sol\":1525:1543  uint8 confirmation */\n      0x00\n        /* \"contracts/Marriage.sol\":1645:1665  isContractRegistered */\n      dup3\n        /* \"contracts/Marriage.sol\":1642:1924  if(isContractRegistered){... */\n      iszero\n      tag_22\n      jumpi\n        /* \"contracts/Marriage.sol\":1836:1845  marriages */\n      0x00\n        /* \"contracts/Marriage.sol\":1836:1850  marriages[key] */\n      dup1\n        /* \"contracts/Marriage.sol\":1846:1849  key */\n      dup6\n        /* \"contracts/Marriage.sol\":1836:1850  marriages[key] */\n      dup2\n      mstore\n      0x20\n      add\n      swap1\n      dup2\n      mstore\n      0x20\n      add\n      0x00\n      keccak256\n        /* \"contracts/Marriage.sol\":1836:1864  marriages[key].agreementHash */\n      0x04\n      add\n      sload\n        /* \"contracts/Marriage.sol\":1819:1832  agreementHash */\n      dup3\n        /* \"contracts/Marriage.sol\":1819:1864  agreementHash == marriages[key].agreementHash */\n      sub\n        /* \"contracts/Marriage.sol\":1815:1913  if (agreementHash == marriages[key].agreementHash) {... */\n      tag_23\n      jumpi\n        /* \"contracts/Marriage.sol\":1896:1897  1 */\n      0x01\n        /* \"contracts/Marriage.sol\":1881:1897  confirmation = 1 */\n      swap1\n      pop\n        /* \"contracts/Marriage.sol\":1815:1913  if (agreementHash == marriages[key].agreementHash) {... */\n    tag_23:\n        /* \"contracts/Marriage.sol\":1642:1924  if(isContractRegistered){... */\n    tag_22:\n        /* \"contracts/Marriage.sol\":1995:2207  marriageDetails(... */\n      mload(0x40)\n      dup1\n      0xe0\n      add\n      0x40\n      mstore\n      dup1\n        /* \"contracts/Marriage.sol\":2025:2031  _addr1 */\n      dup11\n        /* \"contracts/Marriage.sol\":1995:2207  marriageDetails(... */\n      0xffffffffffffffffffffffffffffffffffffffff\n      and\n      dup2\n      mstore\n      0x20\n      add\n        /* \"contracts/Marriage.sol\":2046:2052  _addr2 */\n      dup10\n        /* \"contracts/Marriage.sol\":1995:2207  marriageDetails(... */\n      0xffffffffffffffffffffffffffffffffffffffff\n      and\n      dup2\n      mstore\n      0x20\n      add\n        /* \"contracts/Marriage.sol\":2067:2074  _status */\n      dup9\n        /* \"contracts/Marriage.sol\":1995:2207  marriageDetails(... */\n      0xff\n      and\n      dup2\n      mstore\n      0x20\n      add\n        /* \"contracts/Marriage.sol\":2089:2101  confirmation */\n      dup3\n        /* \"contracts/Marriage.sol\":1995:2207  marriageDetails(... */\n      0xff\n      and\n      dup2\n      mstore\n      0x20\n      add\n        /* \"contracts/Marriage.sol\":2128:2143  block.timestamp */\n      timestamp\n        /* \"contracts/Marriage.sol\":1995:2207  marriageDetails(... */\n      dup2\n      mstore\n      0x20\n      add\n        /* \"contracts/Marriage.sol\":2158:2168  _agreement */\n      dup8\n        /* \"contracts/Marriage.sol\":1995:2207  marriageDetails(... */\n      dup2\n      mstore\n      0x20\n      add\n        /* \"contracts/Marriage.sol\":2183:2196  agreementHash */\n      dup4\n        /* \"contracts/Marriage.sol\":1995:2207  marriageDetails(... */\n      dup2\n      mstore\n      pop\n        /* \"contracts/Marriage.sol\":1978:1987  marriages */\n      0x00\n        /* \"contracts/Marriage.sol\":1978:1992  marriages[key] */\n      dup1\n        /* \"contracts/Marriage.sol\":1988:1991  key */\n      dup7\n        /* \"contracts/Marriage.sol\":1978:1992  marriages[key] */\n      dup2\n      mstore\n      0x20\n      add\n      swap1\n      dup2\n      mstore\n      0x20\n      add\n      0x00\n      keccak256\n        /* \"contracts/Marriage.sol\":1978:2207  marriages[key] = marriageDetails(... */\n      0x00\n      dup3\n      add\n      mload\n      dup2\n      0x00\n      add\n      exp(0x0100, 0x00)\n      dup2\n      sload\n      dup2\n      0xffffffffffffffffffffffffffffffffffffffff\n      mul\n      not\n      and\n      swap1\n      dup4\n      0xffffffffffffffffffffffffffffffffffffffff\n      and\n      mul\n      or\n      swap1\n      sstore\n      pop\n      0x20\n      dup3\n      add\n      mload\n      dup2\n      0x01\n      add\n      exp(0x0100, 0x00)\n      dup2\n      sload\n      dup2\n      0xffffffffffffffffffffffffffffffffffffffff\n      mul\n      not\n      and\n      swap1\n      dup4\n      0xffffffffffffffffffffffffffffffffffffffff\n      and\n      mul\n      or\n      swap1\n      sstore\n      pop\n      0x40\n      dup3\n      add\n      mload\n      dup2\n      0x01\n      add\n      exp(0x0100, 0x14)\n      dup2\n      sload\n      dup2\n      0xff\n      mul\n      not\n      and\n      swap1\n      dup4\n      0xff\n      and\n      mul\n      or\n      swap1\n      sstore\n      pop\n      0x60\n      dup3\n      add\n      mload\n      dup2\n      0x01\n      add\n      exp(0x0100, 0x15)\n      dup2\n      sload\n      dup2\n      0xff\n      mul\n      not\n      and\n      swap1\n      dup4\n      0xff\n      and\n      mul\n      or\n      swap1\n      sstore\n      pop\n      0x80\n      dup3\n      add\n      mload\n      dup2\n      0x02\n      add\n      sstore\n      0xa0\n      dup3\n      add\n      mload\n      dup2\n      0x03\n      add\n      swap1\n      dup2\n      tag_24\n      swap2\n      swap1\n      tag_25\n      jump\t// in\n    tag_24:\n      pop\n      0xc0\n      dup3\n      add\n      mload\n      dup2\n      0x04\n      add\n      sstore\n      swap1\n      pop\n      pop\n        /* \"contracts/Marriage.sol\":865:2225  {... */\n      pop\n      pop\n      pop\n      pop\n      pop\n        /* \"contracts/Marriage.sol\":747:2225  function createContract(bytes32 _key, address _addr1, address _addr2, uint8 _status, string memory _agreement) public {... */\n      pop\n      pop\n      pop\n      pop\n      pop\n      jump\t// out\n        /* \"contracts/Util.sol\":82:426  function createMappingKey(address _addr1, address _addr2) internal pure returns (bytes32){... */\n    tag_12:\n        /* \"contracts/Util.sol\":163:170  bytes32 */\n      0x00\n        /* \"contracts/Util.sol\":182:204  string memory addrStr1 */\n      dup1\n        /* \"contracts/Util.sol\":207:222  convert(_addr1) */\n      tag_27\n        /* \"contracts/Util.sol\":215:221  _addr1 */\n      dup5\n        /* \"contracts/Util.sol\":207:214  convert */\n      tag_28\n        /* \"contracts/Util.sol\":207:222  convert(_addr1) */\n      jump\t// in\n    tag_27:\n        /* \"contracts/Util.sol\":182:222  string memory addrStr1 = convert(_addr1) */\n      swap1\n      pop\n        /* \"contracts/Util.sol\":233:255  string memory addrStr2 */\n      0x00\n        /* \"contracts/Util.sol\":258:273  convert(_addr2) */\n      tag_29\n        /* \"contracts/Util.sol\":266:272  _addr2 */\n      dup5\n        /* \"contracts/Util.sol\":258:265  convert */\n      tag_28\n        /* \"contracts/Util.sol\":258:273  convert(_addr2) */\n      jump\t// in\n    tag_29:\n        /* \"contracts/Util.sol\":233:273  string memory addrStr2 = convert(_addr2) */\n      swap1\n      pop\n        /* \"contracts/Util.sol\":284:304  string memory result */\n      0x00\n        /* \"contracts/Util.sol\":307:344  concatenateStings(addrStr1, addrStr2) */\n      tag_30\n        /* \"contracts/Util.sol\":325:333  addrStr1 */\n      dup4\n        /* \"contracts/Util.sol\":335:343  addrStr2 */\n      dup4\n        /* \"contracts/Util.sol\":307:324  concatenateStings */\n      tag_31\n        /* \"contracts/Util.sol\":307:344  concatenateStings(addrStr1, addrStr2) */\n      jump\t// in\n    tag_30:\n        /* \"contracts/Util.sol\":284:344  string memory result = concatenateStings(addrStr1, addrStr2) */\n      swap1\n      pop\n        /* \"contracts/Util.sol\":355:373  bytes32 hashResult */\n      0x00\n        /* \"contracts/Util.sol\":376:390  toHash(result) */\n      tag_32\n        /* \"contracts/Util.sol\":383:389  result */\n      dup3\n        /* \"contracts/Util.sol\":376:382  toHash */\n      tag_21\n        /* \"contracts/Util.sol\":376:390  toHash(result) */\n      jump\t// in\n    tag_32:\n        /* \"contracts/Util.sol\":355:390  bytes32 hashResult = toHash(result) */\n      swap1\n      pop\n        /* \"contracts/Util.sol\":408:418  hashResult */\n      dup1\n        /* \"contracts/Util.sol\":401:418  return hashResult */\n      swap5\n      pop\n      pop\n      pop\n      pop\n      pop\n        /* \"contracts/Util.sol\":82:426  function createMappingKey(address _addr1, address _addr2) internal pure returns (bytes32){... */\n      swap3\n      swap2\n      pop\n      pop\n      jump\t// out\n        /* \"contracts/Marriage.sol\":2233:2572  function isContractSet(bytes32 key, address _addr) private view returns(bool){... */\n    tag_14:\n        /* \"contracts/Marriage.sol\":2305:2309  bool */\n      0x00\n        /* \"contracts/Marriage.sol\":2321:2332  bool exists */\n      dup1\n        /* \"contracts/Marriage.sol\":2335:2340  false */\n      0x00\n        /* \"contracts/Marriage.sol\":2321:2340  bool exists = false */\n      swap1\n      pop\n        /* \"contracts/Marriage.sol\":2355:2362  uint8 i */\n      0x00\n        /* \"contracts/Marriage.sol\":2351:2539  for(uint8 i = 0; i < addressMarriages[_addr].length; i++){... */\n    tag_34:\n        /* \"contracts/Marriage.sol\":2372:2388  addressMarriages */\n      0x01\n        /* \"contracts/Marriage.sol\":2372:2395  addressMarriages[_addr] */\n      0x00\n        /* \"contracts/Marriage.sol\":2389:2394  _addr */\n      dup6\n        /* \"contracts/Marriage.sol\":2372:2395  addressMarriages[_addr] */\n      0xffffffffffffffffffffffffffffffffffffffff\n      and\n      0xffffffffffffffffffffffffffffffffffffffff\n      and\n      dup2\n      mstore\n      0x20\n      add\n      swap1\n      dup2\n      mstore\n      0x20\n      add\n      0x00\n      keccak256\n        /* \"contracts/Marriage.sol\":2372:2402  addressMarriages[_addr].length */\n      dup1\n      sload\n      swap1\n      pop\n        /* \"contracts/Marriage.sol\":2368:2369  i */\n      dup2\n        /* \"contracts/Marriage.sol\":2368:2402  i < addressMarriages[_addr].length */\n      0xff\n      and\n      lt\n        /* \"contracts/Marriage.sol\":2351:2539  for(uint8 i = 0; i < addressMarriages[_addr].length; i++){... */\n      iszero\n      tag_35\n      jumpi\n        /* \"contracts/Marriage.sol\":2456:2459  key */\n      dup5\n        /* \"contracts/Marriage.sol\":2426:2442  addressMarriages */\n      0x01\n        /* \"contracts/Marriage.sol\":2426:2449  addressMarriages[_addr] */\n      0x00\n        /* \"contracts/Marriage.sol\":2443:2448  _addr */\n      dup7\n        /* \"contracts/Marriage.sol\":2426:2449  addressMarriages[_addr] */\n      0xffffffffffffffffffffffffffffffffffffffff\n      and\n      0xffffffffffffffffffffffffffffffffffffffff\n      and\n      dup2\n      mstore\n      0x20\n      add\n      swap1\n      dup2\n      mstore\n      0x20\n      add\n      0x00\n      keccak256\n        /* \"contracts/Marriage.sol\":2450:2451  i */\n      dup3\n        /* \"contracts/Marriage.sol\":2426:2452  addressMarriages[_addr][i] */\n      0xff\n      and\n      dup2\n      sload\n      dup2\n      lt\n      tag_37\n      jumpi\n      tag_38\n      tag_39\n      jump\t// in\n    tag_38:\n    tag_37:\n      swap1\n      0x00\n      mstore\n      keccak256(0x00, 0x20)\n      add\n      sload\n        /* \"contracts/Marriage.sol\":2426:2459  addressMarriages[_addr][i] == key */\n      sub\n        /* \"contracts/Marriage.sol\":2423:2500  if(addressMarriages[_addr][i] == key){... */\n      iszero\n        /* \"contracts/Marriage.sol\":2479:2484  break */\n      tag_35\n        /* \"contracts/Marriage.sol\":2423:2500  if(addressMarriages[_addr][i] == key){... */\n      jumpi\n        /* \"contracts/Marriage.sol\":2523:2527  true */\n      0x01\n        /* \"contracts/Marriage.sol\":2514:2527  exists = true */\n      swap2\n      pop\n        /* \"contracts/Marriage.sol\":2404:2407  i++ */\n      dup1\n      dup1\n      tag_42\n      swap1\n      tag_43\n      jump\t// in\n    tag_42:\n      swap2\n      pop\n      pop\n        /* \"contracts/Marriage.sol\":2351:2539  for(uint8 i = 0; i < addressMarriages[_addr].length; i++){... */\n      jump(tag_34)\n    tag_35:\n      pop\n        /* \"contracts/Marriage.sol\":2558:2564  exists */\n      dup1\n        /* \"contracts/Marriage.sol\":2551:2564  return exists */\n      swap2\n      pop\n      pop\n        /* \"contracts/Marriage.sol\":2233:2572  function isContractSet(bytes32 key, address _addr) private view returns(bool){... */\n      swap3\n      swap2\n      pop\n      pop\n      jump\t// out\n        /* \"contracts/Util.sol\":434:566  function toHash(string memory _string) internal pure returns(bytes32) {... */\n    tag_21:\n        /* \"contracts/Util.sol\":495:502  bytes32 */\n      0x00\n        /* \"contracts/Util.sol\":549:556  _string */\n      dup2\n        /* \"contracts/Util.sol\":532:557  abi.encodePacked(_string) */\n      add(0x20, mload(0x40))\n      tag_45\n      swap2\n      swap1\n      tag_46\n      jump\t// in\n    tag_45:\n      mload(0x40)\n      0x20\n      dup2\n      dup4\n      sub\n      sub\n      dup2\n      mstore\n      swap1\n      0x40\n      mstore\n        /* \"contracts/Util.sol\":522:558  keccak256(abi.encodePacked(_string)) */\n      dup1\n      mload\n      swap1\n      0x20\n      add\n      keccak256\n        /* \"contracts/Util.sol\":515:558  return keccak256(abi.encodePacked(_string)) */\n      swap1\n      pop\n        /* \"contracts/Util.sol\":434:566  function toHash(string memory _string) internal pure returns(bytes32) {... */\n      swap2\n      swap1\n      pop\n      jump\t// out\n        /* \"contracts/Util.sol\":725:884  function convert(address _address) internal pure returns (string memory) {... */\n    tag_28:\n        /* \"contracts/Util.sol\":783:796  string memory */\n      0x60\n        /* \"contracts/Util.sol\":809:830  string memory addrStr */\n      0x00\n        /* \"contracts/Util.sol\":833:851  toString(_address) */\n      tag_48\n        /* \"contracts/Util.sol\":842:850  _address */\n      dup4\n        /* \"contracts/Util.sol\":833:841  toString */\n      tag_49\n        /* \"contracts/Util.sol\":833:851  toString(_address) */\n      jump\t// in\n    tag_48:\n        /* \"contracts/Util.sol\":809:851  string memory addrStr = toString(_address) */\n      swap1\n      pop\n        /* \"contracts/Util.sol\":869:876  addrStr */\n      dup1\n        /* \"contracts/Util.sol\":862:876  return addrStr */\n      swap2\n      pop\n      pop\n        /* \"contracts/Util.sol\":725:884  function convert(address _address) internal pure returns (string memory) {... */\n      swap2\n      swap1\n      pop\n      jump\t// out\n        /* \"contracts/Util.sol\":574:717  function concatenateStings(string memory a, string memory b) internal pure returns (string memory) {... */\n    tag_31:\n        /* \"contracts/Util.sol\":658:671  string memory */\n      0x60\n        /* \"contracts/Util.sol\":705:706  a */\n      dup3\n        /* \"contracts/Util.sol\":707:708  b */\n      dup3\n        /* \"contracts/Util.sol\":691:709  string.concat(a,b) */\n      add(0x20, mload(0x40))\n      tag_51\n      swap3\n      swap2\n      swap1\n      tag_52\n      jump\t// in\n    tag_51:\n      mload(0x40)\n      0x20\n      dup2\n      dup4\n      sub\n      sub\n      dup2\n      mstore\n      swap1\n      0x40\n      mstore\n        /* \"contracts/Util.sol\":684:709  return string.concat(a,b) */\n      swap1\n      pop\n        /* \"contracts/Util.sol\":574:717  function concatenateStings(string memory a, string memory b) internal pure returns (string memory) {... */\n      swap3\n      swap2\n      pop\n      pop\n      jump\t// out\n        /* \"contracts/Util.sol\":897:1410  function toString(address _addr) internal pure returns (string memory) {... */\n    tag_49:\n        /* \"contracts/Util.sol\":953:966  string memory */\n      0x60\n        /* \"contracts/Util.sol\":979:992  bytes32 value */\n      0x00\n        /* \"contracts/Util.sol\":1019:1024  _addr */\n      dup3\n        /* \"contracts/Util.sol\":1003:1026  uint256(uint160(_addr)) */\n      0xffffffffffffffffffffffffffffffffffffffff\n      and\n        /* \"contracts/Util.sol\":995:1027  bytes32(uint256(uint160(_addr))) */\n      0x00\n      shl\n        /* \"contracts/Util.sol\":979:1027  bytes32 value = bytes32(uint256(uint160(_addr))) */\n      swap1\n      pop\n        /* \"contracts/Util.sol\":1038:1059  bytes memory alphabet */\n      0x00\n        /* \"contracts/Util.sol\":1038:1080  bytes memory alphabet = \"0123456789abcdef\" */\n      mload(0x40)\n      dup1\n      0x40\n      add\n      0x40\n      mstore\n      dup1\n      0x10\n      dup2\n      mstore\n      0x20\n      add\n      0x3031323334353637383961626364656600000000000000000000000000000000\n      dup2\n      mstore\n      pop\n      swap1\n      pop\n        /* \"contracts/Util.sol\":1091:1107  bytes memory str */\n      0x00\n        /* \"contracts/Util.sol\":1120:1122  42 */\n      0x2a\n        /* \"contracts/Util.sol\":1110:1123  new bytes(42) */\n      0xffffffffffffffff\n      dup2\n      gt\n      iszero\n      tag_54\n      jumpi\n      tag_55\n      tag_56\n      jump\t// in\n    tag_55:\n    tag_54:\n      mload(0x40)\n      swap1\n      dup1\n      dup3\n      mstore\n      dup1\n      0x1f\n      add\n      not(0x1f)\n      and\n      0x20\n      add\n      dup3\n      add\n      0x40\n      mstore\n      dup1\n      iszero\n      tag_57\n      jumpi\n      dup2\n      0x20\n      add\n      0x01\n      dup3\n      mul\n      dup1\n      calldatasize\n      dup4\n      calldatacopy\n      dup1\n      dup3\n      add\n      swap2\n      pop\n      pop\n      swap1\n      pop\n    tag_57:\n      pop\n        /* \"contracts/Util.sol\":1091:1123  bytes memory str = new bytes(42) */\n      swap1\n      pop\n        /* \"contracts/Util.sol\":1134:1146  str[0] = '0' */\n      0x3000000000000000000000000000000000000000000000000000000000000000\n        /* \"contracts/Util.sol\":1134:1137  str */\n      dup2\n        /* \"contracts/Util.sol\":1138:1139  0 */\n      0x00\n        /* \"contracts/Util.sol\":1134:1140  str[0] */\n      dup2\n      mload\n      dup2\n      lt\n      tag_58\n      jumpi\n      tag_59\n      tag_39\n      jump\t// in\n    tag_59:\n    tag_58:\n      0x20\n      add\n      add\n        /* \"contracts/Util.sol\":1134:1146  str[0] = '0' */\n      swap1\n      not(0xffffffffffffffffffffffffffffffffffffffffffffffffffffffffffffff)\n      and\n      swap1\n      dup2\n      0x00\n      byte\n      swap1\n      mstore8\n      pop\n        /* \"contracts/Util.sol\":1157:1169  str[1] = 'x' */\n      0x7800000000000000000000000000000000000000000000000000000000000000\n        /* \"contracts/Util.sol\":1157:1160  str */\n      dup2\n        /* \"contracts/Util.sol\":1161:1162  1 */\n      0x01\n        /* \"contracts/Util.sol\":1157:1163  str[1] */\n      dup2\n      mload\n      dup2\n      lt\n      tag_60\n      jumpi\n      tag_61\n      tag_39\n      jump\t// in\n    tag_61:\n    tag_60:\n      0x20\n      add\n      add\n        /* \"contracts/Util.sol\":1157:1169  str[1] = 'x' */\n      swap1\n      not(0xffffffffffffffffffffffffffffffffffffffffffffffffffffffffffffff)\n      and\n      swap1\n      dup2\n      0x00\n      byte\n      swap1\n      mstore8\n      pop\n        /* \"contracts/Util.sol\":1196:1205  uint256 i */\n      0x00\n        /* \"contracts/Util.sol\":1191:1372  for (uint256 i = 0; i < 20; i++) {... */\n    tag_62:\n        /* \"contracts/Util.sol\":1215:1217  20 */\n      0x14\n        /* \"contracts/Util.sol\":1211:1212  i */\n      dup2\n        /* \"contracts/Util.sol\":1211:1217  i < 20 */\n      lt\n        /* \"contracts/Util.sol\":1191:1372  for (uint256 i = 0; i < 20; i++) {... */\n      iszero\n      tag_63\n      jumpi\n        /* \"contracts/Util.sol\":1256:1264  alphabet */\n      dup3\n        /* \"contracts/Util.sol\":1288:1289  4 */\n      0x04\n        /* \"contracts/Util.sol\":1271:1276  value */\n      dup6\n        /* \"contracts/Util.sol\":1281:1283  12 */\n      0x0c\n        /* \"contracts/Util.sol\":1277:1278  i */\n      dup5\n        /* \"contracts/Util.sol\":1277:1283  i + 12 */\n      tag_65\n      swap2\n      swap1\n      tag_66\n      jump\t// in\n    tag_65:\n        /* \"contracts/Util.sol\":1271:1284  value[i + 12] */\n      0x20\n      dup2\n      lt\n      tag_67\n      jumpi\n      tag_68\n      tag_39\n      jump\t// in\n    tag_68:\n    tag_67:\n      byte\n      0xf8\n      shl\n        /* \"contracts/Util.sol\":1271:1289  value[i + 12] >> 4 */\n      not(0xffffffffffffffffffffffffffffffffffffffffffffffffffffffffffffff)\n      and\n      swap1\n      shr\n        /* \"contracts/Util.sol\":1265:1290  uint8(value[i + 12] >> 4) */\n      0xf8\n      shr\n        /* \"contracts/Util.sol\":1256:1291  alphabet[uint8(value[i + 12] >> 4)] */\n      0xff\n      and\n      dup2\n      mload\n      dup2\n      lt\n      tag_69\n      jumpi\n      tag_70\n      tag_39\n      jump\t// in\n    tag_70:\n    tag_69:\n      0x20\n      add\n      add\n      mload\n      0xf8\n      shr\n      0xf8\n      shl\n        /* \"contracts/Util.sol\":1239:1242  str */\n      dup3\n        /* \"contracts/Util.sol\":1251:1252  2 */\n      0x02\n        /* \"contracts/Util.sol\":1247:1248  i */\n      dup4\n        /* \"contracts/Util.sol\":1247:1252  i * 2 */\n      tag_71\n      swap2\n      swap1\n      tag_72\n      jump\t// in\n    tag_71:\n        /* \"contracts/Util.sol\":1243:1244  2 */\n      0x02\n        /* \"contracts/Util.sol\":1243:1252  2 + i * 2 */\n      tag_73\n      swap2\n      swap1\n      tag_66\n      jump\t// in\n    tag_73:\n        /* \"contracts/Util.sol\":1239:1253  str[2 + i * 2] */\n      dup2\n      mload\n      dup2\n      lt\n      tag_74\n      jumpi\n      tag_75\n      tag_39\n      jump\t// in\n    tag_75:\n    tag_74:\n      0x20\n      add\n      add\n        /* \"contracts/Util.sol\":1239:1291  str[2 + i * 2] = alphabet[uint8(value[i + 12] >> 4)] */\n      swap1\n      not(0xffffffffffffffffffffffffffffffffffffffffffffffffffffffffffffff)\n      and\n      swap1\n      dup2\n      0x00\n      byte\n      swap1\n      mstore8\n      pop\n        /* \"contracts/Util.sol\":1323:1331  alphabet */\n      dup3\n        /* \"contracts/Util.sol\":1354:1358  0x0f */\n      0x0f\n        /* \"contracts/Util.sol\":1338:1358  value[i + 12] & 0x0f */\n      0xf8\n      shl\n        /* \"contracts/Util.sol\":1338:1343  value */\n      dup6\n        /* \"contracts/Util.sol\":1348:1350  12 */\n      0x0c\n        /* \"contracts/Util.sol\":1344:1345  i */\n      dup5\n        /* \"contracts/Util.sol\":1344:1350  i + 12 */\n      tag_76\n      swap2\n      swap1\n      tag_66\n      jump\t// in\n    tag_76:\n        /* \"contracts/Util.sol\":1338:1351  value[i + 12] */\n      0x20\n      dup2\n      lt\n      tag_77\n      jumpi\n      tag_78\n      tag_39\n      jump\t// in\n    tag_78:\n    tag_77:\n      byte\n      0xf8\n      shl\n        /* \"contracts/Util.sol\":1338:1358  value[i + 12] & 0x0f */\n      and\n        /* \"contracts/Util.sol\":1332:1359  uint8(value[i + 12] & 0x0f) */\n      0xf8\n      shr\n        /* \"contracts/Util.sol\":1323:1360  alphabet[uint8(value[i + 12] & 0x0f)] */\n      0xff\n      and\n      dup2\n      mload\n      dup2\n      lt\n      tag_79\n      jumpi\n      tag_80\n      tag_39\n      jump\t// in\n    tag_80:\n    tag_79:\n      0x20\n      add\n      add\n      mload\n      0xf8\n      shr\n      0xf8\n      shl\n        /* \"contracts/Util.sol\":1306:1309  str */\n      dup3\n        /* \"contracts/Util.sol\":1318:1319  2 */\n      0x02\n        /* \"contracts/Util.sol\":1314:1315  i */\n      dup4\n        /* \"contracts/Util.sol\":1314:1319  i * 2 */\n      tag_81\n      swap2\n      swap1\n      tag_72\n      jump\t// in\n    tag_81:\n        /* \"contracts/Util.sol\":1310:1311  3 */\n      0x03\n        /* \"contracts/Util.sol\":1310:1319  3 + i * 2 */\n      tag_82\n      swap2\n      swap1\n      tag_66\n      jump\t// in\n    tag_82:\n        /* \"contracts/Util.sol\":1306:1320  str[3 + i * 2] */\n      dup2\n      mload\n      dup2\n      lt\n      tag_83\n      jumpi\n      tag_84\n      tag_39\n      jump\t// in\n    tag_84:\n    tag_83:\n      0x20\n      add\n      add\n        /* \"contracts/Util.sol\":1306:1360  str[3 + i * 2] = alphabet[uint8(value[i + 12] & 0x0f)] */\n      swap1\n      not(0xffffffffffffffffffffffffffffffffffffffffffffffffffffffffffffff)\n      and\n      swap1\n      dup2\n      0x00\n      byte\n      swap1\n      mstore8\n      pop\n        /* \"contracts/Util.sol\":1219:1222  i++ */\n      dup1\n      dup1\n      0x01\n      add\n      swap2\n      pop\n      pop\n        /* \"contracts/Util.sol\":1191:1372  for (uint256 i = 0; i < 20; i++) {... */\n      jump(tag_62)\n    tag_63:\n      pop\n        /* \"contracts/Util.sol\":1398:1401  str */\n      dup1\n        /* \"contracts/Util.sol\":1384:1402  return string(str) */\n      swap4\n      pop\n      pop\n      pop\n      pop\n        /* \"contracts/Util.sol\":897:1410  function toString(address _addr) internal pure returns (string memory) {... */\n      swap2\n      swap1\n      pop\n      jump\t// out\n        /* \"#utility.yul\":7:82   */\n    tag_85:\n        /* \"#utility.yul\":40:46   */\n      0x00\n        /* \"#utility.yul\":73:75   */\n      0x40\n        /* \"#utility.yul\":67:76   */\n      mload\n        /* \"#utility.yul\":57:76   */\n      swap1\n      pop\n        /* \"#utility.yul\":7:82   */\n      swap1\n      jump\t// out\n        /* \"#utility.yul\":88:205   */\n    tag_86:\n        /* \"#utility.yul\":197:198   */\n      0x00\n        /* \"#utility.yul\":194:195   */\n      dup1\n        /* \"#utility.yul\":187:199   */\n      revert\n        /* \"#utility.yul\":211:328   */\n    tag_87:\n        /* \"#utility.yul\":320:321   */\n      0x00\n        /* \"#utility.yul\":317:318   */\n      dup1\n        /* \"#utility.yul\":310:322   */\n      revert\n        /* \"#utility.yul\":334:411   */\n    tag_88:\n        /* \"#utility.yul\":371:378   */\n      0x00\n        /* \"#utility.yul\":400:405   */\n      dup2\n        /* \"#utility.yul\":389:405   */\n      swap1\n      pop\n        /* \"#utility.yul\":334:411   */\n      swap2\n      swap1\n      pop\n      jump\t// out\n        /* \"#utility.yul\":417:539   */\n    tag_89:\n        /* \"#utility.yul\":490:514   */\n      tag_136\n        /* \"#utility.yul\":508:513   */\n      dup2\n        /* \"#utility.yul\":490:514   */\n      tag_88\n      jump\t// in\n    tag_136:\n        /* \"#utility.yul\":483:488   */\n      dup2\n        /* \"#utility.yul\":480:515   */\n      eq\n        /* \"#utility.yul\":470:533   */\n      tag_137\n      jumpi\n        /* \"#utility.yul\":529:530   */\n      0x00\n        /* \"#utility.yul\":526:527   */\n      dup1\n        /* \"#utility.yul\":519:531   */\n      revert\n        /* \"#utility.yul\":470:533   */\n    tag_137:\n        /* \"#utility.yul\":417:539   */\n      pop\n      jump\t// out\n        /* \"#utility.yul\":545:684   */\n    tag_90:\n        /* \"#utility.yul\":591:596   */\n      0x00\n        /* \"#utility.yul\":629:635   */\n      dup2\n        /* \"#utility.yul\":616:636   */\n      calldataload\n        /* \"#utility.yul\":607:636   */\n      swap1\n      pop\n        /* \"#utility.yul\":645:678   */\n      tag_139\n        /* \"#utility.yul\":672:677   */\n      dup2\n        /* \"#utility.yul\":645:678   */\n      tag_89\n      jump\t// in\n    tag_139:\n        /* \"#utility.yul\":545:684   */\n      swap3\n      swap2\n      pop\n      pop\n      jump\t// out\n        /* \"#utility.yul\":690:816   */\n    tag_91:\n        /* \"#utility.yul\":727:734   */\n      0x00\n        /* \"#utility.yul\":767:809   */\n      0xffffffffffffffffffffffffffffffffffffffff\n        /* \"#utility.yul\":760:765   */\n      dup3\n        /* \"#utility.yul\":756:810   */\n      and\n        /* \"#utility.yul\":745:810   */\n      swap1\n      pop\n        /* \"#utility.yul\":690:816   */\n      swap2\n      swap1\n      pop\n      jump\t// out\n        /* \"#utility.yul\":822:918   */\n    tag_92:\n        /* \"#utility.yul\":859:866   */\n      0x00\n        /* \"#utility.yul\":888:912   */\n      tag_142\n        /* \"#utility.yul\":906:911   */\n      dup3\n        /* \"#utility.yul\":888:912   */\n      tag_91\n      jump\t// in\n    tag_142:\n        /* \"#utility.yul\":877:912   */\n      swap1\n      pop\n        /* \"#utility.yul\":822:918   */\n      swap2\n      swap1\n      pop\n      jump\t// out\n        /* \"#utility.yul\":924:1046   */\n    tag_93:\n        /* \"#utility.yul\":997:1021   */\n      tag_144\n        /* \"#utility.yul\":1015:1020   */\n      dup2\n        /* \"#utility.yul\":997:1021   */\n      tag_92\n      jump\t// in\n    tag_144:\n        /* \"#utility.yul\":990:995   */\n      dup2\n        /* \"#utility.yul\":987:1022   */\n      eq\n        /* \"#utility.yul\":977:1040   */\n      tag_145\n      jumpi\n        /* \"#utility.yul\":1036:1037   */\n      0x00\n        /* \"#utility.yul\":1033:1034   */\n      dup1\n        /* \"#utility.yul\":1026:1038   */\n      revert\n        /* \"#utility.yul\":977:1040   */\n    tag_145:\n        /* \"#utility.yul\":924:1046   */\n      pop\n      jump\t// out\n        /* \"#utility.yul\":1052:1191   */\n    tag_94:\n        /* \"#utility.yul\":1098:1103   */\n      0x00\n        /* \"#utility.yul\":1136:1142   */\n      dup2\n        /* \"#utility.yul\":1123:1143   */\n      calldataload\n        /* \"#utility.yul\":1114:1143   */\n      swap1\n      pop\n        /* \"#utility.yul\":1152:1185   */\n      tag_147\n        /* \"#utility.yul\":1179:1184   */\n      dup2\n        /* \"#utility.yul\":1152:1185   */\n      tag_93\n      jump\t// in\n    tag_147:\n        /* \"#utility.yul\":1052:1191   */\n      swap3\n      swap2\n      pop\n      pop\n      jump\t// out\n        /* \"#utility.yul\":1197:1283   */\n    tag_95:\n        /* \"#utility.yul\":1232:1239   */\n      0x00\n        /* \"#utility.yul\":1272:1276   */\n      0xff\n        /* \"#utility.yul\":1265:1270   */\n      dup3\n        /* \"#utility.yul\":1261:1277   */\n      and\n        /* \"#utility.yul\":1250:1277   */\n      swap1\n      pop\n        /* \"#utility.yul\":1197:1283   */\n      swap2\n      swap1\n      pop\n      jump\t// out\n        /* \"#utility.yul\":1289:1407   */\n    tag_96:\n        /* \"#utility.yul\":1360:1382   */\n      tag_150\n        /* \"#utility.yul\":1376:1381   */\n      dup2\n        /* \"#utility.yul\":1360:1382   */\n      tag_95\n      jump\t// in\n    tag_150:\n        /* \"#utility.yul\":1353:1358   */\n      dup2\n        /* \"#utility.yul\":1350:1383   */\n      eq\n        /* \"#utility.yul\":1340:1401   */\n      tag_151\n      jumpi\n        /* \"#utility.yul\":1397:1398   */\n      0x00\n        /* \"#utility.yul\":1394:1395   */\n      dup1\n        /* \"#utility.yul\":1387:1399   */\n      revert\n        /* \"#utility.yul\":1340:1401   */\n    tag_151:\n        /* \"#utility.yul\":1289:1407   */\n      pop\n      jump\t// out\n        /* \"#utility.yul\":1413:1548   */\n    tag_97:\n        /* \"#utility.yul\":1457:1462   */\n      0x00\n        /* \"#utility.yul\":1495:1501   */\n      dup2\n        /* \"#utility.yul\":1482:1502   */\n      calldataload\n        /* \"#utility.yul\":1473:1502   */\n      swap1\n      pop\n        /* \"#utility.yul\":1511:1542   */\n      tag_153\n        /* \"#utility.yul\":1536:1541   */\n      dup2\n        /* \"#utility.yul\":1511:1542   */\n      tag_96\n      jump\t// in\n    tag_153:\n        /* \"#utility.yul\":1413:1548   */\n      swap3\n      swap2\n      pop\n      pop\n      jump\t// out\n        /* \"#utility.yul\":1554:1671   */\n    tag_98:\n        /* \"#utility.yul\":1663:1664   */\n      0x00\n        /* \"#utility.yul\":1660:1661   */\n      dup1\n        /* \"#utility.yul\":1653:1665   */\n      revert\n        /* \"#utility.yul\":1677:1794   */\n    tag_99:\n        /* \"#utility.yul\":1786:1787   */\n      0x00\n        /* \"#utility.yul\":1783:1784   */\n      dup1\n        /* \"#utility.yul\":1776:1788   */\n      revert\n        /* \"#utility.yul\":1800:1902   */\n    tag_100:\n        /* \"#utility.yul\":1841:1847   */\n      0x00\n        /* \"#utility.yul\":1892:1894   */\n      0x1f\n        /* \"#utility.yul\":1888:1895   */\n      not\n        /* \"#utility.yul\":1883:1885   */\n      0x1f\n        /* \"#utility.yul\":1876:1881   */\n      dup4\n        /* \"#utility.yul\":1872:1886   */\n      add\n        /* \"#utility.yul\":1868:1896   */\n      and\n        /* \"#utility.yul\":1858:1896   */\n      swap1\n      pop\n        /* \"#utility.yul\":1800:1902   */\n      swap2\n      swap1\n      pop\n      jump\t// out\n        /* \"#utility.yul\":1908:2088   */\n    tag_56:\n        /* \"#utility.yul\":1956:2033   */\n      0x4e487b7100000000000000000000000000000000000000000000000000000000\n        /* \"#utility.yul\":1953:1954   */\n      0x00\n        /* \"#utility.yul\":1946:2034   */\n      mstore\n        /* \"#utility.yul\":2053:2057   */\n      0x41\n        /* \"#utility.yul\":2050:2051   */\n      0x04\n        /* \"#utility.yul\":2043:2058   */\n      mstore\n        /* \"#utility.yul\":2077:2081   */\n      0x24\n        /* \"#utility.yul\":2074:2075   */\n      0x00\n        /* \"#utility.yul\":2067:2082   */\n      revert\n        /* \"#utility.yul\":2094:2375   */\n    tag_101:\n        /* \"#utility.yul\":2177:2204   */\n      tag_159\n        /* \"#utility.yul\":2199:2203   */\n      dup3\n        /* \"#utility.yul\":2177:2204   */\n      tag_100\n      jump\t// in\n    tag_159:\n        /* \"#utility.yul\":2169:2175   */\n      dup2\n        /* \"#utility.yul\":2165:2205   */\n      add\n        /* \"#utility.yul\":2307:2313   */\n      dup2\n        /* \"#utility.yul\":2295:2305   */\n      dup2\n        /* \"#utility.yul\":2292:2314   */\n      lt\n        /* \"#utility.yul\":2271:2289   */\n      0xffffffffffffffff\n        /* \"#utility.yul\":2259:2269   */\n      dup3\n        /* \"#utility.yul\":2256:2290   */\n      gt\n        /* \"#utility.yul\":2253:2315   */\n      or\n        /* \"#utility.yul\":2250:2338   */\n      iszero\n      tag_160\n      jumpi\n        /* \"#utility.yul\":2318:2336   */\n      tag_161\n      tag_56\n      jump\t// in\n    tag_161:\n        /* \"#utility.yul\":2250:2338   */\n    tag_160:\n        /* \"#utility.yul\":2358:2368   */\n      dup1\n        /* \"#utility.yul\":2354:2356   */\n      0x40\n        /* \"#utility.yul\":2347:2369   */\n      mstore\n        /* \"#utility.yul\":2137:2375   */\n      pop\n        /* \"#utility.yul\":2094:2375   */\n      pop\n      pop\n      jump\t// out\n        /* \"#utility.yul\":2381:2510   */\n    tag_102:\n        /* \"#utility.yul\":2415:2421   */\n      0x00\n        /* \"#utility.yul\":2442:2462   */\n      tag_163\n      tag_85\n      jump\t// in\n    tag_163:\n        /* \"#utility.yul\":2432:2462   */\n      swap1\n      pop\n        /* \"#utility.yul\":2471:2504   */\n      tag_164\n        /* \"#utility.yul\":2499:2503   */\n      dup3\n        /* \"#utility.yul\":2491:2497   */\n      dup3\n        /* \"#utility.yul\":2471:2504   */\n      tag_101\n      jump\t// in\n    tag_164:\n        /* \"#utility.yul\":2381:2510   */\n      swap2\n      swap1\n      pop\n      jump\t// out\n        /* \"#utility.yul\":2516:2824   */\n    tag_103:\n        /* \"#utility.yul\":2578:2582   */\n      0x00\n        /* \"#utility.yul\":2668:2686   */\n      0xffffffffffffffff\n        /* \"#utility.yul\":2660:2666   */\n      dup3\n        /* \"#utility.yul\":2657:2687   */\n      gt\n        /* \"#utility.yul\":2654:2710   */\n      iszero\n      tag_166\n      jumpi\n        /* \"#utility.yul\":2690:2708   */\n      tag_167\n      tag_56\n      jump\t// in\n    tag_167:\n        /* \"#utility.yul\":2654:2710   */\n    tag_166:\n        /* \"#utility.yul\":2728:2757   */\n      tag_168\n        /* \"#utility.yul\":2750:2756   */\n      dup3\n        /* \"#utility.yul\":2728:2757   */\n      tag_100\n      jump\t// in\n    tag_168:\n        /* \"#utility.yul\":2720:2757   */\n      swap1\n      pop\n        /* \"#utility.yul\":2812:2816   */\n      0x20\n        /* \"#utility.yul\":2806:2810   */\n      dup2\n        /* \"#utility.yul\":2802:2817   */\n      add\n        /* \"#utility.yul\":2794:2817   */\n      swap1\n      pop\n        /* \"#utility.yul\":2516:2824   */\n      swap2\n      swap1\n      pop\n      jump\t// out\n        /* \"#utility.yul\":2830:2976   */\n    tag_104:\n        /* \"#utility.yul\":2927:2933   */\n      dup3\n        /* \"#utility.yul\":2922:2925   */\n      dup2\n        /* \"#utility.yul\":2917:2920   */\n      dup4\n        /* \"#utility.yul\":2904:2934   */\n      calldatacopy\n        /* \"#utility.yul\":2968:2969   */\n      0x00\n        /* \"#utility.yul\":2959:2965   */\n      dup4\n        /* \"#utility.yul\":2954:2957   */\n      dup4\n        /* \"#utility.yul\":2950:2966   */\n      add\n        /* \"#utility.yul\":2943:2970   */\n      mstore\n        /* \"#utility.yul\":2830:2976   */\n      pop\n      pop\n      pop\n      jump\t// out\n        /* \"#utility.yul\":2982:3407   */\n    tag_105:\n        /* \"#utility.yul\":3060:3065   */\n      0x00\n        /* \"#utility.yul\":3085:3151   */\n      tag_171\n        /* \"#utility.yul\":3101:3150   */\n      tag_172\n        /* \"#utility.yul\":3143:3149   */\n      dup5\n        /* \"#utility.yul\":3101:3150   */\n      tag_103\n      jump\t// in\n    tag_172:\n        /* \"#utility.yul\":3085:3151   */\n      tag_102\n      jump\t// in\n    tag_171:\n        /* \"#utility.yul\":3076:3151   */\n      swap1\n      pop\n        /* \"#utility.yul\":3174:3180   */\n      dup3\n        /* \"#utility.yul\":3167:3172   */\n      dup2\n        /* \"#utility.yul\":3160:3181   */\n      mstore\n        /* \"#utility.yul\":3212:3216   */\n      0x20\n        /* \"#utility.yul\":3205:3210   */\n      dup2\n        /* \"#utility.yul\":3201:3217   */\n      add\n        /* \"#utility.yul\":3250:3253   */\n      dup5\n        /* \"#utility.yul\":3241:3247   */\n      dup5\n        /* \"#utility.yul\":3236:3239   */\n      dup5\n        /* \"#utility.yul\":3232:3248   */\n      add\n        /* \"#utility.yul\":3229:3254   */\n      gt\n        /* \"#utility.yul\":3226:3338   */\n      iszero\n      tag_173\n      jumpi\n        /* \"#utility.yul\":3257:3336   */\n      tag_174\n      tag_99\n      jump\t// in\n    tag_174:\n        /* \"#utility.yul\":3226:3338   */\n    tag_173:\n        /* \"#utility.yul\":3347:3401   */\n      tag_175\n        /* \"#utility.yul\":3394:3400   */\n      dup5\n        /* \"#utility.yul\":3389:3392   */\n      dup3\n        /* \"#utility.yul\":3384:3387   */\n      dup6\n        /* \"#utility.yul\":3347:3401   */\n      tag_104\n      jump\t// in\n    tag_175:\n        /* \"#utility.yul\":3066:3407   */\n      pop\n        /* \"#utility.yul\":2982:3407   */\n      swap4\n      swap3\n      pop\n      pop\n      pop\n      jump\t// out\n        /* \"#utility.yul\":3427:3767   */\n    tag_106:\n        /* \"#utility.yul\":3483:3488   */\n      0x00\n        /* \"#utility.yul\":3532:3535   */\n      dup3\n        /* \"#utility.yul\":3525:3529   */\n      0x1f\n        /* \"#utility.yul\":3517:3523   */\n      dup4\n        /* \"#utility.yul\":3513:3530   */\n      add\n        /* \"#utility.yul\":3509:3536   */\n      slt\n        /* \"#utility.yul\":3499:3621   */\n      tag_177\n      jumpi\n        /* \"#utility.yul\":3540:3619   */\n      tag_178\n      tag_98\n      jump\t// in\n    tag_178:\n        /* \"#utility.yul\":3499:3621   */\n    tag_177:\n        /* \"#utility.yul\":3657:3663   */\n      dup2\n        /* \"#utility.yul\":3644:3664   */\n      calldataload\n        /* \"#utility.yul\":3682:3761   */\n      tag_179\n        /* \"#utility.yul\":3757:3760   */\n      dup5\n        /* \"#utility.yul\":3749:3755   */\n      dup3\n        /* \"#utility.yul\":3742:3746   */\n      0x20\n        /* \"#utility.yul\":3734:3740   */\n      dup7\n        /* \"#utility.yul\":3730:3747   */\n      add\n        /* \"#utility.yul\":3682:3761   */\n      tag_105\n      jump\t// in\n    tag_179:\n        /* \"#utility.yul\":3673:3761   */\n      swap2\n      pop\n        /* \"#utility.yul\":3489:3767   */\n      pop\n        /* \"#utility.yul\":3427:3767   */\n      swap3\n      swap2\n      pop\n      pop\n      jump\t// out\n        /* \"#utility.yul\":3773:4860   */\n    tag_6:\n        /* \"#utility.yul\":3876:3882   */\n      0x00\n        /* \"#utility.yul\":3884:3890   */\n      dup1\n        /* \"#utility.yul\":3892:3898   */\n      0x00\n        /* \"#utility.yul\":3900:3906   */\n      dup1\n        /* \"#utility.yul\":3908:3914   */\n      0x00\n        /* \"#utility.yul\":3957:3960   */\n      0xa0\n        /* \"#utility.yul\":3945:3954   */\n      dup7\n        /* \"#utility.yul\":3936:3943   */\n      dup9\n        /* \"#utility.yul\":3932:3955   */\n      sub\n        /* \"#utility.yul\":3928:3961   */\n      slt\n        /* \"#utility.yul\":3925:4045   */\n      iszero\n      tag_181\n      jumpi\n        /* \"#utility.yul\":3964:4043   */\n      tag_182\n      tag_86\n      jump\t// in\n    tag_182:\n        /* \"#utility.yul\":3925:4045   */\n    tag_181:\n        /* \"#utility.yul\":4084:4085   */\n      0x00\n        /* \"#utility.yul\":4109:4162   */\n      tag_183\n        /* \"#utility.yul\":4154:4161   */\n      dup9\n        /* \"#utility.yul\":4145:4151   */\n      dup3\n        /* \"#utility.yul\":4134:4143   */\n      dup10\n        /* \"#utility.yul\":4130:4152   */\n      add\n        /* \"#utility.yul\":4109:4162   */\n      tag_90\n      jump\t// in\n    tag_183:\n        /* \"#utility.yul\":4099:4162   */\n      swap6\n      pop\n        /* \"#utility.yul\":4055:4172   */\n      pop\n        /* \"#utility.yul\":4211:4213   */\n      0x20\n        /* \"#utility.yul\":4237:4290   */\n      tag_184\n        /* \"#utility.yul\":4282:4289   */\n      dup9\n        /* \"#utility.yul\":4273:4279   */\n      dup3\n        /* \"#utility.yul\":4262:4271   */\n      dup10\n        /* \"#utility.yul\":4258:4280   */\n      add\n        /* \"#utility.yul\":4237:4290   */\n      tag_94\n      jump\t// in\n    tag_184:\n        /* \"#utility.yul\":4227:4290   */\n      swap5\n      pop\n        /* \"#utility.yul\":4182:4300   */\n      pop\n        /* \"#utility.yul\":4339:4341   */\n      0x40\n        /* \"#utility.yul\":4365:4418   */\n      tag_185\n        /* \"#utility.yul\":4410:4417   */\n      dup9\n        /* \"#utility.yul\":4401:4407   */\n      dup3\n        /* \"#utility.yul\":4390:4399   */\n      dup10\n        /* \"#utility.yul\":4386:4408   */\n      add\n        /* \"#utility.yul\":4365:4418   */\n      tag_94\n      jump\t// in\n    tag_185:\n        /* \"#utility.yul\":4355:4418   */\n      swap4\n      pop\n        /* \"#utility.yul\":4310:4428   */\n      pop\n        /* \"#utility.yul\":4467:4469   */\n      0x60\n        /* \"#utility.yul\":4493:4544   */\n      tag_186\n        /* \"#utility.yul\":4536:4543   */\n      dup9\n        /* \"#utility.yul\":4527:4533   */\n      dup3\n        /* \"#utility.yul\":4516:4525   */\n      dup10\n        /* \"#utility.yul\":4512:4534   */\n      add\n        /* \"#utility.yul\":4493:4544   */\n      tag_97\n      jump\t// in\n    tag_186:\n        /* \"#utility.yul\":4483:4544   */\n      swap3\n      pop\n        /* \"#utility.yul\":4438:4554   */\n      pop\n        /* \"#utility.yul\":4621:4624   */\n      0x80\n        /* \"#utility.yul\":4610:4619   */\n      dup7\n        /* \"#utility.yul\":4606:4625   */\n      add\n        /* \"#utility.yul\":4593:4626   */\n      calldataload\n        /* \"#utility.yul\":4653:4671   */\n      0xffffffffffffffff\n        /* \"#utility.yul\":4645:4651   */\n      dup2\n        /* \"#utility.yul\":4642:4672   */\n      gt\n        /* \"#utility.yul\":4639:4756   */\n      iszero\n      tag_187\n      jumpi\n        /* \"#utility.yul\":4675:4754   */\n      tag_188\n      tag_87\n      jump\t// in\n    tag_188:\n        /* \"#utility.yul\":4639:4756   */\n    tag_187:\n        /* \"#utility.yul\":4780:4843   */\n      tag_189\n        /* \"#utility.yul\":4835:4842   */\n      dup9\n        /* \"#utility.yul\":4826:4832   */\n      dup3\n        /* \"#utility.yul\":4815:4824   */\n      dup10\n        /* \"#utility.yul\":4811:4833   */\n      add\n        /* \"#utility.yul\":4780:4843   */\n      tag_106\n      jump\t// in\n    tag_189:\n        /* \"#utility.yul\":4770:4843   */\n      swap2\n      pop\n        /* \"#utility.yul\":4564:4853   */\n      pop\n        /* \"#utility.yul\":3773:4860   */\n      swap3\n      swap6\n      pop\n      swap3\n      swap6\n      swap1\n      swap4\n      pop\n      jump\t// out\n        /* \"#utility.yul\":4866:4965   */\n    tag_107:\n        /* \"#utility.yul\":4918:4924   */\n      0x00\n        /* \"#utility.yul\":4952:4957   */\n      dup2\n        /* \"#utility.yul\":4946:4958   */\n      mload\n        /* \"#utility.yul\":4936:4958   */\n      swap1\n      pop\n        /* \"#utility.yul\":4866:4965   */\n      swap2\n      swap1\n      pop\n      jump\t// out\n        /* \"#utility.yul\":4971:5151   */\n    tag_108:\n        /* \"#utility.yul\":5019:5096   */\n      0x4e487b7100000000000000000000000000000000000000000000000000000000\n        /* \"#utility.yul\":5016:5017   */\n      0x00\n        /* \"#utility.yul\":5009:5097   */\n      mstore\n        /* \"#utility.yul\":5116:5120   */\n      0x22\n        /* \"#utility.yul\":5113:5114   */\n      0x04\n        /* \"#utility.yul\":5106:5121   */\n      mstore\n        /* \"#utility.yul\":5140:5144   */\n      0x24\n        /* \"#utility.yul\":5137:5138   */\n      0x00\n        /* \"#utility.yul\":5130:5145   */\n      revert\n        /* \"#utility.yul\":5157:5477   */\n    tag_109:\n        /* \"#utility.yul\":5201:5207   */\n      0x00\n        /* \"#utility.yul\":5238:5239   */\n      0x02\n        /* \"#utility.yul\":5232:5236   */\n      dup3\n        /* \"#utility.yul\":5228:5240   */\n      div\n        /* \"#utility.yul\":5218:5240   */\n      swap1\n      pop\n        /* \"#utility.yul\":5285:5286   */\n      0x01\n        /* \"#utility.yul\":5279:5283   */\n      dup3\n        /* \"#utility.yul\":5275:5287   */\n      and\n        /* \"#utility.yul\":5306:5324   */\n      dup1\n        /* \"#utility.yul\":5296:5377   */\n      tag_193\n      jumpi\n        /* \"#utility.yul\":5362:5366   */\n      0x7f\n        /* \"#utility.yul\":5354:5360   */\n      dup3\n        /* \"#utility.yul\":5350:5367   */\n      and\n        /* \"#utility.yul\":5340:5367   */\n      swap2\n      pop\n        /* \"#utility.yul\":5296:5377   */\n    tag_193:\n        /* \"#utility.yul\":5424:5426   */\n      0x20\n        /* \"#utility.yul\":5416:5422   */\n      dup3\n        /* \"#utility.yul\":5413:5427   */\n      lt\n        /* \"#utility.yul\":5393:5411   */\n      dup2\n        /* \"#utility.yul\":5390:5428   */\n      sub\n        /* \"#utility.yul\":5387:5471   */\n      tag_194\n      jumpi\n        /* \"#utility.yul\":5443:5461   */\n      tag_195\n      tag_108\n      jump\t// in\n    tag_195:\n        /* \"#utility.yul\":5387:5471   */\n    tag_194:\n        /* \"#utility.yul\":5208:5477   */\n      pop\n        /* \"#utility.yul\":5157:5477   */\n      swap2\n      swap1\n      pop\n      jump\t// out\n        /* \"#utility.yul\":5483:5624   */\n    tag_110:\n        /* \"#utility.yul\":5532:5536   */\n      0x00\n        /* \"#utility.yul\":5555:5558   */\n      dup2\n        /* \"#utility.yul\":5547:5558   */\n      swap1\n      pop\n        /* \"#utility.yul\":5578:5581   */\n      dup2\n        /* \"#utility.yul\":5575:5576   */\n      0x00\n        /* \"#utility.yul\":5568:5582   */\n      mstore\n        /* \"#utility.yul\":5612:5616   */\n      0x20\n        /* \"#utility.yul\":5609:5610   */\n      0x00\n        /* \"#utility.yul\":5599:5617   */\n      keccak256\n        /* \"#utility.yul\":5591:5617   */\n      swap1\n      pop\n        /* \"#utility.yul\":5483:5624   */\n      swap2\n      swap1\n      pop\n      jump\t// out\n        /* \"#utility.yul\":5630:5723   */\n    tag_111:\n        /* \"#utility.yul\":5667:5673   */\n      0x00\n        /* \"#utility.yul\":5714:5716   */\n      0x20\n        /* \"#utility.yul\":5709:5711   */\n      0x1f\n        /* \"#utility.yul\":5702:5707   */\n      dup4\n        /* \"#utility.yul\":5698:5712   */\n      add\n        /* \"#utility.yul\":5694:5717   */\n      div\n        /* \"#utility.yul\":5684:5717   */\n      swap1\n      pop\n        /* \"#utility.yul\":5630:5723   */\n      swap2\n      swap1\n      pop\n      jump\t// out\n        /* \"#utility.yul\":5729:5836   */\n    tag_112:\n        /* \"#utility.yul\":5773:5781   */\n      0x00\n        /* \"#utility.yul\":5823:5828   */\n      dup3\n        /* \"#utility.yul\":5817:5821   */\n      dup3\n        /* \"#utility.yul\":5813:5829   */\n      shl\n        /* \"#utility.yul\":5792:5829   */\n      swap1\n      pop\n        /* \"#utility.yul\":5729:5836   */\n      swap3\n      swap2\n      pop\n      pop\n      jump\t// out\n        /* \"#utility.yul\":5842:6235   */\n    tag_113:\n        /* \"#utility.yul\":5911:5917   */\n      0x00\n        /* \"#utility.yul\":5961:5962   */\n      0x08\n        /* \"#utility.yul\":5949:5959   */\n      dup4\n        /* \"#utility.yul\":5945:5963   */\n      mul\n        /* \"#utility.yul\":5984:6081   */\n      tag_200\n        /* \"#utility.yul\":6014:6080   */\n      0xffffffffffffffffffffffffffffffffffffffffffffffffffffffffffffffff\n        /* \"#utility.yul\":6003:6012   */\n      dup3\n        /* \"#utility.yul\":5984:6081   */\n      tag_112\n      jump\t// in\n    tag_200:\n        /* \"#utility.yul\":6102:6141   */\n      tag_201\n        /* \"#utility.yul\":6132:6140   */\n      dup7\n        /* \"#utility.yul\":6121:6130   */\n      dup4\n        /* \"#utility.yul\":6102:6141   */\n      tag_112\n      jump\t// in\n    tag_201:\n        /* \"#utility.yul\":6090:6141   */\n      swap6\n      pop\n        /* \"#utility.yul\":6174:6178   */\n      dup1\n        /* \"#utility.yul\":6170:6179   */\n      not\n        /* \"#utility.yul\":6163:6168   */\n      dup5\n        /* \"#utility.yul\":6159:6180   */\n      and\n        /* \"#utility.yul\":6150:6180   */\n      swap4\n      pop\n        /* \"#utility.yul\":6223:6227   */\n      dup1\n        /* \"#utility.yul\":6213:6221   */\n      dup7\n        /* \"#utility.yul\":6209:6228   */\n      and\n        /* \"#utility.yul\":6202:6207   */\n      dup5\n        /* \"#utility.yul\":6199:6229   */\n      or\n        /* \"#utility.yul\":6189:6229   */\n      swap3\n      pop\n        /* \"#utility.yul\":5918:6235   */\n      pop\n      pop\n        /* \"#utility.yul\":5842:6235   */\n      swap4\n      swap3\n      pop\n      pop\n      pop\n      jump\t// out\n        /* \"#utility.yul\":6241:6318   */\n    tag_114:\n        /* \"#utility.yul\":6278:6285   */\n      0x00\n        /* \"#utility.yul\":6307:6312   */\n      dup2\n        /* \"#utility.yul\":6296:6312   */\n      swap1\n      pop\n        /* \"#utility.yul\":6241:6318   */\n      swap2\n      swap1\n      pop\n      jump\t// out\n        /* \"#utility.yul\":6324:6384   */\n    tag_115:\n        /* \"#utility.yul\":6352:6355   */\n      0x00\n        /* \"#utility.yul\":6373:6378   */\n      dup2\n        /* \"#utility.yul\":6366:6378   */\n      swap1\n      pop\n        /* \"#utility.yul\":6324:6384   */\n      swap2\n      swap1\n      pop\n      jump\t// out\n        /* \"#utility.yul\":6390:6532   */\n    tag_116:\n        /* \"#utility.yul\":6440:6449   */\n      0x00\n        /* \"#utility.yul\":6473:6526   */\n      tag_205\n        /* \"#utility.yul\":6491:6525   */\n      tag_206\n        /* \"#utility.yul\":6500:6524   */\n      tag_207\n        /* \"#utility.yul\":6518:6523   */\n      dup5\n        /* \"#utility.yul\":6500:6524   */\n      tag_114\n      jump\t// in\n    tag_207:\n        /* \"#utility.yul\":6491:6525   */\n      tag_115\n      jump\t// in\n    tag_206:\n        /* \"#utility.yul\":6473:6526   */\n      tag_114\n      jump\t// in\n    tag_205:\n        /* \"#utility.yul\":6460:6526   */\n      swap1\n      pop\n        /* \"#utility.yul\":6390:6532   */\n      swap2\n      swap1\n      pop\n      jump\t// out\n        /* \"#utility.yul\":6538:6613   */\n    tag_117:\n        /* \"#utility.yul\":6581:6584   */\n      0x00\n        /* \"#utility.yul\":6602:6607   */\n      dup2\n        /* \"#utility.yul\":6595:6607   */\n      swap1\n      pop\n        /* \"#utility.yul\":6538:6613   */\n      swap2\n      swap1\n      pop\n      jump\t// out\n        /* \"#utility.yul\":6619:6888   */\n    tag_118:\n        /* \"#utility.yul\":6729:6768   */\n      tag_210\n        /* \"#utility.yul\":6760:6767   */\n      dup4\n        /* \"#utility.yul\":6729:6768   */\n      tag_116\n      jump\t// in\n    tag_210:\n        /* \"#utility.yul\":6790:6881   */\n      tag_211\n        /* \"#utility.yul\":6839:6880   */\n      tag_212\n        /* \"#utility.yul\":6863:6879   */\n      dup3\n        /* \"#utility.yul\":6839:6880   */\n      tag_117\n      jump\t// in\n    tag_212:\n        /* \"#utility.yul\":6831:6837   */\n      dup5\n        /* \"#utility.yul\":6824:6828   */\n      dup5\n        /* \"#utility.yul\":6818:6829   */\n      sload\n        /* \"#utility.yul\":6790:6881   */\n      tag_113\n      jump\t// in\n    tag_211:\n        /* \"#utility.yul\":6784:6788   */\n      dup3\n        /* \"#utility.yul\":6777:6882   */\n      sstore\n        /* \"#utility.yul\":6695:6888   */\n      pop\n        /* \"#utility.yul\":6619:6888   */\n      pop\n      pop\n      pop\n      jump\t// out\n        /* \"#utility.yul\":6894:6967   */\n    tag_119:\n        /* \"#utility.yul\":6939:6942   */\n      0x00\n        /* \"#utility.yul\":6894:6967   */\n      swap1\n      jump\t// out\n        /* \"#utility.yul\":6973:7162   */\n    tag_120:\n        /* \"#utility.yul\":7050:7082   */\n      tag_215\n      tag_119\n      jump\t// in\n    tag_215:\n        /* \"#utility.yul\":7091:7156   */\n      tag_216\n        /* \"#utility.yul\":7149:7155   */\n      dup2\n        /* \"#utility.yul\":7141:7147   */\n      dup5\n        /* \"#utility.yul\":7135:7139   */\n      dup5\n        /* \"#utility.yul\":7091:7156   */\n      tag_118\n      jump\t// in\n    tag_216:\n        /* \"#utility.yul\":7026:7162   */\n      pop\n        /* \"#utility.yul\":6973:7162   */\n      pop\n      pop\n      jump\t// out\n        /* \"#utility.yul\":7168:7354   */\n    tag_121:\n        /* \"#utility.yul\":7228:7348   */\n    tag_218:\n        /* \"#utility.yul\":7245:7248   */\n      dup2\n        /* \"#utility.yul\":7238:7243   */\n      dup2\n        /* \"#utility.yul\":7235:7249   */\n      lt\n        /* \"#utility.yul\":7228:7348   */\n      iszero\n      tag_220\n      jumpi\n        /* \"#utility.yul\":7299:7338   */\n      tag_221\n        /* \"#utility.yul\":7336:7337   */\n      0x00\n        /* \"#utility.yul\":7329:7334   */\n      dup3\n        /* \"#utility.yul\":7299:7338   */\n      tag_120\n      jump\t// in\n    tag_221:\n        /* \"#utility.yul\":7272:7273   */\n      0x01\n        /* \"#utility.yul\":7265:7270   */\n      dup2\n        /* \"#utility.yul\":7261:7274   */\n      add\n        /* \"#utility.yul\":7252:7274   */\n      swap1\n      pop\n        /* \"#utility.yul\":7228:7348   */\n      jump(tag_218)\n    tag_220:\n        /* \"#utility.yul\":7168:7354   */\n      pop\n      pop\n      jump\t// out\n        /* \"#utility.yul\":7360:7903   */\n    tag_122:\n        /* \"#utility.yul\":7461:7463   */\n      0x1f\n        /* \"#utility.yul\":7456:7459   */\n      dup3\n        /* \"#utility.yul\":7453:7464   */\n      gt\n        /* \"#utility.yul\":7450:7896   */\n      iszero\n      tag_223\n      jumpi\n        /* \"#utility.yul\":7495:7533   */\n      tag_224\n        /* \"#utility.yul\":7527:7532   */\n      dup2\n        /* \"#utility.yul\":7495:7533   */\n      tag_110\n      jump\t// in\n    tag_224:\n        /* \"#utility.yul\":7579:7608   */\n      tag_225\n        /* \"#utility.yul\":7597:7607   */\n      dup5\n        /* \"#utility.yul\":7579:7608   */\n      tag_111\n      jump\t// in\n    tag_225:\n        /* \"#utility.yul\":7569:7577   */\n      dup2\n        /* \"#utility.yul\":7565:7609   */\n      add\n        /* \"#utility.yul\":7762:7764   */\n      0x20\n        /* \"#utility.yul\":7750:7760   */\n      dup6\n        /* \"#utility.yul\":7747:7765   */\n      lt\n        /* \"#utility.yul\":7744:7793   */\n      iszero\n      tag_226\n      jumpi\n        /* \"#utility.yul\":7783:7791   */\n      dup2\n        /* \"#utility.yul\":7768:7791   */\n      swap1\n      pop\n        /* \"#utility.yul\":7744:7793   */\n    tag_226:\n        /* \"#utility.yul\":7806:7886   */\n      tag_227\n        /* \"#utility.yul\":7862:7884   */\n      tag_228\n        /* \"#utility.yul\":7880:7883   */\n      dup6\n        /* \"#utility.yul\":7862:7884   */\n      tag_111\n      jump\t// in\n    tag_228:\n        /* \"#utility.yul\":7852:7860   */\n      dup4\n        /* \"#utility.yul\":7848:7885   */\n      add\n        /* \"#utility.yul\":7835:7846   */\n      dup3\n        /* \"#utility.yul\":7806:7886   */\n      tag_121\n      jump\t// in\n    tag_227:\n        /* \"#utility.yul\":7465:7896   */\n      pop\n      pop\n        /* \"#utility.yul\":7450:7896   */\n    tag_223:\n        /* \"#utility.yul\":7360:7903   */\n      pop\n      pop\n      pop\n      jump\t// out\n        /* \"#utility.yul\":7909:8026   */\n    tag_123:\n        /* \"#utility.yul\":7963:7971   */\n      0x00\n        /* \"#utility.yul\":8013:8018   */\n      dup3\n        /* \"#utility.yul\":8007:8011   */\n      dup3\n        /* \"#utility.yul\":8003:8019   */\n      shr\n        /* \"#utility.yul\":7982:8019   */\n      swap1\n      pop\n        /* \"#utility.yul\":7909:8026   */\n      swap3\n      swap2\n      pop\n      pop\n      jump\t// out\n        /* \"#utility.yul\":8032:8201   */\n    tag_124:\n        /* \"#utility.yul\":8076:8082   */\n      0x00\n        /* \"#utility.yul\":8109:8160   */\n      tag_231\n        /* \"#utility.yul\":8157:8158   */\n      0x00\n        /* \"#utility.yul\":8153:8159   */\n      not\n        /* \"#utility.yul\":8145:8150   */\n      dup5\n        /* \"#utility.yul\":8142:8143   */\n      0x08\n        /* \"#utility.yul\":8138:8151   */\n      mul\n        /* \"#utility.yul\":8109:8160   */\n      tag_123\n      jump\t// in\n    tag_231:\n        /* \"#utility.yul\":8105:8161   */\n      not\n        /* \"#utility.yul\":8190:8194   */\n      dup1\n        /* \"#utility.yul\":8184:8188   */\n      dup4\n        /* \"#utility.yul\":8180:8195   */\n      and\n        /* \"#utility.yul\":8170:8195   */\n      swap2\n      pop\n        /* \"#utility.yul\":8083:8201   */\n      pop\n        /* \"#utility.yul\":8032:8201   */\n      swap3\n      swap2\n      pop\n      pop\n      jump\t// out\n        /* \"#utility.yul\":8206:8501   */\n    tag_125:\n        /* \"#utility.yul\":8282:8286   */\n      0x00\n        /* \"#utility.yul\":8428:8457   */\n      tag_233\n        /* \"#utility.yul\":8453:8456   */\n      dup4\n        /* \"#utility.yul\":8447:8451   */\n      dup4\n        /* \"#utility.yul\":8428:8457   */\n      tag_124\n      jump\t// in\n    tag_233:\n        /* \"#utility.yul\":8420:8457   */\n      swap2\n      pop\n        /* \"#utility.yul\":8490:8493   */\n      dup3\n        /* \"#utility.yul\":8487:8488   */\n      0x02\n        /* \"#utility.yul\":8483:8494   */\n      mul\n        /* \"#utility.yul\":8477:8481   */\n      dup3\n        /* \"#utility.yul\":8474:8495   */\n      or\n        /* \"#utility.yul\":8466:8495   */\n      swap1\n      pop\n        /* \"#utility.yul\":8206:8501   */\n      swap3\n      swap2\n      pop\n      pop\n      jump\t// out\n        /* \"#utility.yul\":8506:9901   */\n    tag_25:\n        /* \"#utility.yul\":8623:8660   */\n      tag_235\n        /* \"#utility.yul\":8656:8659   */\n      dup3\n        /* \"#utility.yul\":8623:8660   */\n      tag_107\n      jump\t// in\n    tag_235:\n        /* \"#utility.yul\":8725:8743   */\n      0xffffffffffffffff\n        /* \"#utility.yul\":8717:8723   */\n      dup2\n        /* \"#utility.yul\":8714:8744   */\n      gt\n        /* \"#utility.yul\":8711:8767   */\n      iszero\n      tag_236\n      jumpi\n        /* \"#utility.yul\":8747:8765   */\n      tag_237\n      tag_56\n      jump\t// in\n    tag_237:\n        /* \"#utility.yul\":8711:8767   */\n    tag_236:\n        /* \"#utility.yul\":8791:8829   */\n      tag_238\n        /* \"#utility.yul\":8823:8827   */\n      dup3\n        /* \"#utility.yul\":8817:8828   */\n      sload\n        /* \"#utility.yul\":8791:8829   */\n      tag_109\n      jump\t// in\n    tag_238:\n        /* \"#utility.yul\":8876:8943   */\n      tag_239\n        /* \"#utility.yul\":8936:8942   */\n      dup3\n        /* \"#utility.yul\":8928:8934   */\n      dup3\n        /* \"#utility.yul\":8922:8926   */\n      dup6\n        /* \"#utility.yul\":8876:8943   */\n      tag_122\n      jump\t// in\n    tag_239:\n        /* \"#utility.yul\":8970:8971   */\n      0x00\n        /* \"#utility.yul\":8994:8998   */\n      0x20\n        /* \"#utility.yul\":8981:8998   */\n      swap1\n      pop\n        /* \"#utility.yul\":9026:9028   */\n      0x1f\n        /* \"#utility.yul\":9018:9024   */\n      dup4\n        /* \"#utility.yul\":9015:9029   */\n      gt\n        /* \"#utility.yul\":9043:9044   */\n      0x01\n        /* \"#utility.yul\":9038:9656   */\n      dup2\n      eq\n      tag_241\n      jumpi\n        /* \"#utility.yul\":9700:9701   */\n      0x00\n        /* \"#utility.yul\":9717:9723   */\n      dup5\n        /* \"#utility.yul\":9714:9791   */\n      iszero\n      tag_242\n      jumpi\n        /* \"#utility.yul\":9766:9775   */\n      dup3\n        /* \"#utility.yul\":9761:9764   */\n      dup8\n        /* \"#utility.yul\":9757:9776   */\n      add\n        /* \"#utility.yul\":9751:9777   */\n      mload\n        /* \"#utility.yul\":9742:9777   */\n      swap1\n      pop\n        /* \"#utility.yul\":9714:9791   */\n    tag_242:\n        /* \"#utility.yul\":9817:9884   */\n      tag_243\n        /* \"#utility.yul\":9877:9883   */\n      dup6\n        /* \"#utility.yul\":9870:9875   */\n      dup3\n        /* \"#utility.yul\":9817:9884   */\n      tag_125\n      jump\t// in\n    tag_243:\n        /* \"#utility.yul\":9811:9815   */\n      dup7\n        /* \"#utility.yul\":9804:9885   */\n      sstore\n        /* \"#utility.yul\":9673:9895   */\n      pop\n        /* \"#utility.yul\":9008:9895   */\n      jump(tag_240)\n        /* \"#utility.yul\":9038:9656   */\n    tag_241:\n        /* \"#utility.yul\":9090:9094   */\n      0x1f\n        /* \"#utility.yul\":9086:9095   */\n      not\n        /* \"#utility.yul\":9078:9084   */\n      dup5\n        /* \"#utility.yul\":9074:9096   */\n      and\n        /* \"#utility.yul\":9124:9161   */\n      tag_244\n        /* \"#utility.yul\":9156:9160   */\n      dup7\n        /* \"#utility.yul\":9124:9161   */\n      tag_110\n      jump\t// in\n    tag_244:\n        /* \"#utility.yul\":9183:9184   */\n      0x00\n        /* \"#utility.yul\":9197:9405   */\n    tag_245:\n        /* \"#utility.yul\":9211:9218   */\n      dup3\n        /* \"#utility.yul\":9208:9209   */\n      dup2\n        /* \"#utility.yul\":9205:9219   */\n      lt\n        /* \"#utility.yul\":9197:9405   */\n      iszero\n      tag_247\n      jumpi\n        /* \"#utility.yul\":9290:9299   */\n      dup5\n        /* \"#utility.yul\":9285:9288   */\n      dup10\n        /* \"#utility.yul\":9281:9300   */\n      add\n        /* \"#utility.yul\":9275:9301   */\n      mload\n        /* \"#utility.yul\":9267:9273   */\n      dup3\n        /* \"#utility.yul\":9260:9302   */\n      sstore\n        /* \"#utility.yul\":9341:9342   */\n      0x01\n        /* \"#utility.yul\":9333:9339   */\n      dup3\n        /* \"#utility.yul\":9329:9343   */\n      add\n        /* \"#utility.yul\":9319:9343   */\n      swap2\n      pop\n        /* \"#utility.yul\":9388:9390   */\n      0x20\n        /* \"#utility.yul\":9377:9386   */\n      dup6\n        /* \"#utility.yul\":9373:9391   */\n      add\n        /* \"#utility.yul\":9360:9391   */\n      swap5\n      pop\n        /* \"#utility.yul\":9234:9238   */\n      0x20\n        /* \"#utility.yul\":9231:9232   */\n      dup2\n        /* \"#utility.yul\":9227:9239   */\n      add\n        /* \"#utility.yul\":9222:9239   */\n      swap1\n      pop\n        /* \"#utility.yul\":9197:9405   */\n      jump(tag_245)\n    tag_247:\n        /* \"#utility.yul\":9433:9439   */\n      dup7\n        /* \"#utility.yul\":9424:9431   */\n      dup4\n        /* \"#utility.yul\":9421:9440   */\n      lt\n        /* \"#utility.yul\":9418:9597   */\n      iszero\n      tag_248\n      jumpi\n        /* \"#utility.yul\":9491:9500   */\n      dup5\n        /* \"#utility.yul\":9486:9489   */\n      dup10\n        /* \"#utility.yul\":9482:9501   */\n      add\n        /* \"#utility.yul\":9476:9502   */\n      mload\n        /* \"#utility.yul\":9534:9582   */\n      tag_249\n        /* \"#utility.yul\":9576:9580   */\n      0x1f\n        /* \"#utility.yul\":9568:9574   */\n      dup10\n        /* \"#utility.yul\":9564:9581   */\n      and\n        /* \"#utility.yul\":9553:9562   */\n      dup3\n        /* \"#utility.yul\":9534:9582   */\n      tag_124\n      jump\t// in\n    tag_249:\n        /* \"#utility.yul\":9526:9532   */\n      dup4\n        /* \"#utility.yul\":9519:9583   */\n      sstore\n        /* \"#utility.yul\":9441:9597   */\n      pop\n        /* \"#utility.yul\":9418:9597   */\n    tag_248:\n        /* \"#utility.yul\":9643:9644   */\n      0x01\n        /* \"#utility.yul\":9639:9640   */\n      0x02\n        /* \"#utility.yul\":9631:9637   */\n      dup9\n        /* \"#utility.yul\":9627:9641   */\n      mul\n        /* \"#utility.yul\":9623:9645   */\n      add\n        /* \"#utility.yul\":9617:9621   */\n      dup9\n        /* \"#utility.yul\":9610:9646   */\n      sstore\n        /* \"#utility.yul\":9045:9656   */\n      pop\n      pop\n      pop\n        /* \"#utility.yul\":9008:9895   */\n    tag_240:\n      pop\n        /* \"#utility.yul\":8598:9901   */\n      pop\n      pop\n      pop\n        /* \"#utility.yul\":8506:9901   */\n      pop\n      pop\n      jump\t// out\n        /* \"#utility.yul\":9907:10087   */\n    tag_39:\n        /* \"#utility.yul\":9955:10032   */\n      0x4e487b7100000000000000000000000000000000000000000000000000000000\n        /* \"#utility.yul\":9952:9953   */\n      0x00\n        /* \"#utility.yul\":9945:10033   */\n      mstore\n        /* \"#utility.yul\":10052:10056   */\n      0x32\n        /* \"#utility.yul\":10049:10050   */\n      0x04\n        /* \"#utility.yul\":10042:10057   */\n      mstore\n        /* \"#utility.yul\":10076:10080   */\n      0x24\n        /* \"#utility.yul\":10073:10074   */\n      0x00\n        /* \"#utility.yul\":10066:10081   */\n      revert\n        /* \"#utility.yul\":10093:10273   */\n    tag_126:\n        /* \"#utility.yul\":10141:10218   */\n      0x4e487b7100000000000000000000000000000000000000000000000000000000\n        /* \"#utility.yul\":10138:10139   */\n      0x00\n        /* \"#utility.yul\":10131:10219   */\n      mstore\n        /* \"#utility.yul\":10238:10242   */\n      0x11\n        /* \"#utility.yul\":10235:10236   */\n      0x04\n        /* \"#utility.yul\":10228:10243   */\n      mstore\n        /* \"#utility.yul\":10262:10266   */\n      0x24\n        /* \"#utility.yul\":10259:10260   */\n      0x00\n        /* \"#utility.yul\":10252:10267   */\n      revert\n        /* \"#utility.yul\":10279:10446   */\n    tag_43:\n        /* \"#utility.yul\":10316:10319   */\n      0x00\n        /* \"#utility.yul\":10339:10361   */\n      tag_253\n        /* \"#utility.yul\":10355:10360   */\n      dup3\n        /* \"#utility.yul\":10339:10361   */\n      tag_95\n      jump\t// in\n    tag_253:\n        /* \"#utility.yul\":10330:10361   */\n      swap2\n      pop\n        /* \"#utility.yul\":10383:10387   */\n      0xff\n        /* \"#utility.yul\":10376:10381   */\n      dup3\n        /* \"#utility.yul\":10373:10388   */\n      sub\n        /* \"#utility.yul\":10370:10411   */\n      tag_254\n      jumpi\n        /* \"#utility.yul\":10391:10409   */\n      tag_255\n      tag_126\n      jump\t// in\n    tag_255:\n        /* \"#utility.yul\":10370:10411   */\n    tag_254:\n        /* \"#utility.yul\":10438:10439   */\n      0x01\n        /* \"#utility.yul\":10431:10436   */\n      dup3\n        /* \"#utility.yul\":10427:10440   */\n      add\n        /* \"#utility.yul\":10420:10440   */\n      swap1\n      pop\n        /* \"#utility.yul\":10279:10446   */\n      swap2\n      swap1\n      pop\n      jump\t// out\n        /* \"#utility.yul\":10452:10600   */\n    tag_127:\n        /* \"#utility.yul\":10554:10565   */\n      0x00\n        /* \"#utility.yul\":10591:10594   */\n      dup2\n        /* \"#utility.yul\":10576:10594   */\n      swap1\n      pop\n        /* \"#utility.yul\":10452:10600   */\n      swap3\n      swap2\n      pop\n      pop\n      jump\t// out\n        /* \"#utility.yul\":10606:10852   */\n    tag_128:\n        /* \"#utility.yul\":10687:10688   */\n      0x00\n        /* \"#utility.yul\":10697:10810   */\n    tag_258:\n        /* \"#utility.yul\":10711:10717   */\n      dup4\n        /* \"#utility.yul\":10708:10709   */\n      dup2\n        /* \"#utility.yul\":10705:10718   */\n      lt\n        /* \"#utility.yul\":10697:10810   */\n      iszero\n      tag_260\n      jumpi\n        /* \"#utility.yul\":10796:10797   */\n      dup1\n        /* \"#utility.yul\":10791:10794   */\n      dup3\n        /* \"#utility.yul\":10787:10798   */\n      add\n        /* \"#utility.yul\":10781:10799   */\n      mload\n        /* \"#utility.yul\":10777:10778   */\n      dup2\n        /* \"#utility.yul\":10772:10775   */\n      dup5\n        /* \"#utility.yul\":10768:10779   */\n      add\n        /* \"#utility.yul\":10761:10800   */\n      mstore\n        /* \"#utility.yul\":10733:10735   */\n      0x20\n        /* \"#utility.yul\":10730:10731   */\n      dup2\n        /* \"#utility.yul\":10726:10736   */\n      add\n        /* \"#utility.yul\":10721:10736   */\n      swap1\n      pop\n        /* \"#utility.yul\":10697:10810   */\n      jump(tag_258)\n    tag_260:\n        /* \"#utility.yul\":10844:10845   */\n      0x00\n        /* \"#utility.yul\":10835:10841   */\n      dup5\n        /* \"#utility.yul\":10830:10833   */\n      dup5\n        /* \"#utility.yul\":10826:10842   */\n      add\n        /* \"#utility.yul\":10819:10846   */\n      mstore\n        /* \"#utility.yul\":10668:10852   */\n      pop\n        /* \"#utility.yul\":10606:10852   */\n      pop\n      pop\n      pop\n      jump\t// out\n        /* \"#utility.yul\":10858:11248   */\n    tag_129:\n        /* \"#utility.yul\":10964:10967   */\n      0x00\n        /* \"#utility.yul\":10992:11031   */\n      tag_262\n        /* \"#utility.yul\":11025:11030   */\n      dup3\n        /* \"#utility.yul\":10992:11031   */\n      tag_107\n      jump\t// in\n    tag_262:\n        /* \"#utility.yul\":11047:11136   */\n      tag_263\n        /* \"#utility.yul\":11129:11135   */\n      dup2\n        /* \"#utility.yul\":11124:11127   */\n      dup6\n        /* \"#utility.yul\":11047:11136   */\n      tag_127\n      jump\t// in\n    tag_263:\n        /* \"#utility.yul\":11040:11136   */\n      swap4\n      pop\n        /* \"#utility.yul\":11145:11210   */\n      tag_264\n        /* \"#utility.yul\":11203:11209   */\n      dup2\n        /* \"#utility.yul\":11198:11201   */\n      dup6\n        /* \"#utility.yul\":11191:11195   */\n      0x20\n        /* \"#utility.yul\":11184:11189   */\n      dup7\n        /* \"#utility.yul\":11180:11196   */\n      add\n        /* \"#utility.yul\":11145:11210   */\n      tag_128\n      jump\t// in\n    tag_264:\n        /* \"#utility.yul\":11235:11241   */\n      dup1\n        /* \"#utility.yul\":11230:11233   */\n      dup5\n        /* \"#utility.yul\":11226:11242   */\n      add\n        /* \"#utility.yul\":11219:11242   */\n      swap2\n      pop\n        /* \"#utility.yul\":10968:11248   */\n      pop\n        /* \"#utility.yul\":10858:11248   */\n      swap3\n      swap2\n      pop\n      pop\n      jump\t// out\n        /* \"#utility.yul\":11254:11529   */\n    tag_46:\n        /* \"#utility.yul\":11386:11389   */\n      0x00\n        /* \"#utility.yul\":11408:11503   */\n      tag_266\n        /* \"#utility.yul\":11499:11502   */\n      dup3\n        /* \"#utility.yul\":11490:11496   */\n      dup5\n        /* \"#utility.yul\":11408:11503   */\n      tag_129\n      jump\t// in\n    tag_266:\n        /* \"#utility.yul\":11401:11503   */\n      swap2\n      pop\n        /* \"#utility.yul\":11520:11523   */\n      dup2\n        /* \"#utility.yul\":11513:11523   */\n      swap1\n      pop\n        /* \"#utility.yul\":11254:11529   */\n      swap3\n      swap2\n      pop\n      pop\n      jump\t// out\n        /* \"#utility.yul\":11535:11970   */\n    tag_52:\n        /* \"#utility.yul\":11715:11718   */\n      0x00\n        /* \"#utility.yul\":11737:11832   */\n      tag_268\n        /* \"#utility.yul\":11828:11831   */\n      dup3\n        /* \"#utility.yul\":11819:11825   */\n      dup6\n        /* \"#utility.yul\":11737:11832   */\n      tag_129\n      jump\t// in\n    tag_268:\n        /* \"#utility.yul\":11730:11832   */\n      swap2\n      pop\n        /* \"#utility.yul\":11849:11944   */\n      tag_269\n        /* \"#utility.yul\":11940:11943   */\n      dup3\n        /* \"#utility.yul\":11931:11937   */\n      dup5\n        /* \"#utility.yul\":11849:11944   */\n      tag_129\n      jump\t// in\n    tag_269:\n        /* \"#utility.yul\":11842:11944   */\n      swap2\n      pop\n        /* \"#utility.yul\":11961:11964   */\n      dup2\n        /* \"#utility.yul\":11954:11964   */\n      swap1\n      pop\n        /* \"#utility.yul\":11535:11970   */\n      swap4\n      swap3\n      pop\n      pop\n      pop\n      jump\t// out\n        /* \"#utility.yul\":11976:12167   */\n    tag_66:\n        /* \"#utility.yul\":12016:12019   */\n      0x00\n        /* \"#utility.yul\":12035:12055   */\n      tag_271\n        /* \"#utility.yul\":12053:12054   */\n      dup3\n        /* \"#utility.yul\":12035:12055   */\n      tag_114\n      jump\t// in\n    tag_271:\n        /* \"#utility.yul\":12030:12055   */\n      swap2\n      pop\n        /* \"#utility.yul\":12069:12089   */\n      tag_272\n        /* \"#utility.yul\":12087:12088   */\n      dup4\n        /* \"#utility.yul\":12069:12089   */\n      tag_114\n      jump\t// in\n    tag_272:\n        /* \"#utility.yul\":12064:12089   */\n      swap3\n      pop\n        /* \"#utility.yul\":12112:12113   */\n      dup3\n        /* \"#utility.yul\":12109:12110   */\n      dup3\n        /* \"#utility.yul\":12105:12114   */\n      add\n        /* \"#utility.yul\":12098:12114   */\n      swap1\n      pop\n        /* \"#utility.yul\":12133:12136   */\n      dup1\n        /* \"#utility.yul\":12130:12131   */\n      dup3\n        /* \"#utility.yul\":12127:12137   */\n      gt\n        /* \"#utility.yul\":12124:12160   */\n      iszero\n      tag_273\n      jumpi\n        /* \"#utility.yul\":12140:12158   */\n      tag_274\n      tag_126\n      jump\t// in\n    tag_274:\n        /* \"#utility.yul\":12124:12160   */\n    tag_273:\n        /* \"#utility.yul\":11976:12167   */\n      swap3\n      swap2\n      pop\n      pop\n      jump\t// out\n        /* \"#utility.yul\":12173:12583   */\n    tag_72:\n        /* \"#utility.yul\":12213:12220   */\n      0x00\n        /* \"#utility.yul\":12236:12256   */\n      tag_276\n        /* \"#utility.yul\":12254:12255   */\n      dup3\n        /* \"#utility.yul\":12236:12256   */\n      tag_114\n      jump\t// in\n    tag_276:\n        /* \"#utility.yul\":12231:12256   */\n      swap2\n      pop\n        /* \"#utility.yul\":12270:12290   */\n      tag_277\n        /* \"#utility.yul\":12288:12289   */\n      dup4\n        /* \"#utility.yul\":12270:12290   */\n      tag_114\n      jump\t// in\n    tag_277:\n        /* \"#utility.yul\":12265:12290   */\n      swap3\n      pop\n        /* \"#utility.yul\":12325:12326   */\n      dup3\n        /* \"#utility.yul\":12322:12323   */\n      dup3\n        /* \"#utility.yul\":12318:12327   */\n      mul\n        /* \"#utility.yul\":12347:12377   */\n      tag_278\n        /* \"#utility.yul\":12365:12376   */\n      dup2\n        /* \"#utility.yul\":12347:12377   */\n      tag_114\n      jump\t// in\n    tag_278:\n        /* \"#utility.yul\":12336:12377   */\n      swap2\n      pop\n        /* \"#utility.yul\":12526:12527   */\n      dup3\n        /* \"#utility.yul\":12517:12524   */\n      dup3\n        /* \"#utility.yul\":12513:12528   */\n      div\n        /* \"#utility.yul\":12510:12511   */\n      dup5\n        /* \"#utility.yul\":12507:12529   */\n      eq\n        /* \"#utility.yul\":12487:12488   */\n      dup4\n        /* \"#utility.yul\":12480:12489   */\n      iszero\n        /* \"#utility.yul\":12460:12543   */\n      or\n        /* \"#utility.yul\":12437:12576   */\n      tag_279\n      jumpi\n        /* \"#utility.yul\":12556:12574   */\n      tag_280\n      tag_126\n      jump\t// in\n    tag_280:\n        /* \"#utility.yul\":12437:12576   */\n    tag_279:\n        /* \"#utility.yul\":12221:12583   */\n      pop\n        /* \"#utility.yul\":12173:12583   */\n      swap3\n      swap2\n      pop\n      pop\n      jump\t// out\n\n    auxdata: 0xa2646970667358221220e3b248295f7cdabc586014f68f02208bf0c9537e14f126526454542c1d465e7564736f6c63430008160033\n}\n",
				"bytecode": {
					"linkReferences": {},
					"object": "608060405234801561000f575f80fd5b50610ec58061001d5f395ff3fe608060405234801561000f575f80fd5b5060043610610029575f3560e01c8063fc2cc9ee1461002d575b5f80fd5b6100476004803603810190610042919061098f565b610049565b005b5f805f1b90505f81871461005d5786610068565b61006786866102fd565b5b90505f610075828861033c565b806100865750610085828861033c565b5b9050806101505760015f8873ffffffffffffffffffffffffffffffffffffffff1673ffffffffffffffffffffffffffffffffffffffff1681526020019081526020015f2082908060018154018082558091505060019003905f5260205f20015f909190919091505560015f8773ffffffffffffffffffffffffffffffffffffffff1673ffffffffffffffffffffffffffffffffffffffff1681526020019081526020015f2082908060018154018082558091505060019003905f5260205f20015f90919091909150555b5f61015a85610412565b90505f8215610183575f808581526020019081526020015f2060040154820361018257600190505b5b6040518060e001604052808a73ffffffffffffffffffffffffffffffffffffffff1681526020018973ffffffffffffffffffffffffffffffffffffffff1681526020018860ff1681526020018260ff168152602001428152602001878152602001838152505f808681526020019081526020015f205f820151815f015f6101000a81548173ffffffffffffffffffffffffffffffffffffffff021916908373ffffffffffffffffffffffffffffffffffffffff1602179055506020820151816001015f6101000a81548173ffffffffffffffffffffffffffffffffffffffff021916908373ffffffffffffffffffffffffffffffffffffffff16021790555060408201518160010160146101000a81548160ff021916908360ff16021790555060608201518160010160156101000a81548160ff021916908360ff1602179055506080820151816002015560a08201518160030190816102e39190610c2f565b5060c0820151816004015590505050505050505050505050565b5f8061030884610441565b90505f61031484610441565b90505f6103218383610458565b90505f61032d82610412565b90508094505050505092915050565b5f805f90505f5b60015f8573ffffffffffffffffffffffffffffffffffffffff1673ffffffffffffffffffffffffffffffffffffffff1681526020019081526020015f20805490508160ff161015610407578460015f8673ffffffffffffffffffffffffffffffffffffffff1673ffffffffffffffffffffffffffffffffffffffff1681526020019081526020015f208260ff16815481106103e1576103e0610cfe565b5b905f5260205f2001540315610407576001915080806103ff90610d58565b915050610343565b508091505092915050565b5f816040516020016104249190610de2565b604051602081830303815290604052805190602001209050919050565b60605f61044d83610484565b905080915050919050565b6060828260405160200161046d929190610df8565b604051602081830303815290604052905092915050565b60605f8273ffffffffffffffffffffffffffffffffffffffff165f1b90505f6040518060400160405280601081526020017f303132333435363738396162636465660000000000000000000000000000000081525090505f602a67ffffffffffffffff8111156104f7576104f661086b565b5b6040519080825280601f01601f1916602001820160405280156105295781602001600182028036833780820191505090505b5090507f3000000000000000000000000000000000000000000000000000000000000000815f815181106105605761055f610cfe565b5b60200101907effffffffffffffffffffffffffffffffffffffffffffffffffffffffffffff191690815f1a9053507f7800000000000000000000000000000000000000000000000000000000000000816001815181106105c3576105c2610cfe565b5b60200101907effffffffffffffffffffffffffffffffffffffffffffffffffffffffffffff191690815f1a9053505f5b60148110156107735782600485600c8461060d9190610e1b565b6020811061061e5761061d610cfe565b5b1a60f81b7effffffffffffffffffffffffffffffffffffffffffffffffffffffffffffff1916901c60f81c60ff168151811061065d5761065c610cfe565b5b602001015160f81c60f81b826002836106769190610e4e565b60026106829190610e1b565b8151811061069357610692610cfe565b5b60200101907effffffffffffffffffffffffffffffffffffffffffffffffffffffffffffff191690815f1a90535082600f60f81b85600c846106d59190610e1b565b602081106106e6576106e5610cfe565b5b1a60f81b1660f81c60ff168151811061070257610701610cfe565b5b602001015160f81c60f81b8260028361071b9190610e4e565b60036107279190610e1b565b8151811061073857610737610cfe565b5b60200101907effffffffffffffffffffffffffffffffffffffffffffffffffffffffffffff191690815f1a90535080806001019150506105f3565b50809350505050919050565b5f604051905090565b5f80fd5b5f80fd5b5f819050919050565b6107a281610790565b81146107ac575f80fd5b50565b5f813590506107bd81610799565b92915050565b5f73ffffffffffffffffffffffffffffffffffffffff82169050919050565b5f6107ec826107c3565b9050919050565b6107fc816107e2565b8114610806575f80fd5b50565b5f81359050610817816107f3565b92915050565b5f60ff82169050919050565b6108328161081d565b811461083c575f80fd5b50565b5f8135905061084d81610829565b92915050565b5f80fd5b5f80fd5b5f601f19601f8301169050919050565b7f4e487b71000000000000000000000000000000000000000000000000000000005f52604160045260245ffd5b6108a18261085b565b810181811067ffffffffffffffff821117156108c0576108bf61086b565b5b80604052505050565b5f6108d261077f565b90506108de8282610898565b919050565b5f67ffffffffffffffff8211156108fd576108fc61086b565b5b6109068261085b565b9050602081019050919050565b828183375f83830152505050565b5f61093361092e846108e3565b6108c9565b90508281526020810184848401111561094f5761094e610857565b5b61095a848285610913565b509392505050565b5f82601f83011261097657610975610853565b5b8135610986848260208601610921565b91505092915050565b5f805f805f60a086880312156109a8576109a7610788565b5b5f6109b5888289016107af565b95505060206109c688828901610809565b94505060406109d788828901610809565b93505060606109e88882890161083f565b925050608086013567ffffffffffffffff811115610a0957610a0861078c565b5b610a1588828901610962565b9150509295509295909350565b5f81519050919050565b7f4e487b71000000000000000000000000000000000000000000000000000000005f52602260045260245ffd5b5f6002820490506001821680610a7057607f821691505b602082108103610a8357610a82610a2c565b5b50919050565b5f819050815f5260205f209050919050565b5f6020601f8301049050919050565b5f82821b905092915050565b5f60088302610ae57fffffffffffffffffffffffffffffffffffffffffffffffffffffffffffffffff82610aaa565b610aef8683610aaa565b95508019841693508086168417925050509392505050565b5f819050919050565b5f819050919050565b5f610b33610b2e610b2984610b07565b610b10565b610b07565b9050919050565b5f819050919050565b610b4c83610b19565b610b60610b5882610b3a565b848454610ab6565b825550505050565b5f90565b610b74610b68565b610b7f818484610b43565b505050565b5b81811015610ba257610b975f82610b6c565b600181019050610b85565b5050565b601f821115610be757610bb881610a89565b610bc184610a9b565b81016020851015610bd0578190505b610be4610bdc85610a9b565b830182610b84565b50505b505050565b5f82821c905092915050565b5f610c075f1984600802610bec565b1980831691505092915050565b5f610c1f8383610bf8565b9150826002028217905092915050565b610c3882610a22565b67ffffffffffffffff811115610c5157610c5061086b565b5b610c5b8254610a59565b610c66828285610ba6565b5f60209050601f831160018114610c97575f8415610c85578287015190505b610c8f8582610c14565b865550610cf6565b601f198416610ca586610a89565b5f5b82811015610ccc57848901518255600182019150602085019450602081019050610ca7565b86831015610ce95784890151610ce5601f891682610bf8565b8355505b6001600288020188555050505b505050505050565b7f4e487b71000000000000000000000000000000000000000000000000000000005f52603260045260245ffd5b7f4e487b71000000000000000000000000000000000000000000000000000000005f52601160045260245ffd5b5f610d628261081d565b915060ff8203610d7557610d74610d2b565b5b600182019050919050565b5f81905092915050565b5f5b83811015610da7578082015181840152602081019050610d8c565b5f8484015250505050565b5f610dbc82610a22565b610dc68185610d80565b9350610dd6818560208601610d8a565b80840191505092915050565b5f610ded8284610db2565b915081905092915050565b5f610e038285610db2565b9150610e0f8284610db2565b91508190509392505050565b5f610e2582610b07565b9150610e3083610b07565b9250828201905080821115610e4857610e47610d2b565b5b92915050565b5f610e5882610b07565b9150610e6383610b07565b9250828202610e7181610b07565b91508282048414831517610e8857610e87610d2b565b5b509291505056fea2646970667358221220e3b248295f7cdabc586014f68f02208bf0c9537e14f126526454542c1d465e7564736f6c63430008160033",
					"opcodes": "PUSH1 0x80 PUSH1 0x40 MSTORE CALLVALUE DUP1 ISZERO PUSH2 0xF JUMPI PUSH0 DUP1 REVERT JUMPDEST POP PUSH2 0xEC5 DUP1 PUSH2 0x1D PUSH0 CODECOPY PUSH0 RETURN INVALID PUSH1 0x80 PUSH1 0x40 MSTORE CALLVALUE DUP1 ISZERO PUSH2 0xF JUMPI PUSH0 DUP1 REVERT JUMPDEST POP PUSH1 0x4 CALLDATASIZE LT PUSH2 0x29 JUMPI PUSH0 CALLDATALOAD PUSH1 0xE0 SHR DUP1 PUSH4 0xFC2CC9EE EQ PUSH2 0x2D JUMPI JUMPDEST PUSH0 DUP1 REVERT JUMPDEST PUSH2 0x47 PUSH1 0x4 DUP1 CALLDATASIZE SUB DUP2 ADD SWAP1 PUSH2 0x42 SWAP2 SWAP1 PUSH2 0x98F JUMP JUMPDEST PUSH2 0x49 JUMP JUMPDEST STOP JUMPDEST PUSH0 DUP1 PUSH0 SHL SWAP1 POP PUSH0 DUP2 DUP8 EQ PUSH2 0x5D JUMPI DUP7 PUSH2 0x68 JUMP JUMPDEST PUSH2 0x67 DUP7 DUP7 PUSH2 0x2FD JUMP JUMPDEST JUMPDEST SWAP1 POP PUSH0 PUSH2 0x75 DUP3 DUP9 PUSH2 0x33C JUMP JUMPDEST DUP1 PUSH2 0x86 JUMPI POP PUSH2 0x85 DUP3 DUP9 PUSH2 0x33C JUMP JUMPDEST JUMPDEST SWAP1 POP DUP1 PUSH2 0x150 JUMPI PUSH1 0x1 PUSH0 DUP9 PUSH20 0xFFFFFFFFFFFFFFFFFFFFFFFFFFFFFFFFFFFFFFFF AND PUSH20 0xFFFFFFFFFFFFFFFFFFFFFFFFFFFFFFFFFFFFFFFF AND DUP2 MSTORE PUSH1 0x20 ADD SWAP1 DUP2 MSTORE PUSH1 0x20 ADD PUSH0 KECCAK256 DUP3 SWAP1 DUP1 PUSH1 0x1 DUP2 SLOAD ADD DUP1 DUP3 SSTORE DUP1 SWAP2 POP POP PUSH1 0x1 SWAP1 SUB SWAP1 PUSH0 MSTORE PUSH1 0x20 PUSH0 KECCAK256 ADD PUSH0 SWAP1 SWAP2 SWAP1 SWAP2 SWAP1 SWAP2 POP SSTORE PUSH1 0x1 PUSH0 DUP8 PUSH20 0xFFFFFFFFFFFFFFFFFFFFFFFFFFFFFFFFFFFFFFFF AND PUSH20 0xFFFFFFFFFFFFFFFFFFFFFFFFFFFFFFFFFFFFFFFF AND DUP2 MSTORE PUSH1 0x20 ADD SWAP1 DUP2 MSTORE PUSH1 0x20 ADD PUSH0 KECCAK256 DUP3 SWAP1 DUP1 PUSH1 0x1 DUP2 SLOAD ADD DUP1 DUP3 SSTORE DUP1 SWAP2 POP POP PUSH1 0x1 SWAP1 SUB SWAP1 PUSH0 MSTORE PUSH1 0x20 PUSH0 KECCAK256 ADD PUSH0 SWAP1 SWAP2 SWAP1 SWAP2 SWAP1 SWAP2 POP SSTORE JUMPDEST PUSH0 PUSH2 0x15A DUP6 PUSH2 0x412 JUMP JUMPDEST SWAP1 POP PUSH0 DUP3 ISZERO PUSH2 0x183 JUMPI PUSH0 DUP1 DUP6 DUP2 MSTORE PUSH1 0x20 ADD SWAP1 DUP2 MSTORE PUSH1 0x20 ADD PUSH0 KECCAK256 PUSH1 0x4 ADD SLOAD DUP3 SUB PUSH2 0x182 JUMPI PUSH1 0x1 SWAP1 POP JUMPDEST JUMPDEST PUSH1 0x40 MLOAD DUP1 PUSH1 0xE0 ADD PUSH1 0x40 MSTORE DUP1 DUP11 PUSH20 0xFFFFFFFFFFFFFFFFFFFFFFFFFFFFFFFFFFFFFFFF AND DUP2 MSTORE PUSH1 0x20 ADD DUP10 PUSH20 0xFFFFFFFFFFFFFFFFFFFFFFFFFFFFFFFFFFFFFFFF AND DUP2 MSTORE PUSH1 0x20 ADD DUP9 PUSH1 0xFF AND DUP2 MSTORE PUSH1 0x20 ADD DUP3 PUSH1 0xFF AND DUP2 MSTORE PUSH1 0x20 ADD TIMESTAMP DUP2 MSTORE PUSH1 0x20 ADD DUP8 DUP2 MSTORE PUSH1 0x20 ADD DUP4 DUP2 MSTORE POP PUSH0 DUP1 DUP7 DUP2 MSTORE PUSH1 0x20 ADD SWAP1 DUP2 MSTORE PUSH1 0x20 ADD PUSH0 KECCAK256 PUSH0 DUP3 ADD MLOAD DUP2 PUSH0 ADD PUSH0 PUSH2 0x100 EXP DUP2 SLOAD DUP2 PUSH20 0xFFFFFFFFFFFFFFFFFFFFFFFFFFFFFFFFFFFFFFFF MUL NOT AND SWAP1 DUP4 PUSH20 0xFFFFFFFFFFFFFFFFFFFFFFFFFFFFFFFFFFFFFFFF AND MUL OR SWAP1 SSTORE POP PUSH1 0x20 DUP3 ADD MLOAD DUP2 PUSH1 0x1 ADD PUSH0 PUSH2 0x100 EXP DUP2 SLOAD DUP2 PUSH20 0xFFFFFFFFFFFFFFFFFFFFFFFFFFFFFFFFFFFFFFFF MUL NOT AND SWAP1 DUP4 PUSH20 0xFFFFFFFFFFFFFFFFFFFFFFFFFFFFFFFFFFFFFFFF AND MUL OR SWAP1 SSTORE POP PUSH1 0x40 DUP3 ADD MLOAD DUP2 PUSH1 0x1 ADD PUSH1 0x14 PUSH2 0x100 EXP DUP2 SLOAD DUP2 PUSH1 0xFF MUL NOT AND SWAP1 DUP4 PUSH1 0xFF AND MUL OR SWAP1 SSTORE POP PUSH1 0x60 DUP3 ADD MLOAD DUP2 PUSH1 0x1 ADD PUSH1 0x15 PUSH2 0x100 EXP DUP2 SLOAD DUP2 PUSH1 0xFF MUL NOT AND SWAP1 DUP4 PUSH1 0xFF AND MUL OR SWAP1 SSTORE POP PUSH1 0x80 DUP3 ADD MLOAD DUP2 PUSH1 0x2 ADD SSTORE PUSH1 0xA0 DUP3 ADD MLOAD DUP2 PUSH1 0x3 ADD SWAP1 DUP2 PUSH2 0x2E3 SWAP2 SWAP1 PUSH2 0xC2F JUMP JUMPDEST POP PUSH1 0xC0 DUP3 ADD MLOAD DUP2 PUSH1 0x4 ADD SSTORE SWAP1 POP POP POP POP POP POP POP POP POP POP POP POP JUMP JUMPDEST PUSH0 DUP1 PUSH2 0x308 DUP5 PUSH2 0x441 JUMP JUMPDEST SWAP1 POP PUSH0 PUSH2 0x314 DUP5 PUSH2 0x441 JUMP JUMPDEST SWAP1 POP PUSH0 PUSH2 0x321 DUP4 DUP4 PUSH2 0x458 JUMP JUMPDEST SWAP1 POP PUSH0 PUSH2 0x32D DUP3 PUSH2 0x412 JUMP JUMPDEST SWAP1 POP DUP1 SWAP5 POP POP POP POP POP SWAP3 SWAP2 POP POP JUMP JUMPDEST PUSH0 DUP1 PUSH0 SWAP1 POP PUSH0 JUMPDEST PUSH1 0x1 PUSH0 DUP6 PUSH20 0xFFFFFFFFFFFFFFFFFFFFFFFFFFFFFFFFFFFFFFFF AND PUSH20 0xFFFFFFFFFFFFFFFFFFFFFFFFFFFFFFFFFFFFFFFF AND DUP2 MSTORE PUSH1 0x20 ADD SWAP1 DUP2 MSTORE PUSH1 0x20 ADD PUSH0 KECCAK256 DUP1 SLOAD SWAP1 POP DUP2 PUSH1 0xFF AND LT ISZERO PUSH2 0x407 JUMPI DUP5 PUSH1 0x1 PUSH0 DUP7 PUSH20 0xFFFFFFFFFFFFFFFFFFFFFFFFFFFFFFFFFFFFFFFF AND PUSH20 0xFFFFFFFFFFFFFFFFFFFFFFFFFFFFFFFFFFFFFFFF AND DUP2 MSTORE PUSH1 0x20 ADD SWAP1 DUP2 MSTORE PUSH1 0x20 ADD PUSH0 KECCAK256 DUP3 PUSH1 0xFF AND DUP2 SLOAD DUP2 LT PUSH2 0x3E1 JUMPI PUSH2 0x3E0 PUSH2 0xCFE JUMP JUMPDEST JUMPDEST SWAP1 PUSH0 MSTORE PUSH1 0x20 PUSH0 KECCAK256 ADD SLOAD SUB ISZERO PUSH2 0x407 JUMPI PUSH1 0x1 SWAP2 POP DUP1 DUP1 PUSH2 0x3FF SWAP1 PUSH2 0xD58 JUMP JUMPDEST SWAP2 POP POP PUSH2 0x343 JUMP JUMPDEST POP DUP1 SWAP2 POP POP SWAP3 SWAP2 POP POP JUMP JUMPDEST PUSH0 DUP2 PUSH1 0x40 MLOAD PUSH1 0x20 ADD PUSH2 0x424 SWAP2 SWAP1 PUSH2 0xDE2 JUMP JUMPDEST PUSH1 0x40 MLOAD PUSH1 0x20 DUP2 DUP4 SUB SUB DUP2 MSTORE SWAP1 PUSH1 0x40 MSTORE DUP1 MLOAD SWAP1 PUSH1 0x20 ADD KECCAK256 SWAP1 POP SWAP2 SWAP1 POP JUMP JUMPDEST PUSH1 0x60 PUSH0 PUSH2 0x44D DUP4 PUSH2 0x484 JUMP JUMPDEST SWAP1 POP DUP1 SWAP2 POP POP SWAP2 SWAP1 POP JUMP JUMPDEST PUSH1 0x60 DUP3 DUP3 PUSH1 0x40 MLOAD PUSH1 0x20 ADD PUSH2 0x46D SWAP3 SWAP2 SWAP1 PUSH2 0xDF8 JUMP JUMPDEST PUSH1 0x40 MLOAD PUSH1 0x20 DUP2 DUP4 SUB SUB DUP2 MSTORE SWAP1 PUSH1 0x40 MSTORE SWAP1 POP SWAP3 SWAP2 POP POP JUMP JUMPDEST PUSH1 0x60 PUSH0 DUP3 PUSH20 0xFFFFFFFFFFFFFFFFFFFFFFFFFFFFFFFFFFFFFFFF AND PUSH0 SHL SWAP1 POP PUSH0 PUSH1 0x40 MLOAD DUP1 PUSH1 0x40 ADD PUSH1 0x40 MSTORE DUP1 PUSH1 0x10 DUP2 MSTORE PUSH1 0x20 ADD PUSH32 0x3031323334353637383961626364656600000000000000000000000000000000 DUP2 MSTORE POP SWAP1 POP PUSH0 PUSH1 0x2A PUSH8 0xFFFFFFFFFFFFFFFF DUP2 GT ISZERO PUSH2 0x4F7 JUMPI PUSH2 0x4F6 PUSH2 0x86B JUMP JUMPDEST JUMPDEST PUSH1 0x40 MLOAD SWAP1 DUP1 DUP3 MSTORE DUP1 PUSH1 0x1F ADD PUSH1 0x1F NOT AND PUSH1 0x20 ADD DUP3 ADD PUSH1 0x40 MSTORE DUP1 ISZERO PUSH2 0x529 JUMPI DUP2 PUSH1 0x20 ADD PUSH1 0x1 DUP3 MUL DUP1 CALLDATASIZE DUP4 CALLDATACOPY DUP1 DUP3 ADD SWAP2 POP POP SWAP1 POP JUMPDEST POP SWAP1 POP PUSH32 0x3000000000000000000000000000000000000000000000000000000000000000 DUP2 PUSH0 DUP2 MLOAD DUP2 LT PUSH2 0x560 JUMPI PUSH2 0x55F PUSH2 0xCFE JUMP JUMPDEST JUMPDEST PUSH1 0x20 ADD ADD SWAP1 PUSH31 0xFFFFFFFFFFFFFFFFFFFFFFFFFFFFFFFFFFFFFFFFFFFFFFFFFFFFFFFFFFFFFF NOT AND SWAP1 DUP2 PUSH0 BYTE SWAP1 MSTORE8 POP PUSH32 0x7800000000000000000000000000000000000000000000000000000000000000 DUP2 PUSH1 0x1 DUP2 MLOAD DUP2 LT PUSH2 0x5C3 JUMPI PUSH2 0x5C2 PUSH2 0xCFE JUMP JUMPDEST JUMPDEST PUSH1 0x20 ADD ADD SWAP1 PUSH31 0xFFFFFFFFFFFFFFFFFFFFFFFFFFFFFFFFFFFFFFFFFFFFFFFFFFFFFFFFFFFFFF NOT AND SWAP1 DUP2 PUSH0 BYTE SWAP1 MSTORE8 POP PUSH0 JUMPDEST PUSH1 0x14 DUP2 LT ISZERO PUSH2 0x773 JUMPI DUP3 PUSH1 0x4 DUP6 PUSH1 0xC DUP5 PUSH2 0x60D SWAP2 SWAP1 PUSH2 0xE1B JUMP JUMPDEST PUSH1 0x20 DUP2 LT PUSH2 0x61E JUMPI PUSH2 0x61D PUSH2 0xCFE JUMP JUMPDEST JUMPDEST BYTE PUSH1 0xF8 SHL PUSH31 0xFFFFFFFFFFFFFFFFFFFFFFFFFFFFFFFFFFFFFFFFFFFFFFFFFFFFFFFFFFFFFF NOT AND SWAP1 SHR PUSH1 0xF8 SHR PUSH1 0xFF AND DUP2 MLOAD DUP2 LT PUSH2 0x65D JUMPI PUSH2 0x65C PUSH2 0xCFE JUMP JUMPDEST JUMPDEST PUSH1 0x20 ADD ADD MLOAD PUSH1 0xF8 SHR PUSH1 0xF8 SHL DUP3 PUSH1 0x2 DUP4 PUSH2 0x676 SWAP2 SWAP1 PUSH2 0xE4E JUMP JUMPDEST PUSH1 0x2 PUSH2 0x682 SWAP2 SWAP1 PUSH2 0xE1B JUMP JUMPDEST DUP2 MLOAD DUP2 LT PUSH2 0x693 JUMPI PUSH2 0x692 PUSH2 0xCFE JUMP JUMPDEST JUMPDEST PUSH1 0x20 ADD ADD SWAP1 PUSH31 0xFFFFFFFFFFFFFFFFFFFFFFFFFFFFFFFFFFFFFFFFFFFFFFFFFFFFFFFFFFFFFF NOT AND SWAP1 DUP2 PUSH0 BYTE SWAP1 MSTORE8 POP DUP3 PUSH1 0xF PUSH1 0xF8 SHL DUP6 PUSH1 0xC DUP5 PUSH2 0x6D5 SWAP2 SWAP1 PUSH2 0xE1B JUMP JUMPDEST PUSH1 0x20 DUP2 LT PUSH2 0x6E6 JUMPI PUSH2 0x6E5 PUSH2 0xCFE JUMP JUMPDEST JUMPDEST BYTE PUSH1 0xF8 SHL AND PUSH1 0xF8 SHR PUSH1 0xFF AND DUP2 MLOAD DUP2 LT PUSH2 0x702 JUMPI PUSH2 0x701 PUSH2 0xCFE JUMP JUMPDEST JUMPDEST PUSH1 0x20 ADD ADD MLOAD PUSH1 0xF8 SHR PUSH1 0xF8 SHL DUP3 PUSH1 0x2 DUP4 PUSH2 0x71B SWAP2 SWAP1 PUSH2 0xE4E JUMP JUMPDEST PUSH1 0x3 PUSH2 0x727 SWAP2 SWAP1 PUSH2 0xE1B JUMP JUMPDEST DUP2 MLOAD DUP2 LT PUSH2 0x738 JUMPI PUSH2 0x737 PUSH2 0xCFE JUMP JUMPDEST JUMPDEST PUSH1 0x20 ADD ADD SWAP1 PUSH31 0xFFFFFFFFFFFFFFFFFFFFFFFFFFFFFFFFFFFFFFFFFFFFFFFFFFFFFFFFFFFFFF NOT AND SWAP1 DUP2 PUSH0 BYTE SWAP1 MSTORE8 POP DUP1 DUP1 PUSH1 0x1 ADD SWAP2 POP POP PUSH2 0x5F3 JUMP JUMPDEST POP DUP1 SWAP4 POP POP POP POP SWAP2 SWAP1 POP JUMP JUMPDEST PUSH0 PUSH1 0x40 MLOAD SWAP1 POP SWAP1 JUMP JUMPDEST PUSH0 DUP1 REVERT JUMPDEST PUSH0 DUP1 REVERT JUMPDEST PUSH0 DUP2 SWAP1 POP SWAP2 SWAP1 POP JUMP JUMPDEST PUSH2 0x7A2 DUP2 PUSH2 0x790 JUMP JUMPDEST DUP2 EQ PUSH2 0x7AC JUMPI PUSH0 DUP1 REVERT JUMPDEST POP JUMP JUMPDEST PUSH0 DUP2 CALLDATALOAD SWAP1 POP PUSH2 0x7BD DUP2 PUSH2 0x799 JUMP JUMPDEST SWAP3 SWAP2 POP POP JUMP JUMPDEST PUSH0 PUSH20 0xFFFFFFFFFFFFFFFFFFFFFFFFFFFFFFFFFFFFFFFF DUP3 AND SWAP1 POP SWAP2 SWAP1 POP JUMP JUMPDEST PUSH0 PUSH2 0x7EC DUP3 PUSH2 0x7C3 JUMP JUMPDEST SWAP1 POP SWAP2 SWAP1 POP JUMP JUMPDEST PUSH2 0x7FC DUP2 PUSH2 0x7E2 JUMP JUMPDEST DUP2 EQ PUSH2 0x806 JUMPI PUSH0 DUP1 REVERT JUMPDEST POP JUMP JUMPDEST PUSH0 DUP2 CALLDATALOAD SWAP1 POP PUSH2 0x817 DUP2 PUSH2 0x7F3 JUMP JUMPDEST SWAP3 SWAP2 POP POP JUMP JUMPDEST PUSH0 PUSH1 0xFF DUP3 AND SWAP1 POP SWAP2 SWAP1 POP JUMP JUMPDEST PUSH2 0x832 DUP2 PUSH2 0x81D JUMP JUMPDEST DUP2 EQ PUSH2 0x83C JUMPI PUSH0 DUP1 REVERT JUMPDEST POP JUMP JUMPDEST PUSH0 DUP2 CALLDATALOAD SWAP1 POP PUSH2 0x84D DUP2 PUSH2 0x829 JUMP JUMPDEST SWAP3 SWAP2 POP POP JUMP JUMPDEST PUSH0 DUP1 REVERT JUMPDEST PUSH0 DUP1 REVERT JUMPDEST PUSH0 PUSH1 0x1F NOT PUSH1 0x1F DUP4 ADD AND SWAP1 POP SWAP2 SWAP1 POP JUMP JUMPDEST PUSH32 0x4E487B7100000000000000000000000000000000000000000000000000000000 PUSH0 MSTORE PUSH1 0x41 PUSH1 0x4 MSTORE PUSH1 0x24 PUSH0 REVERT JUMPDEST PUSH2 0x8A1 DUP3 PUSH2 0x85B JUMP JUMPDEST DUP2 ADD DUP2 DUP2 LT PUSH8 0xFFFFFFFFFFFFFFFF DUP3 GT OR ISZERO PUSH2 0x8C0 JUMPI PUSH2 0x8BF PUSH2 0x86B JUMP JUMPDEST JUMPDEST DUP1 PUSH1 0x40 MSTORE POP POP POP JUMP JUMPDEST PUSH0 PUSH2 0x8D2 PUSH2 0x77F JUMP JUMPDEST SWAP1 POP PUSH2 0x8DE DUP3 DUP3 PUSH2 0x898 JUMP JUMPDEST SWAP2 SWAP1 POP JUMP JUMPDEST PUSH0 PUSH8 0xFFFFFFFFFFFFFFFF DUP3 GT ISZERO PUSH2 0x8FD JUMPI PUSH2 0x8FC PUSH2 0x86B JUMP JUMPDEST JUMPDEST PUSH2 0x906 DUP3 PUSH2 0x85B JUMP JUMPDEST SWAP1 POP PUSH1 0x20 DUP2 ADD SWAP1 POP SWAP2 SWAP1 POP JUMP JUMPDEST DUP3 DUP2 DUP4 CALLDATACOPY PUSH0 DUP4 DUP4 ADD MSTORE POP POP POP JUMP JUMPDEST PUSH0 PUSH2 0x933 PUSH2 0x92E DUP5 PUSH2 0x8E3 JUMP JUMPDEST PUSH2 0x8C9 JUMP JUMPDEST SWAP1 POP DUP3 DUP2 MSTORE PUSH1 0x20 DUP2 ADD DUP5 DUP5 DUP5 ADD GT ISZERO PUSH2 0x94F JUMPI PUSH2 0x94E PUSH2 0x857 JUMP JUMPDEST JUMPDEST PUSH2 0x95A DUP5 DUP3 DUP6 PUSH2 0x913 JUMP JUMPDEST POP SWAP4 SWAP3 POP POP POP JUMP JUMPDEST PUSH0 DUP3 PUSH1 0x1F DUP4 ADD SLT PUSH2 0x976 JUMPI PUSH2 0x975 PUSH2 0x853 JUMP JUMPDEST JUMPDEST DUP2 CALLDATALOAD PUSH2 0x986 DUP5 DUP3 PUSH1 0x20 DUP7 ADD PUSH2 0x921 JUMP JUMPDEST SWAP2 POP POP SWAP3 SWAP2 POP POP JUMP JUMPDEST PUSH0 DUP1 PUSH0 DUP1 PUSH0 PUSH1 0xA0 DUP7 DUP9 SUB SLT ISZERO PUSH2 0x9A8 JUMPI PUSH2 0x9A7 PUSH2 0x788 JUMP JUMPDEST JUMPDEST PUSH0 PUSH2 0x9B5 DUP9 DUP3 DUP10 ADD PUSH2 0x7AF JUMP JUMPDEST SWAP6 POP POP PUSH1 0x20 PUSH2 0x9C6 DUP9 DUP3 DUP10 ADD PUSH2 0x809 JUMP JUMPDEST SWAP5 POP POP PUSH1 0x40 PUSH2 0x9D7 DUP9 DUP3 DUP10 ADD PUSH2 0x809 JUMP JUMPDEST SWAP4 POP POP PUSH1 0x60 PUSH2 0x9E8 DUP9 DUP3 DUP10 ADD PUSH2 0x83F JUMP JUMPDEST SWAP3 POP POP PUSH1 0x80 DUP7 ADD CALLDATALOAD PUSH8 0xFFFFFFFFFFFFFFFF DUP2 GT ISZERO PUSH2 0xA09 JUMPI PUSH2 0xA08 PUSH2 0x78C JUMP JUMPDEST JUMPDEST PUSH2 0xA15 DUP9 DUP3 DUP10 ADD PUSH2 0x962 JUMP JUMPDEST SWAP2 POP POP SWAP3 SWAP6 POP SWAP3 SWAP6 SWAP1 SWAP4 POP JUMP JUMPDEST PUSH0 DUP2 MLOAD SWAP1 POP SWAP2 SWAP1 POP JUMP JUMPDEST PUSH32 0x4E487B7100000000000000000000000000000000000000000000000000000000 PUSH0 MSTORE PUSH1 0x22 PUSH1 0x4 MSTORE PUSH1 0x24 PUSH0 REVERT JUMPDEST PUSH0 PUSH1 0x2 DUP3 DIV SWAP1 POP PUSH1 0x1 DUP3 AND DUP1 PUSH2 0xA70 JUMPI PUSH1 0x7F DUP3 AND SWAP2 POP JUMPDEST PUSH1 0x20 DUP3 LT DUP2 SUB PUSH2 0xA83 JUMPI PUSH2 0xA82 PUSH2 0xA2C JUMP JUMPDEST JUMPDEST POP SWAP2 SWAP1 POP JUMP JUMPDEST PUSH0 DUP2 SWAP1 POP DUP2 PUSH0 MSTORE PUSH1 0x20 PUSH0 KECCAK256 SWAP1 POP SWAP2 SWAP1 POP JUMP JUMPDEST PUSH0 PUSH1 0x20 PUSH1 0x1F DUP4 ADD DIV SWAP1 POP SWAP2 SWAP1 POP JUMP JUMPDEST PUSH0 DUP3 DUP3 SHL SWAP1 POP SWAP3 SWAP2 POP POP JUMP JUMPDEST PUSH0 PUSH1 0x8 DUP4 MUL PUSH2 0xAE5 PUSH32 0xFFFFFFFFFFFFFFFFFFFFFFFFFFFFFFFFFFFFFFFFFFFFFFFFFFFFFFFFFFFFFFFF DUP3 PUSH2 0xAAA JUMP JUMPDEST PUSH2 0xAEF DUP7 DUP4 PUSH2 0xAAA JUMP JUMPDEST SWAP6 POP DUP1 NOT DUP5 AND SWAP4 POP DUP1 DUP7 AND DUP5 OR SWAP3 POP POP POP SWAP4 SWAP3 POP POP POP JUMP JUMPDEST PUSH0 DUP2 SWAP1 POP SWAP2 SWAP1 POP JUMP JUMPDEST PUSH0 DUP2 SWAP1 POP SWAP2 SWAP1 POP JUMP JUMPDEST PUSH0 PUSH2 0xB33 PUSH2 0xB2E PUSH2 0xB29 DUP5 PUSH2 0xB07 JUMP JUMPDEST PUSH2 0xB10 JUMP JUMPDEST PUSH2 0xB07 JUMP JUMPDEST SWAP1 POP SWAP2 SWAP1 POP JUMP JUMPDEST PUSH0 DUP2 SWAP1 POP SWAP2 SWAP1 POP JUMP JUMPDEST PUSH2 0xB4C DUP4 PUSH2 0xB19 JUMP JUMPDEST PUSH2 0xB60 PUSH2 0xB58 DUP3 PUSH2 0xB3A JUMP JUMPDEST DUP5 DUP5 SLOAD PUSH2 0xAB6 JUMP JUMPDEST DUP3 SSTORE POP POP POP POP JUMP JUMPDEST PUSH0 SWAP1 JUMP JUMPDEST PUSH2 0xB74 PUSH2 0xB68 JUMP JUMPDEST PUSH2 0xB7F DUP2 DUP5 DUP5 PUSH2 0xB43 JUMP JUMPDEST POP POP POP JUMP JUMPDEST JUMPDEST DUP2 DUP2 LT ISZERO PUSH2 0xBA2 JUMPI PUSH2 0xB97 PUSH0 DUP3 PUSH2 0xB6C JUMP JUMPDEST PUSH1 0x1 DUP2 ADD SWAP1 POP PUSH2 0xB85 JUMP JUMPDEST POP POP JUMP JUMPDEST PUSH1 0x1F DUP3 GT ISZERO PUSH2 0xBE7 JUMPI PUSH2 0xBB8 DUP2 PUSH2 0xA89 JUMP JUMPDEST PUSH2 0xBC1 DUP5 PUSH2 0xA9B JUMP JUMPDEST DUP2 ADD PUSH1 0x20 DUP6 LT ISZERO PUSH2 0xBD0 JUMPI DUP2 SWAP1 POP JUMPDEST PUSH2 0xBE4 PUSH2 0xBDC DUP6 PUSH2 0xA9B JUMP JUMPDEST DUP4 ADD DUP3 PUSH2 0xB84 JUMP JUMPDEST POP POP JUMPDEST POP POP POP JUMP JUMPDEST PUSH0 DUP3 DUP3 SHR SWAP1 POP SWAP3 SWAP2 POP POP JUMP JUMPDEST PUSH0 PUSH2 0xC07 PUSH0 NOT DUP5 PUSH1 0x8 MUL PUSH2 0xBEC JUMP JUMPDEST NOT DUP1 DUP4 AND SWAP2 POP POP SWAP3 SWAP2 POP POP JUMP JUMPDEST PUSH0 PUSH2 0xC1F DUP4 DUP4 PUSH2 0xBF8 JUMP JUMPDEST SWAP2 POP DUP3 PUSH1 0x2 MUL DUP3 OR SWAP1 POP SWAP3 SWAP2 POP POP JUMP JUMPDEST PUSH2 0xC38 DUP3 PUSH2 0xA22 JUMP JUMPDEST PUSH8 0xFFFFFFFFFFFFFFFF DUP2 GT ISZERO PUSH2 0xC51 JUMPI PUSH2 0xC50 PUSH2 0x86B JUMP JUMPDEST JUMPDEST PUSH2 0xC5B DUP3 SLOAD PUSH2 0xA59 JUMP JUMPDEST PUSH2 0xC66 DUP3 DUP3 DUP6 PUSH2 0xBA6 JUMP JUMPDEST PUSH0 PUSH1 0x20 SWAP1 POP PUSH1 0x1F DUP4 GT PUSH1 0x1 DUP2 EQ PUSH2 0xC97 JUMPI PUSH0 DUP5 ISZERO PUSH2 0xC85 JUMPI DUP3 DUP8 ADD MLOAD SWAP1 POP JUMPDEST PUSH2 0xC8F DUP6 DUP3 PUSH2 0xC14 JUMP JUMPDEST DUP7 SSTORE POP PUSH2 0xCF6 JUMP JUMPDEST PUSH1 0x1F NOT DUP5 AND PUSH2 0xCA5 DUP7 PUSH2 0xA89 JUMP JUMPDEST PUSH0 JUMPDEST DUP3 DUP2 LT ISZERO PUSH2 0xCCC JUMPI DUP5 DUP10 ADD MLOAD DUP3 SSTORE PUSH1 0x1 DUP3 ADD SWAP2 POP PUSH1 0x20 DUP6 ADD SWAP5 POP PUSH1 0x20 DUP2 ADD SWAP1 POP PUSH2 0xCA7 JUMP JUMPDEST DUP7 DUP4 LT ISZERO PUSH2 0xCE9 JUMPI DUP5 DUP10 ADD MLOAD PUSH2 0xCE5 PUSH1 0x1F DUP10 AND DUP3 PUSH2 0xBF8 JUMP JUMPDEST DUP4 SSTORE POP JUMPDEST PUSH1 0x1 PUSH1 0x2 DUP9 MUL ADD DUP9 SSTORE POP POP POP JUMPDEST POP POP POP POP POP POP JUMP JUMPDEST PUSH32 0x4E487B7100000000000000000000000000000000000000000000000000000000 PUSH0 MSTORE PUSH1 0x32 PUSH1 0x4 MSTORE PUSH1 0x24 PUSH0 REVERT JUMPDEST PUSH32 0x4E487B7100000000000000000000000000000000000000000000000000000000 PUSH0 MSTORE PUSH1 0x11 PUSH1 0x4 MSTORE PUSH1 0x24 PUSH0 REVERT JUMPDEST PUSH0 PUSH2 0xD62 DUP3 PUSH2 0x81D JUMP JUMPDEST SWAP2 POP PUSH1 0xFF DUP3 SUB PUSH2 0xD75 JUMPI PUSH2 0xD74 PUSH2 0xD2B JUMP JUMPDEST JUMPDEST PUSH1 0x1 DUP3 ADD SWAP1 POP SWAP2 SWAP1 POP JUMP JUMPDEST PUSH0 DUP2 SWAP1 POP SWAP3 SWAP2 POP POP JUMP JUMPDEST PUSH0 JUMPDEST DUP4 DUP2 LT ISZERO PUSH2 0xDA7 JUMPI DUP1 DUP3 ADD MLOAD DUP2 DUP5 ADD MSTORE PUSH1 0x20 DUP2 ADD SWAP1 POP PUSH2 0xD8C JUMP JUMPDEST PUSH0 DUP5 DUP5 ADD MSTORE POP POP POP POP JUMP JUMPDEST PUSH0 PUSH2 0xDBC DUP3 PUSH2 0xA22 JUMP JUMPDEST PUSH2 0xDC6 DUP2 DUP6 PUSH2 0xD80 JUMP JUMPDEST SWAP4 POP PUSH2 0xDD6 DUP2 DUP6 PUSH1 0x20 DUP7 ADD PUSH2 0xD8A JUMP JUMPDEST DUP1 DUP5 ADD SWAP2 POP POP SWAP3 SWAP2 POP POP JUMP JUMPDEST PUSH0 PUSH2 0xDED DUP3 DUP5 PUSH2 0xDB2 JUMP JUMPDEST SWAP2 POP DUP2 SWAP1 POP SWAP3 SWAP2 POP POP JUMP JUMPDEST PUSH0 PUSH2 0xE03 DUP3 DUP6 PUSH2 0xDB2 JUMP JUMPDEST SWAP2 POP PUSH2 0xE0F DUP3 DUP5 PUSH2 0xDB2 JUMP JUMPDEST SWAP2 POP DUP2 SWAP1 POP SWAP4 SWAP3 POP POP POP JUMP JUMPDEST PUSH0 PUSH2 0xE25 DUP3 PUSH2 0xB07 JUMP JUMPDEST SWAP2 POP PUSH2 0xE30 DUP4 PUSH2 0xB07 JUMP JUMPDEST SWAP3 POP DUP3 DUP3 ADD SWAP1 POP DUP1 DUP3 GT ISZERO PUSH2 0xE48 JUMPI PUSH2 0xE47 PUSH2 0xD2B JUMP JUMPDEST JUMPDEST SWAP3 SWAP2 POP POP JUMP JUMPDEST PUSH0 PUSH2 0xE58 DUP3 PUSH2 0xB07 JUMP JUMPDEST SWAP2 POP PUSH2 0xE63 DUP4 PUSH2 0xB07 JUMP JUMPDEST SWAP3 POP DUP3 DUP3 MUL PUSH2 0xE71 DUP2 PUSH2 0xB07 JUMP JUMPDEST SWAP2 POP DUP3 DUP3 DIV DUP5 EQ DUP4 ISZERO OR PUSH2 0xE88 JUMPI PUSH2 0xE87 PUSH2 0xD2B JUMP JUMPDEST JUMPDEST POP SWAP3 SWAP2 POP POP JUMP INVALID LOG2 PUSH5 0x6970667358 0x22 SLT KECCAK256 0xE3 0xB2 BASEFEE 0x29 PUSH0 PUSH29 0xDABC586014F68F02208BF0C9537E14F126526454542C1D465E7564736F PUSH13 0x63430008160033000000000000 "
				},
				"gasEstimates": {
					"creation": {
						"codeDepositCost": "756200",
						"executionCost": "790",
						"totalCost": "756990"
					},
					"external": {
						"createContract(bytes32,address,address,uint8,string)": "infinite"
					},
					"internal": {
						"isContractSet(bytes32,address)": "infinite"
					}
				},
				"methodIdentifiers": {
					"createContract(bytes32,address,address,uint8,string)": "fc2cc9ee"
				}
			},
			"storageLayout": {
				"storage": [
					{
						"astId": 24,
						"contract": "contracts/Marriage.sol:Marriage",
						"label": "marriages",
						"offset": 0,
						"slot": "0",
						"type": "t_mapping(t_bytes32,t_struct(marriageDetails)19_storage)"
					},
					{
						"astId": 29,
						"contract": "contracts/Marriage.sol:Marriage",
						"label": "addressMarriages",
						"offset": 0,
						"slot": "1",
						"type": "t_mapping(t_address,t_array(t_bytes32)dyn_storage)"
					}
				],
				"types": {
					"t_address": {
						"encoding": "inplace",
						"label": "address",
						"numberOfBytes": "20"
					},
					"t_array(t_bytes32)dyn_storage": {
						"base": "t_bytes32",
						"encoding": "dynamic_array",
						"label": "bytes32[]",
						"numberOfBytes": "32"
					},
					"t_bytes32": {
						"encoding": "inplace",
						"label": "bytes32",
						"numberOfBytes": "32"
					},
					"t_mapping(t_address,t_array(t_bytes32)dyn_storage)": {
						"encoding": "mapping",
						"key": "t_address",
						"label": "mapping(address => bytes32[])",
						"numberOfBytes": "32",
						"value": "t_array(t_bytes32)dyn_storage"
					},
					"t_mapping(t_bytes32,t_struct(marriageDetails)19_storage)": {
						"encoding": "mapping",
						"key": "t_bytes32",
						"label": "mapping(bytes32 => struct Marriage.marriageDetails)",
						"numberOfBytes": "32",
						"value": "t_struct(marriageDetails)19_storage"
					},
					"t_string_storage": {
						"encoding": "bytes",
						"label": "string",
						"numberOfBytes": "32"
					},
					"t_struct(marriageDetails)19_storage": {
						"encoding": "inplace",
						"label": "struct Marriage.marriageDetails",
						"members": [
							{
								"astId": 6,
								"contract": "contracts/Marriage.sol:Marriage",
								"label": "addr1",
								"offset": 0,
								"slot": "0",
								"type": "t_address"
							},
							{
								"astId": 8,
								"contract": "contracts/Marriage.sol:Marriage",
								"label": "addr2",
								"offset": 0,
								"slot": "1",
								"type": "t_address"
							},
							{
								"astId": 10,
								"contract": "contracts/Marriage.sol:Marriage",
								"label": "status",
								"offset": 20,
								"slot": "1",
								"type": "t_uint8"
							},
							{
								"astId": 12,
								"contract": "contracts/Marriage.sol:Marriage",
								"label": "confirmation",
								"offset": 21,
								"slot": "1",
								"type": "t_uint8"
							},
							{
								"astId": 14,
								"contract": "contracts/Marriage.sol:Marriage",
								"label": "date",
								"offset": 0,
								"slot": "2",
								"type": "t_uint256"
							},
							{
								"astId": 16,
								"contract": "contracts/Marriage.sol:Marriage",
								"label": "agreement",
								"offset": 0,
								"slot": "3",
								"type": "t_string_storage"
							},
							{
								"astId": 18,
								"contract": "contracts/Marriage.sol:Marriage",
								"label": "agreementHash",
								"offset": 0,
								"slot": "4",
								"type": "t_bytes32"
							}
						],
						"numberOfBytes": "160"
					},
					"t_uint256": {
						"encoding": "inplace",
						"label": "uint256",
						"numberOfBytes": "32"
					},
					"t_uint8": {
						"encoding": "inplace",
						"label": "uint8",
						"numberOfBytes": "1"
					}
				}
			},
			"userdoc": {
				"kind": "user",
				"methods": {},
				"version": 1
			}
		}
	}
}