{
	"contracts/Marriage.sol": {
		"Marriage": {
			"abi": [
				{
					"inputs": [
						{
							"internalType": "address",
							"name": "",
							"type": "address"
						},
						{
							"internalType": "uint256",
							"name": "",
							"type": "uint256"
						}
					],
					"name": "contractsByAddres",
					"outputs": [
						{
							"internalType": "bytes32",
							"name": "",
							"type": "bytes32"
						}
					],
					"stateMutability": "view",
					"type": "function"
				},
				{
					"inputs": [
						{
							"internalType": "bytes32",
							"name": "_id",
							"type": "bytes32"
						},
						{
							"internalType": "address[]",
							"name": "_addresses",
							"type": "address[]"
						},
						{
							"internalType": "string",
							"name": "_agreement",
							"type": "string"
						}
					],
					"name": "createContract",
					"outputs": [],
					"stateMutability": "nonpayable",
					"type": "function"
				},
				{
					"inputs": [
						{
							"internalType": "bytes32",
							"name": "",
							"type": "bytes32"
						}
					],
					"name": "detailsByContract",
					"outputs": [
						{
							"internalType": "uint8",
							"name": "status",
							"type": "uint8"
						},
						{
							"internalType": "uint256",
							"name": "date",
							"type": "uint256"
						},
						{
							"internalType": "string",
							"name": "agreement",
							"type": "string"
						}
					],
					"stateMutability": "view",
					"type": "function"
				}
			],
			"devdoc": {
				"kind": "dev",
				"methods": {},
				"version": 1
			},
			"evm": {
				"assembly": "    /* \"contracts/Marriage.sol\":58:3229  contract Marriage {... */\n  mstore(0x40, 0x80)\n  callvalue\n  dup1\n  iszero\n  tag_1\n  jumpi\n  0x00\n  dup1\n  revert\ntag_1:\n  pop\n  dataSize(sub_0)\n  dup1\n  dataOffset(sub_0)\n  0x00\n  codecopy\n  0x00\n  return\nstop\n\nsub_0: assembly {\n        /* \"contracts/Marriage.sol\":58:3229  contract Marriage {... */\n      mstore(0x40, 0x80)\n      callvalue\n      dup1\n      iszero\n      tag_1\n      jumpi\n      0x00\n      dup1\n      revert\n    tag_1:\n      pop\n      jumpi(tag_2, lt(calldatasize, 0x04))\n      shr(0xe0, calldataload(0x00))\n      dup1\n      0xc3a47879\n      eq\n      tag_3\n      jumpi\n      dup1\n      0xcc7168a3\n      eq\n      tag_4\n      jumpi\n      dup1\n      0xf1e4eb46\n      eq\n      tag_5\n      jumpi\n    tag_2:\n      0x00\n      dup1\n      revert\n        /* \"contracts/Marriage.sol\":379:1378  function createContract(bytes32 _id, address[] memory _addresses, string memory _agreement ) public  {... */\n    tag_3:\n      tag_6\n      0x04\n      dup1\n      calldatasize\n      sub\n      dup2\n      add\n      swap1\n      tag_7\n      swap2\n      swap1\n      tag_8\n      jump\t// in\n    tag_7:\n      tag_9\n      jump\t// in\n    tag_6:\n      stop\n        /* \"contracts/Marriage.sol\":319:371  mapping(bytes32 => Details) public detailsByContract */\n    tag_4:\n      tag_10\n      0x04\n      dup1\n      calldatasize\n      sub\n      dup2\n      add\n      swap1\n      tag_11\n      swap2\n      swap1\n      tag_12\n      jump\t// in\n    tag_11:\n      tag_13\n      jump\t// in\n    tag_10:\n      mload(0x40)\n      tag_14\n      swap4\n      swap3\n      swap2\n      swap1\n      tag_15\n      jump\t// in\n    tag_14:\n      mload(0x40)\n      dup1\n      swap2\n      sub\n      swap1\n      return\n        /* \"contracts/Marriage.sol\":259:313  mapping(address => bytes32[]) public contractsByAddres */\n    tag_5:\n      tag_16\n      0x04\n      dup1\n      calldatasize\n      sub\n      dup2\n      add\n      swap1\n      tag_17\n      swap2\n      swap1\n      tag_18\n      jump\t// in\n    tag_17:\n      tag_19\n      jump\t// in\n    tag_16:\n      mload(0x40)\n      tag_20\n      swap2\n      swap1\n      tag_21\n      jump\t// in\n    tag_20:\n      mload(0x40)\n      dup1\n      swap2\n      sub\n      swap1\n      return\n        /* \"contracts/Marriage.sol\":379:1378  function createContract(bytes32 _id, address[] memory _addresses, string memory _agreement ) public  {... */\n    tag_9:\n        /* \"contracts/Marriage.sol\":501:567  0x0000000000000000000000000000000000000000000000000000000000000000 */\n      0x00\n        /* \"contracts/Marriage.sol\":494:567  _id == 0x0000000000000000000000000000000000000000000000000000000000000000 */\n      dup1\n      shl\n        /* \"contracts/Marriage.sol\":494:497  _id */\n      dup4\n        /* \"contracts/Marriage.sol\":494:567  _id == 0x0000000000000000000000000000000000000000000000000000000000000000 */\n      sub\n        /* \"contracts/Marriage.sol\":491:1291  if(_id == 0x0000000000000000000000000000000000000000000000000000000000000000){... */\n      tag_23\n      jumpi\n        /* \"contracts/Marriage.sol\":588:616  createIdentifier(_addresses) */\n      tag_24\n        /* \"contracts/Marriage.sol\":605:615  _addresses */\n      dup3\n        /* \"contracts/Marriage.sol\":588:604  createIdentifier */\n      tag_25\n        /* \"contracts/Marriage.sol\":588:616  createIdentifier(_addresses) */\n      jump\t// in\n    tag_24:\n        /* \"contracts/Marriage.sol\":582:616  _id = createIdentifier(_addresses) */\n      swap3\n      pop\n        /* \"contracts/Marriage.sol\":634:651  detailsByContract */\n      0x06\n        /* \"contracts/Marriage.sol\":634:656  detailsByContract[_id] */\n      0x00\n        /* \"contracts/Marriage.sol\":652:655  _id */\n      dup5\n        /* \"contracts/Marriage.sol\":634:656  detailsByContract[_id] */\n      dup2\n      mstore\n      0x20\n      add\n      swap1\n      dup2\n      mstore\n      0x20\n      add\n      0x00\n      keccak256\n        /* \"contracts/Marriage.sol\":630:631  d */\n      0x00\n        /* \"contracts/Marriage.sol\":630:656  d = detailsByContract[_id] */\n      dup1\n      dup3\n      add\n      dup2\n      0x00\n      add\n      swap1\n      dup1\n      sload\n      tag_26\n      swap3\n      swap2\n      swap1\n      tag_27\n      jump\t// in\n    tag_26:\n      pop\n      0x01\n      dup3\n      add\n      dup2\n      0x01\n      add\n      swap1\n      dup1\n      sload\n      tag_28\n      swap3\n      swap2\n      swap1\n      tag_27\n      jump\t// in\n    tag_28:\n      pop\n      0x02\n      dup3\n      add\n      0x00\n      swap1\n      sload\n      swap1\n      0x0100\n      exp\n      swap1\n      div\n      0xff\n      and\n      dup2\n      0x02\n      add\n      exp(0x0100, 0x00)\n      dup2\n      sload\n      dup2\n      0xff\n      mul\n      not\n      and\n      swap1\n      dup4\n      0xff\n      and\n      mul\n      or\n      swap1\n      sstore\n      pop\n      0x03\n      dup3\n      add\n      sload\n      dup2\n      0x03\n      add\n      sstore\n      0x04\n      dup3\n      add\n      dup2\n      0x04\n      add\n      swap1\n      dup2\n      tag_29\n      swap2\n      swap1\n      tag_30\n      jump\t// in\n    tag_29:\n      pop\n      swap1\n      pop\n      pop\n        /* \"contracts/Marriage.sol\":684:694  _addresses */\n      dup2\n        /* \"contracts/Marriage.sol\":670:671  d */\n      0x00\n        /* \"contracts/Marriage.sol\":670:681  d.addresses */\n      dup1\n      add\n        /* \"contracts/Marriage.sol\":670:694  d.addresses = _addresses */\n      swap1\n      dup1\n      mload\n      swap1\n      0x20\n      add\n      swap1\n      tag_31\n      swap3\n      swap2\n      swap1\n      tag_32\n      jump\t// in\n    tag_31:\n      pop\n        /* \"contracts/Marriage.sol\":708:734  d.confirmed = [msg.sender] */\n      mload(0x40)\n      dup1\n      0x20\n      add\n      0x40\n      mstore\n      dup1\n        /* \"contracts/Marriage.sol\":723:733  msg.sender */\n      caller\n        /* \"contracts/Marriage.sol\":708:734  d.confirmed = [msg.sender] */\n      0xffffffffffffffffffffffffffffffffffffffff\n      and\n      0xffffffffffffffffffffffffffffffffffffffff\n      and\n      dup2\n      mstore\n      pop\n        /* \"contracts/Marriage.sol\":708:709  d */\n      0x00\n        /* \"contracts/Marriage.sol\":708:719  d.confirmed */\n      0x01\n      add\n        /* \"contracts/Marriage.sol\":708:734  d.confirmed = [msg.sender] */\n      swap1\n      0x01\n      tag_33\n      swap3\n      swap2\n      swap1\n      tag_34\n      jump\t// in\n    tag_33:\n      pop\n        /* \"contracts/Marriage.sol\":759:760  0 */\n      0x00\n        /* \"contracts/Marriage.sol\":748:749  d */\n      dup1\n        /* \"contracts/Marriage.sol\":748:756  d.status */\n      0x02\n      add\n      0x00\n        /* \"contracts/Marriage.sol\":748:760  d.status = 0 */\n      0x0100\n      exp\n      dup2\n      sload\n      dup2\n      0xff\n      mul\n      not\n      and\n      swap1\n      dup4\n      0xff\n      and\n      mul\n      or\n      swap1\n      sstore\n      pop\n        /* \"contracts/Marriage.sol\":783:798  block.timestamp */\n      timestamp\n        /* \"contracts/Marriage.sol\":774:775  d */\n      0x00\n        /* \"contracts/Marriage.sol\":774:780  d.date */\n      0x03\n      add\n        /* \"contracts/Marriage.sol\":774:798  d.date = block.timestamp */\n      dup2\n      swap1\n      sstore\n      pop\n        /* \"contracts/Marriage.sol\":826:836  _agreement */\n      dup1\n        /* \"contracts/Marriage.sol\":812:813  d */\n      0x00\n        /* \"contracts/Marriage.sol\":812:823  d.agreement */\n      0x04\n      add\n        /* \"contracts/Marriage.sol\":812:836  d.agreement = _agreement */\n      swap1\n      dup2\n      tag_35\n      swap2\n      swap1\n      tag_36\n      jump\t// in\n    tag_35:\n      pop\n        /* \"contracts/Marriage.sol\":491:1291  if(_id == 0x0000000000000000000000000000000000000000000000000000000000000000){... */\n      jump(tag_37)\n    tag_23:\n        /* \"contracts/Marriage.sol\":870:887  detailsByContract */\n      0x06\n        /* \"contracts/Marriage.sol\":870:892  detailsByContract[_id] */\n      0x00\n        /* \"contracts/Marriage.sol\":888:891  _id */\n      dup5\n        /* \"contracts/Marriage.sol\":870:892  detailsByContract[_id] */\n      dup2\n      mstore\n      0x20\n      add\n      swap1\n      dup2\n      mstore\n      0x20\n      add\n      0x00\n      keccak256\n        /* \"contracts/Marriage.sol\":866:867  d */\n      0x00\n        /* \"contracts/Marriage.sol\":866:892  d = detailsByContract[_id] */\n      dup1\n      dup3\n      add\n      dup2\n      0x00\n      add\n      swap1\n      dup1\n      sload\n      tag_38\n      swap3\n      swap2\n      swap1\n      tag_27\n      jump\t// in\n    tag_38:\n      pop\n      0x01\n      dup3\n      add\n      dup2\n      0x01\n      add\n      swap1\n      dup1\n      sload\n      tag_39\n      swap3\n      swap2\n      swap1\n      tag_27\n      jump\t// in\n    tag_39:\n      pop\n      0x02\n      dup3\n      add\n      0x00\n      swap1\n      sload\n      swap1\n      0x0100\n      exp\n      swap1\n      div\n      0xff\n      and\n      dup2\n      0x02\n      add\n      exp(0x0100, 0x00)\n      dup2\n      sload\n      dup2\n      0xff\n      mul\n      not\n      and\n      swap1\n      dup4\n      0xff\n      and\n      mul\n      or\n      swap1\n      sstore\n      pop\n      0x03\n      dup3\n      add\n      sload\n      dup2\n      0x03\n      add\n      sstore\n      0x04\n      dup3\n      add\n      dup2\n      0x04\n      add\n      swap1\n      dup2\n      tag_40\n      swap2\n      swap1\n      tag_30\n      jump\t// in\n    tag_40:\n      pop\n      swap1\n      pop\n      pop\n        /* \"contracts/Marriage.sol\":910:950  areArraysEqual(d.addresses, d.confirmed) */\n      tag_41\n        /* \"contracts/Marriage.sol\":925:926  d */\n      0x00\n        /* \"contracts/Marriage.sol\":925:936  d.addresses */\n      dup1\n      add\n        /* \"contracts/Marriage.sol\":910:950  areArraysEqual(d.addresses, d.confirmed) */\n      dup1\n      sload\n      dup1\n      0x20\n      mul\n      0x20\n      add\n      mload(0x40)\n      swap1\n      dup2\n      add\n      0x40\n      mstore\n      dup1\n      swap3\n      swap2\n      swap1\n      dup2\n      dup2\n      mstore\n      0x20\n      add\n      dup3\n      dup1\n      sload\n      dup1\n      iszero\n      tag_42\n      jumpi\n      0x20\n      mul\n      dup3\n      add\n      swap2\n      swap1\n      0x00\n      mstore\n      keccak256(0x00, 0x20)\n      swap1\n    tag_43:\n      dup2\n      0x00\n      swap1\n      sload\n      swap1\n      0x0100\n      exp\n      swap1\n      div\n      0xffffffffffffffffffffffffffffffffffffffff\n      and\n      0xffffffffffffffffffffffffffffffffffffffff\n      and\n      dup2\n      mstore\n      0x20\n      add\n      swap1\n      0x01\n      add\n      swap1\n      dup1\n      dup4\n      gt\n      tag_43\n      jumpi\n    tag_42:\n      pop\n      pop\n      pop\n      pop\n      pop\n        /* \"contracts/Marriage.sol\":938:939  d */\n      0x00\n        /* \"contracts/Marriage.sol\":938:949  d.confirmed */\n      0x01\n      add\n        /* \"contracts/Marriage.sol\":910:950  areArraysEqual(d.addresses, d.confirmed) */\n      dup1\n      sload\n      dup1\n      0x20\n      mul\n      0x20\n      add\n      mload(0x40)\n      swap1\n      dup2\n      add\n      0x40\n      mstore\n      dup1\n      swap3\n      swap2\n      swap1\n      dup2\n      dup2\n      mstore\n      0x20\n      add\n      dup3\n      dup1\n      sload\n      dup1\n      iszero\n      tag_44\n      jumpi\n      0x20\n      mul\n      dup3\n      add\n      swap2\n      swap1\n      0x00\n      mstore\n      keccak256(0x00, 0x20)\n      swap1\n    tag_45:\n      dup2\n      0x00\n      swap1\n      sload\n      swap1\n      0x0100\n      exp\n      swap1\n      div\n      0xffffffffffffffffffffffffffffffffffffffff\n      and\n      0xffffffffffffffffffffffffffffffffffffffff\n      and\n      dup2\n      mstore\n      0x20\n      add\n      swap1\n      0x01\n      add\n      swap1\n      dup1\n      dup4\n      gt\n      tag_45\n      jumpi\n    tag_44:\n      pop\n      pop\n      pop\n      pop\n      pop\n        /* \"contracts/Marriage.sol\":910:924  areArraysEqual */\n      tag_46\n        /* \"contracts/Marriage.sol\":910:950  areArraysEqual(d.addresses, d.confirmed) */\n      jump\t// in\n    tag_41:\n        /* \"contracts/Marriage.sol\":907:996  if(areArraysEqual(d.addresses, d.confirmed)){... */\n      iszero\n      tag_47\n      jumpi\n        /* \"contracts/Marriage.sol\":980:981  1 */\n      0x01\n        /* \"contracts/Marriage.sol\":969:970  d */\n      0x00\n        /* \"contracts/Marriage.sol\":969:977  d.status */\n      0x02\n      add\n      0x00\n        /* \"contracts/Marriage.sol\":969:981  d.status = 1 */\n      0x0100\n      exp\n      dup2\n      sload\n      dup2\n      0xff\n      mul\n      not\n      and\n      swap1\n      dup4\n      0xff\n      and\n      mul\n      or\n      swap1\n      sstore\n      pop\n        /* \"contracts/Marriage.sol\":907:996  if(areArraysEqual(d.addresses, d.confirmed)){... */\n    tag_47:\n        /* \"contracts/Marriage.sol\":1014:1053  addressInArray(d.confirmed, msg.sender) */\n      tag_48\n        /* \"contracts/Marriage.sol\":1029:1030  d */\n      0x00\n        /* \"contracts/Marriage.sol\":1029:1040  d.confirmed */\n      0x01\n      add\n        /* \"contracts/Marriage.sol\":1014:1053  addressInArray(d.confirmed, msg.sender) */\n      dup1\n      sload\n      dup1\n      0x20\n      mul\n      0x20\n      add\n      mload(0x40)\n      swap1\n      dup2\n      add\n      0x40\n      mstore\n      dup1\n      swap3\n      swap2\n      swap1\n      dup2\n      dup2\n      mstore\n      0x20\n      add\n      dup3\n      dup1\n      sload\n      dup1\n      iszero\n      tag_49\n      jumpi\n      0x20\n      mul\n      dup3\n      add\n      swap2\n      swap1\n      0x00\n      mstore\n      keccak256(0x00, 0x20)\n      swap1\n    tag_50:\n      dup2\n      0x00\n      swap1\n      sload\n      swap1\n      0x0100\n      exp\n      swap1\n      div\n      0xffffffffffffffffffffffffffffffffffffffff\n      and\n      0xffffffffffffffffffffffffffffffffffffffff\n      and\n      dup2\n      mstore\n      0x20\n      add\n      swap1\n      0x01\n      add\n      swap1\n      dup1\n      dup4\n      gt\n      tag_50\n      jumpi\n    tag_49:\n      pop\n      pop\n      pop\n      pop\n      pop\n        /* \"contracts/Marriage.sol\":1042:1052  msg.sender */\n      caller\n        /* \"contracts/Marriage.sol\":1014:1028  addressInArray */\n      tag_51\n        /* \"contracts/Marriage.sol\":1014:1053  addressInArray(d.confirmed, msg.sender) */\n      jump\t// in\n    tag_48:\n        /* \"contracts/Marriage.sol\":1010:1116  if(!addressInArray(d.confirmed, msg.sender)) {... */\n      tag_52\n      jumpi\n        /* \"contracts/Marriage.sol\":1073:1074  d */\n      0x00\n        /* \"contracts/Marriage.sol\":1073:1084  d.confirmed */\n      0x01\n      add\n        /* \"contracts/Marriage.sol\":1090:1100  msg.sender */\n      caller\n        /* \"contracts/Marriage.sol\":1073:1101  d.confirmed.push(msg.sender) */\n      swap1\n      dup1\n      0x01\n      dup2\n      sload\n      add\n      dup1\n      dup3\n      sstore\n      dup1\n      swap2\n      pop\n      pop\n      0x01\n      swap1\n      sub\n      swap1\n      0x00\n      mstore\n      keccak256(0x00, 0x20)\n      add\n      0x00\n      swap1\n      swap2\n      swap1\n      swap2\n      swap1\n      swap2\n      0x0100\n      exp\n      dup2\n      sload\n      dup2\n      0xffffffffffffffffffffffffffffffffffffffff\n      mul\n      not\n      and\n      swap1\n      dup4\n      0xffffffffffffffffffffffffffffffffffffffff\n      and\n      mul\n      or\n      swap1\n      sstore\n      pop\n        /* \"contracts/Marriage.sol\":1010:1116  if(!addressInArray(d.confirmed, msg.sender)) {... */\n    tag_52:\n        /* \"contracts/Marriage.sol\":1134:1182  bytesInArray(contractsByAddres[msg.sender], _id) */\n      tag_54\n        /* \"contracts/Marriage.sol\":1147:1164  contractsByAddres */\n      0x05\n        /* \"contracts/Marriage.sol\":1147:1176  contractsByAddres[msg.sender] */\n      0x00\n        /* \"contracts/Marriage.sol\":1165:1175  msg.sender */\n      caller\n        /* \"contracts/Marriage.sol\":1147:1176  contractsByAddres[msg.sender] */\n      0xffffffffffffffffffffffffffffffffffffffff\n      and\n      0xffffffffffffffffffffffffffffffffffffffff\n      and\n      dup2\n      mstore\n      0x20\n      add\n      swap1\n      dup2\n      mstore\n      0x20\n      add\n      0x00\n      keccak256\n        /* \"contracts/Marriage.sol\":1134:1182  bytesInArray(contractsByAddres[msg.sender], _id) */\n      dup1\n      sload\n      dup1\n      0x20\n      mul\n      0x20\n      add\n      mload(0x40)\n      swap1\n      dup2\n      add\n      0x40\n      mstore\n      dup1\n      swap3\n      swap2\n      swap1\n      dup2\n      dup2\n      mstore\n      0x20\n      add\n      dup3\n      dup1\n      sload\n      dup1\n      iszero\n      tag_55\n      jumpi\n      0x20\n      mul\n      dup3\n      add\n      swap2\n      swap1\n      0x00\n      mstore\n      keccak256(0x00, 0x20)\n      swap1\n    tag_56:\n      dup2\n      sload\n      dup2\n      mstore\n      0x20\n      add\n      swap1\n      0x01\n      add\n      swap1\n      dup1\n      dup4\n      gt\n      tag_56\n      jumpi\n    tag_55:\n      pop\n      pop\n      pop\n      pop\n      pop\n        /* \"contracts/Marriage.sol\":1178:1181  _id */\n      dup5\n        /* \"contracts/Marriage.sol\":1134:1146  bytesInArray */\n      tag_57\n        /* \"contracts/Marriage.sol\":1134:1182  bytesInArray(contractsByAddres[msg.sender], _id) */\n      jump\t// in\n    tag_54:\n        /* \"contracts/Marriage.sol\":1130:1257  if(!bytesInArray(contractsByAddres[msg.sender], _id)){... */\n      tag_58\n      jumpi\n        /* \"contracts/Marriage.sol\":1201:1218  contractsByAddres */\n      0x05\n        /* \"contracts/Marriage.sol\":1201:1230  contractsByAddres[msg.sender] */\n      0x00\n        /* \"contracts/Marriage.sol\":1219:1229  msg.sender */\n      caller\n        /* \"contracts/Marriage.sol\":1201:1230  contractsByAddres[msg.sender] */\n      0xffffffffffffffffffffffffffffffffffffffff\n      and\n      0xffffffffffffffffffffffffffffffffffffffff\n      and\n      dup2\n      mstore\n      0x20\n      add\n      swap1\n      dup2\n      mstore\n      0x20\n      add\n      0x00\n      keccak256\n        /* \"contracts/Marriage.sol\":1236:1239  _id */\n      dup4\n        /* \"contracts/Marriage.sol\":1201:1240  contractsByAddres[msg.sender].push(_id) */\n      swap1\n      dup1\n      0x01\n      dup2\n      sload\n      add\n      dup1\n      dup3\n      sstore\n      dup1\n      swap2\n      pop\n      pop\n      0x01\n      swap1\n      sub\n      swap1\n      0x00\n      mstore\n      keccak256(0x00, 0x20)\n      add\n      0x00\n      swap1\n      swap2\n      swap1\n      swap2\n      swap1\n      swap2\n      pop\n      sstore\n        /* \"contracts/Marriage.sol\":1130:1257  if(!bytesInArray(contractsByAddres[msg.sender], _id)){... */\n    tag_58:\n        /* \"contracts/Marriage.sol\":491:1291  if(_id == 0x0000000000000000000000000000000000000000000000000000000000000000){... */\n    tag_37:\n        /* \"contracts/Marriage.sol\":1330:1331  d */\n      0x00\n        /* \"contracts/Marriage.sol\":1305:1322  detailsByContract */\n      0x06\n        /* \"contracts/Marriage.sol\":1305:1327  detailsByContract[_id] */\n      0x00\n        /* \"contracts/Marriage.sol\":1323:1326  _id */\n      dup6\n        /* \"contracts/Marriage.sol\":1305:1327  detailsByContract[_id] */\n      dup2\n      mstore\n      0x20\n      add\n      swap1\n      dup2\n      mstore\n      0x20\n      add\n      0x00\n      keccak256\n        /* \"contracts/Marriage.sol\":1305:1331  detailsByContract[_id] = d */\n      0x00\n      dup3\n      add\n      dup2\n      0x00\n      add\n      swap1\n      dup1\n      sload\n      tag_60\n      swap3\n      swap2\n      swap1\n      tag_27\n      jump\t// in\n    tag_60:\n      pop\n      0x01\n      dup3\n      add\n      dup2\n      0x01\n      add\n      swap1\n      dup1\n      sload\n      tag_61\n      swap3\n      swap2\n      swap1\n      tag_27\n      jump\t// in\n    tag_61:\n      pop\n      0x02\n      dup3\n      add\n      0x00\n      swap1\n      sload\n      swap1\n      0x0100\n      exp\n      swap1\n      div\n      0xff\n      and\n      dup2\n      0x02\n      add\n      exp(0x0100, 0x00)\n      dup2\n      sload\n      dup2\n      0xff\n      mul\n      not\n      and\n      swap1\n      dup4\n      0xff\n      and\n      mul\n      or\n      swap1\n      sstore\n      pop\n      0x03\n      dup3\n      add\n      sload\n      dup2\n      0x03\n      add\n      sstore\n      0x04\n      dup3\n      add\n      dup2\n      0x04\n      add\n      swap1\n      dup2\n      tag_62\n      swap2\n      swap1\n      tag_30\n      jump\t// in\n    tag_62:\n      pop\n      swap1\n      pop\n      pop\n        /* \"contracts/Marriage.sol\":379:1378  function createContract(bytes32 _id, address[] memory _addresses, string memory _agreement ) public  {... */\n      pop\n      pop\n      pop\n      jump\t// out\n        /* \"contracts/Marriage.sol\":319:371  mapping(bytes32 => Details) public detailsByContract */\n    tag_13:\n      mstore(0x20, 0x06)\n      dup1\n      0x00\n      mstore\n      keccak256(0x00, 0x40)\n      0x00\n      swap2\n      pop\n      swap1\n      pop\n      dup1\n      0x02\n      add\n      0x00\n      swap1\n      sload\n      swap1\n      0x0100\n      exp\n      swap1\n      div\n      0xff\n      and\n      swap1\n      dup1\n      0x03\n      add\n      sload\n      swap1\n      dup1\n      0x04\n      add\n      dup1\n      sload\n      tag_63\n      swap1\n      tag_64\n      jump\t// in\n    tag_63:\n      dup1\n      0x1f\n      add\n      0x20\n      dup1\n      swap2\n      div\n      mul\n      0x20\n      add\n      mload(0x40)\n      swap1\n      dup2\n      add\n      0x40\n      mstore\n      dup1\n      swap3\n      swap2\n      swap1\n      dup2\n      dup2\n      mstore\n      0x20\n      add\n      dup3\n      dup1\n      sload\n      tag_65\n      swap1\n      tag_64\n      jump\t// in\n    tag_65:\n      dup1\n      iszero\n      tag_66\n      jumpi\n      dup1\n      0x1f\n      lt\n      tag_67\n      jumpi\n      0x0100\n      dup1\n      dup4\n      sload\n      div\n      mul\n      dup4\n      mstore\n      swap2\n      0x20\n      add\n      swap2\n      jump(tag_66)\n    tag_67:\n      dup3\n      add\n      swap2\n      swap1\n      0x00\n      mstore\n      keccak256(0x00, 0x20)\n      swap1\n    tag_68:\n      dup2\n      sload\n      dup2\n      mstore\n      swap1\n      0x01\n      add\n      swap1\n      0x20\n      add\n      dup1\n      dup4\n      gt\n      tag_68\n      jumpi\n      dup3\n      swap1\n      sub\n      0x1f\n      and\n      dup3\n      add\n      swap2\n    tag_66:\n      pop\n      pop\n      pop\n      pop\n      pop\n      swap1\n      pop\n      dup4\n      jump\t// out\n        /* \"contracts/Marriage.sol\":259:313  mapping(address => bytes32[]) public contractsByAddres */\n    tag_19:\n      mstore(0x20, 0x05)\n      dup2\n      0x00\n      mstore\n      keccak256(0x00, 0x40)\n      dup2\n      dup2\n      sload\n      dup2\n      lt\n      tag_69\n      jumpi\n      0x00\n      dup1\n      revert\n    tag_69:\n      swap1\n      0x00\n      mstore\n      keccak256(0x00, 0x20)\n      add\n      0x00\n      swap2\n      pop\n      swap2\n      pop\n      pop\n      sload\n      dup2\n      jump\t// out\n        /* \"contracts/Marriage.sol\":1384:1543  function createIdentifier(address[] memory uniqueAddresses) private pure returns (bytes32) {... */\n    tag_25:\n        /* \"contracts/Marriage.sol\":1466:1473  bytes32 */\n      0x00\n        /* \"contracts/Marriage.sol\":1519:1534  uniqueAddresses */\n      dup2\n        /* \"contracts/Marriage.sol\":1502:1535  abi.encodePacked(uniqueAddresses) */\n      add(0x20, mload(0x40))\n      tag_72\n      swap2\n      swap1\n      tag_73\n      jump\t// in\n    tag_72:\n      mload(0x40)\n      0x20\n      dup2\n      dup4\n      sub\n      sub\n      dup2\n      mstore\n      swap1\n      0x40\n      mstore\n        /* \"contracts/Marriage.sol\":1492:1536  keccak256(abi.encodePacked(uniqueAddresses)) */\n      dup1\n      mload\n      swap1\n      0x20\n      add\n      keccak256\n        /* \"contracts/Marriage.sol\":1485:1536  return keccak256(abi.encodePacked(uniqueAddresses)) */\n      swap1\n      pop\n        /* \"contracts/Marriage.sol\":1384:1543  function createIdentifier(address[] memory uniqueAddresses) private pure returns (bytes32) {... */\n      swap2\n      swap1\n      pop\n      jump\t// out\n        /* \"contracts/Marriage.sol\":2079:2598  function areArraysEqual(address[] memory arr1, address[] memory arr2) private pure returns (bool) {... */\n    tag_46:\n        /* \"contracts/Marriage.sol\":2171:2175  bool */\n      0x00\n        /* \"contracts/Marriage.sol\":2205:2209  arr2 */\n      dup2\n        /* \"contracts/Marriage.sol\":2205:2216  arr2.length */\n      mload\n        /* \"contracts/Marriage.sol\":2190:2194  arr1 */\n      dup4\n        /* \"contracts/Marriage.sol\":2190:2201  arr1.length */\n      mload\n        /* \"contracts/Marriage.sol\":2190:2216  arr1.length != arr2.length */\n      eq\n        /* \"contracts/Marriage.sol\":2187:2255  if(arr1.length != arr2.length) {... */\n      tag_75\n      jumpi\n        /* \"contracts/Marriage.sol\":2239:2244  false */\n      0x00\n        /* \"contracts/Marriage.sol\":2232:2244  return false */\n      swap1\n      pop\n      jump(tag_74)\n        /* \"contracts/Marriage.sol\":2187:2255  if(arr1.length != arr2.length) {... */\n    tag_75:\n        /* \"contracts/Marriage.sol\":2292:2337  quickSort(arr1, int(0), int(arr1.length - 1)) */\n      tag_76\n        /* \"contracts/Marriage.sol\":2302:2306  arr1 */\n      dup4\n        /* \"contracts/Marriage.sol\":2312:2313  0 */\n      0x00\n        /* \"contracts/Marriage.sol\":2334:2335  1 */\n      0x01\n        /* \"contracts/Marriage.sol\":2320:2324  arr1 */\n      dup7\n        /* \"contracts/Marriage.sol\":2320:2331  arr1.length */\n      mload\n        /* \"contracts/Marriage.sol\":2320:2335  arr1.length - 1 */\n      tag_77\n      swap2\n      swap1\n      tag_78\n      jump\t// in\n    tag_77:\n        /* \"contracts/Marriage.sol\":2292:2301  quickSort */\n      tag_79\n        /* \"contracts/Marriage.sol\":2292:2337  quickSort(arr1, int(0), int(arr1.length - 1)) */\n      jump\t// in\n    tag_76:\n        /* \"contracts/Marriage.sol\":2347:2392  quickSort(arr2, int(0), int(arr2.length - 1)) */\n      tag_80\n        /* \"contracts/Marriage.sol\":2357:2361  arr2 */\n      dup3\n        /* \"contracts/Marriage.sol\":2367:2368  0 */\n      0x00\n        /* \"contracts/Marriage.sol\":2389:2390  1 */\n      0x01\n        /* \"contracts/Marriage.sol\":2375:2379  arr2 */\n      dup6\n        /* \"contracts/Marriage.sol\":2375:2386  arr2.length */\n      mload\n        /* \"contracts/Marriage.sol\":2375:2390  arr2.length - 1 */\n      tag_81\n      swap2\n      swap1\n      tag_78\n      jump\t// in\n    tag_81:\n        /* \"contracts/Marriage.sol\":2347:2356  quickSort */\n      tag_79\n        /* \"contracts/Marriage.sol\":2347:2392  quickSort(arr2, int(0), int(arr2.length - 1)) */\n      jump\t// in\n    tag_80:\n        /* \"contracts/Marriage.sol\":2444:2450  uint i */\n      0x00\n        /* \"contracts/Marriage.sol\":2440:2570  for(uint i = 0; i < arr1.length; i++) {... */\n    tag_82:\n        /* \"contracts/Marriage.sol\":2460:2464  arr1 */\n      dup4\n        /* \"contracts/Marriage.sol\":2460:2471  arr1.length */\n      mload\n        /* \"contracts/Marriage.sol\":2456:2457  i */\n      dup2\n        /* \"contracts/Marriage.sol\":2456:2471  i < arr1.length */\n      lt\n        /* \"contracts/Marriage.sol\":2440:2570  for(uint i = 0; i < arr1.length; i++) {... */\n      iszero\n      tag_83\n      jumpi\n        /* \"contracts/Marriage.sol\":2506:2510  arr2 */\n      dup3\n        /* \"contracts/Marriage.sol\":2511:2512  i */\n      dup2\n        /* \"contracts/Marriage.sol\":2506:2513  arr2[i] */\n      dup2\n      mload\n      dup2\n      lt\n      tag_85\n      jumpi\n      tag_86\n      tag_87\n      jump\t// in\n    tag_86:\n    tag_85:\n      0x20\n      mul\n      0x20\n      add\n      add\n      mload\n        /* \"contracts/Marriage.sol\":2495:2513  arr1[i] != arr2[i] */\n      0xffffffffffffffffffffffffffffffffffffffff\n      and\n        /* \"contracts/Marriage.sol\":2495:2499  arr1 */\n      dup5\n        /* \"contracts/Marriage.sol\":2500:2501  i */\n      dup3\n        /* \"contracts/Marriage.sol\":2495:2502  arr1[i] */\n      dup2\n      mload\n      dup2\n      lt\n      tag_88\n      jumpi\n      tag_89\n      tag_87\n      jump\t// in\n    tag_89:\n    tag_88:\n      0x20\n      mul\n      0x20\n      add\n      add\n      mload\n        /* \"contracts/Marriage.sol\":2495:2513  arr1[i] != arr2[i] */\n      0xffffffffffffffffffffffffffffffffffffffff\n      and\n      eq\n        /* \"contracts/Marriage.sol\":2492:2560  if(arr1[i] != arr2[i]) {... */\n      tag_90\n      jumpi\n        /* \"contracts/Marriage.sol\":2540:2545  false */\n      0x00\n        /* \"contracts/Marriage.sol\":2533:2545  return false */\n      swap2\n      pop\n      pop\n      jump(tag_74)\n        /* \"contracts/Marriage.sol\":2492:2560  if(arr1[i] != arr2[i]) {... */\n    tag_90:\n        /* \"contracts/Marriage.sol\":2473:2476  i++ */\n      dup1\n      dup1\n      0x01\n      add\n      swap2\n      pop\n      pop\n        /* \"contracts/Marriage.sol\":2440:2570  for(uint i = 0; i < arr1.length; i++) {... */\n      jump(tag_82)\n    tag_83:\n      pop\n        /* \"contracts/Marriage.sol\":2587:2591  true */\n      0x01\n        /* \"contracts/Marriage.sol\":2580:2591  return true */\n      swap1\n      pop\n        /* \"contracts/Marriage.sol\":2079:2598  function areArraysEqual(address[] memory arr1, address[] memory arr2) private pure returns (bool) {... */\n    tag_74:\n      swap3\n      swap2\n      pop\n      pop\n      jump\t// out\n        /* \"contracts/Marriage.sol\":1813:2073  function addressInArray(address[] memory array, address value) private pure returns (bool) {... */\n    tag_51:\n        /* \"contracts/Marriage.sol\":1898:1902  bool */\n      0x00\n        /* \"contracts/Marriage.sol\":1919:1925  uint i */\n      dup1\n        /* \"contracts/Marriage.sol\":1928:1929  0 */\n      0x00\n        /* \"contracts/Marriage.sol\":1919:1929  uint i = 0 */\n      swap1\n      pop\n        /* \"contracts/Marriage.sol\":1914:2045  for (uint i = 0; i < array.length; i++) {... */\n    tag_92:\n        /* \"contracts/Marriage.sol\":1935:1940  array */\n      dup4\n        /* \"contracts/Marriage.sol\":1935:1947  array.length */\n      mload\n        /* \"contracts/Marriage.sol\":1931:1932  i */\n      dup2\n        /* \"contracts/Marriage.sol\":1931:1947  i < array.length */\n      lt\n        /* \"contracts/Marriage.sol\":1914:2045  for (uint i = 0; i < array.length; i++) {... */\n      iszero\n      tag_93\n      jumpi\n        /* \"contracts/Marriage.sol\":1984:1989  value */\n      dup3\n        /* \"contracts/Marriage.sol\":1972:1989  array[i] == value */\n      0xffffffffffffffffffffffffffffffffffffffff\n      and\n        /* \"contracts/Marriage.sol\":1972:1977  array */\n      dup5\n        /* \"contracts/Marriage.sol\":1978:1979  i */\n      dup3\n        /* \"contracts/Marriage.sol\":1972:1980  array[i] */\n      dup2\n      mload\n      dup2\n      lt\n      tag_95\n      jumpi\n      tag_96\n      tag_87\n      jump\t// in\n    tag_96:\n    tag_95:\n      0x20\n      mul\n      0x20\n      add\n      add\n      mload\n        /* \"contracts/Marriage.sol\":1972:1989  array[i] == value */\n      0xffffffffffffffffffffffffffffffffffffffff\n      and\n      sub\n        /* \"contracts/Marriage.sol\":1968:2035  if (array[i] == value) {... */\n      tag_97\n      jumpi\n        /* \"contracts/Marriage.sol\":2016:2020  true */\n      0x01\n        /* \"contracts/Marriage.sol\":2009:2020  return true */\n      swap2\n      pop\n      pop\n      jump(tag_91)\n        /* \"contracts/Marriage.sol\":1968:2035  if (array[i] == value) {... */\n    tag_97:\n        /* \"contracts/Marriage.sol\":1949:1952  i++ */\n      dup1\n      dup1\n      0x01\n      add\n      swap2\n      pop\n      pop\n        /* \"contracts/Marriage.sol\":1914:2045  for (uint i = 0; i < array.length; i++) {... */\n      jump(tag_92)\n    tag_93:\n      pop\n        /* \"contracts/Marriage.sol\":2061:2066  false */\n      0x00\n        /* \"contracts/Marriage.sol\":2054:2066  return false */\n      swap1\n      pop\n        /* \"contracts/Marriage.sol\":1813:2073  function addressInArray(address[] memory array, address value) private pure returns (bool) {... */\n    tag_91:\n      swap3\n      swap2\n      pop\n      pop\n      jump\t// out\n        /* \"contracts/Marriage.sol\":1549:1807  function bytesInArray(bytes32[] memory array, bytes32 value) private pure returns (bool) {... */\n    tag_57:\n        /* \"contracts/Marriage.sol\":1632:1636  bool */\n      0x00\n        /* \"contracts/Marriage.sol\":1653:1659  uint i */\n      dup1\n        /* \"contracts/Marriage.sol\":1662:1663  0 */\n      0x00\n        /* \"contracts/Marriage.sol\":1653:1663  uint i = 0 */\n      swap1\n      pop\n        /* \"contracts/Marriage.sol\":1648:1779  for (uint i = 0; i < array.length; i++) {... */\n    tag_99:\n        /* \"contracts/Marriage.sol\":1669:1674  array */\n      dup4\n        /* \"contracts/Marriage.sol\":1669:1681  array.length */\n      mload\n        /* \"contracts/Marriage.sol\":1665:1666  i */\n      dup2\n        /* \"contracts/Marriage.sol\":1665:1681  i < array.length */\n      lt\n        /* \"contracts/Marriage.sol\":1648:1779  for (uint i = 0; i < array.length; i++) {... */\n      iszero\n      tag_100\n      jumpi\n        /* \"contracts/Marriage.sol\":1718:1723  value */\n      dup3\n        /* \"contracts/Marriage.sol\":1706:1711  array */\n      dup5\n        /* \"contracts/Marriage.sol\":1712:1713  i */\n      dup3\n        /* \"contracts/Marriage.sol\":1706:1714  array[i] */\n      dup2\n      mload\n      dup2\n      lt\n      tag_102\n      jumpi\n      tag_103\n      tag_87\n      jump\t// in\n    tag_103:\n    tag_102:\n      0x20\n      mul\n      0x20\n      add\n      add\n      mload\n        /* \"contracts/Marriage.sol\":1706:1723  array[i] == value */\n      sub\n        /* \"contracts/Marriage.sol\":1702:1769  if (array[i] == value) {... */\n      tag_104\n      jumpi\n        /* \"contracts/Marriage.sol\":1750:1754  true */\n      0x01\n        /* \"contracts/Marriage.sol\":1743:1754  return true */\n      swap2\n      pop\n      pop\n      jump(tag_98)\n        /* \"contracts/Marriage.sol\":1702:1769  if (array[i] == value) {... */\n    tag_104:\n        /* \"contracts/Marriage.sol\":1683:1686  i++ */\n      dup1\n      dup1\n      0x01\n      add\n      swap2\n      pop\n      pop\n        /* \"contracts/Marriage.sol\":1648:1779  for (uint i = 0; i < array.length; i++) {... */\n      jump(tag_99)\n    tag_100:\n      pop\n        /* \"contracts/Marriage.sol\":1795:1800  false */\n      0x00\n        /* \"contracts/Marriage.sol\":1788:1800  return false */\n      swap1\n      pop\n        /* \"contracts/Marriage.sol\":1549:1807  function bytesInArray(bytes32[] memory array, bytes32 value) private pure returns (bool) {... */\n    tag_98:\n      swap3\n      swap2\n      pop\n      pop\n      jump\t// out\n        /* \"contracts/Marriage.sol\":2604:3224  function quickSort(address[] memory arr, int left, int right) private pure {... */\n    tag_79:\n        /* \"contracts/Marriage.sol\":2689:2694  int i */\n      0x00\n        /* \"contracts/Marriage.sol\":2697:2701  left */\n      dup3\n        /* \"contracts/Marriage.sol\":2689:2701  int i = left */\n      swap1\n      pop\n        /* \"contracts/Marriage.sol\":2711:2716  int j */\n      0x00\n        /* \"contracts/Marriage.sol\":2719:2724  right */\n      dup3\n        /* \"contracts/Marriage.sol\":2711:2724  int j = right */\n      swap1\n      pop\n        /* \"contracts/Marriage.sol\":2740:2741  j */\n      dup1\n        /* \"contracts/Marriage.sol\":2737:2738  i */\n      dup3\n        /* \"contracts/Marriage.sol\":2737:2741  i==j */\n      sub\n        /* \"contracts/Marriage.sol\":2734:2750  if(i==j) return; */\n      tag_106\n      jumpi\n        /* \"contracts/Marriage.sol\":2743:2750  return; */\n      pop\n      pop\n      jump(tag_105)\n        /* \"contracts/Marriage.sol\":2734:2750  if(i==j) return; */\n    tag_106:\n        /* \"contracts/Marriage.sol\":2759:2772  address pivot */\n      0x00\n        /* \"contracts/Marriage.sol\":2775:2778  arr */\n      dup6\n        /* \"contracts/Marriage.sol\":2808:2809  2 */\n      0x02\n        /* \"contracts/Marriage.sol\":2800:2804  left */\n      dup7\n        /* \"contracts/Marriage.sol\":2792:2797  right */\n      dup7\n        /* \"contracts/Marriage.sol\":2792:2804  right - left */\n      tag_107\n      swap2\n      swap1\n      tag_108\n      jump\t// in\n    tag_107:\n        /* \"contracts/Marriage.sol\":2791:2809  (right - left) / 2 */\n      tag_109\n      swap2\n      swap1\n      tag_110\n      jump\t// in\n    tag_109:\n        /* \"contracts/Marriage.sol\":2784:2788  left */\n      dup7\n        /* \"contracts/Marriage.sol\":2784:2809  left + (right - left) / 2 */\n      tag_111\n      swap2\n      swap1\n      tag_112\n      jump\t// in\n    tag_111:\n        /* \"contracts/Marriage.sol\":2775:2811  arr[uint(left + (right - left) / 2)] */\n      dup2\n      mload\n      dup2\n      lt\n      tag_113\n      jumpi\n      tag_114\n      tag_87\n      jump\t// in\n    tag_114:\n    tag_113:\n      0x20\n      mul\n      0x20\n      add\n      add\n      mload\n        /* \"contracts/Marriage.sol\":2759:2811  address pivot = arr[uint(left + (right - left) / 2)] */\n      swap1\n      pop\n        /* \"contracts/Marriage.sol\":2821:3098  while (i <= j) {... */\n    tag_115:\n        /* \"contracts/Marriage.sol\":2833:2834  j */\n      dup2\n        /* \"contracts/Marriage.sol\":2828:2829  i */\n      dup4\n        /* \"contracts/Marriage.sol\":2828:2834  i <= j */\n      sgt\n        /* \"contracts/Marriage.sol\":2821:3098  while (i <= j) {... */\n      tag_116\n      jumpi\n        /* \"contracts/Marriage.sol\":2850:2882  while (arr[uint(i)] < pivot) i++ */\n    tag_117:\n        /* \"contracts/Marriage.sol\":2872:2877  pivot */\n      dup1\n        /* \"contracts/Marriage.sol\":2857:2877  arr[uint(i)] < pivot */\n      0xffffffffffffffffffffffffffffffffffffffff\n      and\n        /* \"contracts/Marriage.sol\":2857:2860  arr */\n      dup7\n        /* \"contracts/Marriage.sol\":2866:2867  i */\n      dup5\n        /* \"contracts/Marriage.sol\":2857:2869  arr[uint(i)] */\n      dup2\n      mload\n      dup2\n      lt\n      tag_119\n      jumpi\n      tag_120\n      tag_87\n      jump\t// in\n    tag_120:\n    tag_119:\n      0x20\n      mul\n      0x20\n      add\n      add\n      mload\n        /* \"contracts/Marriage.sol\":2857:2877  arr[uint(i)] < pivot */\n      0xffffffffffffffffffffffffffffffffffffffff\n      and\n      lt\n        /* \"contracts/Marriage.sol\":2850:2882  while (arr[uint(i)] < pivot) i++ */\n      iszero\n      tag_118\n      jumpi\n        /* \"contracts/Marriage.sol\":2879:2882  i++ */\n      dup3\n      dup1\n      tag_121\n      swap1\n      tag_122\n      jump\t// in\n    tag_121:\n      swap4\n      pop\n      pop\n        /* \"contracts/Marriage.sol\":2850:2882  while (arr[uint(i)] < pivot) i++ */\n      jump(tag_117)\n    tag_118:\n        /* \"contracts/Marriage.sol\":2896:2928  while (pivot < arr[uint(j)]) j-- */\n    tag_123:\n        /* \"contracts/Marriage.sol\":2911:2914  arr */\n      dup6\n        /* \"contracts/Marriage.sol\":2920:2921  j */\n      dup3\n        /* \"contracts/Marriage.sol\":2911:2923  arr[uint(j)] */\n      dup2\n      mload\n      dup2\n      lt\n      tag_125\n      jumpi\n      tag_126\n      tag_87\n      jump\t// in\n    tag_126:\n    tag_125:\n      0x20\n      mul\n      0x20\n      add\n      add\n      mload\n        /* \"contracts/Marriage.sol\":2903:2923  pivot < arr[uint(j)] */\n      0xffffffffffffffffffffffffffffffffffffffff\n      and\n        /* \"contracts/Marriage.sol\":2903:2908  pivot */\n      dup2\n        /* \"contracts/Marriage.sol\":2903:2923  pivot < arr[uint(j)] */\n      0xffffffffffffffffffffffffffffffffffffffff\n      and\n      lt\n        /* \"contracts/Marriage.sol\":2896:2928  while (pivot < arr[uint(j)]) j-- */\n      iszero\n      tag_124\n      jumpi\n        /* \"contracts/Marriage.sol\":2925:2928  j-- */\n      dup2\n      dup1\n      tag_127\n      swap1\n      tag_128\n      jump\t// in\n    tag_127:\n      swap3\n      pop\n      pop\n        /* \"contracts/Marriage.sol\":2896:2928  while (pivot < arr[uint(j)]) j-- */\n      jump(tag_123)\n    tag_124:\n        /* \"contracts/Marriage.sol\":2951:2952  j */\n      dup2\n        /* \"contracts/Marriage.sol\":2946:2947  i */\n      dup4\n        /* \"contracts/Marriage.sol\":2946:2952  i <= j */\n      sgt\n        /* \"contracts/Marriage.sol\":2942:3088  if (i <= j) {... */\n      tag_129\n      jumpi\n        /* \"contracts/Marriage.sol\":3004:3007  arr */\n      dup6\n        /* \"contracts/Marriage.sol\":3013:3014  j */\n      dup3\n        /* \"contracts/Marriage.sol\":3004:3016  arr[uint(j)] */\n      dup2\n      mload\n      dup2\n      lt\n      tag_130\n      jumpi\n      tag_131\n      tag_87\n      jump\t// in\n    tag_131:\n    tag_130:\n      0x20\n      mul\n      0x20\n      add\n      add\n      mload\n        /* \"contracts/Marriage.sol\":3018:3021  arr */\n      dup7\n        /* \"contracts/Marriage.sol\":3027:3028  i */\n      dup5\n        /* \"contracts/Marriage.sol\":3018:3030  arr[uint(i)] */\n      dup2\n      mload\n      dup2\n      lt\n      tag_132\n      jumpi\n      tag_133\n      tag_87\n      jump\t// in\n    tag_133:\n    tag_132:\n      0x20\n      mul\n      0x20\n      add\n      add\n      mload\n        /* \"contracts/Marriage.sol\":2973:2976  arr */\n      dup8\n        /* \"contracts/Marriage.sol\":2982:2983  i */\n      dup6\n        /* \"contracts/Marriage.sol\":2973:2985  arr[uint(i)] */\n      dup2\n      mload\n      dup2\n      lt\n      tag_134\n      jumpi\n      tag_135\n      tag_87\n      jump\t// in\n    tag_135:\n    tag_134:\n      0x20\n      mul\n      0x20\n      add\n      add\n        /* \"contracts/Marriage.sol\":2987:2990  arr */\n      dup9\n        /* \"contracts/Marriage.sol\":2996:2997  j */\n      dup6\n        /* \"contracts/Marriage.sol\":2987:2999  arr[uint(j)] */\n      dup2\n      mload\n      dup2\n      lt\n      tag_136\n      jumpi\n      tag_137\n      tag_87\n      jump\t// in\n    tag_137:\n    tag_136:\n      0x20\n      mul\n      0x20\n      add\n      add\n        /* \"contracts/Marriage.sol\":2972:3031  (arr[uint(i)], arr[uint(j)]) = (arr[uint(j)], arr[uint(i)]) */\n      dup3\n      0xffffffffffffffffffffffffffffffffffffffff\n      and\n      0xffffffffffffffffffffffffffffffffffffffff\n      and\n      dup2\n      mstore\n      pop\n      dup3\n      0xffffffffffffffffffffffffffffffffffffffff\n      and\n      0xffffffffffffffffffffffffffffffffffffffff\n      and\n      dup2\n      mstore\n      pop\n      pop\n      pop\n        /* \"contracts/Marriage.sol\":3049:3052  i++ */\n      dup3\n      dup1\n      tag_138\n      swap1\n      tag_122\n      jump\t// in\n    tag_138:\n      swap4\n      pop\n      pop\n        /* \"contracts/Marriage.sol\":3070:3073  j-- */\n      dup2\n      dup1\n      tag_139\n      swap1\n      tag_128\n      jump\t// in\n    tag_139:\n      swap3\n      pop\n      pop\n        /* \"contracts/Marriage.sol\":2942:3088  if (i <= j) {... */\n    tag_129:\n        /* \"contracts/Marriage.sol\":2821:3098  while (i <= j) {... */\n      jump(tag_115)\n    tag_116:\n        /* \"contracts/Marriage.sol\":3118:3119  j */\n      dup2\n        /* \"contracts/Marriage.sol\":3111:3115  left */\n      dup6\n        /* \"contracts/Marriage.sol\":3111:3119  left < j */\n      slt\n        /* \"contracts/Marriage.sol\":3107:3156  if (left < j)... */\n      iszero\n      tag_140\n      jumpi\n        /* \"contracts/Marriage.sol\":3133:3156  quickSort(arr, left, j) */\n      tag_141\n        /* \"contracts/Marriage.sol\":3143:3146  arr */\n      dup7\n        /* \"contracts/Marriage.sol\":3148:3152  left */\n      dup7\n        /* \"contracts/Marriage.sol\":3154:3155  j */\n      dup5\n        /* \"contracts/Marriage.sol\":3133:3142  quickSort */\n      tag_79\n        /* \"contracts/Marriage.sol\":3133:3156  quickSort(arr, left, j) */\n      jump\t// in\n    tag_141:\n        /* \"contracts/Marriage.sol\":3107:3156  if (left < j)... */\n    tag_140:\n        /* \"contracts/Marriage.sol\":3174:3179  right */\n      dup4\n        /* \"contracts/Marriage.sol\":3170:3171  i */\n      dup4\n        /* \"contracts/Marriage.sol\":3170:3179  i < right */\n      slt\n        /* \"contracts/Marriage.sol\":3166:3217  if (i < right)... */\n      iszero\n      tag_142\n      jumpi\n        /* \"contracts/Marriage.sol\":3193:3217  quickSort(arr, i, right) */\n      tag_143\n        /* \"contracts/Marriage.sol\":3203:3206  arr */\n      dup7\n        /* \"contracts/Marriage.sol\":3208:3209  i */\n      dup5\n        /* \"contracts/Marriage.sol\":3211:3216  right */\n      dup7\n        /* \"contracts/Marriage.sol\":3193:3202  quickSort */\n      tag_79\n        /* \"contracts/Marriage.sol\":3193:3217  quickSort(arr, i, right) */\n      jump\t// in\n    tag_143:\n        /* \"contracts/Marriage.sol\":3166:3217  if (i < right)... */\n    tag_142:\n        /* \"contracts/Marriage.sol\":2679:3224  {... */\n      pop\n      pop\n      pop\n        /* \"contracts/Marriage.sol\":2604:3224  function quickSort(address[] memory arr, int left, int right) private pure {... */\n    tag_105:\n      pop\n      pop\n      pop\n      jump\t// out\n    tag_27:\n      dup3\n      dup1\n      sload\n      dup3\n      dup3\n      sstore\n      swap1\n      0x00\n      mstore\n      keccak256(0x00, 0x20)\n      swap1\n      dup2\n      add\n      swap3\n      dup3\n      iszero\n      tag_144\n      jumpi\n      0x00\n      mstore\n      keccak256(0x00, 0x20)\n      swap2\n      dup3\n      add\n    tag_145:\n      dup3\n      dup2\n      gt\n      iszero\n      tag_146\n      jumpi\n      dup3\n      sload\n      dup3\n      sstore\n      swap2\n      0x01\n      add\n      swap2\n      swap1\n      0x01\n      add\n      swap1\n      jump(tag_145)\n    tag_146:\n    tag_144:\n      pop\n      swap1\n      pop\n      tag_147\n      swap2\n      swap1\n      tag_148\n      jump\t// in\n    tag_147:\n      pop\n      swap1\n      jump\t// out\n    tag_32:\n      dup3\n      dup1\n      sload\n      dup3\n      dup3\n      sstore\n      swap1\n      0x00\n      mstore\n      keccak256(0x00, 0x20)\n      swap1\n      dup2\n      add\n      swap3\n      dup3\n      iszero\n      tag_149\n      jumpi\n      swap2\n      0x20\n      mul\n      dup3\n      add\n    tag_150:\n      dup3\n      dup2\n      gt\n      iszero\n      tag_151\n      jumpi\n      dup3\n      mload\n      dup3\n      exp(0x0100, 0x00)\n      dup2\n      sload\n      dup2\n      0xffffffffffffffffffffffffffffffffffffffff\n      mul\n      not\n      and\n      swap1\n      dup4\n      0xffffffffffffffffffffffffffffffffffffffff\n      and\n      mul\n      or\n      swap1\n      sstore\n      pop\n      swap2\n      0x20\n      add\n      swap2\n      swap1\n      0x01\n      add\n      swap1\n      jump(tag_150)\n    tag_151:\n    tag_149:\n      pop\n      swap1\n      pop\n      tag_152\n      swap2\n      swap1\n      tag_148\n      jump\t// in\n    tag_152:\n      pop\n      swap1\n      jump\t// out\n    tag_34:\n      dup3\n      dup1\n      sload\n      dup3\n      dup3\n      sstore\n      swap1\n      0x00\n      mstore\n      keccak256(0x00, 0x20)\n      swap1\n      dup2\n      add\n      swap3\n      dup3\n      iszero\n      tag_153\n      jumpi\n      swap2\n      0x20\n      mul\n      dup3\n      add\n    tag_154:\n      dup3\n      dup2\n      gt\n      iszero\n      tag_155\n      jumpi\n      dup3\n      mload\n      dup3\n      exp(0x0100, 0x00)\n      dup2\n      sload\n      dup2\n      0xffffffffffffffffffffffffffffffffffffffff\n      mul\n      not\n      and\n      swap1\n      dup4\n      0xffffffffffffffffffffffffffffffffffffffff\n      and\n      mul\n      or\n      swap1\n      sstore\n      pop\n      swap2\n      0x20\n      add\n      swap2\n      swap1\n      0x01\n      add\n      swap1\n      jump(tag_154)\n    tag_155:\n    tag_153:\n      pop\n      swap1\n      pop\n      tag_156\n      swap2\n      swap1\n      tag_148\n      jump\t// in\n    tag_156:\n      pop\n      swap1\n      jump\t// out\n    tag_148:\n    tag_157:\n      dup1\n      dup3\n      gt\n      iszero\n      tag_158\n      jumpi\n      0x00\n      dup2\n      0x00\n      swap1\n      sstore\n      pop\n      0x01\n      add\n      jump(tag_157)\n    tag_158:\n      pop\n      swap1\n      jump\t// out\n        /* \"#utility.yul\":7:82   */\n    tag_159:\n        /* \"#utility.yul\":40:46   */\n      0x00\n        /* \"#utility.yul\":73:75   */\n      0x40\n        /* \"#utility.yul\":67:76   */\n      mload\n        /* \"#utility.yul\":57:76   */\n      swap1\n      pop\n        /* \"#utility.yul\":7:82   */\n      swap1\n      jump\t// out\n        /* \"#utility.yul\":88:205   */\n    tag_160:\n        /* \"#utility.yul\":197:198   */\n      0x00\n        /* \"#utility.yul\":194:195   */\n      dup1\n        /* \"#utility.yul\":187:199   */\n      revert\n        /* \"#utility.yul\":211:328   */\n    tag_161:\n        /* \"#utility.yul\":320:321   */\n      0x00\n        /* \"#utility.yul\":317:318   */\n      dup1\n        /* \"#utility.yul\":310:322   */\n      revert\n        /* \"#utility.yul\":334:411   */\n    tag_162:\n        /* \"#utility.yul\":371:378   */\n      0x00\n        /* \"#utility.yul\":400:405   */\n      dup2\n        /* \"#utility.yul\":389:405   */\n      swap1\n      pop\n        /* \"#utility.yul\":334:411   */\n      swap2\n      swap1\n      pop\n      jump\t// out\n        /* \"#utility.yul\":417:539   */\n    tag_163:\n        /* \"#utility.yul\":490:514   */\n      tag_227\n        /* \"#utility.yul\":508:513   */\n      dup2\n        /* \"#utility.yul\":490:514   */\n      tag_162\n      jump\t// in\n    tag_227:\n        /* \"#utility.yul\":483:488   */\n      dup2\n        /* \"#utility.yul\":480:515   */\n      eq\n        /* \"#utility.yul\":470:533   */\n      tag_228\n      jumpi\n        /* \"#utility.yul\":529:530   */\n      0x00\n        /* \"#utility.yul\":526:527   */\n      dup1\n        /* \"#utility.yul\":519:531   */\n      revert\n        /* \"#utility.yul\":470:533   */\n    tag_228:\n        /* \"#utility.yul\":417:539   */\n      pop\n      jump\t// out\n        /* \"#utility.yul\":545:684   */\n    tag_164:\n        /* \"#utility.yul\":591:596   */\n      0x00\n        /* \"#utility.yul\":629:635   */\n      dup2\n        /* \"#utility.yul\":616:636   */\n      calldataload\n        /* \"#utility.yul\":607:636   */\n      swap1\n      pop\n        /* \"#utility.yul\":645:678   */\n      tag_230\n        /* \"#utility.yul\":672:677   */\n      dup2\n        /* \"#utility.yul\":645:678   */\n      tag_163\n      jump\t// in\n    tag_230:\n        /* \"#utility.yul\":545:684   */\n      swap3\n      swap2\n      pop\n      pop\n      jump\t// out\n        /* \"#utility.yul\":690:807   */\n    tag_165:\n        /* \"#utility.yul\":799:800   */\n      0x00\n        /* \"#utility.yul\":796:797   */\n      dup1\n        /* \"#utility.yul\":789:801   */\n      revert\n        /* \"#utility.yul\":813:915   */\n    tag_166:\n        /* \"#utility.yul\":854:860   */\n      0x00\n        /* \"#utility.yul\":905:907   */\n      0x1f\n        /* \"#utility.yul\":901:908   */\n      not\n        /* \"#utility.yul\":896:898   */\n      0x1f\n        /* \"#utility.yul\":889:894   */\n      dup4\n        /* \"#utility.yul\":885:899   */\n      add\n        /* \"#utility.yul\":881:909   */\n      and\n        /* \"#utility.yul\":871:909   */\n      swap1\n      pop\n        /* \"#utility.yul\":813:915   */\n      swap2\n      swap1\n      pop\n      jump\t// out\n        /* \"#utility.yul\":921:1101   */\n    tag_167:\n        /* \"#utility.yul\":969:1046   */\n      0x4e487b7100000000000000000000000000000000000000000000000000000000\n        /* \"#utility.yul\":966:967   */\n      0x00\n        /* \"#utility.yul\":959:1047   */\n      mstore\n        /* \"#utility.yul\":1066:1070   */\n      0x41\n        /* \"#utility.yul\":1063:1064   */\n      0x04\n        /* \"#utility.yul\":1056:1071   */\n      mstore\n        /* \"#utility.yul\":1090:1094   */\n      0x24\n        /* \"#utility.yul\":1087:1088   */\n      0x00\n        /* \"#utility.yul\":1080:1095   */\n      revert\n        /* \"#utility.yul\":1107:1388   */\n    tag_168:\n        /* \"#utility.yul\":1190:1217   */\n      tag_235\n        /* \"#utility.yul\":1212:1216   */\n      dup3\n        /* \"#utility.yul\":1190:1217   */\n      tag_166\n      jump\t// in\n    tag_235:\n        /* \"#utility.yul\":1182:1188   */\n      dup2\n        /* \"#utility.yul\":1178:1218   */\n      add\n        /* \"#utility.yul\":1320:1326   */\n      dup2\n        /* \"#utility.yul\":1308:1318   */\n      dup2\n        /* \"#utility.yul\":1305:1327   */\n      lt\n        /* \"#utility.yul\":1284:1302   */\n      0xffffffffffffffff\n        /* \"#utility.yul\":1272:1282   */\n      dup3\n        /* \"#utility.yul\":1269:1303   */\n      gt\n        /* \"#utility.yul\":1266:1328   */\n      or\n        /* \"#utility.yul\":1263:1351   */\n      iszero\n      tag_236\n      jumpi\n        /* \"#utility.yul\":1331:1349   */\n      tag_237\n      tag_167\n      jump\t// in\n    tag_237:\n        /* \"#utility.yul\":1263:1351   */\n    tag_236:\n        /* \"#utility.yul\":1371:1381   */\n      dup1\n        /* \"#utility.yul\":1367:1369   */\n      0x40\n        /* \"#utility.yul\":1360:1382   */\n      mstore\n        /* \"#utility.yul\":1150:1388   */\n      pop\n        /* \"#utility.yul\":1107:1388   */\n      pop\n      pop\n      jump\t// out\n        /* \"#utility.yul\":1394:1523   */\n    tag_169:\n        /* \"#utility.yul\":1428:1434   */\n      0x00\n        /* \"#utility.yul\":1455:1475   */\n      tag_239\n      tag_159\n      jump\t// in\n    tag_239:\n        /* \"#utility.yul\":1445:1475   */\n      swap1\n      pop\n        /* \"#utility.yul\":1484:1517   */\n      tag_240\n        /* \"#utility.yul\":1512:1516   */\n      dup3\n        /* \"#utility.yul\":1504:1510   */\n      dup3\n        /* \"#utility.yul\":1484:1517   */\n      tag_168\n      jump\t// in\n    tag_240:\n        /* \"#utility.yul\":1394:1523   */\n      swap2\n      swap1\n      pop\n      jump\t// out\n        /* \"#utility.yul\":1529:1840   */\n    tag_170:\n        /* \"#utility.yul\":1606:1610   */\n      0x00\n        /* \"#utility.yul\":1696:1714   */\n      0xffffffffffffffff\n        /* \"#utility.yul\":1688:1694   */\n      dup3\n        /* \"#utility.yul\":1685:1715   */\n      gt\n        /* \"#utility.yul\":1682:1738   */\n      iszero\n      tag_242\n      jumpi\n        /* \"#utility.yul\":1718:1736   */\n      tag_243\n      tag_167\n      jump\t// in\n    tag_243:\n        /* \"#utility.yul\":1682:1738   */\n    tag_242:\n        /* \"#utility.yul\":1768:1772   */\n      0x20\n        /* \"#utility.yul\":1760:1766   */\n      dup3\n        /* \"#utility.yul\":1756:1773   */\n      mul\n        /* \"#utility.yul\":1748:1773   */\n      swap1\n      pop\n        /* \"#utility.yul\":1828:1832   */\n      0x20\n        /* \"#utility.yul\":1822:1826   */\n      dup2\n        /* \"#utility.yul\":1818:1833   */\n      add\n        /* \"#utility.yul\":1810:1833   */\n      swap1\n      pop\n        /* \"#utility.yul\":1529:1840   */\n      swap2\n      swap1\n      pop\n      jump\t// out\n        /* \"#utility.yul\":1846:1963   */\n    tag_171:\n        /* \"#utility.yul\":1955:1956   */\n      0x00\n        /* \"#utility.yul\":1952:1953   */\n      dup1\n        /* \"#utility.yul\":1945:1957   */\n      revert\n        /* \"#utility.yul\":1969:2095   */\n    tag_172:\n        /* \"#utility.yul\":2006:2013   */\n      0x00\n        /* \"#utility.yul\":2046:2088   */\n      0xffffffffffffffffffffffffffffffffffffffff\n        /* \"#utility.yul\":2039:2044   */\n      dup3\n        /* \"#utility.yul\":2035:2089   */\n      and\n        /* \"#utility.yul\":2024:2089   */\n      swap1\n      pop\n        /* \"#utility.yul\":1969:2095   */\n      swap2\n      swap1\n      pop\n      jump\t// out\n        /* \"#utility.yul\":2101:2197   */\n    tag_173:\n        /* \"#utility.yul\":2138:2145   */\n      0x00\n        /* \"#utility.yul\":2167:2191   */\n      tag_247\n        /* \"#utility.yul\":2185:2190   */\n      dup3\n        /* \"#utility.yul\":2167:2191   */\n      tag_172\n      jump\t// in\n    tag_247:\n        /* \"#utility.yul\":2156:2191   */\n      swap1\n      pop\n        /* \"#utility.yul\":2101:2197   */\n      swap2\n      swap1\n      pop\n      jump\t// out\n        /* \"#utility.yul\":2203:2325   */\n    tag_174:\n        /* \"#utility.yul\":2276:2300   */\n      tag_249\n        /* \"#utility.yul\":2294:2299   */\n      dup2\n        /* \"#utility.yul\":2276:2300   */\n      tag_173\n      jump\t// in\n    tag_249:\n        /* \"#utility.yul\":2269:2274   */\n      dup2\n        /* \"#utility.yul\":2266:2301   */\n      eq\n        /* \"#utility.yul\":2256:2319   */\n      tag_250\n      jumpi\n        /* \"#utility.yul\":2315:2316   */\n      0x00\n        /* \"#utility.yul\":2312:2313   */\n      dup1\n        /* \"#utility.yul\":2305:2317   */\n      revert\n        /* \"#utility.yul\":2256:2319   */\n    tag_250:\n        /* \"#utility.yul\":2203:2325   */\n      pop\n      jump\t// out\n        /* \"#utility.yul\":2331:2470   */\n    tag_175:\n        /* \"#utility.yul\":2377:2382   */\n      0x00\n        /* \"#utility.yul\":2415:2421   */\n      dup2\n        /* \"#utility.yul\":2402:2422   */\n      calldataload\n        /* \"#utility.yul\":2393:2422   */\n      swap1\n      pop\n        /* \"#utility.yul\":2431:2464   */\n      tag_252\n        /* \"#utility.yul\":2458:2463   */\n      dup2\n        /* \"#utility.yul\":2431:2464   */\n      tag_174\n      jump\t// in\n    tag_252:\n        /* \"#utility.yul\":2331:2470   */\n      swap3\n      swap2\n      pop\n      pop\n      jump\t// out\n        /* \"#utility.yul\":2493:3203   */\n    tag_176:\n        /* \"#utility.yul\":2589:2594   */\n      0x00\n        /* \"#utility.yul\":2614:2695   */\n      tag_254\n        /* \"#utility.yul\":2630:2694   */\n      tag_255\n        /* \"#utility.yul\":2687:2693   */\n      dup5\n        /* \"#utility.yul\":2630:2694   */\n      tag_170\n      jump\t// in\n    tag_255:\n        /* \"#utility.yul\":2614:2695   */\n      tag_169\n      jump\t// in\n    tag_254:\n        /* \"#utility.yul\":2605:2695   */\n      swap1\n      pop\n        /* \"#utility.yul\":2715:2720   */\n      dup1\n        /* \"#utility.yul\":2744:2750   */\n      dup4\n        /* \"#utility.yul\":2737:2742   */\n      dup3\n        /* \"#utility.yul\":2730:2751   */\n      mstore\n        /* \"#utility.yul\":2778:2782   */\n      0x20\n        /* \"#utility.yul\":2771:2776   */\n      dup3\n        /* \"#utility.yul\":2767:2783   */\n      add\n        /* \"#utility.yul\":2760:2783   */\n      swap1\n      pop\n        /* \"#utility.yul\":2831:2835   */\n      0x20\n        /* \"#utility.yul\":2823:2829   */\n      dup5\n        /* \"#utility.yul\":2819:2836   */\n      mul\n        /* \"#utility.yul\":2811:2817   */\n      dup4\n        /* \"#utility.yul\":2807:2837   */\n      add\n        /* \"#utility.yul\":2860:2863   */\n      dup6\n        /* \"#utility.yul\":2852:2858   */\n      dup2\n        /* \"#utility.yul\":2849:2864   */\n      gt\n        /* \"#utility.yul\":2846:2968   */\n      iszero\n      tag_256\n      jumpi\n        /* \"#utility.yul\":2879:2958   */\n      tag_257\n      tag_171\n      jump\t// in\n    tag_257:\n        /* \"#utility.yul\":2846:2968   */\n    tag_256:\n        /* \"#utility.yul\":2994:3000   */\n      dup4\n        /* \"#utility.yul\":2977:3197   */\n    tag_258:\n        /* \"#utility.yul\":3011:3017   */\n      dup2\n        /* \"#utility.yul\":3006:3009   */\n      dup2\n        /* \"#utility.yul\":3003:3018   */\n      lt\n        /* \"#utility.yul\":2977:3197   */\n      iszero\n      tag_260\n      jumpi\n        /* \"#utility.yul\":3086:3089   */\n      dup1\n        /* \"#utility.yul\":3115:3152   */\n      tag_261\n        /* \"#utility.yul\":3148:3151   */\n      dup9\n        /* \"#utility.yul\":3136:3146   */\n      dup3\n        /* \"#utility.yul\":3115:3152   */\n      tag_175\n      jump\t// in\n    tag_261:\n        /* \"#utility.yul\":3110:3113   */\n      dup5\n        /* \"#utility.yul\":3103:3153   */\n      mstore\n        /* \"#utility.yul\":3182:3186   */\n      0x20\n        /* \"#utility.yul\":3177:3180   */\n      dup5\n        /* \"#utility.yul\":3173:3187   */\n      add\n        /* \"#utility.yul\":3166:3187   */\n      swap4\n      pop\n        /* \"#utility.yul\":3053:3197   */\n      pop\n        /* \"#utility.yul\":3037:3041   */\n      0x20\n        /* \"#utility.yul\":3032:3035   */\n      dup2\n        /* \"#utility.yul\":3028:3042   */\n      add\n        /* \"#utility.yul\":3021:3042   */\n      swap1\n      pop\n        /* \"#utility.yul\":2977:3197   */\n      jump(tag_258)\n    tag_260:\n        /* \"#utility.yul\":2981:3002   */\n      pop\n        /* \"#utility.yul\":2595:3203   */\n      pop\n      pop\n        /* \"#utility.yul\":2493:3203   */\n      swap4\n      swap3\n      pop\n      pop\n      pop\n      jump\t// out\n        /* \"#utility.yul\":3226:3596   */\n    tag_177:\n        /* \"#utility.yul\":3297:3302   */\n      0x00\n        /* \"#utility.yul\":3346:3349   */\n      dup3\n        /* \"#utility.yul\":3339:3343   */\n      0x1f\n        /* \"#utility.yul\":3331:3337   */\n      dup4\n        /* \"#utility.yul\":3327:3344   */\n      add\n        /* \"#utility.yul\":3323:3350   */\n      slt\n        /* \"#utility.yul\":3313:3435   */\n      tag_263\n      jumpi\n        /* \"#utility.yul\":3354:3433   */\n      tag_264\n      tag_165\n      jump\t// in\n    tag_264:\n        /* \"#utility.yul\":3313:3435   */\n    tag_263:\n        /* \"#utility.yul\":3471:3477   */\n      dup2\n        /* \"#utility.yul\":3458:3478   */\n      calldataload\n        /* \"#utility.yul\":3496:3590   */\n      tag_265\n        /* \"#utility.yul\":3586:3589   */\n      dup5\n        /* \"#utility.yul\":3578:3584   */\n      dup3\n        /* \"#utility.yul\":3571:3575   */\n      0x20\n        /* \"#utility.yul\":3563:3569   */\n      dup7\n        /* \"#utility.yul\":3559:3576   */\n      add\n        /* \"#utility.yul\":3496:3590   */\n      tag_176\n      jump\t// in\n    tag_265:\n        /* \"#utility.yul\":3487:3590   */\n      swap2\n      pop\n        /* \"#utility.yul\":3303:3596   */\n      pop\n        /* \"#utility.yul\":3226:3596   */\n      swap3\n      swap2\n      pop\n      pop\n      jump\t// out\n        /* \"#utility.yul\":3602:3719   */\n    tag_178:\n        /* \"#utility.yul\":3711:3712   */\n      0x00\n        /* \"#utility.yul\":3708:3709   */\n      dup1\n        /* \"#utility.yul\":3701:3713   */\n      revert\n        /* \"#utility.yul\":3725:4033   */\n    tag_179:\n        /* \"#utility.yul\":3787:3791   */\n      0x00\n        /* \"#utility.yul\":3877:3895   */\n      0xffffffffffffffff\n        /* \"#utility.yul\":3869:3875   */\n      dup3\n        /* \"#utility.yul\":3866:3896   */\n      gt\n        /* \"#utility.yul\":3863:3919   */\n      iszero\n      tag_268\n      jumpi\n        /* \"#utility.yul\":3899:3917   */\n      tag_269\n      tag_167\n      jump\t// in\n    tag_269:\n        /* \"#utility.yul\":3863:3919   */\n    tag_268:\n        /* \"#utility.yul\":3937:3966   */\n      tag_270\n        /* \"#utility.yul\":3959:3965   */\n      dup3\n        /* \"#utility.yul\":3937:3966   */\n      tag_166\n      jump\t// in\n    tag_270:\n        /* \"#utility.yul\":3929:3966   */\n      swap1\n      pop\n        /* \"#utility.yul\":4021:4025   */\n      0x20\n        /* \"#utility.yul\":4015:4019   */\n      dup2\n        /* \"#utility.yul\":4011:4026   */\n      add\n        /* \"#utility.yul\":4003:4026   */\n      swap1\n      pop\n        /* \"#utility.yul\":3725:4033   */\n      swap2\n      swap1\n      pop\n      jump\t// out\n        /* \"#utility.yul\":4039:4185   */\n    tag_180:\n        /* \"#utility.yul\":4136:4142   */\n      dup3\n        /* \"#utility.yul\":4131:4134   */\n      dup2\n        /* \"#utility.yul\":4126:4129   */\n      dup4\n        /* \"#utility.yul\":4113:4143   */\n      calldatacopy\n        /* \"#utility.yul\":4177:4178   */\n      0x00\n        /* \"#utility.yul\":4168:4174   */\n      dup4\n        /* \"#utility.yul\":4163:4166   */\n      dup4\n        /* \"#utility.yul\":4159:4175   */\n      add\n        /* \"#utility.yul\":4152:4179   */\n      mstore\n        /* \"#utility.yul\":4039:4185   */\n      pop\n      pop\n      pop\n      jump\t// out\n        /* \"#utility.yul\":4191:4616   */\n    tag_181:\n        /* \"#utility.yul\":4269:4274   */\n      0x00\n        /* \"#utility.yul\":4294:4360   */\n      tag_273\n        /* \"#utility.yul\":4310:4359   */\n      tag_274\n        /* \"#utility.yul\":4352:4358   */\n      dup5\n        /* \"#utility.yul\":4310:4359   */\n      tag_179\n      jump\t// in\n    tag_274:\n        /* \"#utility.yul\":4294:4360   */\n      tag_169\n      jump\t// in\n    tag_273:\n        /* \"#utility.yul\":4285:4360   */\n      swap1\n      pop\n        /* \"#utility.yul\":4383:4389   */\n      dup3\n        /* \"#utility.yul\":4376:4381   */\n      dup2\n        /* \"#utility.yul\":4369:4390   */\n      mstore\n        /* \"#utility.yul\":4421:4425   */\n      0x20\n        /* \"#utility.yul\":4414:4419   */\n      dup2\n        /* \"#utility.yul\":4410:4426   */\n      add\n        /* \"#utility.yul\":4459:4462   */\n      dup5\n        /* \"#utility.yul\":4450:4456   */\n      dup5\n        /* \"#utility.yul\":4445:4448   */\n      dup5\n        /* \"#utility.yul\":4441:4457   */\n      add\n        /* \"#utility.yul\":4438:4463   */\n      gt\n        /* \"#utility.yul\":4435:4547   */\n      iszero\n      tag_275\n      jumpi\n        /* \"#utility.yul\":4466:4545   */\n      tag_276\n      tag_178\n      jump\t// in\n    tag_276:\n        /* \"#utility.yul\":4435:4547   */\n    tag_275:\n        /* \"#utility.yul\":4556:4610   */\n      tag_277\n        /* \"#utility.yul\":4603:4609   */\n      dup5\n        /* \"#utility.yul\":4598:4601   */\n      dup3\n        /* \"#utility.yul\":4593:4596   */\n      dup6\n        /* \"#utility.yul\":4556:4610   */\n      tag_180\n      jump\t// in\n    tag_277:\n        /* \"#utility.yul\":4275:4616   */\n      pop\n        /* \"#utility.yul\":4191:4616   */\n      swap4\n      swap3\n      pop\n      pop\n      pop\n      jump\t// out\n        /* \"#utility.yul\":4636:4976   */\n    tag_182:\n        /* \"#utility.yul\":4692:4697   */\n      0x00\n        /* \"#utility.yul\":4741:4744   */\n      dup3\n        /* \"#utility.yul\":4734:4738   */\n      0x1f\n        /* \"#utility.yul\":4726:4732   */\n      dup4\n        /* \"#utility.yul\":4722:4739   */\n      add\n        /* \"#utility.yul\":4718:4745   */\n      slt\n        /* \"#utility.yul\":4708:4830   */\n      tag_279\n      jumpi\n        /* \"#utility.yul\":4749:4828   */\n      tag_280\n      tag_165\n      jump\t// in\n    tag_280:\n        /* \"#utility.yul\":4708:4830   */\n    tag_279:\n        /* \"#utility.yul\":4866:4872   */\n      dup2\n        /* \"#utility.yul\":4853:4873   */\n      calldataload\n        /* \"#utility.yul\":4891:4970   */\n      tag_281\n        /* \"#utility.yul\":4966:4969   */\n      dup5\n        /* \"#utility.yul\":4958:4964   */\n      dup3\n        /* \"#utility.yul\":4951:4955   */\n      0x20\n        /* \"#utility.yul\":4943:4949   */\n      dup7\n        /* \"#utility.yul\":4939:4956   */\n      add\n        /* \"#utility.yul\":4891:4970   */\n      tag_181\n      jump\t// in\n    tag_281:\n        /* \"#utility.yul\":4882:4970   */\n      swap2\n      pop\n        /* \"#utility.yul\":4698:4976   */\n      pop\n        /* \"#utility.yul\":4636:4976   */\n      swap3\n      swap2\n      pop\n      pop\n      jump\t// out\n        /* \"#utility.yul\":4982:5991   */\n    tag_8:\n        /* \"#utility.yul\":5094:5100   */\n      0x00\n        /* \"#utility.yul\":5102:5108   */\n      dup1\n        /* \"#utility.yul\":5110:5116   */\n      0x00\n        /* \"#utility.yul\":5159:5161   */\n      0x60\n        /* \"#utility.yul\":5147:5156   */\n      dup5\n        /* \"#utility.yul\":5138:5145   */\n      dup7\n        /* \"#utility.yul\":5134:5157   */\n      sub\n        /* \"#utility.yul\":5130:5162   */\n      slt\n        /* \"#utility.yul\":5127:5246   */\n      iszero\n      tag_283\n      jumpi\n        /* \"#utility.yul\":5165:5244   */\n      tag_284\n      tag_160\n      jump\t// in\n    tag_284:\n        /* \"#utility.yul\":5127:5246   */\n    tag_283:\n        /* \"#utility.yul\":5285:5286   */\n      0x00\n        /* \"#utility.yul\":5310:5363   */\n      tag_285\n        /* \"#utility.yul\":5355:5362   */\n      dup7\n        /* \"#utility.yul\":5346:5352   */\n      dup3\n        /* \"#utility.yul\":5335:5344   */\n      dup8\n        /* \"#utility.yul\":5331:5353   */\n      add\n        /* \"#utility.yul\":5310:5363   */\n      tag_164\n      jump\t// in\n    tag_285:\n        /* \"#utility.yul\":5300:5363   */\n      swap4\n      pop\n        /* \"#utility.yul\":5256:5373   */\n      pop\n        /* \"#utility.yul\":5440:5442   */\n      0x20\n        /* \"#utility.yul\":5429:5438   */\n      dup5\n        /* \"#utility.yul\":5425:5443   */\n      add\n        /* \"#utility.yul\":5412:5444   */\n      calldataload\n        /* \"#utility.yul\":5471:5489   */\n      0xffffffffffffffff\n        /* \"#utility.yul\":5463:5469   */\n      dup2\n        /* \"#utility.yul\":5460:5490   */\n      gt\n        /* \"#utility.yul\":5457:5574   */\n      iszero\n      tag_286\n      jumpi\n        /* \"#utility.yul\":5493:5572   */\n      tag_287\n      tag_161\n      jump\t// in\n    tag_287:\n        /* \"#utility.yul\":5457:5574   */\n    tag_286:\n        /* \"#utility.yul\":5598:5676   */\n      tag_288\n        /* \"#utility.yul\":5668:5675   */\n      dup7\n        /* \"#utility.yul\":5659:5665   */\n      dup3\n        /* \"#utility.yul\":5648:5657   */\n      dup8\n        /* \"#utility.yul\":5644:5666   */\n      add\n        /* \"#utility.yul\":5598:5676   */\n      tag_177\n      jump\t// in\n    tag_288:\n        /* \"#utility.yul\":5588:5676   */\n      swap3\n      pop\n        /* \"#utility.yul\":5383:5686   */\n      pop\n        /* \"#utility.yul\":5753:5755   */\n      0x40\n        /* \"#utility.yul\":5742:5751   */\n      dup5\n        /* \"#utility.yul\":5738:5756   */\n      add\n        /* \"#utility.yul\":5725:5757   */\n      calldataload\n        /* \"#utility.yul\":5784:5802   */\n      0xffffffffffffffff\n        /* \"#utility.yul\":5776:5782   */\n      dup2\n        /* \"#utility.yul\":5773:5803   */\n      gt\n        /* \"#utility.yul\":5770:5887   */\n      iszero\n      tag_289\n      jumpi\n        /* \"#utility.yul\":5806:5885   */\n      tag_290\n      tag_161\n      jump\t// in\n    tag_290:\n        /* \"#utility.yul\":5770:5887   */\n    tag_289:\n        /* \"#utility.yul\":5911:5974   */\n      tag_291\n        /* \"#utility.yul\":5966:5973   */\n      dup7\n        /* \"#utility.yul\":5957:5963   */\n      dup3\n        /* \"#utility.yul\":5946:5955   */\n      dup8\n        /* \"#utility.yul\":5942:5964   */\n      add\n        /* \"#utility.yul\":5911:5974   */\n      tag_182\n      jump\t// in\n    tag_291:\n        /* \"#utility.yul\":5901:5974   */\n      swap2\n      pop\n        /* \"#utility.yul\":5696:5984   */\n      pop\n        /* \"#utility.yul\":4982:5991   */\n      swap3\n      pop\n      swap3\n      pop\n      swap3\n      jump\t// out\n        /* \"#utility.yul\":5997:6326   */\n    tag_12:\n        /* \"#utility.yul\":6056:6062   */\n      0x00\n        /* \"#utility.yul\":6105:6107   */\n      0x20\n        /* \"#utility.yul\":6093:6102   */\n      dup3\n        /* \"#utility.yul\":6084:6091   */\n      dup5\n        /* \"#utility.yul\":6080:6103   */\n      sub\n        /* \"#utility.yul\":6076:6108   */\n      slt\n        /* \"#utility.yul\":6073:6192   */\n      iszero\n      tag_293\n      jumpi\n        /* \"#utility.yul\":6111:6190   */\n      tag_294\n      tag_160\n      jump\t// in\n    tag_294:\n        /* \"#utility.yul\":6073:6192   */\n    tag_293:\n        /* \"#utility.yul\":6231:6232   */\n      0x00\n        /* \"#utility.yul\":6256:6309   */\n      tag_295\n        /* \"#utility.yul\":6301:6308   */\n      dup5\n        /* \"#utility.yul\":6292:6298   */\n      dup3\n        /* \"#utility.yul\":6281:6290   */\n      dup6\n        /* \"#utility.yul\":6277:6299   */\n      add\n        /* \"#utility.yul\":6256:6309   */\n      tag_164\n      jump\t// in\n    tag_295:\n        /* \"#utility.yul\":6246:6309   */\n      swap2\n      pop\n        /* \"#utility.yul\":6202:6319   */\n      pop\n        /* \"#utility.yul\":5997:6326   */\n      swap3\n      swap2\n      pop\n      pop\n      jump\t// out\n        /* \"#utility.yul\":6332:6418   */\n    tag_183:\n        /* \"#utility.yul\":6367:6374   */\n      0x00\n        /* \"#utility.yul\":6407:6411   */\n      0xff\n        /* \"#utility.yul\":6400:6405   */\n      dup3\n        /* \"#utility.yul\":6396:6412   */\n      and\n        /* \"#utility.yul\":6385:6412   */\n      swap1\n      pop\n        /* \"#utility.yul\":6332:6418   */\n      swap2\n      swap1\n      pop\n      jump\t// out\n        /* \"#utility.yul\":6424:6536   */\n    tag_184:\n        /* \"#utility.yul\":6507:6529   */\n      tag_298\n        /* \"#utility.yul\":6523:6528   */\n      dup2\n        /* \"#utility.yul\":6507:6529   */\n      tag_183\n      jump\t// in\n    tag_298:\n        /* \"#utility.yul\":6502:6505   */\n      dup3\n        /* \"#utility.yul\":6495:6530   */\n      mstore\n        /* \"#utility.yul\":6424:6536   */\n      pop\n      pop\n      jump\t// out\n        /* \"#utility.yul\":6542:6619   */\n    tag_185:\n        /* \"#utility.yul\":6579:6586   */\n      0x00\n        /* \"#utility.yul\":6608:6613   */\n      dup2\n        /* \"#utility.yul\":6597:6613   */\n      swap1\n      pop\n        /* \"#utility.yul\":6542:6619   */\n      swap2\n      swap1\n      pop\n      jump\t// out\n        /* \"#utility.yul\":6625:6743   */\n    tag_186:\n        /* \"#utility.yul\":6712:6736   */\n      tag_301\n        /* \"#utility.yul\":6730:6735   */\n      dup2\n        /* \"#utility.yul\":6712:6736   */\n      tag_185\n      jump\t// in\n    tag_301:\n        /* \"#utility.yul\":6707:6710   */\n      dup3\n        /* \"#utility.yul\":6700:6737   */\n      mstore\n        /* \"#utility.yul\":6625:6743   */\n      pop\n      pop\n      jump\t// out\n        /* \"#utility.yul\":6749:6848   */\n    tag_187:\n        /* \"#utility.yul\":6801:6807   */\n      0x00\n        /* \"#utility.yul\":6835:6840   */\n      dup2\n        /* \"#utility.yul\":6829:6841   */\n      mload\n        /* \"#utility.yul\":6819:6841   */\n      swap1\n      pop\n        /* \"#utility.yul\":6749:6848   */\n      swap2\n      swap1\n      pop\n      jump\t// out\n        /* \"#utility.yul\":6854:7023   */\n    tag_188:\n        /* \"#utility.yul\":6938:6949   */\n      0x00\n        /* \"#utility.yul\":6972:6978   */\n      dup3\n        /* \"#utility.yul\":6967:6970   */\n      dup3\n        /* \"#utility.yul\":6960:6979   */\n      mstore\n        /* \"#utility.yul\":7012:7016   */\n      0x20\n        /* \"#utility.yul\":7007:7010   */\n      dup3\n        /* \"#utility.yul\":7003:7017   */\n      add\n        /* \"#utility.yul\":6988:7017   */\n      swap1\n      pop\n        /* \"#utility.yul\":6854:7023   */\n      swap3\n      swap2\n      pop\n      pop\n      jump\t// out\n        /* \"#utility.yul\":7029:7275   */\n    tag_189:\n        /* \"#utility.yul\":7110:7111   */\n      0x00\n        /* \"#utility.yul\":7120:7233   */\n    tag_305:\n        /* \"#utility.yul\":7134:7140   */\n      dup4\n        /* \"#utility.yul\":7131:7132   */\n      dup2\n        /* \"#utility.yul\":7128:7141   */\n      lt\n        /* \"#utility.yul\":7120:7233   */\n      iszero\n      tag_307\n      jumpi\n        /* \"#utility.yul\":7219:7220   */\n      dup1\n        /* \"#utility.yul\":7214:7217   */\n      dup3\n        /* \"#utility.yul\":7210:7221   */\n      add\n        /* \"#utility.yul\":7204:7222   */\n      mload\n        /* \"#utility.yul\":7200:7201   */\n      dup2\n        /* \"#utility.yul\":7195:7198   */\n      dup5\n        /* \"#utility.yul\":7191:7202   */\n      add\n        /* \"#utility.yul\":7184:7223   */\n      mstore\n        /* \"#utility.yul\":7156:7158   */\n      0x20\n        /* \"#utility.yul\":7153:7154   */\n      dup2\n        /* \"#utility.yul\":7149:7159   */\n      add\n        /* \"#utility.yul\":7144:7159   */\n      swap1\n      pop\n        /* \"#utility.yul\":7120:7233   */\n      jump(tag_305)\n    tag_307:\n        /* \"#utility.yul\":7267:7268   */\n      0x00\n        /* \"#utility.yul\":7258:7264   */\n      dup5\n        /* \"#utility.yul\":7253:7256   */\n      dup5\n        /* \"#utility.yul\":7249:7265   */\n      add\n        /* \"#utility.yul\":7242:7269   */\n      mstore\n        /* \"#utility.yul\":7091:7275   */\n      pop\n        /* \"#utility.yul\":7029:7275   */\n      pop\n      pop\n      pop\n      jump\t// out\n        /* \"#utility.yul\":7281:7658   */\n    tag_190:\n        /* \"#utility.yul\":7369:7372   */\n      0x00\n        /* \"#utility.yul\":7397:7436   */\n      tag_309\n        /* \"#utility.yul\":7430:7435   */\n      dup3\n        /* \"#utility.yul\":7397:7436   */\n      tag_187\n      jump\t// in\n    tag_309:\n        /* \"#utility.yul\":7452:7523   */\n      tag_310\n        /* \"#utility.yul\":7516:7522   */\n      dup2\n        /* \"#utility.yul\":7511:7514   */\n      dup6\n        /* \"#utility.yul\":7452:7523   */\n      tag_188\n      jump\t// in\n    tag_310:\n        /* \"#utility.yul\":7445:7523   */\n      swap4\n      pop\n        /* \"#utility.yul\":7532:7597   */\n      tag_311\n        /* \"#utility.yul\":7590:7596   */\n      dup2\n        /* \"#utility.yul\":7585:7588   */\n      dup6\n        /* \"#utility.yul\":7578:7582   */\n      0x20\n        /* \"#utility.yul\":7571:7576   */\n      dup7\n        /* \"#utility.yul\":7567:7583   */\n      add\n        /* \"#utility.yul\":7532:7597   */\n      tag_189\n      jump\t// in\n    tag_311:\n        /* \"#utility.yul\":7622:7651   */\n      tag_312\n        /* \"#utility.yul\":7644:7650   */\n      dup2\n        /* \"#utility.yul\":7622:7651   */\n      tag_166\n      jump\t// in\n    tag_312:\n        /* \"#utility.yul\":7617:7620   */\n      dup5\n        /* \"#utility.yul\":7613:7652   */\n      add\n        /* \"#utility.yul\":7606:7652   */\n      swap2\n      pop\n        /* \"#utility.yul\":7373:7658   */\n      pop\n        /* \"#utility.yul\":7281:7658   */\n      swap3\n      swap2\n      pop\n      pop\n      jump\t// out\n        /* \"#utility.yul\":7664:8189   */\n    tag_15:\n        /* \"#utility.yul\":7829:7833   */\n      0x00\n        /* \"#utility.yul\":7867:7869   */\n      0x60\n        /* \"#utility.yul\":7856:7865   */\n      dup3\n        /* \"#utility.yul\":7852:7870   */\n      add\n        /* \"#utility.yul\":7844:7870   */\n      swap1\n      pop\n        /* \"#utility.yul\":7880:7947   */\n      tag_314\n        /* \"#utility.yul\":7944:7945   */\n      0x00\n        /* \"#utility.yul\":7933:7942   */\n      dup4\n        /* \"#utility.yul\":7929:7946   */\n      add\n        /* \"#utility.yul\":7920:7926   */\n      dup7\n        /* \"#utility.yul\":7880:7947   */\n      tag_184\n      jump\t// in\n    tag_314:\n        /* \"#utility.yul\":7957:8029   */\n      tag_315\n        /* \"#utility.yul\":8025:8027   */\n      0x20\n        /* \"#utility.yul\":8014:8023   */\n      dup4\n        /* \"#utility.yul\":8010:8028   */\n      add\n        /* \"#utility.yul\":8001:8007   */\n      dup6\n        /* \"#utility.yul\":7957:8029   */\n      tag_186\n      jump\t// in\n    tag_315:\n        /* \"#utility.yul\":8076:8085   */\n      dup2\n        /* \"#utility.yul\":8070:8074   */\n      dup2\n        /* \"#utility.yul\":8066:8086   */\n      sub\n        /* \"#utility.yul\":8061:8063   */\n      0x40\n        /* \"#utility.yul\":8050:8059   */\n      dup4\n        /* \"#utility.yul\":8046:8064   */\n      add\n        /* \"#utility.yul\":8039:8087   */\n      mstore\n        /* \"#utility.yul\":8104:8182   */\n      tag_316\n        /* \"#utility.yul\":8177:8181   */\n      dup2\n        /* \"#utility.yul\":8168:8174   */\n      dup5\n        /* \"#utility.yul\":8104:8182   */\n      tag_190\n      jump\t// in\n    tag_316:\n        /* \"#utility.yul\":8096:8182   */\n      swap1\n      pop\n        /* \"#utility.yul\":7664:8189   */\n      swap5\n      swap4\n      pop\n      pop\n      pop\n      pop\n      jump\t// out\n        /* \"#utility.yul\":8195:8317   */\n    tag_191:\n        /* \"#utility.yul\":8268:8292   */\n      tag_318\n        /* \"#utility.yul\":8286:8291   */\n      dup2\n        /* \"#utility.yul\":8268:8292   */\n      tag_185\n      jump\t// in\n    tag_318:\n        /* \"#utility.yul\":8261:8266   */\n      dup2\n        /* \"#utility.yul\":8258:8293   */\n      eq\n        /* \"#utility.yul\":8248:8311   */\n      tag_319\n      jumpi\n        /* \"#utility.yul\":8307:8308   */\n      0x00\n        /* \"#utility.yul\":8304:8305   */\n      dup1\n        /* \"#utility.yul\":8297:8309   */\n      revert\n        /* \"#utility.yul\":8248:8311   */\n    tag_319:\n        /* \"#utility.yul\":8195:8317   */\n      pop\n      jump\t// out\n        /* \"#utility.yul\":8323:8462   */\n    tag_192:\n        /* \"#utility.yul\":8369:8374   */\n      0x00\n        /* \"#utility.yul\":8407:8413   */\n      dup2\n        /* \"#utility.yul\":8394:8414   */\n      calldataload\n        /* \"#utility.yul\":8385:8414   */\n      swap1\n      pop\n        /* \"#utility.yul\":8423:8456   */\n      tag_321\n        /* \"#utility.yul\":8450:8455   */\n      dup2\n        /* \"#utility.yul\":8423:8456   */\n      tag_191\n      jump\t// in\n    tag_321:\n        /* \"#utility.yul\":8323:8462   */\n      swap3\n      swap2\n      pop\n      pop\n      jump\t// out\n        /* \"#utility.yul\":8468:8942   */\n    tag_18:\n        /* \"#utility.yul\":8536:8542   */\n      0x00\n        /* \"#utility.yul\":8544:8550   */\n      dup1\n        /* \"#utility.yul\":8593:8595   */\n      0x40\n        /* \"#utility.yul\":8581:8590   */\n      dup4\n        /* \"#utility.yul\":8572:8579   */\n      dup6\n        /* \"#utility.yul\":8568:8591   */\n      sub\n        /* \"#utility.yul\":8564:8596   */\n      slt\n        /* \"#utility.yul\":8561:8680   */\n      iszero\n      tag_323\n      jumpi\n        /* \"#utility.yul\":8599:8678   */\n      tag_324\n      tag_160\n      jump\t// in\n    tag_324:\n        /* \"#utility.yul\":8561:8680   */\n    tag_323:\n        /* \"#utility.yul\":8719:8720   */\n      0x00\n        /* \"#utility.yul\":8744:8797   */\n      tag_325\n        /* \"#utility.yul\":8789:8796   */\n      dup6\n        /* \"#utility.yul\":8780:8786   */\n      dup3\n        /* \"#utility.yul\":8769:8778   */\n      dup7\n        /* \"#utility.yul\":8765:8787   */\n      add\n        /* \"#utility.yul\":8744:8797   */\n      tag_175\n      jump\t// in\n    tag_325:\n        /* \"#utility.yul\":8734:8797   */\n      swap3\n      pop\n        /* \"#utility.yul\":8690:8807   */\n      pop\n        /* \"#utility.yul\":8846:8848   */\n      0x20\n        /* \"#utility.yul\":8872:8925   */\n      tag_326\n        /* \"#utility.yul\":8917:8924   */\n      dup6\n        /* \"#utility.yul\":8908:8914   */\n      dup3\n        /* \"#utility.yul\":8897:8906   */\n      dup7\n        /* \"#utility.yul\":8893:8915   */\n      add\n        /* \"#utility.yul\":8872:8925   */\n      tag_192\n      jump\t// in\n    tag_326:\n        /* \"#utility.yul\":8862:8925   */\n      swap2\n      pop\n        /* \"#utility.yul\":8817:8935   */\n      pop\n        /* \"#utility.yul\":8468:8942   */\n      swap3\n      pop\n      swap3\n      swap1\n      pop\n      jump\t// out\n        /* \"#utility.yul\":8948:9066   */\n    tag_193:\n        /* \"#utility.yul\":9035:9059   */\n      tag_328\n        /* \"#utility.yul\":9053:9058   */\n      dup2\n        /* \"#utility.yul\":9035:9059   */\n      tag_162\n      jump\t// in\n    tag_328:\n        /* \"#utility.yul\":9030:9033   */\n      dup3\n        /* \"#utility.yul\":9023:9060   */\n      mstore\n        /* \"#utility.yul\":8948:9066   */\n      pop\n      pop\n      jump\t// out\n        /* \"#utility.yul\":9072:9294   */\n    tag_21:\n        /* \"#utility.yul\":9165:9169   */\n      0x00\n        /* \"#utility.yul\":9203:9205   */\n      0x20\n        /* \"#utility.yul\":9192:9201   */\n      dup3\n        /* \"#utility.yul\":9188:9206   */\n      add\n        /* \"#utility.yul\":9180:9206   */\n      swap1\n      pop\n        /* \"#utility.yul\":9216:9287   */\n      tag_330\n        /* \"#utility.yul\":9284:9285   */\n      0x00\n        /* \"#utility.yul\":9273:9282   */\n      dup4\n        /* \"#utility.yul\":9269:9286   */\n      add\n        /* \"#utility.yul\":9260:9266   */\n      dup5\n        /* \"#utility.yul\":9216:9287   */\n      tag_193\n      jump\t// in\n    tag_330:\n        /* \"#utility.yul\":9072:9294   */\n      swap3\n      swap2\n      pop\n      pop\n      jump\t// out\n        /* \"#utility.yul\":9300:9480   */\n    tag_194:\n        /* \"#utility.yul\":9348:9425   */\n      0x4e487b7100000000000000000000000000000000000000000000000000000000\n        /* \"#utility.yul\":9345:9346   */\n      0x00\n        /* \"#utility.yul\":9338:9426   */\n      mstore\n        /* \"#utility.yul\":9445:9449   */\n      0x22\n        /* \"#utility.yul\":9442:9443   */\n      0x04\n        /* \"#utility.yul\":9435:9450   */\n      mstore\n        /* \"#utility.yul\":9469:9473   */\n      0x24\n        /* \"#utility.yul\":9466:9467   */\n      0x00\n        /* \"#utility.yul\":9459:9474   */\n      revert\n        /* \"#utility.yul\":9486:9806   */\n    tag_64:\n        /* \"#utility.yul\":9530:9536   */\n      0x00\n        /* \"#utility.yul\":9567:9568   */\n      0x02\n        /* \"#utility.yul\":9561:9565   */\n      dup3\n        /* \"#utility.yul\":9557:9569   */\n      div\n        /* \"#utility.yul\":9547:9569   */\n      swap1\n      pop\n        /* \"#utility.yul\":9614:9615   */\n      0x01\n        /* \"#utility.yul\":9608:9612   */\n      dup3\n        /* \"#utility.yul\":9604:9616   */\n      and\n        /* \"#utility.yul\":9635:9653   */\n      dup1\n        /* \"#utility.yul\":9625:9706   */\n      tag_333\n      jumpi\n        /* \"#utility.yul\":9691:9695   */\n      0x7f\n        /* \"#utility.yul\":9683:9689   */\n      dup3\n        /* \"#utility.yul\":9679:9696   */\n      and\n        /* \"#utility.yul\":9669:9696   */\n      swap2\n      pop\n        /* \"#utility.yul\":9625:9706   */\n    tag_333:\n        /* \"#utility.yul\":9753:9755   */\n      0x20\n        /* \"#utility.yul\":9745:9751   */\n      dup3\n        /* \"#utility.yul\":9742:9756   */\n      lt\n        /* \"#utility.yul\":9722:9740   */\n      dup2\n        /* \"#utility.yul\":9719:9757   */\n      sub\n        /* \"#utility.yul\":9716:9800   */\n      tag_334\n      jumpi\n        /* \"#utility.yul\":9772:9790   */\n      tag_335\n      tag_194\n      jump\t// in\n    tag_335:\n        /* \"#utility.yul\":9716:9800   */\n    tag_334:\n        /* \"#utility.yul\":9537:9806   */\n      pop\n        /* \"#utility.yul\":9486:9806   */\n      swap2\n      swap1\n      pop\n      jump\t// out\n        /* \"#utility.yul\":9812:9961   */\n    tag_195:\n        /* \"#utility.yul\":9861:9867   */\n      0x00\n        /* \"#utility.yul\":9895:9900   */\n      dup2\n        /* \"#utility.yul\":9889:9901   */\n      sload\n        /* \"#utility.yul\":9879:9901   */\n      swap1\n      pop\n        /* \"#utility.yul\":9921:9954   */\n      tag_337\n        /* \"#utility.yul\":9947:9953   */\n      dup2\n        /* \"#utility.yul\":9921:9954   */\n      tag_64\n      jump\t// in\n    tag_337:\n        /* \"#utility.yul\":9911:9954   */\n      swap1\n      pop\n        /* \"#utility.yul\":9812:9961   */\n      swap2\n      swap1\n      pop\n      jump\t// out\n        /* \"#utility.yul\":9967:10108   */\n    tag_196:\n        /* \"#utility.yul\":10016:10020   */\n      0x00\n        /* \"#utility.yul\":10039:10042   */\n      dup2\n        /* \"#utility.yul\":10031:10042   */\n      swap1\n      pop\n        /* \"#utility.yul\":10062:10065   */\n      dup2\n        /* \"#utility.yul\":10059:10060   */\n      0x00\n        /* \"#utility.yul\":10052:10066   */\n      mstore\n        /* \"#utility.yul\":10096:10100   */\n      0x20\n        /* \"#utility.yul\":10093:10094   */\n      0x00\n        /* \"#utility.yul\":10083:10101   */\n      keccak256\n        /* \"#utility.yul\":10075:10101   */\n      swap1\n      pop\n        /* \"#utility.yul\":9967:10108   */\n      swap2\n      swap1\n      pop\n      jump\t// out\n        /* \"#utility.yul\":10114:10207   */\n    tag_197:\n        /* \"#utility.yul\":10151:10157   */\n      0x00\n        /* \"#utility.yul\":10198:10200   */\n      0x20\n        /* \"#utility.yul\":10193:10195   */\n      0x1f\n        /* \"#utility.yul\":10186:10191   */\n      dup4\n        /* \"#utility.yul\":10182:10196   */\n      add\n        /* \"#utility.yul\":10178:10201   */\n      div\n        /* \"#utility.yul\":10168:10201   */\n      swap1\n      pop\n        /* \"#utility.yul\":10114:10207   */\n      swap2\n      swap1\n      pop\n      jump\t// out\n        /* \"#utility.yul\":10213:10320   */\n    tag_198:\n        /* \"#utility.yul\":10257:10265   */\n      0x00\n        /* \"#utility.yul\":10307:10312   */\n      dup3\n        /* \"#utility.yul\":10301:10305   */\n      dup3\n        /* \"#utility.yul\":10297:10313   */\n      shl\n        /* \"#utility.yul\":10276:10313   */\n      swap1\n      pop\n        /* \"#utility.yul\":10213:10320   */\n      swap3\n      swap2\n      pop\n      pop\n      jump\t// out\n        /* \"#utility.yul\":10326:10719   */\n    tag_199:\n        /* \"#utility.yul\":10395:10401   */\n      0x00\n        /* \"#utility.yul\":10445:10446   */\n      0x08\n        /* \"#utility.yul\":10433:10443   */\n      dup4\n        /* \"#utility.yul\":10429:10447   */\n      mul\n        /* \"#utility.yul\":10468:10565   */\n      tag_342\n        /* \"#utility.yul\":10498:10564   */\n      0xffffffffffffffffffffffffffffffffffffffffffffffffffffffffffffffff\n        /* \"#utility.yul\":10487:10496   */\n      dup3\n        /* \"#utility.yul\":10468:10565   */\n      tag_198\n      jump\t// in\n    tag_342:\n        /* \"#utility.yul\":10586:10625   */\n      tag_343\n        /* \"#utility.yul\":10616:10624   */\n      dup7\n        /* \"#utility.yul\":10605:10614   */\n      dup4\n        /* \"#utility.yul\":10586:10625   */\n      tag_198\n      jump\t// in\n    tag_343:\n        /* \"#utility.yul\":10574:10625   */\n      swap6\n      pop\n        /* \"#utility.yul\":10658:10662   */\n      dup1\n        /* \"#utility.yul\":10654:10663   */\n      not\n        /* \"#utility.yul\":10647:10652   */\n      dup5\n        /* \"#utility.yul\":10643:10664   */\n      and\n        /* \"#utility.yul\":10634:10664   */\n      swap4\n      pop\n        /* \"#utility.yul\":10707:10711   */\n      dup1\n        /* \"#utility.yul\":10697:10705   */\n      dup7\n        /* \"#utility.yul\":10693:10712   */\n      and\n        /* \"#utility.yul\":10686:10691   */\n      dup5\n        /* \"#utility.yul\":10683:10713   */\n      or\n        /* \"#utility.yul\":10673:10713   */\n      swap3\n      pop\n        /* \"#utility.yul\":10402:10719   */\n      pop\n      pop\n        /* \"#utility.yul\":10326:10719   */\n      swap4\n      swap3\n      pop\n      pop\n      pop\n      jump\t// out\n        /* \"#utility.yul\":10725:10785   */\n    tag_200:\n        /* \"#utility.yul\":10753:10756   */\n      0x00\n        /* \"#utility.yul\":10774:10779   */\n      dup2\n        /* \"#utility.yul\":10767:10779   */\n      swap1\n      pop\n        /* \"#utility.yul\":10725:10785   */\n      swap2\n      swap1\n      pop\n      jump\t// out\n        /* \"#utility.yul\":10791:10933   */\n    tag_201:\n        /* \"#utility.yul\":10841:10850   */\n      0x00\n        /* \"#utility.yul\":10874:10927   */\n      tag_346\n        /* \"#utility.yul\":10892:10926   */\n      tag_347\n        /* \"#utility.yul\":10901:10925   */\n      tag_348\n        /* \"#utility.yul\":10919:10924   */\n      dup5\n        /* \"#utility.yul\":10901:10925   */\n      tag_185\n      jump\t// in\n    tag_348:\n        /* \"#utility.yul\":10892:10926   */\n      tag_200\n      jump\t// in\n    tag_347:\n        /* \"#utility.yul\":10874:10927   */\n      tag_185\n      jump\t// in\n    tag_346:\n        /* \"#utility.yul\":10861:10927   */\n      swap1\n      pop\n        /* \"#utility.yul\":10791:10933   */\n      swap2\n      swap1\n      pop\n      jump\t// out\n        /* \"#utility.yul\":10939:11014   */\n    tag_202:\n        /* \"#utility.yul\":10982:10985   */\n      0x00\n        /* \"#utility.yul\":11003:11008   */\n      dup2\n        /* \"#utility.yul\":10996:11008   */\n      swap1\n      pop\n        /* \"#utility.yul\":10939:11014   */\n      swap2\n      swap1\n      pop\n      jump\t// out\n        /* \"#utility.yul\":11020:11289   */\n    tag_203:\n        /* \"#utility.yul\":11130:11169   */\n      tag_351\n        /* \"#utility.yul\":11161:11168   */\n      dup4\n        /* \"#utility.yul\":11130:11169   */\n      tag_201\n      jump\t// in\n    tag_351:\n        /* \"#utility.yul\":11191:11282   */\n      tag_352\n        /* \"#utility.yul\":11240:11281   */\n      tag_353\n        /* \"#utility.yul\":11264:11280   */\n      dup3\n        /* \"#utility.yul\":11240:11281   */\n      tag_202\n      jump\t// in\n    tag_353:\n        /* \"#utility.yul\":11232:11238   */\n      dup5\n        /* \"#utility.yul\":11225:11229   */\n      dup5\n        /* \"#utility.yul\":11219:11230   */\n      sload\n        /* \"#utility.yul\":11191:11282   */\n      tag_199\n      jump\t// in\n    tag_352:\n        /* \"#utility.yul\":11185:11189   */\n      dup3\n        /* \"#utility.yul\":11178:11283   */\n      sstore\n        /* \"#utility.yul\":11096:11289   */\n      pop\n        /* \"#utility.yul\":11020:11289   */\n      pop\n      pop\n      pop\n      jump\t// out\n        /* \"#utility.yul\":11295:11368   */\n    tag_204:\n        /* \"#utility.yul\":11340:11343   */\n      0x00\n        /* \"#utility.yul\":11295:11368   */\n      swap1\n      jump\t// out\n        /* \"#utility.yul\":11374:11563   */\n    tag_205:\n        /* \"#utility.yul\":11451:11483   */\n      tag_356\n      tag_204\n      jump\t// in\n    tag_356:\n        /* \"#utility.yul\":11492:11557   */\n      tag_357\n        /* \"#utility.yul\":11550:11556   */\n      dup2\n        /* \"#utility.yul\":11542:11548   */\n      dup5\n        /* \"#utility.yul\":11536:11540   */\n      dup5\n        /* \"#utility.yul\":11492:11557   */\n      tag_203\n      jump\t// in\n    tag_357:\n        /* \"#utility.yul\":11427:11563   */\n      pop\n        /* \"#utility.yul\":11374:11563   */\n      pop\n      pop\n      jump\t// out\n        /* \"#utility.yul\":11569:11755   */\n    tag_206:\n        /* \"#utility.yul\":11629:11749   */\n    tag_359:\n        /* \"#utility.yul\":11646:11649   */\n      dup2\n        /* \"#utility.yul\":11639:11644   */\n      dup2\n        /* \"#utility.yul\":11636:11650   */\n      lt\n        /* \"#utility.yul\":11629:11749   */\n      iszero\n      tag_361\n      jumpi\n        /* \"#utility.yul\":11700:11739   */\n      tag_362\n        /* \"#utility.yul\":11737:11738   */\n      0x00\n        /* \"#utility.yul\":11730:11735   */\n      dup3\n        /* \"#utility.yul\":11700:11739   */\n      tag_205\n      jump\t// in\n    tag_362:\n        /* \"#utility.yul\":11673:11674   */\n      0x01\n        /* \"#utility.yul\":11666:11671   */\n      dup2\n        /* \"#utility.yul\":11662:11675   */\n      add\n        /* \"#utility.yul\":11653:11675   */\n      swap1\n      pop\n        /* \"#utility.yul\":11629:11749   */\n      jump(tag_359)\n    tag_361:\n        /* \"#utility.yul\":11569:11755   */\n      pop\n      pop\n      jump\t// out\n        /* \"#utility.yul\":11761:12304   */\n    tag_207:\n        /* \"#utility.yul\":11862:11864   */\n      0x1f\n        /* \"#utility.yul\":11857:11860   */\n      dup3\n        /* \"#utility.yul\":11854:11865   */\n      gt\n        /* \"#utility.yul\":11851:12297   */\n      iszero\n      tag_364\n      jumpi\n        /* \"#utility.yul\":11896:11934   */\n      tag_365\n        /* \"#utility.yul\":11928:11933   */\n      dup2\n        /* \"#utility.yul\":11896:11934   */\n      tag_196\n      jump\t// in\n    tag_365:\n        /* \"#utility.yul\":11980:12009   */\n      tag_366\n        /* \"#utility.yul\":11998:12008   */\n      dup5\n        /* \"#utility.yul\":11980:12009   */\n      tag_197\n      jump\t// in\n    tag_366:\n        /* \"#utility.yul\":11970:11978   */\n      dup2\n        /* \"#utility.yul\":11966:12010   */\n      add\n        /* \"#utility.yul\":12163:12165   */\n      0x20\n        /* \"#utility.yul\":12151:12161   */\n      dup6\n        /* \"#utility.yul\":12148:12166   */\n      lt\n        /* \"#utility.yul\":12145:12194   */\n      iszero\n      tag_367\n      jumpi\n        /* \"#utility.yul\":12184:12192   */\n      dup2\n        /* \"#utility.yul\":12169:12192   */\n      swap1\n      pop\n        /* \"#utility.yul\":12145:12194   */\n    tag_367:\n        /* \"#utility.yul\":12207:12287   */\n      tag_368\n        /* \"#utility.yul\":12263:12285   */\n      tag_369\n        /* \"#utility.yul\":12281:12284   */\n      dup6\n        /* \"#utility.yul\":12263:12285   */\n      tag_197\n      jump\t// in\n    tag_369:\n        /* \"#utility.yul\":12253:12261   */\n      dup4\n        /* \"#utility.yul\":12249:12286   */\n      add\n        /* \"#utility.yul\":12236:12247   */\n      dup3\n        /* \"#utility.yul\":12207:12287   */\n      tag_206\n      jump\t// in\n    tag_368:\n        /* \"#utility.yul\":11866:12297   */\n      pop\n      pop\n        /* \"#utility.yul\":11851:12297   */\n    tag_364:\n        /* \"#utility.yul\":11761:12304   */\n      pop\n      pop\n      pop\n      jump\t// out\n        /* \"#utility.yul\":12310:12427   */\n    tag_208:\n        /* \"#utility.yul\":12364:12372   */\n      0x00\n        /* \"#utility.yul\":12414:12419   */\n      dup3\n        /* \"#utility.yul\":12408:12412   */\n      dup3\n        /* \"#utility.yul\":12404:12420   */\n      shr\n        /* \"#utility.yul\":12383:12420   */\n      swap1\n      pop\n        /* \"#utility.yul\":12310:12427   */\n      swap3\n      swap2\n      pop\n      pop\n      jump\t// out\n        /* \"#utility.yul\":12433:12602   */\n    tag_209:\n        /* \"#utility.yul\":12477:12483   */\n      0x00\n        /* \"#utility.yul\":12510:12561   */\n      tag_372\n        /* \"#utility.yul\":12558:12559   */\n      0x00\n        /* \"#utility.yul\":12554:12560   */\n      not\n        /* \"#utility.yul\":12546:12551   */\n      dup5\n        /* \"#utility.yul\":12543:12544   */\n      0x08\n        /* \"#utility.yul\":12539:12552   */\n      mul\n        /* \"#utility.yul\":12510:12561   */\n      tag_208\n      jump\t// in\n    tag_372:\n        /* \"#utility.yul\":12506:12562   */\n      not\n        /* \"#utility.yul\":12591:12595   */\n      dup1\n        /* \"#utility.yul\":12585:12589   */\n      dup4\n        /* \"#utility.yul\":12581:12596   */\n      and\n        /* \"#utility.yul\":12571:12596   */\n      swap2\n      pop\n        /* \"#utility.yul\":12484:12602   */\n      pop\n        /* \"#utility.yul\":12433:12602   */\n      swap3\n      swap2\n      pop\n      pop\n      jump\t// out\n        /* \"#utility.yul\":12607:12902   */\n    tag_210:\n        /* \"#utility.yul\":12683:12687   */\n      0x00\n        /* \"#utility.yul\":12829:12858   */\n      tag_374\n        /* \"#utility.yul\":12854:12857   */\n      dup4\n        /* \"#utility.yul\":12848:12852   */\n      dup4\n        /* \"#utility.yul\":12829:12858   */\n      tag_209\n      jump\t// in\n    tag_374:\n        /* \"#utility.yul\":12821:12858   */\n      swap2\n      pop\n        /* \"#utility.yul\":12891:12894   */\n      dup3\n        /* \"#utility.yul\":12888:12889   */\n      0x02\n        /* \"#utility.yul\":12884:12895   */\n      mul\n        /* \"#utility.yul\":12878:12882   */\n      dup3\n        /* \"#utility.yul\":12875:12896   */\n      or\n        /* \"#utility.yul\":12867:12896   */\n      swap1\n      pop\n        /* \"#utility.yul\":12607:12902   */\n      swap3\n      swap2\n      pop\n      pop\n      jump\t// out\n        /* \"#utility.yul\":12907:14358   */\n    tag_30:\n        /* \"#utility.yul\":13018:13021   */\n      dup2\n        /* \"#utility.yul\":13012:13016   */\n      dup2\n        /* \"#utility.yul\":13009:13022   */\n      sub\n        /* \"#utility.yul\":13006:13032   */\n      tag_376\n      jumpi\n        /* \"#utility.yul\":13025:13030   */\n      pop\n      pop\n      jump(tag_375)\n        /* \"#utility.yul\":13006:13032   */\n    tag_376:\n        /* \"#utility.yul\":13056:13090   */\n      tag_377\n        /* \"#utility.yul\":13086:13089   */\n      dup3\n        /* \"#utility.yul\":13056:13090   */\n      tag_195\n      jump\t// in\n    tag_377:\n        /* \"#utility.yul\":13155:13173   */\n      0xffffffffffffffff\n        /* \"#utility.yul\":13147:13153   */\n      dup2\n        /* \"#utility.yul\":13144:13174   */\n      gt\n        /* \"#utility.yul\":13141:13197   */\n      iszero\n      tag_378\n      jumpi\n        /* \"#utility.yul\":13177:13195   */\n      tag_379\n      tag_167\n      jump\t// in\n    tag_379:\n        /* \"#utility.yul\":13141:13197   */\n    tag_378:\n        /* \"#utility.yul\":13221:13259   */\n      tag_380\n        /* \"#utility.yul\":13253:13257   */\n      dup3\n        /* \"#utility.yul\":13247:13258   */\n      sload\n        /* \"#utility.yul\":13221:13259   */\n      tag_64\n      jump\t// in\n    tag_380:\n        /* \"#utility.yul\":13306:13373   */\n      tag_381\n        /* \"#utility.yul\":13366:13372   */\n      dup3\n        /* \"#utility.yul\":13358:13364   */\n      dup3\n        /* \"#utility.yul\":13352:13356   */\n      dup6\n        /* \"#utility.yul\":13306:13373   */\n      tag_207\n      jump\t// in\n    tag_381:\n        /* \"#utility.yul\":13400:13401   */\n      0x00\n        /* \"#utility.yul\":13429:13431   */\n      0x1f\n        /* \"#utility.yul\":13421:13427   */\n      dup4\n        /* \"#utility.yul\":13418:13432   */\n      gt\n        /* \"#utility.yul\":13446:13447   */\n      0x01\n        /* \"#utility.yul\":13441:14113   */\n      dup2\n      eq\n      tag_383\n      jumpi\n        /* \"#utility.yul\":14157:14158   */\n      0x00\n        /* \"#utility.yul\":14174:14180   */\n      dup5\n        /* \"#utility.yul\":14171:14248   */\n      iszero\n      tag_384\n      jumpi\n        /* \"#utility.yul\":14223:14232   */\n      dup3\n        /* \"#utility.yul\":14218:14221   */\n      dup8\n        /* \"#utility.yul\":14214:14233   */\n      add\n        /* \"#utility.yul\":14208:14234   */\n      sload\n        /* \"#utility.yul\":14199:14234   */\n      swap1\n      pop\n        /* \"#utility.yul\":14171:14248   */\n    tag_384:\n        /* \"#utility.yul\":14274:14341   */\n      tag_385\n        /* \"#utility.yul\":14334:14340   */\n      dup6\n        /* \"#utility.yul\":14327:14332   */\n      dup3\n        /* \"#utility.yul\":14274:14341   */\n      tag_210\n      jump\t// in\n    tag_385:\n        /* \"#utility.yul\":14268:14272   */\n      dup7\n        /* \"#utility.yul\":14261:14342   */\n      sstore\n        /* \"#utility.yul\":14130:14352   */\n      pop\n        /* \"#utility.yul\":13411:14352   */\n      jump(tag_382)\n        /* \"#utility.yul\":13441:14113   */\n    tag_383:\n        /* \"#utility.yul\":13493:13497   */\n      0x1f\n        /* \"#utility.yul\":13489:13498   */\n      not\n        /* \"#utility.yul\":13481:13487   */\n      dup5\n        /* \"#utility.yul\":13477:13499   */\n      and\n        /* \"#utility.yul\":13519:13555   */\n      tag_386\n        /* \"#utility.yul\":13551:13554   */\n      dup8\n        /* \"#utility.yul\":13519:13555   */\n      tag_196\n      jump\t// in\n    tag_386:\n        /* \"#utility.yul\":13512:13555   */\n      swap7\n      pop\n        /* \"#utility.yul\":13582:13619   */\n      tag_387\n        /* \"#utility.yul\":13614:13618   */\n      dup7\n        /* \"#utility.yul\":13582:13619   */\n      tag_196\n      jump\t// in\n    tag_387:\n        /* \"#utility.yul\":13641:13642   */\n      0x00\n        /* \"#utility.yul\":13655:13862   */\n    tag_388:\n        /* \"#utility.yul\":13669:13676   */\n      dup3\n        /* \"#utility.yul\":13666:13667   */\n      dup2\n        /* \"#utility.yul\":13663:13677   */\n      lt\n        /* \"#utility.yul\":13655:13862   */\n      iszero\n      tag_390\n      jumpi\n        /* \"#utility.yul\":13748:13757   */\n      dup5\n        /* \"#utility.yul\":13743:13746   */\n      dup10\n        /* \"#utility.yul\":13739:13758   */\n      add\n        /* \"#utility.yul\":13733:13759   */\n      sload\n        /* \"#utility.yul\":13725:13731   */\n      dup3\n        /* \"#utility.yul\":13718:13760   */\n      sstore\n        /* \"#utility.yul\":13799:13800   */\n      0x01\n        /* \"#utility.yul\":13791:13797   */\n      dup3\n        /* \"#utility.yul\":13787:13801   */\n      add\n        /* \"#utility.yul\":13777:13801   */\n      swap2\n      pop\n        /* \"#utility.yul\":13846:13847   */\n      0x01\n        /* \"#utility.yul\":13835:13844   */\n      dup6\n        /* \"#utility.yul\":13831:13848   */\n      add\n        /* \"#utility.yul\":13818:13848   */\n      swap5\n      pop\n        /* \"#utility.yul\":13692:13696   */\n      0x20\n        /* \"#utility.yul\":13689:13690   */\n      dup2\n        /* \"#utility.yul\":13685:13697   */\n      add\n        /* \"#utility.yul\":13680:13697   */\n      swap1\n      pop\n        /* \"#utility.yul\":13655:13862   */\n      jump(tag_388)\n    tag_390:\n        /* \"#utility.yul\":13890:13896   */\n      dup7\n        /* \"#utility.yul\":13881:13888   */\n      dup4\n        /* \"#utility.yul\":13878:13897   */\n      lt\n        /* \"#utility.yul\":13875:14054   */\n      iszero\n      tag_391\n      jumpi\n        /* \"#utility.yul\":13948:13957   */\n      dup5\n        /* \"#utility.yul\":13943:13946   */\n      dup10\n        /* \"#utility.yul\":13939:13958   */\n      add\n        /* \"#utility.yul\":13933:13959   */\n      sload\n        /* \"#utility.yul\":13991:14039   */\n      tag_392\n        /* \"#utility.yul\":14033:14037   */\n      0x1f\n        /* \"#utility.yul\":14025:14031   */\n      dup10\n        /* \"#utility.yul\":14021:14038   */\n      and\n        /* \"#utility.yul\":14010:14019   */\n      dup3\n        /* \"#utility.yul\":13991:14039   */\n      tag_209\n      jump\t// in\n    tag_392:\n        /* \"#utility.yul\":13983:13989   */\n      dup4\n        /* \"#utility.yul\":13976:14040   */\n      sstore\n        /* \"#utility.yul\":13898:14054   */\n      pop\n        /* \"#utility.yul\":13875:14054   */\n    tag_391:\n        /* \"#utility.yul\":14100:14101   */\n      0x01\n        /* \"#utility.yul\":14096:14097   */\n      0x02\n        /* \"#utility.yul\":14088:14094   */\n      dup9\n        /* \"#utility.yul\":14084:14098   */\n      mul\n        /* \"#utility.yul\":14080:14102   */\n      add\n        /* \"#utility.yul\":14074:14078   */\n      dup9\n        /* \"#utility.yul\":14067:14103   */\n      sstore\n        /* \"#utility.yul\":13448:14113   */\n      pop\n      pop\n      pop\n        /* \"#utility.yul\":13411:14352   */\n    tag_382:\n      pop\n        /* \"#utility.yul\":12996:14358   */\n      pop\n      pop\n      pop\n        /* \"#utility.yul\":12907:14358   */\n      pop\n      pop\n    tag_375:\n      jump\t// out\n        /* \"#utility.yul\":14364:15759   */\n    tag_36:\n        /* \"#utility.yul\":14481:14518   */\n      tag_394\n        /* \"#utility.yul\":14514:14517   */\n      dup3\n        /* \"#utility.yul\":14481:14518   */\n      tag_187\n      jump\t// in\n    tag_394:\n        /* \"#utility.yul\":14583:14601   */\n      0xffffffffffffffff\n        /* \"#utility.yul\":14575:14581   */\n      dup2\n        /* \"#utility.yul\":14572:14602   */\n      gt\n        /* \"#utility.yul\":14569:14625   */\n      iszero\n      tag_395\n      jumpi\n        /* \"#utility.yul\":14605:14623   */\n      tag_396\n      tag_167\n      jump\t// in\n    tag_396:\n        /* \"#utility.yul\":14569:14625   */\n    tag_395:\n        /* \"#utility.yul\":14649:14687   */\n      tag_397\n        /* \"#utility.yul\":14681:14685   */\n      dup3\n        /* \"#utility.yul\":14675:14686   */\n      sload\n        /* \"#utility.yul\":14649:14687   */\n      tag_64\n      jump\t// in\n    tag_397:\n        /* \"#utility.yul\":14734:14801   */\n      tag_398\n        /* \"#utility.yul\":14794:14800   */\n      dup3\n        /* \"#utility.yul\":14786:14792   */\n      dup3\n        /* \"#utility.yul\":14780:14784   */\n      dup6\n        /* \"#utility.yul\":14734:14801   */\n      tag_207\n      jump\t// in\n    tag_398:\n        /* \"#utility.yul\":14828:14829   */\n      0x00\n        /* \"#utility.yul\":14852:14856   */\n      0x20\n        /* \"#utility.yul\":14839:14856   */\n      swap1\n      pop\n        /* \"#utility.yul\":14884:14886   */\n      0x1f\n        /* \"#utility.yul\":14876:14882   */\n      dup4\n        /* \"#utility.yul\":14873:14887   */\n      gt\n        /* \"#utility.yul\":14901:14902   */\n      0x01\n        /* \"#utility.yul\":14896:15514   */\n      dup2\n      eq\n      tag_400\n      jumpi\n        /* \"#utility.yul\":15558:15559   */\n      0x00\n        /* \"#utility.yul\":15575:15581   */\n      dup5\n        /* \"#utility.yul\":15572:15649   */\n      iszero\n      tag_401\n      jumpi\n        /* \"#utility.yul\":15624:15633   */\n      dup3\n        /* \"#utility.yul\":15619:15622   */\n      dup8\n        /* \"#utility.yul\":15615:15634   */\n      add\n        /* \"#utility.yul\":15609:15635   */\n      mload\n        /* \"#utility.yul\":15600:15635   */\n      swap1\n      pop\n        /* \"#utility.yul\":15572:15649   */\n    tag_401:\n        /* \"#utility.yul\":15675:15742   */\n      tag_402\n        /* \"#utility.yul\":15735:15741   */\n      dup6\n        /* \"#utility.yul\":15728:15733   */\n      dup3\n        /* \"#utility.yul\":15675:15742   */\n      tag_210\n      jump\t// in\n    tag_402:\n        /* \"#utility.yul\":15669:15673   */\n      dup7\n        /* \"#utility.yul\":15662:15743   */\n      sstore\n        /* \"#utility.yul\":15531:15753   */\n      pop\n        /* \"#utility.yul\":14866:15753   */\n      jump(tag_399)\n        /* \"#utility.yul\":14896:15514   */\n    tag_400:\n        /* \"#utility.yul\":14948:14952   */\n      0x1f\n        /* \"#utility.yul\":14944:14953   */\n      not\n        /* \"#utility.yul\":14936:14942   */\n      dup5\n        /* \"#utility.yul\":14932:14954   */\n      and\n        /* \"#utility.yul\":14982:15019   */\n      tag_403\n        /* \"#utility.yul\":15014:15018   */\n      dup7\n        /* \"#utility.yul\":14982:15019   */\n      tag_196\n      jump\t// in\n    tag_403:\n        /* \"#utility.yul\":15041:15042   */\n      0x00\n        /* \"#utility.yul\":15055:15263   */\n    tag_404:\n        /* \"#utility.yul\":15069:15076   */\n      dup3\n        /* \"#utility.yul\":15066:15067   */\n      dup2\n        /* \"#utility.yul\":15063:15077   */\n      lt\n        /* \"#utility.yul\":15055:15263   */\n      iszero\n      tag_406\n      jumpi\n        /* \"#utility.yul\":15148:15157   */\n      dup5\n        /* \"#utility.yul\":15143:15146   */\n      dup10\n        /* \"#utility.yul\":15139:15158   */\n      add\n        /* \"#utility.yul\":15133:15159   */\n      mload\n        /* \"#utility.yul\":15125:15131   */\n      dup3\n        /* \"#utility.yul\":15118:15160   */\n      sstore\n        /* \"#utility.yul\":15199:15200   */\n      0x01\n        /* \"#utility.yul\":15191:15197   */\n      dup3\n        /* \"#utility.yul\":15187:15201   */\n      add\n        /* \"#utility.yul\":15177:15201   */\n      swap2\n      pop\n        /* \"#utility.yul\":15246:15248   */\n      0x20\n        /* \"#utility.yul\":15235:15244   */\n      dup6\n        /* \"#utility.yul\":15231:15249   */\n      add\n        /* \"#utility.yul\":15218:15249   */\n      swap5\n      pop\n        /* \"#utility.yul\":15092:15096   */\n      0x20\n        /* \"#utility.yul\":15089:15090   */\n      dup2\n        /* \"#utility.yul\":15085:15097   */\n      add\n        /* \"#utility.yul\":15080:15097   */\n      swap1\n      pop\n        /* \"#utility.yul\":15055:15263   */\n      jump(tag_404)\n    tag_406:\n        /* \"#utility.yul\":15291:15297   */\n      dup7\n        /* \"#utility.yul\":15282:15289   */\n      dup4\n        /* \"#utility.yul\":15279:15298   */\n      lt\n        /* \"#utility.yul\":15276:15455   */\n      iszero\n      tag_407\n      jumpi\n        /* \"#utility.yul\":15349:15358   */\n      dup5\n        /* \"#utility.yul\":15344:15347   */\n      dup10\n        /* \"#utility.yul\":15340:15359   */\n      add\n        /* \"#utility.yul\":15334:15360   */\n      mload\n        /* \"#utility.yul\":15392:15440   */\n      tag_408\n        /* \"#utility.yul\":15434:15438   */\n      0x1f\n        /* \"#utility.yul\":15426:15432   */\n      dup10\n        /* \"#utility.yul\":15422:15439   */\n      and\n        /* \"#utility.yul\":15411:15420   */\n      dup3\n        /* \"#utility.yul\":15392:15440   */\n      tag_209\n      jump\t// in\n    tag_408:\n        /* \"#utility.yul\":15384:15390   */\n      dup4\n        /* \"#utility.yul\":15377:15441   */\n      sstore\n        /* \"#utility.yul\":15299:15455   */\n      pop\n        /* \"#utility.yul\":15276:15455   */\n    tag_407:\n        /* \"#utility.yul\":15501:15502   */\n      0x01\n        /* \"#utility.yul\":15497:15498   */\n      0x02\n        /* \"#utility.yul\":15489:15495   */\n      dup9\n        /* \"#utility.yul\":15485:15499   */\n      mul\n        /* \"#utility.yul\":15481:15503   */\n      add\n        /* \"#utility.yul\":15475:15479   */\n      dup9\n        /* \"#utility.yul\":15468:15504   */\n      sstore\n        /* \"#utility.yul\":14903:15514   */\n      pop\n      pop\n      pop\n        /* \"#utility.yul\":14866:15753   */\n    tag_399:\n      pop\n        /* \"#utility.yul\":14456:15759   */\n      pop\n      pop\n      pop\n        /* \"#utility.yul\":14364:15759   */\n      pop\n      pop\n      jump\t// out\n        /* \"#utility.yul\":15765:15879   */\n    tag_211:\n        /* \"#utility.yul\":15832:15838   */\n      0x00\n        /* \"#utility.yul\":15866:15871   */\n      dup2\n        /* \"#utility.yul\":15860:15872   */\n      mload\n        /* \"#utility.yul\":15850:15872   */\n      swap1\n      pop\n        /* \"#utility.yul\":15765:15879   */\n      swap2\n      swap1\n      pop\n      jump\t// out\n        /* \"#utility.yul\":15885:16048   */\n    tag_212:\n        /* \"#utility.yul\":16002:16013   */\n      0x00\n        /* \"#utility.yul\":16039:16042   */\n      dup2\n        /* \"#utility.yul\":16024:16042   */\n      swap1\n      pop\n        /* \"#utility.yul\":15885:16048   */\n      swap3\n      swap2\n      pop\n      pop\n      jump\t// out\n        /* \"#utility.yul\":16054:16186   */\n    tag_213:\n        /* \"#utility.yul\":16121:16125   */\n      0x00\n        /* \"#utility.yul\":16144:16147   */\n      dup2\n        /* \"#utility.yul\":16136:16147   */\n      swap1\n      pop\n        /* \"#utility.yul\":16174:16178   */\n      0x20\n        /* \"#utility.yul\":16169:16172   */\n      dup3\n        /* \"#utility.yul\":16165:16179   */\n      add\n        /* \"#utility.yul\":16157:16179   */\n      swap1\n      pop\n        /* \"#utility.yul\":16054:16186   */\n      swap2\n      swap1\n      pop\n      jump\t// out\n        /* \"#utility.yul\":16192:16308   */\n    tag_214:\n        /* \"#utility.yul\":16277:16301   */\n      tag_413\n        /* \"#utility.yul\":16295:16300   */\n      dup2\n        /* \"#utility.yul\":16277:16301   */\n      tag_173\n      jump\t// in\n    tag_413:\n        /* \"#utility.yul\":16272:16275   */\n      dup3\n        /* \"#utility.yul\":16265:16302   */\n      mstore\n        /* \"#utility.yul\":16192:16308   */\n      pop\n      pop\n      jump\t// out\n        /* \"#utility.yul\":16314:16509   */\n    tag_215:\n        /* \"#utility.yul\":16391:16401   */\n      0x00\n        /* \"#utility.yul\":16412:16466   */\n      tag_415\n        /* \"#utility.yul\":16462:16465   */\n      dup4\n        /* \"#utility.yul\":16454:16460   */\n      dup4\n        /* \"#utility.yul\":16412:16466   */\n      tag_214\n      jump\t// in\n    tag_415:\n        /* \"#utility.yul\":16498:16502   */\n      0x20\n        /* \"#utility.yul\":16493:16496   */\n      dup4\n        /* \"#utility.yul\":16489:16503   */\n      add\n        /* \"#utility.yul\":16475:16503   */\n      swap1\n      pop\n        /* \"#utility.yul\":16314:16509   */\n      swap3\n      swap2\n      pop\n      pop\n      jump\t// out\n        /* \"#utility.yul\":16515:16628   */\n    tag_216:\n        /* \"#utility.yul\":16585:16589   */\n      0x00\n        /* \"#utility.yul\":16617:16621   */\n      0x20\n        /* \"#utility.yul\":16612:16615   */\n      dup3\n        /* \"#utility.yul\":16608:16622   */\n      add\n        /* \"#utility.yul\":16600:16622   */\n      swap1\n      pop\n        /* \"#utility.yul\":16515:16628   */\n      swap2\n      swap1\n      pop\n      jump\t// out\n        /* \"#utility.yul\":16664:17440   */\n    tag_217:\n        /* \"#utility.yul\":16801:16804   */\n      0x00\n        /* \"#utility.yul\":16830:16884   */\n      tag_418\n        /* \"#utility.yul\":16878:16883   */\n      dup3\n        /* \"#utility.yul\":16830:16884   */\n      tag_211\n      jump\t// in\n    tag_418:\n        /* \"#utility.yul\":16900:17004   */\n      tag_419\n        /* \"#utility.yul\":16997:17003   */\n      dup2\n        /* \"#utility.yul\":16992:16995   */\n      dup6\n        /* \"#utility.yul\":16900:17004   */\n      tag_212\n      jump\t// in\n    tag_419:\n        /* \"#utility.yul\":16893:17004   */\n      swap4\n      pop\n        /* \"#utility.yul\":17028:17084   */\n      tag_420\n        /* \"#utility.yul\":17078:17083   */\n      dup4\n        /* \"#utility.yul\":17028:17084   */\n      tag_213\n      jump\t// in\n    tag_420:\n        /* \"#utility.yul\":17107:17114   */\n      dup1\n        /* \"#utility.yul\":17138:17139   */\n      0x00\n        /* \"#utility.yul\":17123:17415   */\n    tag_421:\n        /* \"#utility.yul\":17148:17154   */\n      dup4\n        /* \"#utility.yul\":17145:17146   */\n      dup2\n        /* \"#utility.yul\":17142:17155   */\n      lt\n        /* \"#utility.yul\":17123:17415   */\n      iszero\n      tag_423\n      jumpi\n        /* \"#utility.yul\":17224:17230   */\n      dup2\n        /* \"#utility.yul\":17218:17231   */\n      mload\n        /* \"#utility.yul\":17251:17322   */\n      tag_424\n        /* \"#utility.yul\":17318:17321   */\n      dup9\n        /* \"#utility.yul\":17303:17316   */\n      dup3\n        /* \"#utility.yul\":17251:17322   */\n      tag_215\n      jump\t// in\n    tag_424:\n        /* \"#utility.yul\":17244:17322   */\n      swap8\n      pop\n        /* \"#utility.yul\":17345:17405   */\n      tag_425\n        /* \"#utility.yul\":17398:17404   */\n      dup4\n        /* \"#utility.yul\":17345:17405   */\n      tag_216\n      jump\t// in\n    tag_425:\n        /* \"#utility.yul\":17335:17405   */\n      swap3\n      pop\n        /* \"#utility.yul\":17183:17415   */\n      pop\n        /* \"#utility.yul\":17170:17171   */\n      0x01\n        /* \"#utility.yul\":17167:17168   */\n      dup2\n        /* \"#utility.yul\":17163:17172   */\n      add\n        /* \"#utility.yul\":17158:17172   */\n      swap1\n      pop\n        /* \"#utility.yul\":17123:17415   */\n      jump(tag_421)\n    tag_423:\n        /* \"#utility.yul\":17127:17141   */\n      pop\n        /* \"#utility.yul\":17431:17434   */\n      dup6\n        /* \"#utility.yul\":17424:17434   */\n      swap4\n      pop\n        /* \"#utility.yul\":16806:17440   */\n      pop\n      pop\n      pop\n        /* \"#utility.yul\":16664:17440   */\n      swap3\n      swap2\n      pop\n      pop\n      jump\t// out\n        /* \"#utility.yul\":17446:17781   */\n    tag_73:\n        /* \"#utility.yul\":17608:17611   */\n      0x00\n        /* \"#utility.yul\":17630:17755   */\n      tag_427\n        /* \"#utility.yul\":17751:17754   */\n      dup3\n        /* \"#utility.yul\":17742:17748   */\n      dup5\n        /* \"#utility.yul\":17630:17755   */\n      tag_217\n      jump\t// in\n    tag_427:\n        /* \"#utility.yul\":17623:17755   */\n      swap2\n      pop\n        /* \"#utility.yul\":17772:17775   */\n      dup2\n        /* \"#utility.yul\":17765:17775   */\n      swap1\n      pop\n        /* \"#utility.yul\":17446:17781   */\n      swap3\n      swap2\n      pop\n      pop\n      jump\t// out\n        /* \"#utility.yul\":17787:17967   */\n    tag_218:\n        /* \"#utility.yul\":17835:17912   */\n      0x4e487b7100000000000000000000000000000000000000000000000000000000\n        /* \"#utility.yul\":17832:17833   */\n      0x00\n        /* \"#utility.yul\":17825:17913   */\n      mstore\n        /* \"#utility.yul\":17932:17936   */\n      0x11\n        /* \"#utility.yul\":17929:17930   */\n      0x04\n        /* \"#utility.yul\":17922:17937   */\n      mstore\n        /* \"#utility.yul\":17956:17960   */\n      0x24\n        /* \"#utility.yul\":17953:17954   */\n      0x00\n        /* \"#utility.yul\":17946:17961   */\n      revert\n        /* \"#utility.yul\":17973:18167   */\n    tag_78:\n        /* \"#utility.yul\":18013:18017   */\n      0x00\n        /* \"#utility.yul\":18033:18053   */\n      tag_430\n        /* \"#utility.yul\":18051:18052   */\n      dup3\n        /* \"#utility.yul\":18033:18053   */\n      tag_185\n      jump\t// in\n    tag_430:\n        /* \"#utility.yul\":18028:18053   */\n      swap2\n      pop\n        /* \"#utility.yul\":18067:18087   */\n      tag_431\n        /* \"#utility.yul\":18085:18086   */\n      dup4\n        /* \"#utility.yul\":18067:18087   */\n      tag_185\n      jump\t// in\n    tag_431:\n        /* \"#utility.yul\":18062:18087   */\n      swap3\n      pop\n        /* \"#utility.yul\":18111:18112   */\n      dup3\n        /* \"#utility.yul\":18108:18109   */\n      dup3\n        /* \"#utility.yul\":18104:18113   */\n      sub\n        /* \"#utility.yul\":18096:18113   */\n      swap1\n      pop\n        /* \"#utility.yul\":18135:18136   */\n      dup2\n        /* \"#utility.yul\":18129:18133   */\n      dup2\n        /* \"#utility.yul\":18126:18137   */\n      gt\n        /* \"#utility.yul\":18123:18160   */\n      iszero\n      tag_432\n      jumpi\n        /* \"#utility.yul\":18140:18158   */\n      tag_433\n      tag_218\n      jump\t// in\n    tag_433:\n        /* \"#utility.yul\":18123:18160   */\n    tag_432:\n        /* \"#utility.yul\":17973:18167   */\n      swap3\n      swap2\n      pop\n      pop\n      jump\t// out\n        /* \"#utility.yul\":18173:18353   */\n    tag_87:\n        /* \"#utility.yul\":18221:18298   */\n      0x4e487b7100000000000000000000000000000000000000000000000000000000\n        /* \"#utility.yul\":18218:18219   */\n      0x00\n        /* \"#utility.yul\":18211:18299   */\n      mstore\n        /* \"#utility.yul\":18318:18322   */\n      0x32\n        /* \"#utility.yul\":18315:18316   */\n      0x04\n        /* \"#utility.yul\":18308:18323   */\n      mstore\n        /* \"#utility.yul\":18342:18346   */\n      0x24\n        /* \"#utility.yul\":18339:18340   */\n      0x00\n        /* \"#utility.yul\":18332:18347   */\n      revert\n        /* \"#utility.yul\":18359:18435   */\n    tag_219:\n        /* \"#utility.yul\":18395:18402   */\n      0x00\n        /* \"#utility.yul\":18424:18429   */\n      dup2\n        /* \"#utility.yul\":18413:18429   */\n      swap1\n      pop\n        /* \"#utility.yul\":18359:18435   */\n      swap2\n      swap1\n      pop\n      jump\t// out\n        /* \"#utility.yul\":18441:18813   */\n    tag_108:\n        /* \"#utility.yul\":18480:18484   */\n      0x00\n        /* \"#utility.yul\":18500:18519   */\n      tag_437\n        /* \"#utility.yul\":18517:18518   */\n      dup3\n        /* \"#utility.yul\":18500:18519   */\n      tag_219\n      jump\t// in\n    tag_437:\n        /* \"#utility.yul\":18495:18519   */\n      swap2\n      pop\n        /* \"#utility.yul\":18533:18552   */\n      tag_438\n        /* \"#utility.yul\":18550:18551   */\n      dup4\n        /* \"#utility.yul\":18533:18552   */\n      tag_219\n      jump\t// in\n    tag_438:\n        /* \"#utility.yul\":18528:18552   */\n      swap3\n      pop\n        /* \"#utility.yul\":18576:18577   */\n      dup3\n        /* \"#utility.yul\":18573:18574   */\n      dup3\n        /* \"#utility.yul\":18569:18578   */\n      sub\n        /* \"#utility.yul\":18561:18578   */\n      swap1\n      pop\n        /* \"#utility.yul\":18770:18771   */\n      dup2\n        /* \"#utility.yul\":18764:18768   */\n      dup2\n        /* \"#utility.yul\":18760:18772   */\n      slt\n        /* \"#utility.yul\":18756:18757   */\n      0x00\n        /* \"#utility.yul\":18753:18754   */\n      dup5\n        /* \"#utility.yul\":18749:18758   */\n      slt\n        /* \"#utility.yul\":18745:18773   */\n      and\n        /* \"#utility.yul\":18728:18729   */\n      dup3\n        /* \"#utility.yul\":18722:18726   */\n      dup3\n        /* \"#utility.yul\":18718:18730   */\n      sgt\n        /* \"#utility.yul\":18713:18714   */\n      0x00\n        /* \"#utility.yul\":18710:18711   */\n      dup6\n        /* \"#utility.yul\":18706:18715   */\n      slt\n        /* \"#utility.yul\":18699:18716   */\n      iszero\n        /* \"#utility.yul\":18695:18731   */\n      and\n        /* \"#utility.yul\":18679:18783   */\n      or\n        /* \"#utility.yul\":18676:18806   */\n      iszero\n      tag_439\n      jumpi\n        /* \"#utility.yul\":18786:18804   */\n      tag_440\n      tag_218\n      jump\t// in\n    tag_440:\n        /* \"#utility.yul\":18676:18806   */\n    tag_439:\n        /* \"#utility.yul\":18441:18813   */\n      swap3\n      swap2\n      pop\n      pop\n      jump\t// out\n        /* \"#utility.yul\":18819:18999   */\n    tag_220:\n        /* \"#utility.yul\":18867:18944   */\n      0x4e487b7100000000000000000000000000000000000000000000000000000000\n        /* \"#utility.yul\":18864:18865   */\n      0x00\n        /* \"#utility.yul\":18857:18945   */\n      mstore\n        /* \"#utility.yul\":18964:18968   */\n      0x12\n        /* \"#utility.yul\":18961:18962   */\n      0x04\n        /* \"#utility.yul\":18954:18969   */\n      mstore\n        /* \"#utility.yul\":18988:18992   */\n      0x24\n        /* \"#utility.yul\":18985:18986   */\n      0x00\n        /* \"#utility.yul\":18978:18993   */\n      revert\n        /* \"#utility.yul\":19005:19390   */\n    tag_110:\n        /* \"#utility.yul\":19044:19045   */\n      0x00\n        /* \"#utility.yul\":19061:19080   */\n      tag_443\n        /* \"#utility.yul\":19078:19079   */\n      dup3\n        /* \"#utility.yul\":19061:19080   */\n      tag_219\n      jump\t// in\n    tag_443:\n        /* \"#utility.yul\":19056:19080   */\n      swap2\n      pop\n        /* \"#utility.yul\":19094:19113   */\n      tag_444\n        /* \"#utility.yul\":19111:19112   */\n      dup4\n        /* \"#utility.yul\":19094:19113   */\n      tag_219\n      jump\t// in\n    tag_444:\n        /* \"#utility.yul\":19089:19113   */\n      swap3\n      pop\n        /* \"#utility.yul\":19132:19133   */\n      dup3\n        /* \"#utility.yul\":19122:19157   */\n      tag_445\n      jumpi\n        /* \"#utility.yul\":19137:19155   */\n      tag_446\n      tag_220\n      jump\t// in\n    tag_446:\n        /* \"#utility.yul\":19122:19157   */\n    tag_445:\n        /* \"#utility.yul\":19323:19324   */\n      0x01\n        /* \"#utility.yul\":19320:19321   */\n      0x00\n        /* \"#utility.yul\":19316:19325   */\n      sub\n        /* \"#utility.yul\":19313:19314   */\n      dup4\n        /* \"#utility.yul\":19310:19326   */\n      eq\n        /* \"#utility.yul\":19229:19295   */\n      0x8000000000000000000000000000000000000000000000000000000000000000\n        /* \"#utility.yul\":19226:19227   */\n      dup4\n        /* \"#utility.yul\":19223:19296   */\n      eq\n        /* \"#utility.yul\":19206:19336   */\n      and\n        /* \"#utility.yul\":19203:19359   */\n      iszero\n      tag_447\n      jumpi\n        /* \"#utility.yul\":19339:19357   */\n      tag_448\n      tag_218\n      jump\t// in\n    tag_448:\n        /* \"#utility.yul\":19203:19359   */\n    tag_447:\n        /* \"#utility.yul\":19382:19383   */\n      dup3\n        /* \"#utility.yul\":19379:19380   */\n      dup3\n        /* \"#utility.yul\":19374:19384   */\n      sdiv\n        /* \"#utility.yul\":19369:19384   */\n      swap1\n      pop\n        /* \"#utility.yul\":19005:19390   */\n      swap3\n      swap2\n      pop\n      pop\n      jump\t// out\n        /* \"#utility.yul\":19396:19771   */\n    tag_112:\n        /* \"#utility.yul\":19435:19438   */\n      0x00\n        /* \"#utility.yul\":19454:19473   */\n      tag_450\n        /* \"#utility.yul\":19471:19472   */\n      dup3\n        /* \"#utility.yul\":19454:19473   */\n      tag_219\n      jump\t// in\n    tag_450:\n        /* \"#utility.yul\":19449:19473   */\n      swap2\n      pop\n        /* \"#utility.yul\":19487:19506   */\n      tag_451\n        /* \"#utility.yul\":19504:19505   */\n      dup4\n        /* \"#utility.yul\":19487:19506   */\n      tag_219\n      jump\t// in\n    tag_451:\n        /* \"#utility.yul\":19482:19506   */\n      swap3\n      pop\n        /* \"#utility.yul\":19529:19530   */\n      dup3\n        /* \"#utility.yul\":19526:19527   */\n      dup3\n        /* \"#utility.yul\":19522:19531   */\n      add\n        /* \"#utility.yul\":19515:19531   */\n      swap1\n      pop\n        /* \"#utility.yul\":19727:19728   */\n      dup3\n        /* \"#utility.yul\":19722:19725   */\n      dup2\n        /* \"#utility.yul\":19718:19729   */\n      slt\n        /* \"#utility.yul\":19711:19730   */\n      iszero\n        /* \"#utility.yul\":19707:19708   */\n      0x00\n        /* \"#utility.yul\":19704:19705   */\n      dup4\n        /* \"#utility.yul\":19700:19709   */\n      slt\n        /* \"#utility.yul\":19696:19731   */\n      and\n        /* \"#utility.yul\":19679:19680   */\n      dup4\n        /* \"#utility.yul\":19674:19677   */\n      dup3\n        /* \"#utility.yul\":19670:19681   */\n      slt\n        /* \"#utility.yul\":19665:19666   */\n      0x00\n        /* \"#utility.yul\":19662:19663   */\n      dup5\n        /* \"#utility.yul\":19658:19667   */\n      slt\n        /* \"#utility.yul\":19651:19668   */\n      iszero\n        /* \"#utility.yul\":19647:19682   */\n      and\n        /* \"#utility.yul\":19631:19741   */\n      or\n        /* \"#utility.yul\":19628:19764   */\n      iszero\n      tag_452\n      jumpi\n        /* \"#utility.yul\":19744:19762   */\n      tag_453\n      tag_218\n      jump\t// in\n    tag_453:\n        /* \"#utility.yul\":19628:19764   */\n    tag_452:\n        /* \"#utility.yul\":19396:19771   */\n      swap3\n      swap2\n      pop\n      pop\n      jump\t// out\n        /* \"#utility.yul\":19777:20008   */\n    tag_122:\n        /* \"#utility.yul\":19815:19818   */\n      0x00\n        /* \"#utility.yul\":19838:19861   */\n      tag_455\n        /* \"#utility.yul\":19855:19860   */\n      dup3\n        /* \"#utility.yul\":19838:19861   */\n      tag_219\n      jump\t// in\n    tag_455:\n        /* \"#utility.yul\":19829:19861   */\n      swap2\n      pop\n        /* \"#utility.yul\":19883:19949   */\n      0x7fffffffffffffffffffffffffffffffffffffffffffffffffffffffffffffff\n        /* \"#utility.yul\":19876:19881   */\n      dup3\n        /* \"#utility.yul\":19873:19950   */\n      sub\n        /* \"#utility.yul\":19870:19973   */\n      tag_456\n      jumpi\n        /* \"#utility.yul\":19953:19971   */\n      tag_457\n      tag_218\n      jump\t// in\n    tag_457:\n        /* \"#utility.yul\":19870:19973   */\n    tag_456:\n        /* \"#utility.yul\":20000:20001   */\n      0x01\n        /* \"#utility.yul\":19993:19998   */\n      dup3\n        /* \"#utility.yul\":19989:20002   */\n      add\n        /* \"#utility.yul\":19982:20002   */\n      swap1\n      pop\n        /* \"#utility.yul\":19777:20008   */\n      swap2\n      swap1\n      pop\n      jump\t// out\n        /* \"#utility.yul\":20014:20245   */\n    tag_128:\n        /* \"#utility.yul\":20052:20055   */\n      0x00\n        /* \"#utility.yul\":20075:20098   */\n      tag_459\n        /* \"#utility.yul\":20092:20097   */\n      dup3\n        /* \"#utility.yul\":20075:20098   */\n      tag_219\n      jump\t// in\n    tag_459:\n        /* \"#utility.yul\":20066:20098   */\n      swap2\n      pop\n        /* \"#utility.yul\":20120:20186   */\n      0x8000000000000000000000000000000000000000000000000000000000000000\n        /* \"#utility.yul\":20113:20118   */\n      dup3\n        /* \"#utility.yul\":20110:20187   */\n      sub\n        /* \"#utility.yul\":20107:20210   */\n      tag_460\n      jumpi\n        /* \"#utility.yul\":20190:20208   */\n      tag_461\n      tag_218\n      jump\t// in\n    tag_461:\n        /* \"#utility.yul\":20107:20210   */\n    tag_460:\n        /* \"#utility.yul\":20237:20238   */\n      0x01\n        /* \"#utility.yul\":20230:20235   */\n      dup3\n        /* \"#utility.yul\":20226:20239   */\n      sub\n        /* \"#utility.yul\":20219:20239   */\n      swap1\n      pop\n        /* \"#utility.yul\":20014:20245   */\n      swap2\n      swap1\n      pop\n      jump\t// out\n\n    auxdata: 0xa2646970667358221220a5064dc5862a36baa6c9efece8ad846cc679a3b0bb8fb92b9a97bbdc8315bfc064736f6c63430008160033\n}\n",
				"bytecode": {
					"linkReferences": {},
					"object": "608060405234801561000f575f80fd5b506118828061001d5f395ff3fe608060405234801561000f575f80fd5b506004361061003f575f3560e01c8063c3a4787914610043578063cc7168a31461005f578063f1e4eb4614610091575b5f80fd5b61005d60048036038101906100589190610f5c565b6100c1565b005b61007960048036038101906100749190610fe4565b610646565b604051610088939291906110bc565b60405180910390f35b6100ab60048036038101906100a69190611122565b6106ff565b6040516100b8919061116f565b60405180910390f35b5f801b8303610203576100d38261072a565b925060065f8481526020019081526020015f205f808201815f019080546100fb929190610b47565b506001820181600101908054610112929190610b47565b50600282015f9054906101000a900460ff16816002015f6101000a81548160ff021916908360ff160217905550600382015481600301556004820181600401908161015d9190611397565b50905050815f80019080519060200190610178929190610b95565b5060405180602001604052803373ffffffffffffffffffffffffffffffffffffffff1673ffffffffffffffffffffffffffffffffffffffff168152505f6001019060016101c6929190610c1c565b505f806002015f6101000a81548160ff021916908360ff160217905550425f60030181905550805f60040190816101fd919061147c565b506105b5565b60065f8481526020019081526020015f205f808201815f01908054610229929190610b47565b506001820181600101908054610240929190610b47565b50600282015f9054906101000a900460ff16816002015f6101000a81548160ff021916908360ff160217905550600382015481600301556004820181600401908161028b9190611397565b509050506103a25f800180548060200260200160405190810160405280929190818152602001828054801561031257602002820191905f5260205f20905b815f9054906101000a900473ffffffffffffffffffffffffffffffffffffffff1673ffffffffffffffffffffffffffffffffffffffff16815260200190600101908083116102c9575b50505050505f60010180548060200260200160405190810160405280929190818152602001828054801561039857602002820191905f5260205f20905b815f9054906101000a900473ffffffffffffffffffffffffffffffffffffffff1673ffffffffffffffffffffffffffffffffffffffff168152602001906001019080831161034f575b5050505050610759565b156103c55760015f6002015f6101000a81548160ff021916908360ff1602179055505b6104545f60010180548060200260200160405190810160405280929190818152602001828054801561044957602002820191905f5260205f20905b815f9054906101000a900473ffffffffffffffffffffffffffffffffffffffff1673ffffffffffffffffffffffffffffffffffffffff1681526020019060010190808311610400575b50505050503361082f565b6104bb575f60010133908060018154018082558091505060019003905f5260205f20015f9091909190916101000a81548173ffffffffffffffffffffffffffffffffffffffff021916908373ffffffffffffffffffffffffffffffffffffffff1602179055505b61054e60055f3373ffffffffffffffffffffffffffffffffffffffff1673ffffffffffffffffffffffffffffffffffffffff1681526020019081526020015f2080548060200260200160405190810160405280929190818152602001828054801561054357602002820191905f5260205f20905b81548152602001906001019080831161052f575b5050505050846108ad565b6105b45760055f3373ffffffffffffffffffffffffffffffffffffffff1673ffffffffffffffffffffffffffffffffffffffff1681526020019081526020015f2083908060018154018082558091505060019003905f5260205f20015f90919091909150555b5b5f60065f8581526020019081526020015f205f8201815f019080546105db929190610b47565b5060018201816001019080546105f2929190610b47565b50600282015f9054906101000a900460ff16816002015f6101000a81548160ff021916908360ff160217905550600382015481600301556004820181600401908161063d9190611397565b50905050505050565b6006602052805f5260405f205f91509050806002015f9054906101000a900460ff169080600301549080600401805461067e906111b5565b80601f01602080910402602001604051908101604052809291908181526020018280546106aa906111b5565b80156106f55780601f106106cc576101008083540402835291602001916106f5565b820191905f5260205f20905b8154815290600101906020018083116106d857829003601f168201915b5050505050905083565b6005602052815f5260405f208181548110610718575f80fd5b905f5260205f20015f91509150505481565b5f8160405160200161073c91906115fc565b604051602081830303815290604052805190602001209050919050565b5f815183511461076b575f9050610829565b610783835f6001865161077e919061163f565b6108ff565b61079b825f60018551610796919061163f565b6108ff565b5f5b8351811015610823578281815181106107b9576107b8611672565b5b602002602001015173ffffffffffffffffffffffffffffffffffffffff168482815181106107ea576107e9611672565b5b602002602001015173ffffffffffffffffffffffffffffffffffffffff1614610816575f915050610829565b808060010191505061079d565b50600190505b92915050565b5f805f90505b83518110156108a2578273ffffffffffffffffffffffffffffffffffffffff1684828151811061086857610867611672565b5b602002602001015173ffffffffffffffffffffffffffffffffffffffff16036108955760019150506108a7565b8080600101915050610835565b505f90505b92915050565b5f805f90505b83518110156108f457828482815181106108d0576108cf611672565b5b6020026020010151036108e75760019150506108f9565b80806001019150506108b3565b505f90505b92915050565b5f8290505f829050808203610915575050610b42565b5f856002868661092591906116a8565b61092f9190611715565b8661093a919061177d565b8151811061094b5761094a611672565b5b602002602001015190505b818313610b16575b8073ffffffffffffffffffffffffffffffffffffffff1686848151811061098857610987611672565b5b602002602001015173ffffffffffffffffffffffffffffffffffffffff1610156109bf5782806109b7906117be565b93505061095e565b5b8582815181106109d3576109d2611672565b5b602002602001015173ffffffffffffffffffffffffffffffffffffffff168173ffffffffffffffffffffffffffffffffffffffff161015610a21578180610a1990611805565b9250506109c0565b818313610b1157858281518110610a3b57610a3a611672565b5b6020026020010151868481518110610a5657610a55611672565b5b6020026020010151878581518110610a7157610a70611672565b5b60200260200101888581518110610a8b57610a8a611672565b5b602002602001018273ffffffffffffffffffffffffffffffffffffffff1673ffffffffffffffffffffffffffffffffffffffff168152508273ffffffffffffffffffffffffffffffffffffffff1673ffffffffffffffffffffffffffffffffffffffff1681525050508280610aff906117be565b9350508180610b0d90611805565b9250505b610956565b81851215610b2a57610b298686846108ff565b5b83831215610b3e57610b3d8684866108ff565b5b5050505b505050565b828054828255905f5260205f20908101928215610b84575f5260205f209182015b82811115610b83578254825591600101919060010190610b68565b5b509050610b919190610ca3565b5090565b828054828255905f5260205f20908101928215610c0b579160200282015b82811115610c0a578251825f6101000a81548173ffffffffffffffffffffffffffffffffffffffff021916908373ffffffffffffffffffffffffffffffffffffffff16021790555091602001919060010190610bb3565b5b509050610c189190610ca3565b5090565b828054828255905f5260205f20908101928215610c92579160200282015b82811115610c91578251825f6101000a81548173ffffffffffffffffffffffffffffffffffffffff021916908373ffffffffffffffffffffffffffffffffffffffff16021790555091602001919060010190610c3a565b5b509050610c9f9190610ca3565b5090565b5b80821115610cba575f815f905550600101610ca4565b5090565b5f604051905090565b5f80fd5b5f80fd5b5f819050919050565b610ce181610ccf565b8114610ceb575f80fd5b50565b5f81359050610cfc81610cd8565b92915050565b5f80fd5b5f601f19601f8301169050919050565b7f4e487b71000000000000000000000000000000000000000000000000000000005f52604160045260245ffd5b610d4c82610d06565b810181811067ffffffffffffffff82111715610d6b57610d6a610d16565b5b80604052505050565b5f610d7d610cbe565b9050610d898282610d43565b919050565b5f67ffffffffffffffff821115610da857610da7610d16565b5b602082029050602081019050919050565b5f80fd5b5f73ffffffffffffffffffffffffffffffffffffffff82169050919050565b5f610de682610dbd565b9050919050565b610df681610ddc565b8114610e00575f80fd5b50565b5f81359050610e1181610ded565b92915050565b5f610e29610e2484610d8e565b610d74565b90508083825260208201905060208402830185811115610e4c57610e4b610db9565b5b835b81811015610e755780610e618882610e03565b845260208401935050602081019050610e4e565b5050509392505050565b5f82601f830112610e9357610e92610d02565b5b8135610ea3848260208601610e17565b91505092915050565b5f80fd5b5f67ffffffffffffffff821115610eca57610ec9610d16565b5b610ed382610d06565b9050602081019050919050565b828183375f83830152505050565b5f610f00610efb84610eb0565b610d74565b905082815260208101848484011115610f1c57610f1b610eac565b5b610f27848285610ee0565b509392505050565b5f82601f830112610f4357610f42610d02565b5b8135610f53848260208601610eee565b91505092915050565b5f805f60608486031215610f7357610f72610cc7565b5b5f610f8086828701610cee565b935050602084013567ffffffffffffffff811115610fa157610fa0610ccb565b5b610fad86828701610e7f565b925050604084013567ffffffffffffffff811115610fce57610fcd610ccb565b5b610fda86828701610f2f565b9150509250925092565b5f60208284031215610ff957610ff8610cc7565b5b5f61100684828501610cee565b91505092915050565b5f60ff82169050919050565b6110248161100f565b82525050565b5f819050919050565b61103c8161102a565b82525050565b5f81519050919050565b5f82825260208201905092915050565b5f5b8381101561107957808201518184015260208101905061105e565b5f8484015250505050565b5f61108e82611042565b611098818561104c565b93506110a881856020860161105c565b6110b181610d06565b840191505092915050565b5f6060820190506110cf5f83018661101b565b6110dc6020830185611033565b81810360408301526110ee8184611084565b9050949350505050565b6111018161102a565b811461110b575f80fd5b50565b5f8135905061111c816110f8565b92915050565b5f806040838503121561113857611137610cc7565b5b5f61114585828601610e03565b92505060206111568582860161110e565b9150509250929050565b61116981610ccf565b82525050565b5f6020820190506111825f830184611160565b92915050565b7f4e487b71000000000000000000000000000000000000000000000000000000005f52602260045260245ffd5b5f60028204905060018216806111cc57607f821691505b6020821081036111df576111de611188565b5b50919050565b5f815490506111f3816111b5565b9050919050565b5f819050815f5260205f209050919050565b5f6020601f8301049050919050565b5f82821b905092915050565b5f600883026112567fffffffffffffffffffffffffffffffffffffffffffffffffffffffffffffffff8261121b565b611260868361121b565b95508019841693508086168417925050509392505050565b5f819050919050565b5f61129b6112966112918461102a565b611278565b61102a565b9050919050565b5f819050919050565b6112b483611281565b6112c86112c0826112a2565b848454611227565b825550505050565b5f90565b6112dc6112d0565b6112e78184846112ab565b505050565b5b8181101561130a576112ff5f826112d4565b6001810190506112ed565b5050565b601f82111561134f57611320816111fa565b6113298461120c565b81016020851015611338578190505b61134c6113448561120c565b8301826112ec565b50505b505050565b5f82821c905092915050565b5f61136f5f1984600802611354565b1980831691505092915050565b5f6113878383611360565b9150826002028217905092915050565b8181036113a557505061147a565b6113ae826111e5565b67ffffffffffffffff8111156113c7576113c6610d16565b5b6113d182546111b5565b6113dc82828561130e565b5f601f831160018114611409575f84156113f7578287015490505b611401858261137c565b865550611473565b601f198416611417876111fa565b9650611422866111fa565b5f5b8281101561144957848901548255600182019150600185019450602081019050611424565b868310156114665784890154611462601f891682611360565b8355505b6001600288020188555050505b5050505050505b565b61148582611042565b67ffffffffffffffff81111561149e5761149d610d16565b5b6114a882546111b5565b6114b382828561130e565b5f60209050601f8311600181146114e4575f84156114d2578287015190505b6114dc858261137c565b865550611543565b601f1984166114f2866111fa565b5f5b82811015611519578489015182556001820191506020850194506020810190506114f4565b868310156115365784890151611532601f891682611360565b8355505b6001600288020188555050505b505050505050565b5f81519050919050565b5f81905092915050565b5f819050602082019050919050565b61157781610ddc565b82525050565b5f611588838361156e565b60208301905092915050565b5f602082019050919050565b5f6115aa8261154b565b6115b48185611555565b93506115bf8361155f565b805f5b838110156115ef5781516115d6888261157d565b97506115e183611594565b9250506001810190506115c2565b5085935050505092915050565b5f61160782846115a0565b915081905092915050565b7f4e487b71000000000000000000000000000000000000000000000000000000005f52601160045260245ffd5b5f6116498261102a565b91506116548361102a565b925082820390508181111561166c5761166b611612565b5b92915050565b7f4e487b71000000000000000000000000000000000000000000000000000000005f52603260045260245ffd5b5f819050919050565b5f6116b28261169f565b91506116bd8361169f565b925082820390508181125f8412168282135f8512151617156116e2576116e1611612565b5b92915050565b7f4e487b71000000000000000000000000000000000000000000000000000000005f52601260045260245ffd5b5f61171f8261169f565b915061172a8361169f565b92508261173a576117396116e8565b5b60015f0383147f80000000000000000000000000000000000000000000000000000000000000008314161561177257611771611612565b5b828205905092915050565b5f6117878261169f565b91506117928361169f565b92508282019050828112155f8312168382125f8412151617156117b8576117b7611612565b5b92915050565b5f6117c88261169f565b91507f7fffffffffffffffffffffffffffffffffffffffffffffffffffffffffffffff82036117fa576117f9611612565b5b600182019050919050565b5f61180f8261169f565b91507f8000000000000000000000000000000000000000000000000000000000000000820361184157611840611612565b5b60018203905091905056fea2646970667358221220a5064dc5862a36baa6c9efece8ad846cc679a3b0bb8fb92b9a97bbdc8315bfc064736f6c63430008160033",
					"opcodes": "PUSH1 0x80 PUSH1 0x40 MSTORE CALLVALUE DUP1 ISZERO PUSH2 0xF JUMPI PUSH0 DUP1 REVERT JUMPDEST POP PUSH2 0x1882 DUP1 PUSH2 0x1D PUSH0 CODECOPY PUSH0 RETURN INVALID PUSH1 0x80 PUSH1 0x40 MSTORE CALLVALUE DUP1 ISZERO PUSH2 0xF JUMPI PUSH0 DUP1 REVERT JUMPDEST POP PUSH1 0x4 CALLDATASIZE LT PUSH2 0x3F JUMPI PUSH0 CALLDATALOAD PUSH1 0xE0 SHR DUP1 PUSH4 0xC3A47879 EQ PUSH2 0x43 JUMPI DUP1 PUSH4 0xCC7168A3 EQ PUSH2 0x5F JUMPI DUP1 PUSH4 0xF1E4EB46 EQ PUSH2 0x91 JUMPI JUMPDEST PUSH0 DUP1 REVERT JUMPDEST PUSH2 0x5D PUSH1 0x4 DUP1 CALLDATASIZE SUB DUP2 ADD SWAP1 PUSH2 0x58 SWAP2 SWAP1 PUSH2 0xF5C JUMP JUMPDEST PUSH2 0xC1 JUMP JUMPDEST STOP JUMPDEST PUSH2 0x79 PUSH1 0x4 DUP1 CALLDATASIZE SUB DUP2 ADD SWAP1 PUSH2 0x74 SWAP2 SWAP1 PUSH2 0xFE4 JUMP JUMPDEST PUSH2 0x646 JUMP JUMPDEST PUSH1 0x40 MLOAD PUSH2 0x88 SWAP4 SWAP3 SWAP2 SWAP1 PUSH2 0x10BC JUMP JUMPDEST PUSH1 0x40 MLOAD DUP1 SWAP2 SUB SWAP1 RETURN JUMPDEST PUSH2 0xAB PUSH1 0x4 DUP1 CALLDATASIZE SUB DUP2 ADD SWAP1 PUSH2 0xA6 SWAP2 SWAP1 PUSH2 0x1122 JUMP JUMPDEST PUSH2 0x6FF JUMP JUMPDEST PUSH1 0x40 MLOAD PUSH2 0xB8 SWAP2 SWAP1 PUSH2 0x116F JUMP JUMPDEST PUSH1 0x40 MLOAD DUP1 SWAP2 SUB SWAP1 RETURN JUMPDEST PUSH0 DUP1 SHL DUP4 SUB PUSH2 0x203 JUMPI PUSH2 0xD3 DUP3 PUSH2 0x72A JUMP JUMPDEST SWAP3 POP PUSH1 0x6 PUSH0 DUP5 DUP2 MSTORE PUSH1 0x20 ADD SWAP1 DUP2 MSTORE PUSH1 0x20 ADD PUSH0 KECCAK256 PUSH0 DUP1 DUP3 ADD DUP2 PUSH0 ADD SWAP1 DUP1 SLOAD PUSH2 0xFB SWAP3 SWAP2 SWAP1 PUSH2 0xB47 JUMP JUMPDEST POP PUSH1 0x1 DUP3 ADD DUP2 PUSH1 0x1 ADD SWAP1 DUP1 SLOAD PUSH2 0x112 SWAP3 SWAP2 SWAP1 PUSH2 0xB47 JUMP JUMPDEST POP PUSH1 0x2 DUP3 ADD PUSH0 SWAP1 SLOAD SWAP1 PUSH2 0x100 EXP SWAP1 DIV PUSH1 0xFF AND DUP2 PUSH1 0x2 ADD PUSH0 PUSH2 0x100 EXP DUP2 SLOAD DUP2 PUSH1 0xFF MUL NOT AND SWAP1 DUP4 PUSH1 0xFF AND MUL OR SWAP1 SSTORE POP PUSH1 0x3 DUP3 ADD SLOAD DUP2 PUSH1 0x3 ADD SSTORE PUSH1 0x4 DUP3 ADD DUP2 PUSH1 0x4 ADD SWAP1 DUP2 PUSH2 0x15D SWAP2 SWAP1 PUSH2 0x1397 JUMP JUMPDEST POP SWAP1 POP POP DUP2 PUSH0 DUP1 ADD SWAP1 DUP1 MLOAD SWAP1 PUSH1 0x20 ADD SWAP1 PUSH2 0x178 SWAP3 SWAP2 SWAP1 PUSH2 0xB95 JUMP JUMPDEST POP PUSH1 0x40 MLOAD DUP1 PUSH1 0x20 ADD PUSH1 0x40 MSTORE DUP1 CALLER PUSH20 0xFFFFFFFFFFFFFFFFFFFFFFFFFFFFFFFFFFFFFFFF AND PUSH20 0xFFFFFFFFFFFFFFFFFFFFFFFFFFFFFFFFFFFFFFFF AND DUP2 MSTORE POP PUSH0 PUSH1 0x1 ADD SWAP1 PUSH1 0x1 PUSH2 0x1C6 SWAP3 SWAP2 SWAP1 PUSH2 0xC1C JUMP JUMPDEST POP PUSH0 DUP1 PUSH1 0x2 ADD PUSH0 PUSH2 0x100 EXP DUP2 SLOAD DUP2 PUSH1 0xFF MUL NOT AND SWAP1 DUP4 PUSH1 0xFF AND MUL OR SWAP1 SSTORE POP TIMESTAMP PUSH0 PUSH1 0x3 ADD DUP2 SWAP1 SSTORE POP DUP1 PUSH0 PUSH1 0x4 ADD SWAP1 DUP2 PUSH2 0x1FD SWAP2 SWAP1 PUSH2 0x147C JUMP JUMPDEST POP PUSH2 0x5B5 JUMP JUMPDEST PUSH1 0x6 PUSH0 DUP5 DUP2 MSTORE PUSH1 0x20 ADD SWAP1 DUP2 MSTORE PUSH1 0x20 ADD PUSH0 KECCAK256 PUSH0 DUP1 DUP3 ADD DUP2 PUSH0 ADD SWAP1 DUP1 SLOAD PUSH2 0x229 SWAP3 SWAP2 SWAP1 PUSH2 0xB47 JUMP JUMPDEST POP PUSH1 0x1 DUP3 ADD DUP2 PUSH1 0x1 ADD SWAP1 DUP1 SLOAD PUSH2 0x240 SWAP3 SWAP2 SWAP1 PUSH2 0xB47 JUMP JUMPDEST POP PUSH1 0x2 DUP3 ADD PUSH0 SWAP1 SLOAD SWAP1 PUSH2 0x100 EXP SWAP1 DIV PUSH1 0xFF AND DUP2 PUSH1 0x2 ADD PUSH0 PUSH2 0x100 EXP DUP2 SLOAD DUP2 PUSH1 0xFF MUL NOT AND SWAP1 DUP4 PUSH1 0xFF AND MUL OR SWAP1 SSTORE POP PUSH1 0x3 DUP3 ADD SLOAD DUP2 PUSH1 0x3 ADD SSTORE PUSH1 0x4 DUP3 ADD DUP2 PUSH1 0x4 ADD SWAP1 DUP2 PUSH2 0x28B SWAP2 SWAP1 PUSH2 0x1397 JUMP JUMPDEST POP SWAP1 POP POP PUSH2 0x3A2 PUSH0 DUP1 ADD DUP1 SLOAD DUP1 PUSH1 0x20 MUL PUSH1 0x20 ADD PUSH1 0x40 MLOAD SWAP1 DUP2 ADD PUSH1 0x40 MSTORE DUP1 SWAP3 SWAP2 SWAP1 DUP2 DUP2 MSTORE PUSH1 0x20 ADD DUP3 DUP1 SLOAD DUP1 ISZERO PUSH2 0x312 JUMPI PUSH1 0x20 MUL DUP3 ADD SWAP2 SWAP1 PUSH0 MSTORE PUSH1 0x20 PUSH0 KECCAK256 SWAP1 JUMPDEST DUP2 PUSH0 SWAP1 SLOAD SWAP1 PUSH2 0x100 EXP SWAP1 DIV PUSH20 0xFFFFFFFFFFFFFFFFFFFFFFFFFFFFFFFFFFFFFFFF AND PUSH20 0xFFFFFFFFFFFFFFFFFFFFFFFFFFFFFFFFFFFFFFFF AND DUP2 MSTORE PUSH1 0x20 ADD SWAP1 PUSH1 0x1 ADD SWAP1 DUP1 DUP4 GT PUSH2 0x2C9 JUMPI JUMPDEST POP POP POP POP POP PUSH0 PUSH1 0x1 ADD DUP1 SLOAD DUP1 PUSH1 0x20 MUL PUSH1 0x20 ADD PUSH1 0x40 MLOAD SWAP1 DUP2 ADD PUSH1 0x40 MSTORE DUP1 SWAP3 SWAP2 SWAP1 DUP2 DUP2 MSTORE PUSH1 0x20 ADD DUP3 DUP1 SLOAD DUP1 ISZERO PUSH2 0x398 JUMPI PUSH1 0x20 MUL DUP3 ADD SWAP2 SWAP1 PUSH0 MSTORE PUSH1 0x20 PUSH0 KECCAK256 SWAP1 JUMPDEST DUP2 PUSH0 SWAP1 SLOAD SWAP1 PUSH2 0x100 EXP SWAP1 DIV PUSH20 0xFFFFFFFFFFFFFFFFFFFFFFFFFFFFFFFFFFFFFFFF AND PUSH20 0xFFFFFFFFFFFFFFFFFFFFFFFFFFFFFFFFFFFFFFFF AND DUP2 MSTORE PUSH1 0x20 ADD SWAP1 PUSH1 0x1 ADD SWAP1 DUP1 DUP4 GT PUSH2 0x34F JUMPI JUMPDEST POP POP POP POP POP PUSH2 0x759 JUMP JUMPDEST ISZERO PUSH2 0x3C5 JUMPI PUSH1 0x1 PUSH0 PUSH1 0x2 ADD PUSH0 PUSH2 0x100 EXP DUP2 SLOAD DUP2 PUSH1 0xFF MUL NOT AND SWAP1 DUP4 PUSH1 0xFF AND MUL OR SWAP1 SSTORE POP JUMPDEST PUSH2 0x454 PUSH0 PUSH1 0x1 ADD DUP1 SLOAD DUP1 PUSH1 0x20 MUL PUSH1 0x20 ADD PUSH1 0x40 MLOAD SWAP1 DUP2 ADD PUSH1 0x40 MSTORE DUP1 SWAP3 SWAP2 SWAP1 DUP2 DUP2 MSTORE PUSH1 0x20 ADD DUP3 DUP1 SLOAD DUP1 ISZERO PUSH2 0x449 JUMPI PUSH1 0x20 MUL DUP3 ADD SWAP2 SWAP1 PUSH0 MSTORE PUSH1 0x20 PUSH0 KECCAK256 SWAP1 JUMPDEST DUP2 PUSH0 SWAP1 SLOAD SWAP1 PUSH2 0x100 EXP SWAP1 DIV PUSH20 0xFFFFFFFFFFFFFFFFFFFFFFFFFFFFFFFFFFFFFFFF AND PUSH20 0xFFFFFFFFFFFFFFFFFFFFFFFFFFFFFFFFFFFFFFFF AND DUP2 MSTORE PUSH1 0x20 ADD SWAP1 PUSH1 0x1 ADD SWAP1 DUP1 DUP4 GT PUSH2 0x400 JUMPI JUMPDEST POP POP POP POP POP CALLER PUSH2 0x82F JUMP JUMPDEST PUSH2 0x4BB JUMPI PUSH0 PUSH1 0x1 ADD CALLER SWAP1 DUP1 PUSH1 0x1 DUP2 SLOAD ADD DUP1 DUP3 SSTORE DUP1 SWAP2 POP POP PUSH1 0x1 SWAP1 SUB SWAP1 PUSH0 MSTORE PUSH1 0x20 PUSH0 KECCAK256 ADD PUSH0 SWAP1 SWAP2 SWAP1 SWAP2 SWAP1 SWAP2 PUSH2 0x100 EXP DUP2 SLOAD DUP2 PUSH20 0xFFFFFFFFFFFFFFFFFFFFFFFFFFFFFFFFFFFFFFFF MUL NOT AND SWAP1 DUP4 PUSH20 0xFFFFFFFFFFFFFFFFFFFFFFFFFFFFFFFFFFFFFFFF AND MUL OR SWAP1 SSTORE POP JUMPDEST PUSH2 0x54E PUSH1 0x5 PUSH0 CALLER PUSH20 0xFFFFFFFFFFFFFFFFFFFFFFFFFFFFFFFFFFFFFFFF AND PUSH20 0xFFFFFFFFFFFFFFFFFFFFFFFFFFFFFFFFFFFFFFFF AND DUP2 MSTORE PUSH1 0x20 ADD SWAP1 DUP2 MSTORE PUSH1 0x20 ADD PUSH0 KECCAK256 DUP1 SLOAD DUP1 PUSH1 0x20 MUL PUSH1 0x20 ADD PUSH1 0x40 MLOAD SWAP1 DUP2 ADD PUSH1 0x40 MSTORE DUP1 SWAP3 SWAP2 SWAP1 DUP2 DUP2 MSTORE PUSH1 0x20 ADD DUP3 DUP1 SLOAD DUP1 ISZERO PUSH2 0x543 JUMPI PUSH1 0x20 MUL DUP3 ADD SWAP2 SWAP1 PUSH0 MSTORE PUSH1 0x20 PUSH0 KECCAK256 SWAP1 JUMPDEST DUP2 SLOAD DUP2 MSTORE PUSH1 0x20 ADD SWAP1 PUSH1 0x1 ADD SWAP1 DUP1 DUP4 GT PUSH2 0x52F JUMPI JUMPDEST POP POP POP POP POP DUP5 PUSH2 0x8AD JUMP JUMPDEST PUSH2 0x5B4 JUMPI PUSH1 0x5 PUSH0 CALLER PUSH20 0xFFFFFFFFFFFFFFFFFFFFFFFFFFFFFFFFFFFFFFFF AND PUSH20 0xFFFFFFFFFFFFFFFFFFFFFFFFFFFFFFFFFFFFFFFF AND DUP2 MSTORE PUSH1 0x20 ADD SWAP1 DUP2 MSTORE PUSH1 0x20 ADD PUSH0 KECCAK256 DUP4 SWAP1 DUP1 PUSH1 0x1 DUP2 SLOAD ADD DUP1 DUP3 SSTORE DUP1 SWAP2 POP POP PUSH1 0x1 SWAP1 SUB SWAP1 PUSH0 MSTORE PUSH1 0x20 PUSH0 KECCAK256 ADD PUSH0 SWAP1 SWAP2 SWAP1 SWAP2 SWAP1 SWAP2 POP SSTORE JUMPDEST JUMPDEST PUSH0 PUSH1 0x6 PUSH0 DUP6 DUP2 MSTORE PUSH1 0x20 ADD SWAP1 DUP2 MSTORE PUSH1 0x20 ADD PUSH0 KECCAK256 PUSH0 DUP3 ADD DUP2 PUSH0 ADD SWAP1 DUP1 SLOAD PUSH2 0x5DB SWAP3 SWAP2 SWAP1 PUSH2 0xB47 JUMP JUMPDEST POP PUSH1 0x1 DUP3 ADD DUP2 PUSH1 0x1 ADD SWAP1 DUP1 SLOAD PUSH2 0x5F2 SWAP3 SWAP2 SWAP1 PUSH2 0xB47 JUMP JUMPDEST POP PUSH1 0x2 DUP3 ADD PUSH0 SWAP1 SLOAD SWAP1 PUSH2 0x100 EXP SWAP1 DIV PUSH1 0xFF AND DUP2 PUSH1 0x2 ADD PUSH0 PUSH2 0x100 EXP DUP2 SLOAD DUP2 PUSH1 0xFF MUL NOT AND SWAP1 DUP4 PUSH1 0xFF AND MUL OR SWAP1 SSTORE POP PUSH1 0x3 DUP3 ADD SLOAD DUP2 PUSH1 0x3 ADD SSTORE PUSH1 0x4 DUP3 ADD DUP2 PUSH1 0x4 ADD SWAP1 DUP2 PUSH2 0x63D SWAP2 SWAP1 PUSH2 0x1397 JUMP JUMPDEST POP SWAP1 POP POP POP POP POP JUMP JUMPDEST PUSH1 0x6 PUSH1 0x20 MSTORE DUP1 PUSH0 MSTORE PUSH1 0x40 PUSH0 KECCAK256 PUSH0 SWAP2 POP SWAP1 POP DUP1 PUSH1 0x2 ADD PUSH0 SWAP1 SLOAD SWAP1 PUSH2 0x100 EXP SWAP1 DIV PUSH1 0xFF AND SWAP1 DUP1 PUSH1 0x3 ADD SLOAD SWAP1 DUP1 PUSH1 0x4 ADD DUP1 SLOAD PUSH2 0x67E SWAP1 PUSH2 0x11B5 JUMP JUMPDEST DUP1 PUSH1 0x1F ADD PUSH1 0x20 DUP1 SWAP2 DIV MUL PUSH1 0x20 ADD PUSH1 0x40 MLOAD SWAP1 DUP2 ADD PUSH1 0x40 MSTORE DUP1 SWAP3 SWAP2 SWAP1 DUP2 DUP2 MSTORE PUSH1 0x20 ADD DUP3 DUP1 SLOAD PUSH2 0x6AA SWAP1 PUSH2 0x11B5 JUMP JUMPDEST DUP1 ISZERO PUSH2 0x6F5 JUMPI DUP1 PUSH1 0x1F LT PUSH2 0x6CC JUMPI PUSH2 0x100 DUP1 DUP4 SLOAD DIV MUL DUP4 MSTORE SWAP2 PUSH1 0x20 ADD SWAP2 PUSH2 0x6F5 JUMP JUMPDEST DUP3 ADD SWAP2 SWAP1 PUSH0 MSTORE PUSH1 0x20 PUSH0 KECCAK256 SWAP1 JUMPDEST DUP2 SLOAD DUP2 MSTORE SWAP1 PUSH1 0x1 ADD SWAP1 PUSH1 0x20 ADD DUP1 DUP4 GT PUSH2 0x6D8 JUMPI DUP3 SWAP1 SUB PUSH1 0x1F AND DUP3 ADD SWAP2 JUMPDEST POP POP POP POP POP SWAP1 POP DUP4 JUMP JUMPDEST PUSH1 0x5 PUSH1 0x20 MSTORE DUP2 PUSH0 MSTORE PUSH1 0x40 PUSH0 KECCAK256 DUP2 DUP2 SLOAD DUP2 LT PUSH2 0x718 JUMPI PUSH0 DUP1 REVERT JUMPDEST SWAP1 PUSH0 MSTORE PUSH1 0x20 PUSH0 KECCAK256 ADD PUSH0 SWAP2 POP SWAP2 POP POP SLOAD DUP2 JUMP JUMPDEST PUSH0 DUP2 PUSH1 0x40 MLOAD PUSH1 0x20 ADD PUSH2 0x73C SWAP2 SWAP1 PUSH2 0x15FC JUMP JUMPDEST PUSH1 0x40 MLOAD PUSH1 0x20 DUP2 DUP4 SUB SUB DUP2 MSTORE SWAP1 PUSH1 0x40 MSTORE DUP1 MLOAD SWAP1 PUSH1 0x20 ADD KECCAK256 SWAP1 POP SWAP2 SWAP1 POP JUMP JUMPDEST PUSH0 DUP2 MLOAD DUP4 MLOAD EQ PUSH2 0x76B JUMPI PUSH0 SWAP1 POP PUSH2 0x829 JUMP JUMPDEST PUSH2 0x783 DUP4 PUSH0 PUSH1 0x1 DUP7 MLOAD PUSH2 0x77E SWAP2 SWAP1 PUSH2 0x163F JUMP JUMPDEST PUSH2 0x8FF JUMP JUMPDEST PUSH2 0x79B DUP3 PUSH0 PUSH1 0x1 DUP6 MLOAD PUSH2 0x796 SWAP2 SWAP1 PUSH2 0x163F JUMP JUMPDEST PUSH2 0x8FF JUMP JUMPDEST PUSH0 JUMPDEST DUP4 MLOAD DUP2 LT ISZERO PUSH2 0x823 JUMPI DUP3 DUP2 DUP2 MLOAD DUP2 LT PUSH2 0x7B9 JUMPI PUSH2 0x7B8 PUSH2 0x1672 JUMP JUMPDEST JUMPDEST PUSH1 0x20 MUL PUSH1 0x20 ADD ADD MLOAD PUSH20 0xFFFFFFFFFFFFFFFFFFFFFFFFFFFFFFFFFFFFFFFF AND DUP5 DUP3 DUP2 MLOAD DUP2 LT PUSH2 0x7EA JUMPI PUSH2 0x7E9 PUSH2 0x1672 JUMP JUMPDEST JUMPDEST PUSH1 0x20 MUL PUSH1 0x20 ADD ADD MLOAD PUSH20 0xFFFFFFFFFFFFFFFFFFFFFFFFFFFFFFFFFFFFFFFF AND EQ PUSH2 0x816 JUMPI PUSH0 SWAP2 POP POP PUSH2 0x829 JUMP JUMPDEST DUP1 DUP1 PUSH1 0x1 ADD SWAP2 POP POP PUSH2 0x79D JUMP JUMPDEST POP PUSH1 0x1 SWAP1 POP JUMPDEST SWAP3 SWAP2 POP POP JUMP JUMPDEST PUSH0 DUP1 PUSH0 SWAP1 POP JUMPDEST DUP4 MLOAD DUP2 LT ISZERO PUSH2 0x8A2 JUMPI DUP3 PUSH20 0xFFFFFFFFFFFFFFFFFFFFFFFFFFFFFFFFFFFFFFFF AND DUP5 DUP3 DUP2 MLOAD DUP2 LT PUSH2 0x868 JUMPI PUSH2 0x867 PUSH2 0x1672 JUMP JUMPDEST JUMPDEST PUSH1 0x20 MUL PUSH1 0x20 ADD ADD MLOAD PUSH20 0xFFFFFFFFFFFFFFFFFFFFFFFFFFFFFFFFFFFFFFFF AND SUB PUSH2 0x895 JUMPI PUSH1 0x1 SWAP2 POP POP PUSH2 0x8A7 JUMP JUMPDEST DUP1 DUP1 PUSH1 0x1 ADD SWAP2 POP POP PUSH2 0x835 JUMP JUMPDEST POP PUSH0 SWAP1 POP JUMPDEST SWAP3 SWAP2 POP POP JUMP JUMPDEST PUSH0 DUP1 PUSH0 SWAP1 POP JUMPDEST DUP4 MLOAD DUP2 LT ISZERO PUSH2 0x8F4 JUMPI DUP3 DUP5 DUP3 DUP2 MLOAD DUP2 LT PUSH2 0x8D0 JUMPI PUSH2 0x8CF PUSH2 0x1672 JUMP JUMPDEST JUMPDEST PUSH1 0x20 MUL PUSH1 0x20 ADD ADD MLOAD SUB PUSH2 0x8E7 JUMPI PUSH1 0x1 SWAP2 POP POP PUSH2 0x8F9 JUMP JUMPDEST DUP1 DUP1 PUSH1 0x1 ADD SWAP2 POP POP PUSH2 0x8B3 JUMP JUMPDEST POP PUSH0 SWAP1 POP JUMPDEST SWAP3 SWAP2 POP POP JUMP JUMPDEST PUSH0 DUP3 SWAP1 POP PUSH0 DUP3 SWAP1 POP DUP1 DUP3 SUB PUSH2 0x915 JUMPI POP POP PUSH2 0xB42 JUMP JUMPDEST PUSH0 DUP6 PUSH1 0x2 DUP7 DUP7 PUSH2 0x925 SWAP2 SWAP1 PUSH2 0x16A8 JUMP JUMPDEST PUSH2 0x92F SWAP2 SWAP1 PUSH2 0x1715 JUMP JUMPDEST DUP7 PUSH2 0x93A SWAP2 SWAP1 PUSH2 0x177D JUMP JUMPDEST DUP2 MLOAD DUP2 LT PUSH2 0x94B JUMPI PUSH2 0x94A PUSH2 0x1672 JUMP JUMPDEST JUMPDEST PUSH1 0x20 MUL PUSH1 0x20 ADD ADD MLOAD SWAP1 POP JUMPDEST DUP2 DUP4 SGT PUSH2 0xB16 JUMPI JUMPDEST DUP1 PUSH20 0xFFFFFFFFFFFFFFFFFFFFFFFFFFFFFFFFFFFFFFFF AND DUP7 DUP5 DUP2 MLOAD DUP2 LT PUSH2 0x988 JUMPI PUSH2 0x987 PUSH2 0x1672 JUMP JUMPDEST JUMPDEST PUSH1 0x20 MUL PUSH1 0x20 ADD ADD MLOAD PUSH20 0xFFFFFFFFFFFFFFFFFFFFFFFFFFFFFFFFFFFFFFFF AND LT ISZERO PUSH2 0x9BF JUMPI DUP3 DUP1 PUSH2 0x9B7 SWAP1 PUSH2 0x17BE JUMP JUMPDEST SWAP4 POP POP PUSH2 0x95E JUMP JUMPDEST JUMPDEST DUP6 DUP3 DUP2 MLOAD DUP2 LT PUSH2 0x9D3 JUMPI PUSH2 0x9D2 PUSH2 0x1672 JUMP JUMPDEST JUMPDEST PUSH1 0x20 MUL PUSH1 0x20 ADD ADD MLOAD PUSH20 0xFFFFFFFFFFFFFFFFFFFFFFFFFFFFFFFFFFFFFFFF AND DUP2 PUSH20 0xFFFFFFFFFFFFFFFFFFFFFFFFFFFFFFFFFFFFFFFF AND LT ISZERO PUSH2 0xA21 JUMPI DUP2 DUP1 PUSH2 0xA19 SWAP1 PUSH2 0x1805 JUMP JUMPDEST SWAP3 POP POP PUSH2 0x9C0 JUMP JUMPDEST DUP2 DUP4 SGT PUSH2 0xB11 JUMPI DUP6 DUP3 DUP2 MLOAD DUP2 LT PUSH2 0xA3B JUMPI PUSH2 0xA3A PUSH2 0x1672 JUMP JUMPDEST JUMPDEST PUSH1 0x20 MUL PUSH1 0x20 ADD ADD MLOAD DUP7 DUP5 DUP2 MLOAD DUP2 LT PUSH2 0xA56 JUMPI PUSH2 0xA55 PUSH2 0x1672 JUMP JUMPDEST JUMPDEST PUSH1 0x20 MUL PUSH1 0x20 ADD ADD MLOAD DUP8 DUP6 DUP2 MLOAD DUP2 LT PUSH2 0xA71 JUMPI PUSH2 0xA70 PUSH2 0x1672 JUMP JUMPDEST JUMPDEST PUSH1 0x20 MUL PUSH1 0x20 ADD ADD DUP9 DUP6 DUP2 MLOAD DUP2 LT PUSH2 0xA8B JUMPI PUSH2 0xA8A PUSH2 0x1672 JUMP JUMPDEST JUMPDEST PUSH1 0x20 MUL PUSH1 0x20 ADD ADD DUP3 PUSH20 0xFFFFFFFFFFFFFFFFFFFFFFFFFFFFFFFFFFFFFFFF AND PUSH20 0xFFFFFFFFFFFFFFFFFFFFFFFFFFFFFFFFFFFFFFFF AND DUP2 MSTORE POP DUP3 PUSH20 0xFFFFFFFFFFFFFFFFFFFFFFFFFFFFFFFFFFFFFFFF AND PUSH20 0xFFFFFFFFFFFFFFFFFFFFFFFFFFFFFFFFFFFFFFFF AND DUP2 MSTORE POP POP POP DUP3 DUP1 PUSH2 0xAFF SWAP1 PUSH2 0x17BE JUMP JUMPDEST SWAP4 POP POP DUP2 DUP1 PUSH2 0xB0D SWAP1 PUSH2 0x1805 JUMP JUMPDEST SWAP3 POP POP JUMPDEST PUSH2 0x956 JUMP JUMPDEST DUP2 DUP6 SLT ISZERO PUSH2 0xB2A JUMPI PUSH2 0xB29 DUP7 DUP7 DUP5 PUSH2 0x8FF JUMP JUMPDEST JUMPDEST DUP4 DUP4 SLT ISZERO PUSH2 0xB3E JUMPI PUSH2 0xB3D DUP7 DUP5 DUP7 PUSH2 0x8FF JUMP JUMPDEST JUMPDEST POP POP POP JUMPDEST POP POP POP JUMP JUMPDEST DUP3 DUP1 SLOAD DUP3 DUP3 SSTORE SWAP1 PUSH0 MSTORE PUSH1 0x20 PUSH0 KECCAK256 SWAP1 DUP2 ADD SWAP3 DUP3 ISZERO PUSH2 0xB84 JUMPI PUSH0 MSTORE PUSH1 0x20 PUSH0 KECCAK256 SWAP2 DUP3 ADD JUMPDEST DUP3 DUP2 GT ISZERO PUSH2 0xB83 JUMPI DUP3 SLOAD DUP3 SSTORE SWAP2 PUSH1 0x1 ADD SWAP2 SWAP1 PUSH1 0x1 ADD SWAP1 PUSH2 0xB68 JUMP JUMPDEST JUMPDEST POP SWAP1 POP PUSH2 0xB91 SWAP2 SWAP1 PUSH2 0xCA3 JUMP JUMPDEST POP SWAP1 JUMP JUMPDEST DUP3 DUP1 SLOAD DUP3 DUP3 SSTORE SWAP1 PUSH0 MSTORE PUSH1 0x20 PUSH0 KECCAK256 SWAP1 DUP2 ADD SWAP3 DUP3 ISZERO PUSH2 0xC0B JUMPI SWAP2 PUSH1 0x20 MUL DUP3 ADD JUMPDEST DUP3 DUP2 GT ISZERO PUSH2 0xC0A JUMPI DUP3 MLOAD DUP3 PUSH0 PUSH2 0x100 EXP DUP2 SLOAD DUP2 PUSH20 0xFFFFFFFFFFFFFFFFFFFFFFFFFFFFFFFFFFFFFFFF MUL NOT AND SWAP1 DUP4 PUSH20 0xFFFFFFFFFFFFFFFFFFFFFFFFFFFFFFFFFFFFFFFF AND MUL OR SWAP1 SSTORE POP SWAP2 PUSH1 0x20 ADD SWAP2 SWAP1 PUSH1 0x1 ADD SWAP1 PUSH2 0xBB3 JUMP JUMPDEST JUMPDEST POP SWAP1 POP PUSH2 0xC18 SWAP2 SWAP1 PUSH2 0xCA3 JUMP JUMPDEST POP SWAP1 JUMP JUMPDEST DUP3 DUP1 SLOAD DUP3 DUP3 SSTORE SWAP1 PUSH0 MSTORE PUSH1 0x20 PUSH0 KECCAK256 SWAP1 DUP2 ADD SWAP3 DUP3 ISZERO PUSH2 0xC92 JUMPI SWAP2 PUSH1 0x20 MUL DUP3 ADD JUMPDEST DUP3 DUP2 GT ISZERO PUSH2 0xC91 JUMPI DUP3 MLOAD DUP3 PUSH0 PUSH2 0x100 EXP DUP2 SLOAD DUP2 PUSH20 0xFFFFFFFFFFFFFFFFFFFFFFFFFFFFFFFFFFFFFFFF MUL NOT AND SWAP1 DUP4 PUSH20 0xFFFFFFFFFFFFFFFFFFFFFFFFFFFFFFFFFFFFFFFF AND MUL OR SWAP1 SSTORE POP SWAP2 PUSH1 0x20 ADD SWAP2 SWAP1 PUSH1 0x1 ADD SWAP1 PUSH2 0xC3A JUMP JUMPDEST JUMPDEST POP SWAP1 POP PUSH2 0xC9F SWAP2 SWAP1 PUSH2 0xCA3 JUMP JUMPDEST POP SWAP1 JUMP JUMPDEST JUMPDEST DUP1 DUP3 GT ISZERO PUSH2 0xCBA JUMPI PUSH0 DUP2 PUSH0 SWAP1 SSTORE POP PUSH1 0x1 ADD PUSH2 0xCA4 JUMP JUMPDEST POP SWAP1 JUMP JUMPDEST PUSH0 PUSH1 0x40 MLOAD SWAP1 POP SWAP1 JUMP JUMPDEST PUSH0 DUP1 REVERT JUMPDEST PUSH0 DUP1 REVERT JUMPDEST PUSH0 DUP2 SWAP1 POP SWAP2 SWAP1 POP JUMP JUMPDEST PUSH2 0xCE1 DUP2 PUSH2 0xCCF JUMP JUMPDEST DUP2 EQ PUSH2 0xCEB JUMPI PUSH0 DUP1 REVERT JUMPDEST POP JUMP JUMPDEST PUSH0 DUP2 CALLDATALOAD SWAP1 POP PUSH2 0xCFC DUP2 PUSH2 0xCD8 JUMP JUMPDEST SWAP3 SWAP2 POP POP JUMP JUMPDEST PUSH0 DUP1 REVERT JUMPDEST PUSH0 PUSH1 0x1F NOT PUSH1 0x1F DUP4 ADD AND SWAP1 POP SWAP2 SWAP1 POP JUMP JUMPDEST PUSH32 0x4E487B7100000000000000000000000000000000000000000000000000000000 PUSH0 MSTORE PUSH1 0x41 PUSH1 0x4 MSTORE PUSH1 0x24 PUSH0 REVERT JUMPDEST PUSH2 0xD4C DUP3 PUSH2 0xD06 JUMP JUMPDEST DUP2 ADD DUP2 DUP2 LT PUSH8 0xFFFFFFFFFFFFFFFF DUP3 GT OR ISZERO PUSH2 0xD6B JUMPI PUSH2 0xD6A PUSH2 0xD16 JUMP JUMPDEST JUMPDEST DUP1 PUSH1 0x40 MSTORE POP POP POP JUMP JUMPDEST PUSH0 PUSH2 0xD7D PUSH2 0xCBE JUMP JUMPDEST SWAP1 POP PUSH2 0xD89 DUP3 DUP3 PUSH2 0xD43 JUMP JUMPDEST SWAP2 SWAP1 POP JUMP JUMPDEST PUSH0 PUSH8 0xFFFFFFFFFFFFFFFF DUP3 GT ISZERO PUSH2 0xDA8 JUMPI PUSH2 0xDA7 PUSH2 0xD16 JUMP JUMPDEST JUMPDEST PUSH1 0x20 DUP3 MUL SWAP1 POP PUSH1 0x20 DUP2 ADD SWAP1 POP SWAP2 SWAP1 POP JUMP JUMPDEST PUSH0 DUP1 REVERT JUMPDEST PUSH0 PUSH20 0xFFFFFFFFFFFFFFFFFFFFFFFFFFFFFFFFFFFFFFFF DUP3 AND SWAP1 POP SWAP2 SWAP1 POP JUMP JUMPDEST PUSH0 PUSH2 0xDE6 DUP3 PUSH2 0xDBD JUMP JUMPDEST SWAP1 POP SWAP2 SWAP1 POP JUMP JUMPDEST PUSH2 0xDF6 DUP2 PUSH2 0xDDC JUMP JUMPDEST DUP2 EQ PUSH2 0xE00 JUMPI PUSH0 DUP1 REVERT JUMPDEST POP JUMP JUMPDEST PUSH0 DUP2 CALLDATALOAD SWAP1 POP PUSH2 0xE11 DUP2 PUSH2 0xDED JUMP JUMPDEST SWAP3 SWAP2 POP POP JUMP JUMPDEST PUSH0 PUSH2 0xE29 PUSH2 0xE24 DUP5 PUSH2 0xD8E JUMP JUMPDEST PUSH2 0xD74 JUMP JUMPDEST SWAP1 POP DUP1 DUP4 DUP3 MSTORE PUSH1 0x20 DUP3 ADD SWAP1 POP PUSH1 0x20 DUP5 MUL DUP4 ADD DUP6 DUP2 GT ISZERO PUSH2 0xE4C JUMPI PUSH2 0xE4B PUSH2 0xDB9 JUMP JUMPDEST JUMPDEST DUP4 JUMPDEST DUP2 DUP2 LT ISZERO PUSH2 0xE75 JUMPI DUP1 PUSH2 0xE61 DUP9 DUP3 PUSH2 0xE03 JUMP JUMPDEST DUP5 MSTORE PUSH1 0x20 DUP5 ADD SWAP4 POP POP PUSH1 0x20 DUP2 ADD SWAP1 POP PUSH2 0xE4E JUMP JUMPDEST POP POP POP SWAP4 SWAP3 POP POP POP JUMP JUMPDEST PUSH0 DUP3 PUSH1 0x1F DUP4 ADD SLT PUSH2 0xE93 JUMPI PUSH2 0xE92 PUSH2 0xD02 JUMP JUMPDEST JUMPDEST DUP2 CALLDATALOAD PUSH2 0xEA3 DUP5 DUP3 PUSH1 0x20 DUP7 ADD PUSH2 0xE17 JUMP JUMPDEST SWAP2 POP POP SWAP3 SWAP2 POP POP JUMP JUMPDEST PUSH0 DUP1 REVERT JUMPDEST PUSH0 PUSH8 0xFFFFFFFFFFFFFFFF DUP3 GT ISZERO PUSH2 0xECA JUMPI PUSH2 0xEC9 PUSH2 0xD16 JUMP JUMPDEST JUMPDEST PUSH2 0xED3 DUP3 PUSH2 0xD06 JUMP JUMPDEST SWAP1 POP PUSH1 0x20 DUP2 ADD SWAP1 POP SWAP2 SWAP1 POP JUMP JUMPDEST DUP3 DUP2 DUP4 CALLDATACOPY PUSH0 DUP4 DUP4 ADD MSTORE POP POP POP JUMP JUMPDEST PUSH0 PUSH2 0xF00 PUSH2 0xEFB DUP5 PUSH2 0xEB0 JUMP JUMPDEST PUSH2 0xD74 JUMP JUMPDEST SWAP1 POP DUP3 DUP2 MSTORE PUSH1 0x20 DUP2 ADD DUP5 DUP5 DUP5 ADD GT ISZERO PUSH2 0xF1C JUMPI PUSH2 0xF1B PUSH2 0xEAC JUMP JUMPDEST JUMPDEST PUSH2 0xF27 DUP5 DUP3 DUP6 PUSH2 0xEE0 JUMP JUMPDEST POP SWAP4 SWAP3 POP POP POP JUMP JUMPDEST PUSH0 DUP3 PUSH1 0x1F DUP4 ADD SLT PUSH2 0xF43 JUMPI PUSH2 0xF42 PUSH2 0xD02 JUMP JUMPDEST JUMPDEST DUP2 CALLDATALOAD PUSH2 0xF53 DUP5 DUP3 PUSH1 0x20 DUP7 ADD PUSH2 0xEEE JUMP JUMPDEST SWAP2 POP POP SWAP3 SWAP2 POP POP JUMP JUMPDEST PUSH0 DUP1 PUSH0 PUSH1 0x60 DUP5 DUP7 SUB SLT ISZERO PUSH2 0xF73 JUMPI PUSH2 0xF72 PUSH2 0xCC7 JUMP JUMPDEST JUMPDEST PUSH0 PUSH2 0xF80 DUP7 DUP3 DUP8 ADD PUSH2 0xCEE JUMP JUMPDEST SWAP4 POP POP PUSH1 0x20 DUP5 ADD CALLDATALOAD PUSH8 0xFFFFFFFFFFFFFFFF DUP2 GT ISZERO PUSH2 0xFA1 JUMPI PUSH2 0xFA0 PUSH2 0xCCB JUMP JUMPDEST JUMPDEST PUSH2 0xFAD DUP7 DUP3 DUP8 ADD PUSH2 0xE7F JUMP JUMPDEST SWAP3 POP POP PUSH1 0x40 DUP5 ADD CALLDATALOAD PUSH8 0xFFFFFFFFFFFFFFFF DUP2 GT ISZERO PUSH2 0xFCE JUMPI PUSH2 0xFCD PUSH2 0xCCB JUMP JUMPDEST JUMPDEST PUSH2 0xFDA DUP7 DUP3 DUP8 ADD PUSH2 0xF2F JUMP JUMPDEST SWAP2 POP POP SWAP3 POP SWAP3 POP SWAP3 JUMP JUMPDEST PUSH0 PUSH1 0x20 DUP3 DUP5 SUB SLT ISZERO PUSH2 0xFF9 JUMPI PUSH2 0xFF8 PUSH2 0xCC7 JUMP JUMPDEST JUMPDEST PUSH0 PUSH2 0x1006 DUP5 DUP3 DUP6 ADD PUSH2 0xCEE JUMP JUMPDEST SWAP2 POP POP SWAP3 SWAP2 POP POP JUMP JUMPDEST PUSH0 PUSH1 0xFF DUP3 AND SWAP1 POP SWAP2 SWAP1 POP JUMP JUMPDEST PUSH2 0x1024 DUP2 PUSH2 0x100F JUMP JUMPDEST DUP3 MSTORE POP POP JUMP JUMPDEST PUSH0 DUP2 SWAP1 POP SWAP2 SWAP1 POP JUMP JUMPDEST PUSH2 0x103C DUP2 PUSH2 0x102A JUMP JUMPDEST DUP3 MSTORE POP POP JUMP JUMPDEST PUSH0 DUP2 MLOAD SWAP1 POP SWAP2 SWAP1 POP JUMP JUMPDEST PUSH0 DUP3 DUP3 MSTORE PUSH1 0x20 DUP3 ADD SWAP1 POP SWAP3 SWAP2 POP POP JUMP JUMPDEST PUSH0 JUMPDEST DUP4 DUP2 LT ISZERO PUSH2 0x1079 JUMPI DUP1 DUP3 ADD MLOAD DUP2 DUP5 ADD MSTORE PUSH1 0x20 DUP2 ADD SWAP1 POP PUSH2 0x105E JUMP JUMPDEST PUSH0 DUP5 DUP5 ADD MSTORE POP POP POP POP JUMP JUMPDEST PUSH0 PUSH2 0x108E DUP3 PUSH2 0x1042 JUMP JUMPDEST PUSH2 0x1098 DUP2 DUP6 PUSH2 0x104C JUMP JUMPDEST SWAP4 POP PUSH2 0x10A8 DUP2 DUP6 PUSH1 0x20 DUP7 ADD PUSH2 0x105C JUMP JUMPDEST PUSH2 0x10B1 DUP2 PUSH2 0xD06 JUMP JUMPDEST DUP5 ADD SWAP2 POP POP SWAP3 SWAP2 POP POP JUMP JUMPDEST PUSH0 PUSH1 0x60 DUP3 ADD SWAP1 POP PUSH2 0x10CF PUSH0 DUP4 ADD DUP7 PUSH2 0x101B JUMP JUMPDEST PUSH2 0x10DC PUSH1 0x20 DUP4 ADD DUP6 PUSH2 0x1033 JUMP JUMPDEST DUP2 DUP2 SUB PUSH1 0x40 DUP4 ADD MSTORE PUSH2 0x10EE DUP2 DUP5 PUSH2 0x1084 JUMP JUMPDEST SWAP1 POP SWAP5 SWAP4 POP POP POP POP JUMP JUMPDEST PUSH2 0x1101 DUP2 PUSH2 0x102A JUMP JUMPDEST DUP2 EQ PUSH2 0x110B JUMPI PUSH0 DUP1 REVERT JUMPDEST POP JUMP JUMPDEST PUSH0 DUP2 CALLDATALOAD SWAP1 POP PUSH2 0x111C DUP2 PUSH2 0x10F8 JUMP JUMPDEST SWAP3 SWAP2 POP POP JUMP JUMPDEST PUSH0 DUP1 PUSH1 0x40 DUP4 DUP6 SUB SLT ISZERO PUSH2 0x1138 JUMPI PUSH2 0x1137 PUSH2 0xCC7 JUMP JUMPDEST JUMPDEST PUSH0 PUSH2 0x1145 DUP6 DUP3 DUP7 ADD PUSH2 0xE03 JUMP JUMPDEST SWAP3 POP POP PUSH1 0x20 PUSH2 0x1156 DUP6 DUP3 DUP7 ADD PUSH2 0x110E JUMP JUMPDEST SWAP2 POP POP SWAP3 POP SWAP3 SWAP1 POP JUMP JUMPDEST PUSH2 0x1169 DUP2 PUSH2 0xCCF JUMP JUMPDEST DUP3 MSTORE POP POP JUMP JUMPDEST PUSH0 PUSH1 0x20 DUP3 ADD SWAP1 POP PUSH2 0x1182 PUSH0 DUP4 ADD DUP5 PUSH2 0x1160 JUMP JUMPDEST SWAP3 SWAP2 POP POP JUMP JUMPDEST PUSH32 0x4E487B7100000000000000000000000000000000000000000000000000000000 PUSH0 MSTORE PUSH1 0x22 PUSH1 0x4 MSTORE PUSH1 0x24 PUSH0 REVERT JUMPDEST PUSH0 PUSH1 0x2 DUP3 DIV SWAP1 POP PUSH1 0x1 DUP3 AND DUP1 PUSH2 0x11CC JUMPI PUSH1 0x7F DUP3 AND SWAP2 POP JUMPDEST PUSH1 0x20 DUP3 LT DUP2 SUB PUSH2 0x11DF JUMPI PUSH2 0x11DE PUSH2 0x1188 JUMP JUMPDEST JUMPDEST POP SWAP2 SWAP1 POP JUMP JUMPDEST PUSH0 DUP2 SLOAD SWAP1 POP PUSH2 0x11F3 DUP2 PUSH2 0x11B5 JUMP JUMPDEST SWAP1 POP SWAP2 SWAP1 POP JUMP JUMPDEST PUSH0 DUP2 SWAP1 POP DUP2 PUSH0 MSTORE PUSH1 0x20 PUSH0 KECCAK256 SWAP1 POP SWAP2 SWAP1 POP JUMP JUMPDEST PUSH0 PUSH1 0x20 PUSH1 0x1F DUP4 ADD DIV SWAP1 POP SWAP2 SWAP1 POP JUMP JUMPDEST PUSH0 DUP3 DUP3 SHL SWAP1 POP SWAP3 SWAP2 POP POP JUMP JUMPDEST PUSH0 PUSH1 0x8 DUP4 MUL PUSH2 0x1256 PUSH32 0xFFFFFFFFFFFFFFFFFFFFFFFFFFFFFFFFFFFFFFFFFFFFFFFFFFFFFFFFFFFFFFFF DUP3 PUSH2 0x121B JUMP JUMPDEST PUSH2 0x1260 DUP7 DUP4 PUSH2 0x121B JUMP JUMPDEST SWAP6 POP DUP1 NOT DUP5 AND SWAP4 POP DUP1 DUP7 AND DUP5 OR SWAP3 POP POP POP SWAP4 SWAP3 POP POP POP JUMP JUMPDEST PUSH0 DUP2 SWAP1 POP SWAP2 SWAP1 POP JUMP JUMPDEST PUSH0 PUSH2 0x129B PUSH2 0x1296 PUSH2 0x1291 DUP5 PUSH2 0x102A JUMP JUMPDEST PUSH2 0x1278 JUMP JUMPDEST PUSH2 0x102A JUMP JUMPDEST SWAP1 POP SWAP2 SWAP1 POP JUMP JUMPDEST PUSH0 DUP2 SWAP1 POP SWAP2 SWAP1 POP JUMP JUMPDEST PUSH2 0x12B4 DUP4 PUSH2 0x1281 JUMP JUMPDEST PUSH2 0x12C8 PUSH2 0x12C0 DUP3 PUSH2 0x12A2 JUMP JUMPDEST DUP5 DUP5 SLOAD PUSH2 0x1227 JUMP JUMPDEST DUP3 SSTORE POP POP POP POP JUMP JUMPDEST PUSH0 SWAP1 JUMP JUMPDEST PUSH2 0x12DC PUSH2 0x12D0 JUMP JUMPDEST PUSH2 0x12E7 DUP2 DUP5 DUP5 PUSH2 0x12AB JUMP JUMPDEST POP POP POP JUMP JUMPDEST JUMPDEST DUP2 DUP2 LT ISZERO PUSH2 0x130A JUMPI PUSH2 0x12FF PUSH0 DUP3 PUSH2 0x12D4 JUMP JUMPDEST PUSH1 0x1 DUP2 ADD SWAP1 POP PUSH2 0x12ED JUMP JUMPDEST POP POP JUMP JUMPDEST PUSH1 0x1F DUP3 GT ISZERO PUSH2 0x134F JUMPI PUSH2 0x1320 DUP2 PUSH2 0x11FA JUMP JUMPDEST PUSH2 0x1329 DUP5 PUSH2 0x120C JUMP JUMPDEST DUP2 ADD PUSH1 0x20 DUP6 LT ISZERO PUSH2 0x1338 JUMPI DUP2 SWAP1 POP JUMPDEST PUSH2 0x134C PUSH2 0x1344 DUP6 PUSH2 0x120C JUMP JUMPDEST DUP4 ADD DUP3 PUSH2 0x12EC JUMP JUMPDEST POP POP JUMPDEST POP POP POP JUMP JUMPDEST PUSH0 DUP3 DUP3 SHR SWAP1 POP SWAP3 SWAP2 POP POP JUMP JUMPDEST PUSH0 PUSH2 0x136F PUSH0 NOT DUP5 PUSH1 0x8 MUL PUSH2 0x1354 JUMP JUMPDEST NOT DUP1 DUP4 AND SWAP2 POP POP SWAP3 SWAP2 POP POP JUMP JUMPDEST PUSH0 PUSH2 0x1387 DUP4 DUP4 PUSH2 0x1360 JUMP JUMPDEST SWAP2 POP DUP3 PUSH1 0x2 MUL DUP3 OR SWAP1 POP SWAP3 SWAP2 POP POP JUMP JUMPDEST DUP2 DUP2 SUB PUSH2 0x13A5 JUMPI POP POP PUSH2 0x147A JUMP JUMPDEST PUSH2 0x13AE DUP3 PUSH2 0x11E5 JUMP JUMPDEST PUSH8 0xFFFFFFFFFFFFFFFF DUP2 GT ISZERO PUSH2 0x13C7 JUMPI PUSH2 0x13C6 PUSH2 0xD16 JUMP JUMPDEST JUMPDEST PUSH2 0x13D1 DUP3 SLOAD PUSH2 0x11B5 JUMP JUMPDEST PUSH2 0x13DC DUP3 DUP3 DUP6 PUSH2 0x130E JUMP JUMPDEST PUSH0 PUSH1 0x1F DUP4 GT PUSH1 0x1 DUP2 EQ PUSH2 0x1409 JUMPI PUSH0 DUP5 ISZERO PUSH2 0x13F7 JUMPI DUP3 DUP8 ADD SLOAD SWAP1 POP JUMPDEST PUSH2 0x1401 DUP6 DUP3 PUSH2 0x137C JUMP JUMPDEST DUP7 SSTORE POP PUSH2 0x1473 JUMP JUMPDEST PUSH1 0x1F NOT DUP5 AND PUSH2 0x1417 DUP8 PUSH2 0x11FA JUMP JUMPDEST SWAP7 POP PUSH2 0x1422 DUP7 PUSH2 0x11FA JUMP JUMPDEST PUSH0 JUMPDEST DUP3 DUP2 LT ISZERO PUSH2 0x1449 JUMPI DUP5 DUP10 ADD SLOAD DUP3 SSTORE PUSH1 0x1 DUP3 ADD SWAP2 POP PUSH1 0x1 DUP6 ADD SWAP5 POP PUSH1 0x20 DUP2 ADD SWAP1 POP PUSH2 0x1424 JUMP JUMPDEST DUP7 DUP4 LT ISZERO PUSH2 0x1466 JUMPI DUP5 DUP10 ADD SLOAD PUSH2 0x1462 PUSH1 0x1F DUP10 AND DUP3 PUSH2 0x1360 JUMP JUMPDEST DUP4 SSTORE POP JUMPDEST PUSH1 0x1 PUSH1 0x2 DUP9 MUL ADD DUP9 SSTORE POP POP POP JUMPDEST POP POP POP POP POP POP JUMPDEST JUMP JUMPDEST PUSH2 0x1485 DUP3 PUSH2 0x1042 JUMP JUMPDEST PUSH8 0xFFFFFFFFFFFFFFFF DUP2 GT ISZERO PUSH2 0x149E JUMPI PUSH2 0x149D PUSH2 0xD16 JUMP JUMPDEST JUMPDEST PUSH2 0x14A8 DUP3 SLOAD PUSH2 0x11B5 JUMP JUMPDEST PUSH2 0x14B3 DUP3 DUP3 DUP6 PUSH2 0x130E JUMP JUMPDEST PUSH0 PUSH1 0x20 SWAP1 POP PUSH1 0x1F DUP4 GT PUSH1 0x1 DUP2 EQ PUSH2 0x14E4 JUMPI PUSH0 DUP5 ISZERO PUSH2 0x14D2 JUMPI DUP3 DUP8 ADD MLOAD SWAP1 POP JUMPDEST PUSH2 0x14DC DUP6 DUP3 PUSH2 0x137C JUMP JUMPDEST DUP7 SSTORE POP PUSH2 0x1543 JUMP JUMPDEST PUSH1 0x1F NOT DUP5 AND PUSH2 0x14F2 DUP7 PUSH2 0x11FA JUMP JUMPDEST PUSH0 JUMPDEST DUP3 DUP2 LT ISZERO PUSH2 0x1519 JUMPI DUP5 DUP10 ADD MLOAD DUP3 SSTORE PUSH1 0x1 DUP3 ADD SWAP2 POP PUSH1 0x20 DUP6 ADD SWAP5 POP PUSH1 0x20 DUP2 ADD SWAP1 POP PUSH2 0x14F4 JUMP JUMPDEST DUP7 DUP4 LT ISZERO PUSH2 0x1536 JUMPI DUP5 DUP10 ADD MLOAD PUSH2 0x1532 PUSH1 0x1F DUP10 AND DUP3 PUSH2 0x1360 JUMP JUMPDEST DUP4 SSTORE POP JUMPDEST PUSH1 0x1 PUSH1 0x2 DUP9 MUL ADD DUP9 SSTORE POP POP POP JUMPDEST POP POP POP POP POP POP JUMP JUMPDEST PUSH0 DUP2 MLOAD SWAP1 POP SWAP2 SWAP1 POP JUMP JUMPDEST PUSH0 DUP2 SWAP1 POP SWAP3 SWAP2 POP POP JUMP JUMPDEST PUSH0 DUP2 SWAP1 POP PUSH1 0x20 DUP3 ADD SWAP1 POP SWAP2 SWAP1 POP JUMP JUMPDEST PUSH2 0x1577 DUP2 PUSH2 0xDDC JUMP JUMPDEST DUP3 MSTORE POP POP JUMP JUMPDEST PUSH0 PUSH2 0x1588 DUP4 DUP4 PUSH2 0x156E JUMP JUMPDEST PUSH1 0x20 DUP4 ADD SWAP1 POP SWAP3 SWAP2 POP POP JUMP JUMPDEST PUSH0 PUSH1 0x20 DUP3 ADD SWAP1 POP SWAP2 SWAP1 POP JUMP JUMPDEST PUSH0 PUSH2 0x15AA DUP3 PUSH2 0x154B JUMP JUMPDEST PUSH2 0x15B4 DUP2 DUP6 PUSH2 0x1555 JUMP JUMPDEST SWAP4 POP PUSH2 0x15BF DUP4 PUSH2 0x155F JUMP JUMPDEST DUP1 PUSH0 JUMPDEST DUP4 DUP2 LT ISZERO PUSH2 0x15EF JUMPI DUP2 MLOAD PUSH2 0x15D6 DUP9 DUP3 PUSH2 0x157D JUMP JUMPDEST SWAP8 POP PUSH2 0x15E1 DUP4 PUSH2 0x1594 JUMP JUMPDEST SWAP3 POP POP PUSH1 0x1 DUP2 ADD SWAP1 POP PUSH2 0x15C2 JUMP JUMPDEST POP DUP6 SWAP4 POP POP POP POP SWAP3 SWAP2 POP POP JUMP JUMPDEST PUSH0 PUSH2 0x1607 DUP3 DUP5 PUSH2 0x15A0 JUMP JUMPDEST SWAP2 POP DUP2 SWAP1 POP SWAP3 SWAP2 POP POP JUMP JUMPDEST PUSH32 0x4E487B7100000000000000000000000000000000000000000000000000000000 PUSH0 MSTORE PUSH1 0x11 PUSH1 0x4 MSTORE PUSH1 0x24 PUSH0 REVERT JUMPDEST PUSH0 PUSH2 0x1649 DUP3 PUSH2 0x102A JUMP JUMPDEST SWAP2 POP PUSH2 0x1654 DUP4 PUSH2 0x102A JUMP JUMPDEST SWAP3 POP DUP3 DUP3 SUB SWAP1 POP DUP2 DUP2 GT ISZERO PUSH2 0x166C JUMPI PUSH2 0x166B PUSH2 0x1612 JUMP JUMPDEST JUMPDEST SWAP3 SWAP2 POP POP JUMP JUMPDEST PUSH32 0x4E487B7100000000000000000000000000000000000000000000000000000000 PUSH0 MSTORE PUSH1 0x32 PUSH1 0x4 MSTORE PUSH1 0x24 PUSH0 REVERT JUMPDEST PUSH0 DUP2 SWAP1 POP SWAP2 SWAP1 POP JUMP JUMPDEST PUSH0 PUSH2 0x16B2 DUP3 PUSH2 0x169F JUMP JUMPDEST SWAP2 POP PUSH2 0x16BD DUP4 PUSH2 0x169F JUMP JUMPDEST SWAP3 POP DUP3 DUP3 SUB SWAP1 POP DUP2 DUP2 SLT PUSH0 DUP5 SLT AND DUP3 DUP3 SGT PUSH0 DUP6 SLT ISZERO AND OR ISZERO PUSH2 0x16E2 JUMPI PUSH2 0x16E1 PUSH2 0x1612 JUMP JUMPDEST JUMPDEST SWAP3 SWAP2 POP POP JUMP JUMPDEST PUSH32 0x4E487B7100000000000000000000000000000000000000000000000000000000 PUSH0 MSTORE PUSH1 0x12 PUSH1 0x4 MSTORE PUSH1 0x24 PUSH0 REVERT JUMPDEST PUSH0 PUSH2 0x171F DUP3 PUSH2 0x169F JUMP JUMPDEST SWAP2 POP PUSH2 0x172A DUP4 PUSH2 0x169F JUMP JUMPDEST SWAP3 POP DUP3 PUSH2 0x173A JUMPI PUSH2 0x1739 PUSH2 0x16E8 JUMP JUMPDEST JUMPDEST PUSH1 0x1 PUSH0 SUB DUP4 EQ PUSH32 0x8000000000000000000000000000000000000000000000000000000000000000 DUP4 EQ AND ISZERO PUSH2 0x1772 JUMPI PUSH2 0x1771 PUSH2 0x1612 JUMP JUMPDEST JUMPDEST DUP3 DUP3 SDIV SWAP1 POP SWAP3 SWAP2 POP POP JUMP JUMPDEST PUSH0 PUSH2 0x1787 DUP3 PUSH2 0x169F JUMP JUMPDEST SWAP2 POP PUSH2 0x1792 DUP4 PUSH2 0x169F JUMP JUMPDEST SWAP3 POP DUP3 DUP3 ADD SWAP1 POP DUP3 DUP2 SLT ISZERO PUSH0 DUP4 SLT AND DUP4 DUP3 SLT PUSH0 DUP5 SLT ISZERO AND OR ISZERO PUSH2 0x17B8 JUMPI PUSH2 0x17B7 PUSH2 0x1612 JUMP JUMPDEST JUMPDEST SWAP3 SWAP2 POP POP JUMP JUMPDEST PUSH0 PUSH2 0x17C8 DUP3 PUSH2 0x169F JUMP JUMPDEST SWAP2 POP PUSH32 0x7FFFFFFFFFFFFFFFFFFFFFFFFFFFFFFFFFFFFFFFFFFFFFFFFFFFFFFFFFFFFFFF DUP3 SUB PUSH2 0x17FA JUMPI PUSH2 0x17F9 PUSH2 0x1612 JUMP JUMPDEST JUMPDEST PUSH1 0x1 DUP3 ADD SWAP1 POP SWAP2 SWAP1 POP JUMP JUMPDEST PUSH0 PUSH2 0x180F DUP3 PUSH2 0x169F JUMP JUMPDEST SWAP2 POP PUSH32 0x8000000000000000000000000000000000000000000000000000000000000000 DUP3 SUB PUSH2 0x1841 JUMPI PUSH2 0x1840 PUSH2 0x1612 JUMP JUMPDEST JUMPDEST PUSH1 0x1 DUP3 SUB SWAP1 POP SWAP2 SWAP1 POP JUMP INVALID LOG2 PUSH5 0x6970667358 0x22 SLT KECCAK256 0xA5 MOD 0x4D 0xC5 DUP7 0x2A CALLDATASIZE 0xBA 0xA6 0xC9 0xEF 0xEC 0xE8 0xAD DUP5 PUSH13 0xC679A3B0BB8FB92B9A97BBDC83 ISZERO 0xBF 0xC0 PUSH5 0x736F6C6343 STOP ADDMOD AND STOP CALLER "
				},
				"gasEstimates": {
					"creation": {
						"codeDepositCost": "1254800",
						"executionCost": "1306",
						"totalCost": "1256106"
					},
					"external": {
						"contractsByAddres(address,uint256)": "5173",
						"createContract(bytes32,address[],string)": "infinite",
						"detailsByContract(bytes32)": "infinite"
					},
					"internal": {
						"addressInArray(address[] memory,address)": "infinite",
						"areArraysEqual(address[] memory,address[] memory)": "infinite",
						"bytesInArray(bytes32[] memory,bytes32)": "infinite",
						"createIdentifier(address[] memory)": "infinite",
						"quickSort(address[] memory,int256,int256)": "infinite"
					}
				},
				"methodIdentifiers": {
					"contractsByAddres(address,uint256)": "f1e4eb46",
					"createContract(bytes32,address[],string)": "c3a47879",
					"detailsByContract(bytes32)": "cc7168a3"
				}
			},
			"storageLayout": {
				"storage": [
					{
						"astId": 17,
						"contract": "contracts/Marriage.sol:Marriage",
						"label": "d",
						"offset": 0,
						"slot": "0",
						"type": "t_struct(Details)14_storage"
					},
					{
						"astId": 22,
						"contract": "contracts/Marriage.sol:Marriage",
						"label": "contractsByAddres",
						"offset": 0,
						"slot": "5",
						"type": "t_mapping(t_address,t_array(t_bytes32)dyn_storage)"
					},
					{
						"astId": 27,
						"contract": "contracts/Marriage.sol:Marriage",
						"label": "detailsByContract",
						"offset": 0,
						"slot": "6",
						"type": "t_mapping(t_bytes32,t_struct(Details)14_storage)"
					}
				],
				"types": {
					"t_address": {
						"encoding": "inplace",
						"label": "address",
						"numberOfBytes": "20"
					},
					"t_array(t_address)dyn_storage": {
						"base": "t_address",
						"encoding": "dynamic_array",
						"label": "address[]",
						"numberOfBytes": "32"
					},
					"t_array(t_bytes32)dyn_storage": {
						"base": "t_bytes32",
						"encoding": "dynamic_array",
						"label": "bytes32[]",
						"numberOfBytes": "32"
					},
					"t_bytes32": {
						"encoding": "inplace",
						"label": "bytes32",
						"numberOfBytes": "32"
					},
					"t_mapping(t_address,t_array(t_bytes32)dyn_storage)": {
						"encoding": "mapping",
						"key": "t_address",
						"label": "mapping(address => bytes32[])",
						"numberOfBytes": "32",
						"value": "t_array(t_bytes32)dyn_storage"
					},
					"t_mapping(t_bytes32,t_struct(Details)14_storage)": {
						"encoding": "mapping",
						"key": "t_bytes32",
						"label": "mapping(bytes32 => struct Marriage.Details)",
						"numberOfBytes": "32",
						"value": "t_struct(Details)14_storage"
					},
					"t_string_storage": {
						"encoding": "bytes",
						"label": "string",
						"numberOfBytes": "32"
					},
					"t_struct(Details)14_storage": {
						"encoding": "inplace",
						"label": "struct Marriage.Details",
						"members": [
							{
								"astId": 4,
								"contract": "contracts/Marriage.sol:Marriage",
								"label": "addresses",
								"offset": 0,
								"slot": "0",
								"type": "t_array(t_address)dyn_storage"
							},
							{
								"astId": 7,
								"contract": "contracts/Marriage.sol:Marriage",
								"label": "confirmed",
								"offset": 0,
								"slot": "1",
								"type": "t_array(t_address)dyn_storage"
							},
							{
								"astId": 9,
								"contract": "contracts/Marriage.sol:Marriage",
								"label": "status",
								"offset": 0,
								"slot": "2",
								"type": "t_uint8"
							},
							{
								"astId": 11,
								"contract": "contracts/Marriage.sol:Marriage",
								"label": "date",
								"offset": 0,
								"slot": "3",
								"type": "t_uint256"
							},
							{
								"astId": 13,
								"contract": "contracts/Marriage.sol:Marriage",
								"label": "agreement",
								"offset": 0,
								"slot": "4",
								"type": "t_string_storage"
							}
						],
						"numberOfBytes": "160"
					},
					"t_uint256": {
						"encoding": "inplace",
						"label": "uint256",
						"numberOfBytes": "32"
					},
					"t_uint8": {
						"encoding": "inplace",
						"label": "uint8",
						"numberOfBytes": "1"
					}
				}
			},
			"userdoc": {
				"kind": "user",
				"methods": {},
				"version": 1
			}
		}
	}
}