{
	"data": {
		"bytecode": {
			"linkReferences": {},
			"object": "608060405234801561000f575f80fd5b506118828061001d5f395ff3fe608060405234801561000f575f80fd5b506004361061003f575f3560e01c8063c3a4787914610043578063cc7168a31461005f578063f1e4eb4614610091575b5f80fd5b61005d60048036038101906100589190610f5c565b6100c1565b005b61007960048036038101906100749190610fe4565b610646565b604051610088939291906110bc565b60405180910390f35b6100ab60048036038101906100a69190611122565b6106ff565b6040516100b8919061116f565b60405180910390f35b5f801b8303610203576100d38261072a565b925060065f8481526020019081526020015f205f808201815f019080546100fb929190610b47565b506001820181600101908054610112929190610b47565b50600282015f9054906101000a900460ff16816002015f6101000a81548160ff021916908360ff160217905550600382015481600301556004820181600401908161015d9190611397565b50905050815f80019080519060200190610178929190610b95565b5060405180602001604052803373ffffffffffffffffffffffffffffffffffffffff1673ffffffffffffffffffffffffffffffffffffffff168152505f6001019060016101c6929190610c1c565b505f806002015f6101000a81548160ff021916908360ff160217905550425f60030181905550805f60040190816101fd919061147c565b506105b5565b60065f8481526020019081526020015f205f808201815f01908054610229929190610b47565b506001820181600101908054610240929190610b47565b50600282015f9054906101000a900460ff16816002015f6101000a81548160ff021916908360ff160217905550600382015481600301556004820181600401908161028b9190611397565b509050506103a25f800180548060200260200160405190810160405280929190818152602001828054801561031257602002820191905f5260205f20905b815f9054906101000a900473ffffffffffffffffffffffffffffffffffffffff1673ffffffffffffffffffffffffffffffffffffffff16815260200190600101908083116102c9575b50505050505f60010180548060200260200160405190810160405280929190818152602001828054801561039857602002820191905f5260205f20905b815f9054906101000a900473ffffffffffffffffffffffffffffffffffffffff1673ffffffffffffffffffffffffffffffffffffffff168152602001906001019080831161034f575b5050505050610759565b156103c55760015f6002015f6101000a81548160ff021916908360ff1602179055505b6104545f60010180548060200260200160405190810160405280929190818152602001828054801561044957602002820191905f5260205f20905b815f9054906101000a900473ffffffffffffffffffffffffffffffffffffffff1673ffffffffffffffffffffffffffffffffffffffff1681526020019060010190808311610400575b50505050503361082f565b6104bb575f60010133908060018154018082558091505060019003905f5260205f20015f9091909190916101000a81548173ffffffffffffffffffffffffffffffffffffffff021916908373ffffffffffffffffffffffffffffffffffffffff1602179055505b61054e60055f3373ffffffffffffffffffffffffffffffffffffffff1673ffffffffffffffffffffffffffffffffffffffff1681526020019081526020015f2080548060200260200160405190810160405280929190818152602001828054801561054357602002820191905f5260205f20905b81548152602001906001019080831161052f575b5050505050846108ad565b6105b45760055f3373ffffffffffffffffffffffffffffffffffffffff1673ffffffffffffffffffffffffffffffffffffffff1681526020019081526020015f2083908060018154018082558091505060019003905f5260205f20015f90919091909150555b5b5f60065f8581526020019081526020015f205f8201815f019080546105db929190610b47565b5060018201816001019080546105f2929190610b47565b50600282015f9054906101000a900460ff16816002015f6101000a81548160ff021916908360ff160217905550600382015481600301556004820181600401908161063d9190611397565b50905050505050565b6006602052805f5260405f205f91509050806002015f9054906101000a900460ff169080600301549080600401805461067e906111b5565b80601f01602080910402602001604051908101604052809291908181526020018280546106aa906111b5565b80156106f55780601f106106cc576101008083540402835291602001916106f5565b820191905f5260205f20905b8154815290600101906020018083116106d857829003601f168201915b5050505050905083565b6005602052815f5260405f208181548110610718575f80fd5b905f5260205f20015f91509150505481565b5f8160405160200161073c91906115fc565b604051602081830303815290604052805190602001209050919050565b5f815183511461076b575f9050610829565b610783835f6001865161077e919061163f565b6108ff565b61079b825f60018551610796919061163f565b6108ff565b5f5b8351811015610823578281815181106107b9576107b8611672565b5b602002602001015173ffffffffffffffffffffffffffffffffffffffff168482815181106107ea576107e9611672565b5b602002602001015173ffffffffffffffffffffffffffffffffffffffff1614610816575f915050610829565b808060010191505061079d565b50600190505b92915050565b5f805f90505b83518110156108a2578273ffffffffffffffffffffffffffffffffffffffff1684828151811061086857610867611672565b5b602002602001015173ffffffffffffffffffffffffffffffffffffffff16036108955760019150506108a7565b8080600101915050610835565b505f90505b92915050565b5f805f90505b83518110156108f457828482815181106108d0576108cf611672565b5b6020026020010151036108e75760019150506108f9565b80806001019150506108b3565b505f90505b92915050565b5f8290505f829050808203610915575050610b42565b5f856002868661092591906116a8565b61092f9190611715565b8661093a919061177d565b8151811061094b5761094a611672565b5b602002602001015190505b818313610b16575b8073ffffffffffffffffffffffffffffffffffffffff1686848151811061098857610987611672565b5b602002602001015173ffffffffffffffffffffffffffffffffffffffff1610156109bf5782806109b7906117be565b93505061095e565b5b8582815181106109d3576109d2611672565b5b602002602001015173ffffffffffffffffffffffffffffffffffffffff168173ffffffffffffffffffffffffffffffffffffffff161015610a21578180610a1990611805565b9250506109c0565b818313610b1157858281518110610a3b57610a3a611672565b5b6020026020010151868481518110610a5657610a55611672565b5b6020026020010151878581518110610a7157610a70611672565b5b60200260200101888581518110610a8b57610a8a611672565b5b602002602001018273ffffffffffffffffffffffffffffffffffffffff1673ffffffffffffffffffffffffffffffffffffffff168152508273ffffffffffffffffffffffffffffffffffffffff1673ffffffffffffffffffffffffffffffffffffffff1681525050508280610aff906117be565b9350508180610b0d90611805565b9250505b610956565b81851215610b2a57610b298686846108ff565b5b83831215610b3e57610b3d8684866108ff565b5b5050505b505050565b828054828255905f5260205f20908101928215610b84575f5260205f209182015b82811115610b83578254825591600101919060010190610b68565b5b509050610b919190610ca3565b5090565b828054828255905f5260205f20908101928215610c0b579160200282015b82811115610c0a578251825f6101000a81548173ffffffffffffffffffffffffffffffffffffffff021916908373ffffffffffffffffffffffffffffffffffffffff16021790555091602001919060010190610bb3565b5b509050610c189190610ca3565b5090565b828054828255905f5260205f20908101928215610c92579160200282015b82811115610c91578251825f6101000a81548173ffffffffffffffffffffffffffffffffffffffff021916908373ffffffffffffffffffffffffffffffffffffffff16021790555091602001919060010190610c3a565b5b509050610c9f9190610ca3565b5090565b5b80821115610cba575f815f905550600101610ca4565b5090565b5f604051905090565b5f80fd5b5f80fd5b5f819050919050565b610ce181610ccf565b8114610ceb575f80fd5b50565b5f81359050610cfc81610cd8565b92915050565b5f80fd5b5f601f19601f8301169050919050565b7f4e487b71000000000000000000000000000000000000000000000000000000005f52604160045260245ffd5b610d4c82610d06565b810181811067ffffffffffffffff82111715610d6b57610d6a610d16565b5b80604052505050565b5f610d7d610cbe565b9050610d898282610d43565b919050565b5f67ffffffffffffffff821115610da857610da7610d16565b5b602082029050602081019050919050565b5f80fd5b5f73ffffffffffffffffffffffffffffffffffffffff82169050919050565b5f610de682610dbd565b9050919050565b610df681610ddc565b8114610e00575f80fd5b50565b5f81359050610e1181610ded565b92915050565b5f610e29610e2484610d8e565b610d74565b90508083825260208201905060208402830185811115610e4c57610e4b610db9565b5b835b81811015610e755780610e618882610e03565b845260208401935050602081019050610e4e565b5050509392505050565b5f82601f830112610e9357610e92610d02565b5b8135610ea3848260208601610e17565b91505092915050565b5f80fd5b5f67ffffffffffffffff821115610eca57610ec9610d16565b5b610ed382610d06565b9050602081019050919050565b828183375f83830152505050565b5f610f00610efb84610eb0565b610d74565b905082815260208101848484011115610f1c57610f1b610eac565b5b610f27848285610ee0565b509392505050565b5f82601f830112610f4357610f42610d02565b5b8135610f53848260208601610eee565b91505092915050565b5f805f60608486031215610f7357610f72610cc7565b5b5f610f8086828701610cee565b935050602084013567ffffffffffffffff811115610fa157610fa0610ccb565b5b610fad86828701610e7f565b925050604084013567ffffffffffffffff811115610fce57610fcd610ccb565b5b610fda86828701610f2f565b9150509250925092565b5f60208284031215610ff957610ff8610cc7565b5b5f61100684828501610cee565b91505092915050565b5f60ff82169050919050565b6110248161100f565b82525050565b5f819050919050565b61103c8161102a565b82525050565b5f81519050919050565b5f82825260208201905092915050565b5f5b8381101561107957808201518184015260208101905061105e565b5f8484015250505050565b5f61108e82611042565b611098818561104c565b93506110a881856020860161105c565b6110b181610d06565b840191505092915050565b5f6060820190506110cf5f83018661101b565b6110dc6020830185611033565b81810360408301526110ee8184611084565b9050949350505050565b6111018161102a565b811461110b575f80fd5b50565b5f8135905061111c816110f8565b92915050565b5f806040838503121561113857611137610cc7565b5b5f61114585828601610e03565b92505060206111568582860161110e565b9150509250929050565b61116981610ccf565b82525050565b5f6020820190506111825f830184611160565b92915050565b7f4e487b71000000000000000000000000000000000000000000000000000000005f52602260045260245ffd5b5f60028204905060018216806111cc57607f821691505b6020821081036111df576111de611188565b5b50919050565b5f815490506111f3816111b5565b9050919050565b5f819050815f5260205f209050919050565b5f6020601f8301049050919050565b5f82821b905092915050565b5f600883026112567fffffffffffffffffffffffffffffffffffffffffffffffffffffffffffffffff8261121b565b611260868361121b565b95508019841693508086168417925050509392505050565b5f819050919050565b5f61129b6112966112918461102a565b611278565b61102a565b9050919050565b5f819050919050565b6112b483611281565b6112c86112c0826112a2565b848454611227565b825550505050565b5f90565b6112dc6112d0565b6112e78184846112ab565b505050565b5b8181101561130a576112ff5f826112d4565b6001810190506112ed565b5050565b601f82111561134f57611320816111fa565b6113298461120c565b81016020851015611338578190505b61134c6113448561120c565b8301826112ec565b50505b505050565b5f82821c905092915050565b5f61136f5f1984600802611354565b1980831691505092915050565b5f6113878383611360565b9150826002028217905092915050565b8181036113a557505061147a565b6113ae826111e5565b67ffffffffffffffff8111156113c7576113c6610d16565b5b6113d182546111b5565b6113dc82828561130e565b5f601f831160018114611409575f84156113f7578287015490505b611401858261137c565b865550611473565b601f198416611417876111fa565b9650611422866111fa565b5f5b8281101561144957848901548255600182019150600185019450602081019050611424565b868310156114665784890154611462601f891682611360565b8355505b6001600288020188555050505b5050505050505b565b61148582611042565b67ffffffffffffffff81111561149e5761149d610d16565b5b6114a882546111b5565b6114b382828561130e565b5f60209050601f8311600181146114e4575f84156114d2578287015190505b6114dc858261137c565b865550611543565b601f1984166114f2866111fa565b5f5b82811015611519578489015182556001820191506020850194506020810190506114f4565b868310156115365784890151611532601f891682611360565b8355505b6001600288020188555050505b505050505050565b5f81519050919050565b5f81905092915050565b5f819050602082019050919050565b61157781610ddc565b82525050565b5f611588838361156e565b60208301905092915050565b5f602082019050919050565b5f6115aa8261154b565b6115b48185611555565b93506115bf8361155f565b805f5b838110156115ef5781516115d6888261157d565b97506115e183611594565b9250506001810190506115c2565b5085935050505092915050565b5f61160782846115a0565b915081905092915050565b7f4e487b71000000000000000000000000000000000000000000000000000000005f52601160045260245ffd5b5f6116498261102a565b91506116548361102a565b925082820390508181111561166c5761166b611612565b5b92915050565b7f4e487b71000000000000000000000000000000000000000000000000000000005f52603260045260245ffd5b5f819050919050565b5f6116b28261169f565b91506116bd8361169f565b925082820390508181125f8412168282135f8512151617156116e2576116e1611612565b5b92915050565b7f4e487b71000000000000000000000000000000000000000000000000000000005f52601260045260245ffd5b5f61171f8261169f565b915061172a8361169f565b92508261173a576117396116e8565b5b60015f0383147f80000000000000000000000000000000000000000000000000000000000000008314161561177257611771611612565b5b828205905092915050565b5f6117878261169f565b91506117928361169f565b92508282019050828112155f8312168382125f8412151617156117b8576117b7611612565b5b92915050565b5f6117c88261169f565b91507f7fffffffffffffffffffffffffffffffffffffffffffffffffffffffffffffff82036117fa576117f9611612565b5b600182019050919050565b5f61180f8261169f565b91507f8000000000000000000000000000000000000000000000000000000000000000820361184157611840611612565b5b60018203905091905056fea2646970667358221220a5064dc5862a36baa6c9efece8ad846cc679a3b0bb8fb92b9a97bbdc8315bfc064736f6c63430008160033",
			"opcodes": "PUSH1 0x80 PUSH1 0x40 MSTORE CALLVALUE DUP1 ISZERO PUSH2 0xF JUMPI PUSH0 DUP1 REVERT JUMPDEST POP PUSH2 0x1882 DUP1 PUSH2 0x1D PUSH0 CODECOPY PUSH0 RETURN INVALID PUSH1 0x80 PUSH1 0x40 MSTORE CALLVALUE DUP1 ISZERO PUSH2 0xF JUMPI PUSH0 DUP1 REVERT JUMPDEST POP PUSH1 0x4 CALLDATASIZE LT PUSH2 0x3F JUMPI PUSH0 CALLDATALOAD PUSH1 0xE0 SHR DUP1 PUSH4 0xC3A47879 EQ PUSH2 0x43 JUMPI DUP1 PUSH4 0xCC7168A3 EQ PUSH2 0x5F JUMPI DUP1 PUSH4 0xF1E4EB46 EQ PUSH2 0x91 JUMPI JUMPDEST PUSH0 DUP1 REVERT JUMPDEST PUSH2 0x5D PUSH1 0x4 DUP1 CALLDATASIZE SUB DUP2 ADD SWAP1 PUSH2 0x58 SWAP2 SWAP1 PUSH2 0xF5C JUMP JUMPDEST PUSH2 0xC1 JUMP JUMPDEST STOP JUMPDEST PUSH2 0x79 PUSH1 0x4 DUP1 CALLDATASIZE SUB DUP2 ADD SWAP1 PUSH2 0x74 SWAP2 SWAP1 PUSH2 0xFE4 JUMP JUMPDEST PUSH2 0x646 JUMP JUMPDEST PUSH1 0x40 MLOAD PUSH2 0x88 SWAP4 SWAP3 SWAP2 SWAP1 PUSH2 0x10BC JUMP JUMPDEST PUSH1 0x40 MLOAD DUP1 SWAP2 SUB SWAP1 RETURN JUMPDEST PUSH2 0xAB PUSH1 0x4 DUP1 CALLDATASIZE SUB DUP2 ADD SWAP1 PUSH2 0xA6 SWAP2 SWAP1 PUSH2 0x1122 JUMP JUMPDEST PUSH2 0x6FF JUMP JUMPDEST PUSH1 0x40 MLOAD PUSH2 0xB8 SWAP2 SWAP1 PUSH2 0x116F JUMP JUMPDEST PUSH1 0x40 MLOAD DUP1 SWAP2 SUB SWAP1 RETURN JUMPDEST PUSH0 DUP1 SHL DUP4 SUB PUSH2 0x203 JUMPI PUSH2 0xD3 DUP3 PUSH2 0x72A JUMP JUMPDEST SWAP3 POP PUSH1 0x6 PUSH0 DUP5 DUP2 MSTORE PUSH1 0x20 ADD SWAP1 DUP2 MSTORE PUSH1 0x20 ADD PUSH0 KECCAK256 PUSH0 DUP1 DUP3 ADD DUP2 PUSH0 ADD SWAP1 DUP1 SLOAD PUSH2 0xFB SWAP3 SWAP2 SWAP1 PUSH2 0xB47 JUMP JUMPDEST POP PUSH1 0x1 DUP3 ADD DUP2 PUSH1 0x1 ADD SWAP1 DUP1 SLOAD PUSH2 0x112 SWAP3 SWAP2 SWAP1 PUSH2 0xB47 JUMP JUMPDEST POP PUSH1 0x2 DUP3 ADD PUSH0 SWAP1 SLOAD SWAP1 PUSH2 0x100 EXP SWAP1 DIV PUSH1 0xFF AND DUP2 PUSH1 0x2 ADD PUSH0 PUSH2 0x100 EXP DUP2 SLOAD DUP2 PUSH1 0xFF MUL NOT AND SWAP1 DUP4 PUSH1 0xFF AND MUL OR SWAP1 SSTORE POP PUSH1 0x3 DUP3 ADD SLOAD DUP2 PUSH1 0x3 ADD SSTORE PUSH1 0x4 DUP3 ADD DUP2 PUSH1 0x4 ADD SWAP1 DUP2 PUSH2 0x15D SWAP2 SWAP1 PUSH2 0x1397 JUMP JUMPDEST POP SWAP1 POP POP DUP2 PUSH0 DUP1 ADD SWAP1 DUP1 MLOAD SWAP1 PUSH1 0x20 ADD SWAP1 PUSH2 0x178 SWAP3 SWAP2 SWAP1 PUSH2 0xB95 JUMP JUMPDEST POP PUSH1 0x40 MLOAD DUP1 PUSH1 0x20 ADD PUSH1 0x40 MSTORE DUP1 CALLER PUSH20 0xFFFFFFFFFFFFFFFFFFFFFFFFFFFFFFFFFFFFFFFF AND PUSH20 0xFFFFFFFFFFFFFFFFFFFFFFFFFFFFFFFFFFFFFFFF AND DUP2 MSTORE POP PUSH0 PUSH1 0x1 ADD SWAP1 PUSH1 0x1 PUSH2 0x1C6 SWAP3 SWAP2 SWAP1 PUSH2 0xC1C JUMP JUMPDEST POP PUSH0 DUP1 PUSH1 0x2 ADD PUSH0 PUSH2 0x100 EXP DUP2 SLOAD DUP2 PUSH1 0xFF MUL NOT AND SWAP1 DUP4 PUSH1 0xFF AND MUL OR SWAP1 SSTORE POP TIMESTAMP PUSH0 PUSH1 0x3 ADD DUP2 SWAP1 SSTORE POP DUP1 PUSH0 PUSH1 0x4 ADD SWAP1 DUP2 PUSH2 0x1FD SWAP2 SWAP1 PUSH2 0x147C JUMP JUMPDEST POP PUSH2 0x5B5 JUMP JUMPDEST PUSH1 0x6 PUSH0 DUP5 DUP2 MSTORE PUSH1 0x20 ADD SWAP1 DUP2 MSTORE PUSH1 0x20 ADD PUSH0 KECCAK256 PUSH0 DUP1 DUP3 ADD DUP2 PUSH0 ADD SWAP1 DUP1 SLOAD PUSH2 0x229 SWAP3 SWAP2 SWAP1 PUSH2 0xB47 JUMP JUMPDEST POP PUSH1 0x1 DUP3 ADD DUP2 PUSH1 0x1 ADD SWAP1 DUP1 SLOAD PUSH2 0x240 SWAP3 SWAP2 SWAP1 PUSH2 0xB47 JUMP JUMPDEST POP PUSH1 0x2 DUP3 ADD PUSH0 SWAP1 SLOAD SWAP1 PUSH2 0x100 EXP SWAP1 DIV PUSH1 0xFF AND DUP2 PUSH1 0x2 ADD PUSH0 PUSH2 0x100 EXP DUP2 SLOAD DUP2 PUSH1 0xFF MUL NOT AND SWAP1 DUP4 PUSH1 0xFF AND MUL OR SWAP1 SSTORE POP PUSH1 0x3 DUP3 ADD SLOAD DUP2 PUSH1 0x3 ADD SSTORE PUSH1 0x4 DUP3 ADD DUP2 PUSH1 0x4 ADD SWAP1 DUP2 PUSH2 0x28B SWAP2 SWAP1 PUSH2 0x1397 JUMP JUMPDEST POP SWAP1 POP POP PUSH2 0x3A2 PUSH0 DUP1 ADD DUP1 SLOAD DUP1 PUSH1 0x20 MUL PUSH1 0x20 ADD PUSH1 0x40 MLOAD SWAP1 DUP2 ADD PUSH1 0x40 MSTORE DUP1 SWAP3 SWAP2 SWAP1 DUP2 DUP2 MSTORE PUSH1 0x20 ADD DUP3 DUP1 SLOAD DUP1 ISZERO PUSH2 0x312 JUMPI PUSH1 0x20 MUL DUP3 ADD SWAP2 SWAP1 PUSH0 MSTORE PUSH1 0x20 PUSH0 KECCAK256 SWAP1 JUMPDEST DUP2 PUSH0 SWAP1 SLOAD SWAP1 PUSH2 0x100 EXP SWAP1 DIV PUSH20 0xFFFFFFFFFFFFFFFFFFFFFFFFFFFFFFFFFFFFFFFF AND PUSH20 0xFFFFFFFFFFFFFFFFFFFFFFFFFFFFFFFFFFFFFFFF AND DUP2 MSTORE PUSH1 0x20 ADD SWAP1 PUSH1 0x1 ADD SWAP1 DUP1 DUP4 GT PUSH2 0x2C9 JUMPI JUMPDEST POP POP POP POP POP PUSH0 PUSH1 0x1 ADD DUP1 SLOAD DUP1 PUSH1 0x20 MUL PUSH1 0x20 ADD PUSH1 0x40 MLOAD SWAP1 DUP2 ADD PUSH1 0x40 MSTORE DUP1 SWAP3 SWAP2 SWAP1 DUP2 DUP2 MSTORE PUSH1 0x20 ADD DUP3 DUP1 SLOAD DUP1 ISZERO PUSH2 0x398 JUMPI PUSH1 0x20 MUL DUP3 ADD SWAP2 SWAP1 PUSH0 MSTORE PUSH1 0x20 PUSH0 KECCAK256 SWAP1 JUMPDEST DUP2 PUSH0 SWAP1 SLOAD SWAP1 PUSH2 0x100 EXP SWAP1 DIV PUSH20 0xFFFFFFFFFFFFFFFFFFFFFFFFFFFFFFFFFFFFFFFF AND PUSH20 0xFFFFFFFFFFFFFFFFFFFFFFFFFFFFFFFFFFFFFFFF AND DUP2 MSTORE PUSH1 0x20 ADD SWAP1 PUSH1 0x1 ADD SWAP1 DUP1 DUP4 GT PUSH2 0x34F JUMPI JUMPDEST POP POP POP POP POP PUSH2 0x759 JUMP JUMPDEST ISZERO PUSH2 0x3C5 JUMPI PUSH1 0x1 PUSH0 PUSH1 0x2 ADD PUSH0 PUSH2 0x100 EXP DUP2 SLOAD DUP2 PUSH1 0xFF MUL NOT AND SWAP1 DUP4 PUSH1 0xFF AND MUL OR SWAP1 SSTORE POP JUMPDEST PUSH2 0x454 PUSH0 PUSH1 0x1 ADD DUP1 SLOAD DUP1 PUSH1 0x20 MUL PUSH1 0x20 ADD PUSH1 0x40 MLOAD SWAP1 DUP2 ADD PUSH1 0x40 MSTORE DUP1 SWAP3 SWAP2 SWAP1 DUP2 DUP2 MSTORE PUSH1 0x20 ADD DUP3 DUP1 SLOAD DUP1 ISZERO PUSH2 0x449 JUMPI PUSH1 0x20 MUL DUP3 ADD SWAP2 SWAP1 PUSH0 MSTORE PUSH1 0x20 PUSH0 KECCAK256 SWAP1 JUMPDEST DUP2 PUSH0 SWAP1 SLOAD SWAP1 PUSH2 0x100 EXP SWAP1 DIV PUSH20 0xFFFFFFFFFFFFFFFFFFFFFFFFFFFFFFFFFFFFFFFF AND PUSH20 0xFFFFFFFFFFFFFFFFFFFFFFFFFFFFFFFFFFFFFFFF AND DUP2 MSTORE PUSH1 0x20 ADD SWAP1 PUSH1 0x1 ADD SWAP1 DUP1 DUP4 GT PUSH2 0x400 JUMPI JUMPDEST POP POP POP POP POP CALLER PUSH2 0x82F JUMP JUMPDEST PUSH2 0x4BB JUMPI PUSH0 PUSH1 0x1 ADD CALLER SWAP1 DUP1 PUSH1 0x1 DUP2 SLOAD ADD DUP1 DUP3 SSTORE DUP1 SWAP2 POP POP PUSH1 0x1 SWAP1 SUB SWAP1 PUSH0 MSTORE PUSH1 0x20 PUSH0 KECCAK256 ADD PUSH0 SWAP1 SWAP2 SWAP1 SWAP2 SWAP1 SWAP2 PUSH2 0x100 EXP DUP2 SLOAD DUP2 PUSH20 0xFFFFFFFFFFFFFFFFFFFFFFFFFFFFFFFFFFFFFFFF MUL NOT AND SWAP1 DUP4 PUSH20 0xFFFFFFFFFFFFFFFFFFFFFFFFFFFFFFFFFFFFFFFF AND MUL OR SWAP1 SSTORE POP JUMPDEST PUSH2 0x54E PUSH1 0x5 PUSH0 CALLER PUSH20 0xFFFFFFFFFFFFFFFFFFFFFFFFFFFFFFFFFFFFFFFF AND PUSH20 0xFFFFFFFFFFFFFFFFFFFFFFFFFFFFFFFFFFFFFFFF AND DUP2 MSTORE PUSH1 0x20 ADD SWAP1 DUP2 MSTORE PUSH1 0x20 ADD PUSH0 KECCAK256 DUP1 SLOAD DUP1 PUSH1 0x20 MUL PUSH1 0x20 ADD PUSH1 0x40 MLOAD SWAP1 DUP2 ADD PUSH1 0x40 MSTORE DUP1 SWAP3 SWAP2 SWAP1 DUP2 DUP2 MSTORE PUSH1 0x20 ADD DUP3 DUP1 SLOAD DUP1 ISZERO PUSH2 0x543 JUMPI PUSH1 0x20 MUL DUP3 ADD SWAP2 SWAP1 PUSH0 MSTORE PUSH1 0x20 PUSH0 KECCAK256 SWAP1 JUMPDEST DUP2 SLOAD DUP2 MSTORE PUSH1 0x20 ADD SWAP1 PUSH1 0x1 ADD SWAP1 DUP1 DUP4 GT PUSH2 0x52F JUMPI JUMPDEST POP POP POP POP POP DUP5 PUSH2 0x8AD JUMP JUMPDEST PUSH2 0x5B4 JUMPI PUSH1 0x5 PUSH0 CALLER PUSH20 0xFFFFFFFFFFFFFFFFFFFFFFFFFFFFFFFFFFFFFFFF AND PUSH20 0xFFFFFFFFFFFFFFFFFFFFFFFFFFFFFFFFFFFFFFFF AND DUP2 MSTORE PUSH1 0x20 ADD SWAP1 DUP2 MSTORE PUSH1 0x20 ADD PUSH0 KECCAK256 DUP4 SWAP1 DUP1 PUSH1 0x1 DUP2 SLOAD ADD DUP1 DUP3 SSTORE DUP1 SWAP2 POP POP PUSH1 0x1 SWAP1 SUB SWAP1 PUSH0 MSTORE PUSH1 0x20 PUSH0 KECCAK256 ADD PUSH0 SWAP1 SWAP2 SWAP1 SWAP2 SWAP1 SWAP2 POP SSTORE JUMPDEST JUMPDEST PUSH0 PUSH1 0x6 PUSH0 DUP6 DUP2 MSTORE PUSH1 0x20 ADD SWAP1 DUP2 MSTORE PUSH1 0x20 ADD PUSH0 KECCAK256 PUSH0 DUP3 ADD DUP2 PUSH0 ADD SWAP1 DUP1 SLOAD PUSH2 0x5DB SWAP3 SWAP2 SWAP1 PUSH2 0xB47 JUMP JUMPDEST POP PUSH1 0x1 DUP3 ADD DUP2 PUSH1 0x1 ADD SWAP1 DUP1 SLOAD PUSH2 0x5F2 SWAP3 SWAP2 SWAP1 PUSH2 0xB47 JUMP JUMPDEST POP PUSH1 0x2 DUP3 ADD PUSH0 SWAP1 SLOAD SWAP1 PUSH2 0x100 EXP SWAP1 DIV PUSH1 0xFF AND DUP2 PUSH1 0x2 ADD PUSH0 PUSH2 0x100 EXP DUP2 SLOAD DUP2 PUSH1 0xFF MUL NOT AND SWAP1 DUP4 PUSH1 0xFF AND MUL OR SWAP1 SSTORE POP PUSH1 0x3 DUP3 ADD SLOAD DUP2 PUSH1 0x3 ADD SSTORE PUSH1 0x4 DUP3 ADD DUP2 PUSH1 0x4 ADD SWAP1 DUP2 PUSH2 0x63D SWAP2 SWAP1 PUSH2 0x1397 JUMP JUMPDEST POP SWAP1 POP POP POP POP POP JUMP JUMPDEST PUSH1 0x6 PUSH1 0x20 MSTORE DUP1 PUSH0 MSTORE PUSH1 0x40 PUSH0 KECCAK256 PUSH0 SWAP2 POP SWAP1 POP DUP1 PUSH1 0x2 ADD PUSH0 SWAP1 SLOAD SWAP1 PUSH2 0x100 EXP SWAP1 DIV PUSH1 0xFF AND SWAP1 DUP1 PUSH1 0x3 ADD SLOAD SWAP1 DUP1 PUSH1 0x4 ADD DUP1 SLOAD PUSH2 0x67E SWAP1 PUSH2 0x11B5 JUMP JUMPDEST DUP1 PUSH1 0x1F ADD PUSH1 0x20 DUP1 SWAP2 DIV MUL PUSH1 0x20 ADD PUSH1 0x40 MLOAD SWAP1 DUP2 ADD PUSH1 0x40 MSTORE DUP1 SWAP3 SWAP2 SWAP1 DUP2 DUP2 MSTORE PUSH1 0x20 ADD DUP3 DUP1 SLOAD PUSH2 0x6AA SWAP1 PUSH2 0x11B5 JUMP JUMPDEST DUP1 ISZERO PUSH2 0x6F5 JUMPI DUP1 PUSH1 0x1F LT PUSH2 0x6CC JUMPI PUSH2 0x100 DUP1 DUP4 SLOAD DIV MUL DUP4 MSTORE SWAP2 PUSH1 0x20 ADD SWAP2 PUSH2 0x6F5 JUMP JUMPDEST DUP3 ADD SWAP2 SWAP1 PUSH0 MSTORE PUSH1 0x20 PUSH0 KECCAK256 SWAP1 JUMPDEST DUP2 SLOAD DUP2 MSTORE SWAP1 PUSH1 0x1 ADD SWAP1 PUSH1 0x20 ADD DUP1 DUP4 GT PUSH2 0x6D8 JUMPI DUP3 SWAP1 SUB PUSH1 0x1F AND DUP3 ADD SWAP2 JUMPDEST POP POP POP POP POP SWAP1 POP DUP4 JUMP JUMPDEST PUSH1 0x5 PUSH1 0x20 MSTORE DUP2 PUSH0 MSTORE PUSH1 0x40 PUSH0 KECCAK256 DUP2 DUP2 SLOAD DUP2 LT PUSH2 0x718 JUMPI PUSH0 DUP1 REVERT JUMPDEST SWAP1 PUSH0 MSTORE PUSH1 0x20 PUSH0 KECCAK256 ADD PUSH0 SWAP2 POP SWAP2 POP POP SLOAD DUP2 JUMP JUMPDEST PUSH0 DUP2 PUSH1 0x40 MLOAD PUSH1 0x20 ADD PUSH2 0x73C SWAP2 SWAP1 PUSH2 0x15FC JUMP JUMPDEST PUSH1 0x40 MLOAD PUSH1 0x20 DUP2 DUP4 SUB SUB DUP2 MSTORE SWAP1 PUSH1 0x40 MSTORE DUP1 MLOAD SWAP1 PUSH1 0x20 ADD KECCAK256 SWAP1 POP SWAP2 SWAP1 POP JUMP JUMPDEST PUSH0 DUP2 MLOAD DUP4 MLOAD EQ PUSH2 0x76B JUMPI PUSH0 SWAP1 POP PUSH2 0x829 JUMP JUMPDEST PUSH2 0x783 DUP4 PUSH0 PUSH1 0x1 DUP7 MLOAD PUSH2 0x77E SWAP2 SWAP1 PUSH2 0x163F JUMP JUMPDEST PUSH2 0x8FF JUMP JUMPDEST PUSH2 0x79B DUP3 PUSH0 PUSH1 0x1 DUP6 MLOAD PUSH2 0x796 SWAP2 SWAP1 PUSH2 0x163F JUMP JUMPDEST PUSH2 0x8FF JUMP JUMPDEST PUSH0 JUMPDEST DUP4 MLOAD DUP2 LT ISZERO PUSH2 0x823 JUMPI DUP3 DUP2 DUP2 MLOAD DUP2 LT PUSH2 0x7B9 JUMPI PUSH2 0x7B8 PUSH2 0x1672 JUMP JUMPDEST JUMPDEST PUSH1 0x20 MUL PUSH1 0x20 ADD ADD MLOAD PUSH20 0xFFFFFFFFFFFFFFFFFFFFFFFFFFFFFFFFFFFFFFFF AND DUP5 DUP3 DUP2 MLOAD DUP2 LT PUSH2 0x7EA JUMPI PUSH2 0x7E9 PUSH2 0x1672 JUMP JUMPDEST JUMPDEST PUSH1 0x20 MUL PUSH1 0x20 ADD ADD MLOAD PUSH20 0xFFFFFFFFFFFFFFFFFFFFFFFFFFFFFFFFFFFFFFFF AND EQ PUSH2 0x816 JUMPI PUSH0 SWAP2 POP POP PUSH2 0x829 JUMP JUMPDEST DUP1 DUP1 PUSH1 0x1 ADD SWAP2 POP POP PUSH2 0x79D JUMP JUMPDEST POP PUSH1 0x1 SWAP1 POP JUMPDEST SWAP3 SWAP2 POP POP JUMP JUMPDEST PUSH0 DUP1 PUSH0 SWAP1 POP JUMPDEST DUP4 MLOAD DUP2 LT ISZERO PUSH2 0x8A2 JUMPI DUP3 PUSH20 0xFFFFFFFFFFFFFFFFFFFFFFFFFFFFFFFFFFFFFFFF AND DUP5 DUP3 DUP2 MLOAD DUP2 LT PUSH2 0x868 JUMPI PUSH2 0x867 PUSH2 0x1672 JUMP JUMPDEST JUMPDEST PUSH1 0x20 MUL PUSH1 0x20 ADD ADD MLOAD PUSH20 0xFFFFFFFFFFFFFFFFFFFFFFFFFFFFFFFFFFFFFFFF AND SUB PUSH2 0x895 JUMPI PUSH1 0x1 SWAP2 POP POP PUSH2 0x8A7 JUMP JUMPDEST DUP1 DUP1 PUSH1 0x1 ADD SWAP2 POP POP PUSH2 0x835 JUMP JUMPDEST POP PUSH0 SWAP1 POP JUMPDEST SWAP3 SWAP2 POP POP JUMP JUMPDEST PUSH0 DUP1 PUSH0 SWAP1 POP JUMPDEST DUP4 MLOAD DUP2 LT ISZERO PUSH2 0x8F4 JUMPI DUP3 DUP5 DUP3 DUP2 MLOAD DUP2 LT PUSH2 0x8D0 JUMPI PUSH2 0x8CF PUSH2 0x1672 JUMP JUMPDEST JUMPDEST PUSH1 0x20 MUL PUSH1 0x20 ADD ADD MLOAD SUB PUSH2 0x8E7 JUMPI PUSH1 0x1 SWAP2 POP POP PUSH2 0x8F9 JUMP JUMPDEST DUP1 DUP1 PUSH1 0x1 ADD SWAP2 POP POP PUSH2 0x8B3 JUMP JUMPDEST POP PUSH0 SWAP1 POP JUMPDEST SWAP3 SWAP2 POP POP JUMP JUMPDEST PUSH0 DUP3 SWAP1 POP PUSH0 DUP3 SWAP1 POP DUP1 DUP3 SUB PUSH2 0x915 JUMPI POP POP PUSH2 0xB42 JUMP JUMPDEST PUSH0 DUP6 PUSH1 0x2 DUP7 DUP7 PUSH2 0x925 SWAP2 SWAP1 PUSH2 0x16A8 JUMP JUMPDEST PUSH2 0x92F SWAP2 SWAP1 PUSH2 0x1715 JUMP JUMPDEST DUP7 PUSH2 0x93A SWAP2 SWAP1 PUSH2 0x177D JUMP JUMPDEST DUP2 MLOAD DUP2 LT PUSH2 0x94B JUMPI PUSH2 0x94A PUSH2 0x1672 JUMP JUMPDEST JUMPDEST PUSH1 0x20 MUL PUSH1 0x20 ADD ADD MLOAD SWAP1 POP JUMPDEST DUP2 DUP4 SGT PUSH2 0xB16 JUMPI JUMPDEST DUP1 PUSH20 0xFFFFFFFFFFFFFFFFFFFFFFFFFFFFFFFFFFFFFFFF AND DUP7 DUP5 DUP2 MLOAD DUP2 LT PUSH2 0x988 JUMPI PUSH2 0x987 PUSH2 0x1672 JUMP JUMPDEST JUMPDEST PUSH1 0x20 MUL PUSH1 0x20 ADD ADD MLOAD PUSH20 0xFFFFFFFFFFFFFFFFFFFFFFFFFFFFFFFFFFFFFFFF AND LT ISZERO PUSH2 0x9BF JUMPI DUP3 DUP1 PUSH2 0x9B7 SWAP1 PUSH2 0x17BE JUMP JUMPDEST SWAP4 POP POP PUSH2 0x95E JUMP JUMPDEST JUMPDEST DUP6 DUP3 DUP2 MLOAD DUP2 LT PUSH2 0x9D3 JUMPI PUSH2 0x9D2 PUSH2 0x1672 JUMP JUMPDEST JUMPDEST PUSH1 0x20 MUL PUSH1 0x20 ADD ADD MLOAD PUSH20 0xFFFFFFFFFFFFFFFFFFFFFFFFFFFFFFFFFFFFFFFF AND DUP2 PUSH20 0xFFFFFFFFFFFFFFFFFFFFFFFFFFFFFFFFFFFFFFFF AND LT ISZERO PUSH2 0xA21 JUMPI DUP2 DUP1 PUSH2 0xA19 SWAP1 PUSH2 0x1805 JUMP JUMPDEST SWAP3 POP POP PUSH2 0x9C0 JUMP JUMPDEST DUP2 DUP4 SGT PUSH2 0xB11 JUMPI DUP6 DUP3 DUP2 MLOAD DUP2 LT PUSH2 0xA3B JUMPI PUSH2 0xA3A PUSH2 0x1672 JUMP JUMPDEST JUMPDEST PUSH1 0x20 MUL PUSH1 0x20 ADD ADD MLOAD DUP7 DUP5 DUP2 MLOAD DUP2 LT PUSH2 0xA56 JUMPI PUSH2 0xA55 PUSH2 0x1672 JUMP JUMPDEST JUMPDEST PUSH1 0x20 MUL PUSH1 0x20 ADD ADD MLOAD DUP8 DUP6 DUP2 MLOAD DUP2 LT PUSH2 0xA71 JUMPI PUSH2 0xA70 PUSH2 0x1672 JUMP JUMPDEST JUMPDEST PUSH1 0x20 MUL PUSH1 0x20 ADD ADD DUP9 DUP6 DUP2 MLOAD DUP2 LT PUSH2 0xA8B JUMPI PUSH2 0xA8A PUSH2 0x1672 JUMP JUMPDEST JUMPDEST PUSH1 0x20 MUL PUSH1 0x20 ADD ADD DUP3 PUSH20 0xFFFFFFFFFFFFFFFFFFFFFFFFFFFFFFFFFFFFFFFF AND PUSH20 0xFFFFFFFFFFFFFFFFFFFFFFFFFFFFFFFFFFFFFFFF AND DUP2 MSTORE POP DUP3 PUSH20 0xFFFFFFFFFFFFFFFFFFFFFFFFFFFFFFFFFFFFFFFF AND PUSH20 0xFFFFFFFFFFFFFFFFFFFFFFFFFFFFFFFFFFFFFFFF AND DUP2 MSTORE POP POP POP DUP3 DUP1 PUSH2 0xAFF SWAP1 PUSH2 0x17BE JUMP JUMPDEST SWAP4 POP POP DUP2 DUP1 PUSH2 0xB0D SWAP1 PUSH2 0x1805 JUMP JUMPDEST SWAP3 POP POP JUMPDEST PUSH2 0x956 JUMP JUMPDEST DUP2 DUP6 SLT ISZERO PUSH2 0xB2A JUMPI PUSH2 0xB29 DUP7 DUP7 DUP5 PUSH2 0x8FF JUMP JUMPDEST JUMPDEST DUP4 DUP4 SLT ISZERO PUSH2 0xB3E JUMPI PUSH2 0xB3D DUP7 DUP5 DUP7 PUSH2 0x8FF JUMP JUMPDEST JUMPDEST POP POP POP JUMPDEST POP POP POP JUMP JUMPDEST DUP3 DUP1 SLOAD DUP3 DUP3 SSTORE SWAP1 PUSH0 MSTORE PUSH1 0x20 PUSH0 KECCAK256 SWAP1 DUP2 ADD SWAP3 DUP3 ISZERO PUSH2 0xB84 JUMPI PUSH0 MSTORE PUSH1 0x20 PUSH0 KECCAK256 SWAP2 DUP3 ADD JUMPDEST DUP3 DUP2 GT ISZERO PUSH2 0xB83 JUMPI DUP3 SLOAD DUP3 SSTORE SWAP2 PUSH1 0x1 ADD SWAP2 SWAP1 PUSH1 0x1 ADD SWAP1 PUSH2 0xB68 JUMP JUMPDEST JUMPDEST POP SWAP1 POP PUSH2 0xB91 SWAP2 SWAP1 PUSH2 0xCA3 JUMP JUMPDEST POP SWAP1 JUMP JUMPDEST DUP3 DUP1 SLOAD DUP3 DUP3 SSTORE SWAP1 PUSH0 MSTORE PUSH1 0x20 PUSH0 KECCAK256 SWAP1 DUP2 ADD SWAP3 DUP3 ISZERO PUSH2 0xC0B JUMPI SWAP2 PUSH1 0x20 MUL DUP3 ADD JUMPDEST DUP3 DUP2 GT ISZERO PUSH2 0xC0A JUMPI DUP3 MLOAD DUP3 PUSH0 PUSH2 0x100 EXP DUP2 SLOAD DUP2 PUSH20 0xFFFFFFFFFFFFFFFFFFFFFFFFFFFFFFFFFFFFFFFF MUL NOT AND SWAP1 DUP4 PUSH20 0xFFFFFFFFFFFFFFFFFFFFFFFFFFFFFFFFFFFFFFFF AND MUL OR SWAP1 SSTORE POP SWAP2 PUSH1 0x20 ADD SWAP2 SWAP1 PUSH1 0x1 ADD SWAP1 PUSH2 0xBB3 JUMP JUMPDEST JUMPDEST POP SWAP1 POP PUSH2 0xC18 SWAP2 SWAP1 PUSH2 0xCA3 JUMP JUMPDEST POP SWAP1 JUMP JUMPDEST DUP3 DUP1 SLOAD DUP3 DUP3 SSTORE SWAP1 PUSH0 MSTORE PUSH1 0x20 PUSH0 KECCAK256 SWAP1 DUP2 ADD SWAP3 DUP3 ISZERO PUSH2 0xC92 JUMPI SWAP2 PUSH1 0x20 MUL DUP3 ADD JUMPDEST DUP3 DUP2 GT ISZERO PUSH2 0xC91 JUMPI DUP3 MLOAD DUP3 PUSH0 PUSH2 0x100 EXP DUP2 SLOAD DUP2 PUSH20 0xFFFFFFFFFFFFFFFFFFFFFFFFFFFFFFFFFFFFFFFF MUL NOT AND SWAP1 DUP4 PUSH20 0xFFFFFFFFFFFFFFFFFFFFFFFFFFFFFFFFFFFFFFFF AND MUL OR SWAP1 SSTORE POP SWAP2 PUSH1 0x20 ADD SWAP2 SWAP1 PUSH1 0x1 ADD SWAP1 PUSH2 0xC3A JUMP JUMPDEST JUMPDEST POP SWAP1 POP PUSH2 0xC9F SWAP2 SWAP1 PUSH2 0xCA3 JUMP JUMPDEST POP SWAP1 JUMP JUMPDEST JUMPDEST DUP1 DUP3 GT ISZERO PUSH2 0xCBA JUMPI PUSH0 DUP2 PUSH0 SWAP1 SSTORE POP PUSH1 0x1 ADD PUSH2 0xCA4 JUMP JUMPDEST POP SWAP1 JUMP JUMPDEST PUSH0 PUSH1 0x40 MLOAD SWAP1 POP SWAP1 JUMP JUMPDEST PUSH0 DUP1 REVERT JUMPDEST PUSH0 DUP1 REVERT JUMPDEST PUSH0 DUP2 SWAP1 POP SWAP2 SWAP1 POP JUMP JUMPDEST PUSH2 0xCE1 DUP2 PUSH2 0xCCF JUMP JUMPDEST DUP2 EQ PUSH2 0xCEB JUMPI PUSH0 DUP1 REVERT JUMPDEST POP JUMP JUMPDEST PUSH0 DUP2 CALLDATALOAD SWAP1 POP PUSH2 0xCFC DUP2 PUSH2 0xCD8 JUMP JUMPDEST SWAP3 SWAP2 POP POP JUMP JUMPDEST PUSH0 DUP1 REVERT JUMPDEST PUSH0 PUSH1 0x1F NOT PUSH1 0x1F DUP4 ADD AND SWAP1 POP SWAP2 SWAP1 POP JUMP JUMPDEST PUSH32 0x4E487B7100000000000000000000000000000000000000000000000000000000 PUSH0 MSTORE PUSH1 0x41 PUSH1 0x4 MSTORE PUSH1 0x24 PUSH0 REVERT JUMPDEST PUSH2 0xD4C DUP3 PUSH2 0xD06 JUMP JUMPDEST DUP2 ADD DUP2 DUP2 LT PUSH8 0xFFFFFFFFFFFFFFFF DUP3 GT OR ISZERO PUSH2 0xD6B JUMPI PUSH2 0xD6A PUSH2 0xD16 JUMP JUMPDEST JUMPDEST DUP1 PUSH1 0x40 MSTORE POP POP POP JUMP JUMPDEST PUSH0 PUSH2 0xD7D PUSH2 0xCBE JUMP JUMPDEST SWAP1 POP PUSH2 0xD89 DUP3 DUP3 PUSH2 0xD43 JUMP JUMPDEST SWAP2 SWAP1 POP JUMP JUMPDEST PUSH0 PUSH8 0xFFFFFFFFFFFFFFFF DUP3 GT ISZERO PUSH2 0xDA8 JUMPI PUSH2 0xDA7 PUSH2 0xD16 JUMP JUMPDEST JUMPDEST PUSH1 0x20 DUP3 MUL SWAP1 POP PUSH1 0x20 DUP2 ADD SWAP1 POP SWAP2 SWAP1 POP JUMP JUMPDEST PUSH0 DUP1 REVERT JUMPDEST PUSH0 PUSH20 0xFFFFFFFFFFFFFFFFFFFFFFFFFFFFFFFFFFFFFFFF DUP3 AND SWAP1 POP SWAP2 SWAP1 POP JUMP JUMPDEST PUSH0 PUSH2 0xDE6 DUP3 PUSH2 0xDBD JUMP JUMPDEST SWAP1 POP SWAP2 SWAP1 POP JUMP JUMPDEST PUSH2 0xDF6 DUP2 PUSH2 0xDDC JUMP JUMPDEST DUP2 EQ PUSH2 0xE00 JUMPI PUSH0 DUP1 REVERT JUMPDEST POP JUMP JUMPDEST PUSH0 DUP2 CALLDATALOAD SWAP1 POP PUSH2 0xE11 DUP2 PUSH2 0xDED JUMP JUMPDEST SWAP3 SWAP2 POP POP JUMP JUMPDEST PUSH0 PUSH2 0xE29 PUSH2 0xE24 DUP5 PUSH2 0xD8E JUMP JUMPDEST PUSH2 0xD74 JUMP JUMPDEST SWAP1 POP DUP1 DUP4 DUP3 MSTORE PUSH1 0x20 DUP3 ADD SWAP1 POP PUSH1 0x20 DUP5 MUL DUP4 ADD DUP6 DUP2 GT ISZERO PUSH2 0xE4C JUMPI PUSH2 0xE4B PUSH2 0xDB9 JUMP JUMPDEST JUMPDEST DUP4 JUMPDEST DUP2 DUP2 LT ISZERO PUSH2 0xE75 JUMPI DUP1 PUSH2 0xE61 DUP9 DUP3 PUSH2 0xE03 JUMP JUMPDEST DUP5 MSTORE PUSH1 0x20 DUP5 ADD SWAP4 POP POP PUSH1 0x20 DUP2 ADD SWAP1 POP PUSH2 0xE4E JUMP JUMPDEST POP POP POP SWAP4 SWAP3 POP POP POP JUMP JUMPDEST PUSH0 DUP3 PUSH1 0x1F DUP4 ADD SLT PUSH2 0xE93 JUMPI PUSH2 0xE92 PUSH2 0xD02 JUMP JUMPDEST JUMPDEST DUP2 CALLDATALOAD PUSH2 0xEA3 DUP5 DUP3 PUSH1 0x20 DUP7 ADD PUSH2 0xE17 JUMP JUMPDEST SWAP2 POP POP SWAP3 SWAP2 POP POP JUMP JUMPDEST PUSH0 DUP1 REVERT JUMPDEST PUSH0 PUSH8 0xFFFFFFFFFFFFFFFF DUP3 GT ISZERO PUSH2 0xECA JUMPI PUSH2 0xEC9 PUSH2 0xD16 JUMP JUMPDEST JUMPDEST PUSH2 0xED3 DUP3 PUSH2 0xD06 JUMP JUMPDEST SWAP1 POP PUSH1 0x20 DUP2 ADD SWAP1 POP SWAP2 SWAP1 POP JUMP JUMPDEST DUP3 DUP2 DUP4 CALLDATACOPY PUSH0 DUP4 DUP4 ADD MSTORE POP POP POP JUMP JUMPDEST PUSH0 PUSH2 0xF00 PUSH2 0xEFB DUP5 PUSH2 0xEB0 JUMP JUMPDEST PUSH2 0xD74 JUMP JUMPDEST SWAP1 POP DUP3 DUP2 MSTORE PUSH1 0x20 DUP2 ADD DUP5 DUP5 DUP5 ADD GT ISZERO PUSH2 0xF1C JUMPI PUSH2 0xF1B PUSH2 0xEAC JUMP JUMPDEST JUMPDEST PUSH2 0xF27 DUP5 DUP3 DUP6 PUSH2 0xEE0 JUMP JUMPDEST POP SWAP4 SWAP3 POP POP POP JUMP JUMPDEST PUSH0 DUP3 PUSH1 0x1F DUP4 ADD SLT PUSH2 0xF43 JUMPI PUSH2 0xF42 PUSH2 0xD02 JUMP JUMPDEST JUMPDEST DUP2 CALLDATALOAD PUSH2 0xF53 DUP5 DUP3 PUSH1 0x20 DUP7 ADD PUSH2 0xEEE JUMP JUMPDEST SWAP2 POP POP SWAP3 SWAP2 POP POP JUMP JUMPDEST PUSH0 DUP1 PUSH0 PUSH1 0x60 DUP5 DUP7 SUB SLT ISZERO PUSH2 0xF73 JUMPI PUSH2 0xF72 PUSH2 0xCC7 JUMP JUMPDEST JUMPDEST PUSH0 PUSH2 0xF80 DUP7 DUP3 DUP8 ADD PUSH2 0xCEE JUMP JUMPDEST SWAP4 POP POP PUSH1 0x20 DUP5 ADD CALLDATALOAD PUSH8 0xFFFFFFFFFFFFFFFF DUP2 GT ISZERO PUSH2 0xFA1 JUMPI PUSH2 0xFA0 PUSH2 0xCCB JUMP JUMPDEST JUMPDEST PUSH2 0xFAD DUP7 DUP3 DUP8 ADD PUSH2 0xE7F JUMP JUMPDEST SWAP3 POP POP PUSH1 0x40 DUP5 ADD CALLDATALOAD PUSH8 0xFFFFFFFFFFFFFFFF DUP2 GT ISZERO PUSH2 0xFCE JUMPI PUSH2 0xFCD PUSH2 0xCCB JUMP JUMPDEST JUMPDEST PUSH2 0xFDA DUP7 DUP3 DUP8 ADD PUSH2 0xF2F JUMP JUMPDEST SWAP2 POP POP SWAP3 POP SWAP3 POP SWAP3 JUMP JUMPDEST PUSH0 PUSH1 0x20 DUP3 DUP5 SUB SLT ISZERO PUSH2 0xFF9 JUMPI PUSH2 0xFF8 PUSH2 0xCC7 JUMP JUMPDEST JUMPDEST PUSH0 PUSH2 0x1006 DUP5 DUP3 DUP6 ADD PUSH2 0xCEE JUMP JUMPDEST SWAP2 POP POP SWAP3 SWAP2 POP POP JUMP JUMPDEST PUSH0 PUSH1 0xFF DUP3 AND SWAP1 POP SWAP2 SWAP1 POP JUMP JUMPDEST PUSH2 0x1024 DUP2 PUSH2 0x100F JUMP JUMPDEST DUP3 MSTORE POP POP JUMP JUMPDEST PUSH0 DUP2 SWAP1 POP SWAP2 SWAP1 POP JUMP JUMPDEST PUSH2 0x103C DUP2 PUSH2 0x102A JUMP JUMPDEST DUP3 MSTORE POP POP JUMP JUMPDEST PUSH0 DUP2 MLOAD SWAP1 POP SWAP2 SWAP1 POP JUMP JUMPDEST PUSH0 DUP3 DUP3 MSTORE PUSH1 0x20 DUP3 ADD SWAP1 POP SWAP3 SWAP2 POP POP JUMP JUMPDEST PUSH0 JUMPDEST DUP4 DUP2 LT ISZERO PUSH2 0x1079 JUMPI DUP1 DUP3 ADD MLOAD DUP2 DUP5 ADD MSTORE PUSH1 0x20 DUP2 ADD SWAP1 POP PUSH2 0x105E JUMP JUMPDEST PUSH0 DUP5 DUP5 ADD MSTORE POP POP POP POP JUMP JUMPDEST PUSH0 PUSH2 0x108E DUP3 PUSH2 0x1042 JUMP JUMPDEST PUSH2 0x1098 DUP2 DUP6 PUSH2 0x104C JUMP JUMPDEST SWAP4 POP PUSH2 0x10A8 DUP2 DUP6 PUSH1 0x20 DUP7 ADD PUSH2 0x105C JUMP JUMPDEST PUSH2 0x10B1 DUP2 PUSH2 0xD06 JUMP JUMPDEST DUP5 ADD SWAP2 POP POP SWAP3 SWAP2 POP POP JUMP JUMPDEST PUSH0 PUSH1 0x60 DUP3 ADD SWAP1 POP PUSH2 0x10CF PUSH0 DUP4 ADD DUP7 PUSH2 0x101B JUMP JUMPDEST PUSH2 0x10DC PUSH1 0x20 DUP4 ADD DUP6 PUSH2 0x1033 JUMP JUMPDEST DUP2 DUP2 SUB PUSH1 0x40 DUP4 ADD MSTORE PUSH2 0x10EE DUP2 DUP5 PUSH2 0x1084 JUMP JUMPDEST SWAP1 POP SWAP5 SWAP4 POP POP POP POP JUMP JUMPDEST PUSH2 0x1101 DUP2 PUSH2 0x102A JUMP JUMPDEST DUP2 EQ PUSH2 0x110B JUMPI PUSH0 DUP1 REVERT JUMPDEST POP JUMP JUMPDEST PUSH0 DUP2 CALLDATALOAD SWAP1 POP PUSH2 0x111C DUP2 PUSH2 0x10F8 JUMP JUMPDEST SWAP3 SWAP2 POP POP JUMP JUMPDEST PUSH0 DUP1 PUSH1 0x40 DUP4 DUP6 SUB SLT ISZERO PUSH2 0x1138 JUMPI PUSH2 0x1137 PUSH2 0xCC7 JUMP JUMPDEST JUMPDEST PUSH0 PUSH2 0x1145 DUP6 DUP3 DUP7 ADD PUSH2 0xE03 JUMP JUMPDEST SWAP3 POP POP PUSH1 0x20 PUSH2 0x1156 DUP6 DUP3 DUP7 ADD PUSH2 0x110E JUMP JUMPDEST SWAP2 POP POP SWAP3 POP SWAP3 SWAP1 POP JUMP JUMPDEST PUSH2 0x1169 DUP2 PUSH2 0xCCF JUMP JUMPDEST DUP3 MSTORE POP POP JUMP JUMPDEST PUSH0 PUSH1 0x20 DUP3 ADD SWAP1 POP PUSH2 0x1182 PUSH0 DUP4 ADD DUP5 PUSH2 0x1160 JUMP JUMPDEST SWAP3 SWAP2 POP POP JUMP JUMPDEST PUSH32 0x4E487B7100000000000000000000000000000000000000000000000000000000 PUSH0 MSTORE PUSH1 0x22 PUSH1 0x4 MSTORE PUSH1 0x24 PUSH0 REVERT JUMPDEST PUSH0 PUSH1 0x2 DUP3 DIV SWAP1 POP PUSH1 0x1 DUP3 AND DUP1 PUSH2 0x11CC JUMPI PUSH1 0x7F DUP3 AND SWAP2 POP JUMPDEST PUSH1 0x20 DUP3 LT DUP2 SUB PUSH2 0x11DF JUMPI PUSH2 0x11DE PUSH2 0x1188 JUMP JUMPDEST JUMPDEST POP SWAP2 SWAP1 POP JUMP JUMPDEST PUSH0 DUP2 SLOAD SWAP1 POP PUSH2 0x11F3 DUP2 PUSH2 0x11B5 JUMP JUMPDEST SWAP1 POP SWAP2 SWAP1 POP JUMP JUMPDEST PUSH0 DUP2 SWAP1 POP DUP2 PUSH0 MSTORE PUSH1 0x20 PUSH0 KECCAK256 SWAP1 POP SWAP2 SWAP1 POP JUMP JUMPDEST PUSH0 PUSH1 0x20 PUSH1 0x1F DUP4 ADD DIV SWAP1 POP SWAP2 SWAP1 POP JUMP JUMPDEST PUSH0 DUP3 DUP3 SHL SWAP1 POP SWAP3 SWAP2 POP POP JUMP JUMPDEST PUSH0 PUSH1 0x8 DUP4 MUL PUSH2 0x1256 PUSH32 0xFFFFFFFFFFFFFFFFFFFFFFFFFFFFFFFFFFFFFFFFFFFFFFFFFFFFFFFFFFFFFFFF DUP3 PUSH2 0x121B JUMP JUMPDEST PUSH2 0x1260 DUP7 DUP4 PUSH2 0x121B JUMP JUMPDEST SWAP6 POP DUP1 NOT DUP5 AND SWAP4 POP DUP1 DUP7 AND DUP5 OR SWAP3 POP POP POP SWAP4 SWAP3 POP POP POP JUMP JUMPDEST PUSH0 DUP2 SWAP1 POP SWAP2 SWAP1 POP JUMP JUMPDEST PUSH0 PUSH2 0x129B PUSH2 0x1296 PUSH2 0x1291 DUP5 PUSH2 0x102A JUMP JUMPDEST PUSH2 0x1278 JUMP JUMPDEST PUSH2 0x102A JUMP JUMPDEST SWAP1 POP SWAP2 SWAP1 POP JUMP JUMPDEST PUSH0 DUP2 SWAP1 POP SWAP2 SWAP1 POP JUMP JUMPDEST PUSH2 0x12B4 DUP4 PUSH2 0x1281 JUMP JUMPDEST PUSH2 0x12C8 PUSH2 0x12C0 DUP3 PUSH2 0x12A2 JUMP JUMPDEST DUP5 DUP5 SLOAD PUSH2 0x1227 JUMP JUMPDEST DUP3 SSTORE POP POP POP POP JUMP JUMPDEST PUSH0 SWAP1 JUMP JUMPDEST PUSH2 0x12DC PUSH2 0x12D0 JUMP JUMPDEST PUSH2 0x12E7 DUP2 DUP5 DUP5 PUSH2 0x12AB JUMP JUMPDEST POP POP POP JUMP JUMPDEST JUMPDEST DUP2 DUP2 LT ISZERO PUSH2 0x130A JUMPI PUSH2 0x12FF PUSH0 DUP3 PUSH2 0x12D4 JUMP JUMPDEST PUSH1 0x1 DUP2 ADD SWAP1 POP PUSH2 0x12ED JUMP JUMPDEST POP POP JUMP JUMPDEST PUSH1 0x1F DUP3 GT ISZERO PUSH2 0x134F JUMPI PUSH2 0x1320 DUP2 PUSH2 0x11FA JUMP JUMPDEST PUSH2 0x1329 DUP5 PUSH2 0x120C JUMP JUMPDEST DUP2 ADD PUSH1 0x20 DUP6 LT ISZERO PUSH2 0x1338 JUMPI DUP2 SWAP1 POP JUMPDEST PUSH2 0x134C PUSH2 0x1344 DUP6 PUSH2 0x120C JUMP JUMPDEST DUP4 ADD DUP3 PUSH2 0x12EC JUMP JUMPDEST POP POP JUMPDEST POP POP POP JUMP JUMPDEST PUSH0 DUP3 DUP3 SHR SWAP1 POP SWAP3 SWAP2 POP POP JUMP JUMPDEST PUSH0 PUSH2 0x136F PUSH0 NOT DUP5 PUSH1 0x8 MUL PUSH2 0x1354 JUMP JUMPDEST NOT DUP1 DUP4 AND SWAP2 POP POP SWAP3 SWAP2 POP POP JUMP JUMPDEST PUSH0 PUSH2 0x1387 DUP4 DUP4 PUSH2 0x1360 JUMP JUMPDEST SWAP2 POP DUP3 PUSH1 0x2 MUL DUP3 OR SWAP1 POP SWAP3 SWAP2 POP POP JUMP JUMPDEST DUP2 DUP2 SUB PUSH2 0x13A5 JUMPI POP POP PUSH2 0x147A JUMP JUMPDEST PUSH2 0x13AE DUP3 PUSH2 0x11E5 JUMP JUMPDEST PUSH8 0xFFFFFFFFFFFFFFFF DUP2 GT ISZERO PUSH2 0x13C7 JUMPI PUSH2 0x13C6 PUSH2 0xD16 JUMP JUMPDEST JUMPDEST PUSH2 0x13D1 DUP3 SLOAD PUSH2 0x11B5 JUMP JUMPDEST PUSH2 0x13DC DUP3 DUP3 DUP6 PUSH2 0x130E JUMP JUMPDEST PUSH0 PUSH1 0x1F DUP4 GT PUSH1 0x1 DUP2 EQ PUSH2 0x1409 JUMPI PUSH0 DUP5 ISZERO PUSH2 0x13F7 JUMPI DUP3 DUP8 ADD SLOAD SWAP1 POP JUMPDEST PUSH2 0x1401 DUP6 DUP3 PUSH2 0x137C JUMP JUMPDEST DUP7 SSTORE POP PUSH2 0x1473 JUMP JUMPDEST PUSH1 0x1F NOT DUP5 AND PUSH2 0x1417 DUP8 PUSH2 0x11FA JUMP JUMPDEST SWAP7 POP PUSH2 0x1422 DUP7 PUSH2 0x11FA JUMP JUMPDEST PUSH0 JUMPDEST DUP3 DUP2 LT ISZERO PUSH2 0x1449 JUMPI DUP5 DUP10 ADD SLOAD DUP3 SSTORE PUSH1 0x1 DUP3 ADD SWAP2 POP PUSH1 0x1 DUP6 ADD SWAP5 POP PUSH1 0x20 DUP2 ADD SWAP1 POP PUSH2 0x1424 JUMP JUMPDEST DUP7 DUP4 LT ISZERO PUSH2 0x1466 JUMPI DUP5 DUP10 ADD SLOAD PUSH2 0x1462 PUSH1 0x1F DUP10 AND DUP3 PUSH2 0x1360 JUMP JUMPDEST DUP4 SSTORE POP JUMPDEST PUSH1 0x1 PUSH1 0x2 DUP9 MUL ADD DUP9 SSTORE POP POP POP JUMPDEST POP POP POP POP POP POP JUMPDEST JUMP JUMPDEST PUSH2 0x1485 DUP3 PUSH2 0x1042 JUMP JUMPDEST PUSH8 0xFFFFFFFFFFFFFFFF DUP2 GT ISZERO PUSH2 0x149E JUMPI PUSH2 0x149D PUSH2 0xD16 JUMP JUMPDEST JUMPDEST PUSH2 0x14A8 DUP3 SLOAD PUSH2 0x11B5 JUMP JUMPDEST PUSH2 0x14B3 DUP3 DUP3 DUP6 PUSH2 0x130E JUMP JUMPDEST PUSH0 PUSH1 0x20 SWAP1 POP PUSH1 0x1F DUP4 GT PUSH1 0x1 DUP2 EQ PUSH2 0x14E4 JUMPI PUSH0 DUP5 ISZERO PUSH2 0x14D2 JUMPI DUP3 DUP8 ADD MLOAD SWAP1 POP JUMPDEST PUSH2 0x14DC DUP6 DUP3 PUSH2 0x137C JUMP JUMPDEST DUP7 SSTORE POP PUSH2 0x1543 JUMP JUMPDEST PUSH1 0x1F NOT DUP5 AND PUSH2 0x14F2 DUP7 PUSH2 0x11FA JUMP JUMPDEST PUSH0 JUMPDEST DUP3 DUP2 LT ISZERO PUSH2 0x1519 JUMPI DUP5 DUP10 ADD MLOAD DUP3 SSTORE PUSH1 0x1 DUP3 ADD SWAP2 POP PUSH1 0x20 DUP6 ADD SWAP5 POP PUSH1 0x20 DUP2 ADD SWAP1 POP PUSH2 0x14F4 JUMP JUMPDEST DUP7 DUP4 LT ISZERO PUSH2 0x1536 JUMPI DUP5 DUP10 ADD MLOAD PUSH2 0x1532 PUSH1 0x1F DUP10 AND DUP3 PUSH2 0x1360 JUMP JUMPDEST DUP4 SSTORE POP JUMPDEST PUSH1 0x1 PUSH1 0x2 DUP9 MUL ADD DUP9 SSTORE POP POP POP JUMPDEST POP POP POP POP POP POP JUMP JUMPDEST PUSH0 DUP2 MLOAD SWAP1 POP SWAP2 SWAP1 POP JUMP JUMPDEST PUSH0 DUP2 SWAP1 POP SWAP3 SWAP2 POP POP JUMP JUMPDEST PUSH0 DUP2 SWAP1 POP PUSH1 0x20 DUP3 ADD SWAP1 POP SWAP2 SWAP1 POP JUMP JUMPDEST PUSH2 0x1577 DUP2 PUSH2 0xDDC JUMP JUMPDEST DUP3 MSTORE POP POP JUMP JUMPDEST PUSH0 PUSH2 0x1588 DUP4 DUP4 PUSH2 0x156E JUMP JUMPDEST PUSH1 0x20 DUP4 ADD SWAP1 POP SWAP3 SWAP2 POP POP JUMP JUMPDEST PUSH0 PUSH1 0x20 DUP3 ADD SWAP1 POP SWAP2 SWAP1 POP JUMP JUMPDEST PUSH0 PUSH2 0x15AA DUP3 PUSH2 0x154B JUMP JUMPDEST PUSH2 0x15B4 DUP2 DUP6 PUSH2 0x1555 JUMP JUMPDEST SWAP4 POP PUSH2 0x15BF DUP4 PUSH2 0x155F JUMP JUMPDEST DUP1 PUSH0 JUMPDEST DUP4 DUP2 LT ISZERO PUSH2 0x15EF JUMPI DUP2 MLOAD PUSH2 0x15D6 DUP9 DUP3 PUSH2 0x157D JUMP JUMPDEST SWAP8 POP PUSH2 0x15E1 DUP4 PUSH2 0x1594 JUMP JUMPDEST SWAP3 POP POP PUSH1 0x1 DUP2 ADD SWAP1 POP PUSH2 0x15C2 JUMP JUMPDEST POP DUP6 SWAP4 POP POP POP POP SWAP3 SWAP2 POP POP JUMP JUMPDEST PUSH0 PUSH2 0x1607 DUP3 DUP5 PUSH2 0x15A0 JUMP JUMPDEST SWAP2 POP DUP2 SWAP1 POP SWAP3 SWAP2 POP POP JUMP JUMPDEST PUSH32 0x4E487B7100000000000000000000000000000000000000000000000000000000 PUSH0 MSTORE PUSH1 0x11 PUSH1 0x4 MSTORE PUSH1 0x24 PUSH0 REVERT JUMPDEST PUSH0 PUSH2 0x1649 DUP3 PUSH2 0x102A JUMP JUMPDEST SWAP2 POP PUSH2 0x1654 DUP4 PUSH2 0x102A JUMP JUMPDEST SWAP3 POP DUP3 DUP3 SUB SWAP1 POP DUP2 DUP2 GT ISZERO PUSH2 0x166C JUMPI PUSH2 0x166B PUSH2 0x1612 JUMP JUMPDEST JUMPDEST SWAP3 SWAP2 POP POP JUMP JUMPDEST PUSH32 0x4E487B7100000000000000000000000000000000000000000000000000000000 PUSH0 MSTORE PUSH1 0x32 PUSH1 0x4 MSTORE PUSH1 0x24 PUSH0 REVERT JUMPDEST PUSH0 DUP2 SWAP1 POP SWAP2 SWAP1 POP JUMP JUMPDEST PUSH0 PUSH2 0x16B2 DUP3 PUSH2 0x169F JUMP JUMPDEST SWAP2 POP PUSH2 0x16BD DUP4 PUSH2 0x169F JUMP JUMPDEST SWAP3 POP DUP3 DUP3 SUB SWAP1 POP DUP2 DUP2 SLT PUSH0 DUP5 SLT AND DUP3 DUP3 SGT PUSH0 DUP6 SLT ISZERO AND OR ISZERO PUSH2 0x16E2 JUMPI PUSH2 0x16E1 PUSH2 0x1612 JUMP JUMPDEST JUMPDEST SWAP3 SWAP2 POP POP JUMP JUMPDEST PUSH32 0x4E487B7100000000000000000000000000000000000000000000000000000000 PUSH0 MSTORE PUSH1 0x12 PUSH1 0x4 MSTORE PUSH1 0x24 PUSH0 REVERT JUMPDEST PUSH0 PUSH2 0x171F DUP3 PUSH2 0x169F JUMP JUMPDEST SWAP2 POP PUSH2 0x172A DUP4 PUSH2 0x169F JUMP JUMPDEST SWAP3 POP DUP3 PUSH2 0x173A JUMPI PUSH2 0x1739 PUSH2 0x16E8 JUMP JUMPDEST JUMPDEST PUSH1 0x1 PUSH0 SUB DUP4 EQ PUSH32 0x8000000000000000000000000000000000000000000000000000000000000000 DUP4 EQ AND ISZERO PUSH2 0x1772 JUMPI PUSH2 0x1771 PUSH2 0x1612 JUMP JUMPDEST JUMPDEST DUP3 DUP3 SDIV SWAP1 POP SWAP3 SWAP2 POP POP JUMP JUMPDEST PUSH0 PUSH2 0x1787 DUP3 PUSH2 0x169F JUMP JUMPDEST SWAP2 POP PUSH2 0x1792 DUP4 PUSH2 0x169F JUMP JUMPDEST SWAP3 POP DUP3 DUP3 ADD SWAP1 POP DUP3 DUP2 SLT ISZERO PUSH0 DUP4 SLT AND DUP4 DUP3 SLT PUSH0 DUP5 SLT ISZERO AND OR ISZERO PUSH2 0x17B8 JUMPI PUSH2 0x17B7 PUSH2 0x1612 JUMP JUMPDEST JUMPDEST SWAP3 SWAP2 POP POP JUMP JUMPDEST PUSH0 PUSH2 0x17C8 DUP3 PUSH2 0x169F JUMP JUMPDEST SWAP2 POP PUSH32 0x7FFFFFFFFFFFFFFFFFFFFFFFFFFFFFFFFFFFFFFFFFFFFFFFFFFFFFFFFFFFFFFF DUP3 SUB PUSH2 0x17FA JUMPI PUSH2 0x17F9 PUSH2 0x1612 JUMP JUMPDEST JUMPDEST PUSH1 0x1 DUP3 ADD SWAP1 POP SWAP2 SWAP1 POP JUMP JUMPDEST PUSH0 PUSH2 0x180F DUP3 PUSH2 0x169F JUMP JUMPDEST SWAP2 POP PUSH32 0x8000000000000000000000000000000000000000000000000000000000000000 DUP3 SUB PUSH2 0x1841 JUMPI PUSH2 0x1840 PUSH2 0x1612 JUMP JUMPDEST JUMPDEST PUSH1 0x1 DUP3 SUB SWAP1 POP SWAP2 SWAP1 POP JUMP INVALID LOG2 PUSH5 0x6970667358 0x22 SLT KECCAK256 0xA5 MOD 0x4D 0xC5 DUP7 0x2A CALLDATASIZE 0xBA 0xA6 0xC9 0xEF 0xEC 0xE8 0xAD DUP5 PUSH13 0xC679A3B0BB8FB92B9A97BBDC83 ISZERO 0xBF 0xC0 PUSH5 0x736F6C6343 STOP ADDMOD AND STOP CALLER "
		},
		"gasEstimates": {
			"creation": {
				"codeDepositCost": "1254800",
				"executionCost": "1306",
				"totalCost": "1256106"
			},
			"external": {
				"contractsByAddres(address,uint256)": "5173",
				"createContract(bytes32,address[],string)": "infinite",
				"detailsByContract(bytes32)": "infinite"
			},
			"internal": {
				"addressInArray(address[] memory,address)": "infinite",
				"areArraysEqual(address[] memory,address[] memory)": "infinite",
				"bytesInArray(bytes32[] memory,bytes32)": "infinite",
				"createIdentifier(address[] memory)": "infinite",
				"quickSort(address[] memory,int256,int256)": "infinite"
			}
		},
		"methodIdentifiers": {
			"contractsByAddres(address,uint256)": "f1e4eb46",
			"createContract(bytes32,address[],string)": "c3a47879",
			"detailsByContract(bytes32)": "cc7168a3"
		}
	},
	"abi": [
		{
			"inputs": [
				{
					"internalType": "address",
					"name": "",
					"type": "address"
				},
				{
					"internalType": "uint256",
					"name": "",
					"type": "uint256"
				}
			],
			"name": "contractsByAddres",
			"outputs": [
				{
					"internalType": "bytes32",
					"name": "",
					"type": "bytes32"
				}
			],
			"stateMutability": "view",
			"type": "function"
		},
		{
			"inputs": [
				{
					"internalType": "bytes32",
					"name": "_id",
					"type": "bytes32"
				},
				{
					"internalType": "address[]",
					"name": "_addresses",
					"type": "address[]"
				},
				{
					"internalType": "string",
					"name": "_agreement",
					"type": "string"
				}
			],
			"name": "createContract",
			"outputs": [],
			"stateMutability": "nonpayable",
			"type": "function"
		},
		{
			"inputs": [
				{
					"internalType": "bytes32",
					"name": "",
					"type": "bytes32"
				}
			],
			"name": "detailsByContract",
			"outputs": [
				{
					"internalType": "uint8",
					"name": "status",
					"type": "uint8"
				},
				{
					"internalType": "uint256",
					"name": "date",
					"type": "uint256"
				},
				{
					"internalType": "string",
					"name": "agreement",
					"type": "string"
				}
			],
			"stateMutability": "view",
			"type": "function"
		}
	]
}