{
	"data": {
		"bytecode": {
			"linkReferences": {},
			"object": "608060405234801561000f575f80fd5b50610b828061001d5f395ff3fe608060405234801561000f575f80fd5b506004361061004a575f3560e01c8063308e8edb1461004e57806373ddfdfb1461007e578063c674f26e146100ae578063d84d04a1146100ca575b5f80fd5b610068600480360381019061006391906106a9565b6100fa565b6040516100759190610739565b60405180910390f35b610098600480360381019061009391906106a9565b610152565b6040516100a59190610739565b60405180910390f35b6100c860048036038101906100c39190610785565b610228565b005b6100e460048036038101906100df91906107f1565b610470565b6040516100f19190610739565b60405180910390f35b5f8160405160200161010c91906108fc565b604051602081830303815290604052805190602001208360405160200161013391906108fc565b6040516020818303038152906040528051906020012014905092915050565b5f8151835114610164575f9050610222565b61017c835f600186516101779190610948565b610228565b610194825f6001855161018f9190610948565b610228565b5f5b835181101561021c578281815181106101b2576101b161097b565b5b602002602001015173ffffffffffffffffffffffffffffffffffffffff168482815181106101e3576101e261097b565b5b602002602001015173ffffffffffffffffffffffffffffffffffffffff161461020f575f915050610222565b8080600101915050610196565b50600190505b92915050565b5f8290505f82905080820361023e57505061046b565b5f856002868661024e91906109a8565b6102589190610a15565b866102639190610a7d565b815181106102745761027361097b565b5b602002602001015190505b81831361043f575b8073ffffffffffffffffffffffffffffffffffffffff168684815181106102b1576102b061097b565b5b602002602001015173ffffffffffffffffffffffffffffffffffffffff1610156102e85782806102e090610abe565b935050610287565b5b8582815181106102fc576102fb61097b565b5b602002602001015173ffffffffffffffffffffffffffffffffffffffff168173ffffffffffffffffffffffffffffffffffffffff16101561034a57818061034290610b05565b9250506102e9565b81831361043a578582815181106103645761036361097b565b5b602002602001015186848151811061037f5761037e61097b565b5b602002602001015187858151811061039a5761039961097b565b5b602002602001018885815181106103b4576103b361097b565b5b602002602001018273ffffffffffffffffffffffffffffffffffffffff1673ffffffffffffffffffffffffffffffffffffffff168152508273ffffffffffffffffffffffffffffffffffffffff1673ffffffffffffffffffffffffffffffffffffffff168152505050828061042890610abe565b935050818061043690610b05565b9250505b61027f565b8185121561045357610452868684610228565b5b8383121561046757610466868486610228565b5b5050505b505050565b5f805f90505b82518110156104e3578373ffffffffffffffffffffffffffffffffffffffff168382815181106104a9576104a861097b565b5b602002602001015173ffffffffffffffffffffffffffffffffffffffff16036104d65760019150506104e8565b8080600101915050610476565b505f90505b92915050565b5f604051905090565b5f80fd5b5f80fd5b5f80fd5b5f601f19601f8301169050919050565b7f4e487b71000000000000000000000000000000000000000000000000000000005f52604160045260245ffd5b61054982610503565b810181811067ffffffffffffffff8211171561056857610567610513565b5b80604052505050565b5f61057a6104ee565b90506105868282610540565b919050565b5f67ffffffffffffffff8211156105a5576105a4610513565b5b602082029050602081019050919050565b5f80fd5b5f73ffffffffffffffffffffffffffffffffffffffff82169050919050565b5f6105e3826105ba565b9050919050565b6105f3816105d9565b81146105fd575f80fd5b50565b5f8135905061060e816105ea565b92915050565b5f6106266106218461058b565b610571565b90508083825260208201905060208402830185811115610649576106486105b6565b5b835b81811015610672578061065e8882610600565b84526020840193505060208101905061064b565b5050509392505050565b5f82601f8301126106905761068f6104ff565b5b81356106a0848260208601610614565b91505092915050565b5f80604083850312156106bf576106be6104f7565b5b5f83013567ffffffffffffffff8111156106dc576106db6104fb565b5b6106e88582860161067c565b925050602083013567ffffffffffffffff811115610709576107086104fb565b5b6107158582860161067c565b9150509250929050565b5f8115159050919050565b6107338161071f565b82525050565b5f60208201905061074c5f83018461072a565b92915050565b5f819050919050565b61076481610752565b811461076e575f80fd5b50565b5f8135905061077f8161075b565b92915050565b5f805f6060848603121561079c5761079b6104f7565b5b5f84013567ffffffffffffffff8111156107b9576107b86104fb565b5b6107c58682870161067c565b93505060206107d686828701610771565b92505060406107e786828701610771565b9150509250925092565b5f8060408385031215610807576108066104f7565b5b5f61081485828601610600565b925050602083013567ffffffffffffffff811115610835576108346104fb565b5b6108418582860161067c565b9150509250929050565b5f81519050919050565b5f81905092915050565b5f819050602082019050919050565b610877816105d9565b82525050565b5f610888838361086e565b60208301905092915050565b5f602082019050919050565b5f6108aa8261084b565b6108b48185610855565b93506108bf8361085f565b805f5b838110156108ef5781516108d6888261087d565b97506108e183610894565b9250506001810190506108c2565b5085935050505092915050565b5f61090782846108a0565b915081905092915050565b5f819050919050565b7f4e487b71000000000000000000000000000000000000000000000000000000005f52601160045260245ffd5b5f61095282610912565b915061095d83610912565b92508282039050818111156109755761097461091b565b5b92915050565b7f4e487b71000000000000000000000000000000000000000000000000000000005f52603260045260245ffd5b5f6109b282610752565b91506109bd83610752565b925082820390508181125f8412168282135f8512151617156109e2576109e161091b565b5b92915050565b7f4e487b71000000000000000000000000000000000000000000000000000000005f52601260045260245ffd5b5f610a1f82610752565b9150610a2a83610752565b925082610a3a57610a396109e8565b5b60015f0383147f800000000000000000000000000000000000000000000000000000000000000083141615610a7257610a7161091b565b5b828205905092915050565b5f610a8782610752565b9150610a9283610752565b92508282019050828112155f8312168382125f841215161715610ab857610ab761091b565b5b92915050565b5f610ac882610752565b91507f7fffffffffffffffffffffffffffffffffffffffffffffffffffffffffffffff8203610afa57610af961091b565b5b600182019050919050565b5f610b0f82610752565b91507f80000000000000000000000000000000000000000000000000000000000000008203610b4157610b4061091b565b5b60018203905091905056fea26469706673582212204598d40aa8c4a71b029d88cdc3104258bba7b4d3411d9214807db58a81e4a6d664736f6c63430008160033",
			"opcodes": "PUSH1 0x80 PUSH1 0x40 MSTORE CALLVALUE DUP1 ISZERO PUSH2 0xF JUMPI PUSH0 DUP1 REVERT JUMPDEST POP PUSH2 0xB82 DUP1 PUSH2 0x1D PUSH0 CODECOPY PUSH0 RETURN INVALID PUSH1 0x80 PUSH1 0x40 MSTORE CALLVALUE DUP1 ISZERO PUSH2 0xF JUMPI PUSH0 DUP1 REVERT JUMPDEST POP PUSH1 0x4 CALLDATASIZE LT PUSH2 0x4A JUMPI PUSH0 CALLDATALOAD PUSH1 0xE0 SHR DUP1 PUSH4 0x308E8EDB EQ PUSH2 0x4E JUMPI DUP1 PUSH4 0x73DDFDFB EQ PUSH2 0x7E JUMPI DUP1 PUSH4 0xC674F26E EQ PUSH2 0xAE JUMPI DUP1 PUSH4 0xD84D04A1 EQ PUSH2 0xCA JUMPI JUMPDEST PUSH0 DUP1 REVERT JUMPDEST PUSH2 0x68 PUSH1 0x4 DUP1 CALLDATASIZE SUB DUP2 ADD SWAP1 PUSH2 0x63 SWAP2 SWAP1 PUSH2 0x6A9 JUMP JUMPDEST PUSH2 0xFA JUMP JUMPDEST PUSH1 0x40 MLOAD PUSH2 0x75 SWAP2 SWAP1 PUSH2 0x739 JUMP JUMPDEST PUSH1 0x40 MLOAD DUP1 SWAP2 SUB SWAP1 RETURN JUMPDEST PUSH2 0x98 PUSH1 0x4 DUP1 CALLDATASIZE SUB DUP2 ADD SWAP1 PUSH2 0x93 SWAP2 SWAP1 PUSH2 0x6A9 JUMP JUMPDEST PUSH2 0x152 JUMP JUMPDEST PUSH1 0x40 MLOAD PUSH2 0xA5 SWAP2 SWAP1 PUSH2 0x739 JUMP JUMPDEST PUSH1 0x40 MLOAD DUP1 SWAP2 SUB SWAP1 RETURN JUMPDEST PUSH2 0xC8 PUSH1 0x4 DUP1 CALLDATASIZE SUB DUP2 ADD SWAP1 PUSH2 0xC3 SWAP2 SWAP1 PUSH2 0x785 JUMP JUMPDEST PUSH2 0x228 JUMP JUMPDEST STOP JUMPDEST PUSH2 0xE4 PUSH1 0x4 DUP1 CALLDATASIZE SUB DUP2 ADD SWAP1 PUSH2 0xDF SWAP2 SWAP1 PUSH2 0x7F1 JUMP JUMPDEST PUSH2 0x470 JUMP JUMPDEST PUSH1 0x40 MLOAD PUSH2 0xF1 SWAP2 SWAP1 PUSH2 0x739 JUMP JUMPDEST PUSH1 0x40 MLOAD DUP1 SWAP2 SUB SWAP1 RETURN JUMPDEST PUSH0 DUP2 PUSH1 0x40 MLOAD PUSH1 0x20 ADD PUSH2 0x10C SWAP2 SWAP1 PUSH2 0x8FC JUMP JUMPDEST PUSH1 0x40 MLOAD PUSH1 0x20 DUP2 DUP4 SUB SUB DUP2 MSTORE SWAP1 PUSH1 0x40 MSTORE DUP1 MLOAD SWAP1 PUSH1 0x20 ADD KECCAK256 DUP4 PUSH1 0x40 MLOAD PUSH1 0x20 ADD PUSH2 0x133 SWAP2 SWAP1 PUSH2 0x8FC JUMP JUMPDEST PUSH1 0x40 MLOAD PUSH1 0x20 DUP2 DUP4 SUB SUB DUP2 MSTORE SWAP1 PUSH1 0x40 MSTORE DUP1 MLOAD SWAP1 PUSH1 0x20 ADD KECCAK256 EQ SWAP1 POP SWAP3 SWAP2 POP POP JUMP JUMPDEST PUSH0 DUP2 MLOAD DUP4 MLOAD EQ PUSH2 0x164 JUMPI PUSH0 SWAP1 POP PUSH2 0x222 JUMP JUMPDEST PUSH2 0x17C DUP4 PUSH0 PUSH1 0x1 DUP7 MLOAD PUSH2 0x177 SWAP2 SWAP1 PUSH2 0x948 JUMP JUMPDEST PUSH2 0x228 JUMP JUMPDEST PUSH2 0x194 DUP3 PUSH0 PUSH1 0x1 DUP6 MLOAD PUSH2 0x18F SWAP2 SWAP1 PUSH2 0x948 JUMP JUMPDEST PUSH2 0x228 JUMP JUMPDEST PUSH0 JUMPDEST DUP4 MLOAD DUP2 LT ISZERO PUSH2 0x21C JUMPI DUP3 DUP2 DUP2 MLOAD DUP2 LT PUSH2 0x1B2 JUMPI PUSH2 0x1B1 PUSH2 0x97B JUMP JUMPDEST JUMPDEST PUSH1 0x20 MUL PUSH1 0x20 ADD ADD MLOAD PUSH20 0xFFFFFFFFFFFFFFFFFFFFFFFFFFFFFFFFFFFFFFFF AND DUP5 DUP3 DUP2 MLOAD DUP2 LT PUSH2 0x1E3 JUMPI PUSH2 0x1E2 PUSH2 0x97B JUMP JUMPDEST JUMPDEST PUSH1 0x20 MUL PUSH1 0x20 ADD ADD MLOAD PUSH20 0xFFFFFFFFFFFFFFFFFFFFFFFFFFFFFFFFFFFFFFFF AND EQ PUSH2 0x20F JUMPI PUSH0 SWAP2 POP POP PUSH2 0x222 JUMP JUMPDEST DUP1 DUP1 PUSH1 0x1 ADD SWAP2 POP POP PUSH2 0x196 JUMP JUMPDEST POP PUSH1 0x1 SWAP1 POP JUMPDEST SWAP3 SWAP2 POP POP JUMP JUMPDEST PUSH0 DUP3 SWAP1 POP PUSH0 DUP3 SWAP1 POP DUP1 DUP3 SUB PUSH2 0x23E JUMPI POP POP PUSH2 0x46B JUMP JUMPDEST PUSH0 DUP6 PUSH1 0x2 DUP7 DUP7 PUSH2 0x24E SWAP2 SWAP1 PUSH2 0x9A8 JUMP JUMPDEST PUSH2 0x258 SWAP2 SWAP1 PUSH2 0xA15 JUMP JUMPDEST DUP7 PUSH2 0x263 SWAP2 SWAP1 PUSH2 0xA7D JUMP JUMPDEST DUP2 MLOAD DUP2 LT PUSH2 0x274 JUMPI PUSH2 0x273 PUSH2 0x97B JUMP JUMPDEST JUMPDEST PUSH1 0x20 MUL PUSH1 0x20 ADD ADD MLOAD SWAP1 POP JUMPDEST DUP2 DUP4 SGT PUSH2 0x43F JUMPI JUMPDEST DUP1 PUSH20 0xFFFFFFFFFFFFFFFFFFFFFFFFFFFFFFFFFFFFFFFF AND DUP7 DUP5 DUP2 MLOAD DUP2 LT PUSH2 0x2B1 JUMPI PUSH2 0x2B0 PUSH2 0x97B JUMP JUMPDEST JUMPDEST PUSH1 0x20 MUL PUSH1 0x20 ADD ADD MLOAD PUSH20 0xFFFFFFFFFFFFFFFFFFFFFFFFFFFFFFFFFFFFFFFF AND LT ISZERO PUSH2 0x2E8 JUMPI DUP3 DUP1 PUSH2 0x2E0 SWAP1 PUSH2 0xABE JUMP JUMPDEST SWAP4 POP POP PUSH2 0x287 JUMP JUMPDEST JUMPDEST DUP6 DUP3 DUP2 MLOAD DUP2 LT PUSH2 0x2FC JUMPI PUSH2 0x2FB PUSH2 0x97B JUMP JUMPDEST JUMPDEST PUSH1 0x20 MUL PUSH1 0x20 ADD ADD MLOAD PUSH20 0xFFFFFFFFFFFFFFFFFFFFFFFFFFFFFFFFFFFFFFFF AND DUP2 PUSH20 0xFFFFFFFFFFFFFFFFFFFFFFFFFFFFFFFFFFFFFFFF AND LT ISZERO PUSH2 0x34A JUMPI DUP2 DUP1 PUSH2 0x342 SWAP1 PUSH2 0xB05 JUMP JUMPDEST SWAP3 POP POP PUSH2 0x2E9 JUMP JUMPDEST DUP2 DUP4 SGT PUSH2 0x43A JUMPI DUP6 DUP3 DUP2 MLOAD DUP2 LT PUSH2 0x364 JUMPI PUSH2 0x363 PUSH2 0x97B JUMP JUMPDEST JUMPDEST PUSH1 0x20 MUL PUSH1 0x20 ADD ADD MLOAD DUP7 DUP5 DUP2 MLOAD DUP2 LT PUSH2 0x37F JUMPI PUSH2 0x37E PUSH2 0x97B JUMP JUMPDEST JUMPDEST PUSH1 0x20 MUL PUSH1 0x20 ADD ADD MLOAD DUP8 DUP6 DUP2 MLOAD DUP2 LT PUSH2 0x39A JUMPI PUSH2 0x399 PUSH2 0x97B JUMP JUMPDEST JUMPDEST PUSH1 0x20 MUL PUSH1 0x20 ADD ADD DUP9 DUP6 DUP2 MLOAD DUP2 LT PUSH2 0x3B4 JUMPI PUSH2 0x3B3 PUSH2 0x97B JUMP JUMPDEST JUMPDEST PUSH1 0x20 MUL PUSH1 0x20 ADD ADD DUP3 PUSH20 0xFFFFFFFFFFFFFFFFFFFFFFFFFFFFFFFFFFFFFFFF AND PUSH20 0xFFFFFFFFFFFFFFFFFFFFFFFFFFFFFFFFFFFFFFFF AND DUP2 MSTORE POP DUP3 PUSH20 0xFFFFFFFFFFFFFFFFFFFFFFFFFFFFFFFFFFFFFFFF AND PUSH20 0xFFFFFFFFFFFFFFFFFFFFFFFFFFFFFFFFFFFFFFFF AND DUP2 MSTORE POP POP POP DUP3 DUP1 PUSH2 0x428 SWAP1 PUSH2 0xABE JUMP JUMPDEST SWAP4 POP POP DUP2 DUP1 PUSH2 0x436 SWAP1 PUSH2 0xB05 JUMP JUMPDEST SWAP3 POP POP JUMPDEST PUSH2 0x27F JUMP JUMPDEST DUP2 DUP6 SLT ISZERO PUSH2 0x453 JUMPI PUSH2 0x452 DUP7 DUP7 DUP5 PUSH2 0x228 JUMP JUMPDEST JUMPDEST DUP4 DUP4 SLT ISZERO PUSH2 0x467 JUMPI PUSH2 0x466 DUP7 DUP5 DUP7 PUSH2 0x228 JUMP JUMPDEST JUMPDEST POP POP POP JUMPDEST POP POP POP JUMP JUMPDEST PUSH0 DUP1 PUSH0 SWAP1 POP JUMPDEST DUP3 MLOAD DUP2 LT ISZERO PUSH2 0x4E3 JUMPI DUP4 PUSH20 0xFFFFFFFFFFFFFFFFFFFFFFFFFFFFFFFFFFFFFFFF AND DUP4 DUP3 DUP2 MLOAD DUP2 LT PUSH2 0x4A9 JUMPI PUSH2 0x4A8 PUSH2 0x97B JUMP JUMPDEST JUMPDEST PUSH1 0x20 MUL PUSH1 0x20 ADD ADD MLOAD PUSH20 0xFFFFFFFFFFFFFFFFFFFFFFFFFFFFFFFFFFFFFFFF AND SUB PUSH2 0x4D6 JUMPI PUSH1 0x1 SWAP2 POP POP PUSH2 0x4E8 JUMP JUMPDEST DUP1 DUP1 PUSH1 0x1 ADD SWAP2 POP POP PUSH2 0x476 JUMP JUMPDEST POP PUSH0 SWAP1 POP JUMPDEST SWAP3 SWAP2 POP POP JUMP JUMPDEST PUSH0 PUSH1 0x40 MLOAD SWAP1 POP SWAP1 JUMP JUMPDEST PUSH0 DUP1 REVERT JUMPDEST PUSH0 DUP1 REVERT JUMPDEST PUSH0 DUP1 REVERT JUMPDEST PUSH0 PUSH1 0x1F NOT PUSH1 0x1F DUP4 ADD AND SWAP1 POP SWAP2 SWAP1 POP JUMP JUMPDEST PUSH32 0x4E487B7100000000000000000000000000000000000000000000000000000000 PUSH0 MSTORE PUSH1 0x41 PUSH1 0x4 MSTORE PUSH1 0x24 PUSH0 REVERT JUMPDEST PUSH2 0x549 DUP3 PUSH2 0x503 JUMP JUMPDEST DUP2 ADD DUP2 DUP2 LT PUSH8 0xFFFFFFFFFFFFFFFF DUP3 GT OR ISZERO PUSH2 0x568 JUMPI PUSH2 0x567 PUSH2 0x513 JUMP JUMPDEST JUMPDEST DUP1 PUSH1 0x40 MSTORE POP POP POP JUMP JUMPDEST PUSH0 PUSH2 0x57A PUSH2 0x4EE JUMP JUMPDEST SWAP1 POP PUSH2 0x586 DUP3 DUP3 PUSH2 0x540 JUMP JUMPDEST SWAP2 SWAP1 POP JUMP JUMPDEST PUSH0 PUSH8 0xFFFFFFFFFFFFFFFF DUP3 GT ISZERO PUSH2 0x5A5 JUMPI PUSH2 0x5A4 PUSH2 0x513 JUMP JUMPDEST JUMPDEST PUSH1 0x20 DUP3 MUL SWAP1 POP PUSH1 0x20 DUP2 ADD SWAP1 POP SWAP2 SWAP1 POP JUMP JUMPDEST PUSH0 DUP1 REVERT JUMPDEST PUSH0 PUSH20 0xFFFFFFFFFFFFFFFFFFFFFFFFFFFFFFFFFFFFFFFF DUP3 AND SWAP1 POP SWAP2 SWAP1 POP JUMP JUMPDEST PUSH0 PUSH2 0x5E3 DUP3 PUSH2 0x5BA JUMP JUMPDEST SWAP1 POP SWAP2 SWAP1 POP JUMP JUMPDEST PUSH2 0x5F3 DUP2 PUSH2 0x5D9 JUMP JUMPDEST DUP2 EQ PUSH2 0x5FD JUMPI PUSH0 DUP1 REVERT JUMPDEST POP JUMP JUMPDEST PUSH0 DUP2 CALLDATALOAD SWAP1 POP PUSH2 0x60E DUP2 PUSH2 0x5EA JUMP JUMPDEST SWAP3 SWAP2 POP POP JUMP JUMPDEST PUSH0 PUSH2 0x626 PUSH2 0x621 DUP5 PUSH2 0x58B JUMP JUMPDEST PUSH2 0x571 JUMP JUMPDEST SWAP1 POP DUP1 DUP4 DUP3 MSTORE PUSH1 0x20 DUP3 ADD SWAP1 POP PUSH1 0x20 DUP5 MUL DUP4 ADD DUP6 DUP2 GT ISZERO PUSH2 0x649 JUMPI PUSH2 0x648 PUSH2 0x5B6 JUMP JUMPDEST JUMPDEST DUP4 JUMPDEST DUP2 DUP2 LT ISZERO PUSH2 0x672 JUMPI DUP1 PUSH2 0x65E DUP9 DUP3 PUSH2 0x600 JUMP JUMPDEST DUP5 MSTORE PUSH1 0x20 DUP5 ADD SWAP4 POP POP PUSH1 0x20 DUP2 ADD SWAP1 POP PUSH2 0x64B JUMP JUMPDEST POP POP POP SWAP4 SWAP3 POP POP POP JUMP JUMPDEST PUSH0 DUP3 PUSH1 0x1F DUP4 ADD SLT PUSH2 0x690 JUMPI PUSH2 0x68F PUSH2 0x4FF JUMP JUMPDEST JUMPDEST DUP2 CALLDATALOAD PUSH2 0x6A0 DUP5 DUP3 PUSH1 0x20 DUP7 ADD PUSH2 0x614 JUMP JUMPDEST SWAP2 POP POP SWAP3 SWAP2 POP POP JUMP JUMPDEST PUSH0 DUP1 PUSH1 0x40 DUP4 DUP6 SUB SLT ISZERO PUSH2 0x6BF JUMPI PUSH2 0x6BE PUSH2 0x4F7 JUMP JUMPDEST JUMPDEST PUSH0 DUP4 ADD CALLDATALOAD PUSH8 0xFFFFFFFFFFFFFFFF DUP2 GT ISZERO PUSH2 0x6DC JUMPI PUSH2 0x6DB PUSH2 0x4FB JUMP JUMPDEST JUMPDEST PUSH2 0x6E8 DUP6 DUP3 DUP7 ADD PUSH2 0x67C JUMP JUMPDEST SWAP3 POP POP PUSH1 0x20 DUP4 ADD CALLDATALOAD PUSH8 0xFFFFFFFFFFFFFFFF DUP2 GT ISZERO PUSH2 0x709 JUMPI PUSH2 0x708 PUSH2 0x4FB JUMP JUMPDEST JUMPDEST PUSH2 0x715 DUP6 DUP3 DUP7 ADD PUSH2 0x67C JUMP JUMPDEST SWAP2 POP POP SWAP3 POP SWAP3 SWAP1 POP JUMP JUMPDEST PUSH0 DUP2 ISZERO ISZERO SWAP1 POP SWAP2 SWAP1 POP JUMP JUMPDEST PUSH2 0x733 DUP2 PUSH2 0x71F JUMP JUMPDEST DUP3 MSTORE POP POP JUMP JUMPDEST PUSH0 PUSH1 0x20 DUP3 ADD SWAP1 POP PUSH2 0x74C PUSH0 DUP4 ADD DUP5 PUSH2 0x72A JUMP JUMPDEST SWAP3 SWAP2 POP POP JUMP JUMPDEST PUSH0 DUP2 SWAP1 POP SWAP2 SWAP1 POP JUMP JUMPDEST PUSH2 0x764 DUP2 PUSH2 0x752 JUMP JUMPDEST DUP2 EQ PUSH2 0x76E JUMPI PUSH0 DUP1 REVERT JUMPDEST POP JUMP JUMPDEST PUSH0 DUP2 CALLDATALOAD SWAP1 POP PUSH2 0x77F DUP2 PUSH2 0x75B JUMP JUMPDEST SWAP3 SWAP2 POP POP JUMP JUMPDEST PUSH0 DUP1 PUSH0 PUSH1 0x60 DUP5 DUP7 SUB SLT ISZERO PUSH2 0x79C JUMPI PUSH2 0x79B PUSH2 0x4F7 JUMP JUMPDEST JUMPDEST PUSH0 DUP5 ADD CALLDATALOAD PUSH8 0xFFFFFFFFFFFFFFFF DUP2 GT ISZERO PUSH2 0x7B9 JUMPI PUSH2 0x7B8 PUSH2 0x4FB JUMP JUMPDEST JUMPDEST PUSH2 0x7C5 DUP7 DUP3 DUP8 ADD PUSH2 0x67C JUMP JUMPDEST SWAP4 POP POP PUSH1 0x20 PUSH2 0x7D6 DUP7 DUP3 DUP8 ADD PUSH2 0x771 JUMP JUMPDEST SWAP3 POP POP PUSH1 0x40 PUSH2 0x7E7 DUP7 DUP3 DUP8 ADD PUSH2 0x771 JUMP JUMPDEST SWAP2 POP POP SWAP3 POP SWAP3 POP SWAP3 JUMP JUMPDEST PUSH0 DUP1 PUSH1 0x40 DUP4 DUP6 SUB SLT ISZERO PUSH2 0x807 JUMPI PUSH2 0x806 PUSH2 0x4F7 JUMP JUMPDEST JUMPDEST PUSH0 PUSH2 0x814 DUP6 DUP3 DUP7 ADD PUSH2 0x600 JUMP JUMPDEST SWAP3 POP POP PUSH1 0x20 DUP4 ADD CALLDATALOAD PUSH8 0xFFFFFFFFFFFFFFFF DUP2 GT ISZERO PUSH2 0x835 JUMPI PUSH2 0x834 PUSH2 0x4FB JUMP JUMPDEST JUMPDEST PUSH2 0x841 DUP6 DUP3 DUP7 ADD PUSH2 0x67C JUMP JUMPDEST SWAP2 POP POP SWAP3 POP SWAP3 SWAP1 POP JUMP JUMPDEST PUSH0 DUP2 MLOAD SWAP1 POP SWAP2 SWAP1 POP JUMP JUMPDEST PUSH0 DUP2 SWAP1 POP SWAP3 SWAP2 POP POP JUMP JUMPDEST PUSH0 DUP2 SWAP1 POP PUSH1 0x20 DUP3 ADD SWAP1 POP SWAP2 SWAP1 POP JUMP JUMPDEST PUSH2 0x877 DUP2 PUSH2 0x5D9 JUMP JUMPDEST DUP3 MSTORE POP POP JUMP JUMPDEST PUSH0 PUSH2 0x888 DUP4 DUP4 PUSH2 0x86E JUMP JUMPDEST PUSH1 0x20 DUP4 ADD SWAP1 POP SWAP3 SWAP2 POP POP JUMP JUMPDEST PUSH0 PUSH1 0x20 DUP3 ADD SWAP1 POP SWAP2 SWAP1 POP JUMP JUMPDEST PUSH0 PUSH2 0x8AA DUP3 PUSH2 0x84B JUMP JUMPDEST PUSH2 0x8B4 DUP2 DUP6 PUSH2 0x855 JUMP JUMPDEST SWAP4 POP PUSH2 0x8BF DUP4 PUSH2 0x85F JUMP JUMPDEST DUP1 PUSH0 JUMPDEST DUP4 DUP2 LT ISZERO PUSH2 0x8EF JUMPI DUP2 MLOAD PUSH2 0x8D6 DUP9 DUP3 PUSH2 0x87D JUMP JUMPDEST SWAP8 POP PUSH2 0x8E1 DUP4 PUSH2 0x894 JUMP JUMPDEST SWAP3 POP POP PUSH1 0x1 DUP2 ADD SWAP1 POP PUSH2 0x8C2 JUMP JUMPDEST POP DUP6 SWAP4 POP POP POP POP SWAP3 SWAP2 POP POP JUMP JUMPDEST PUSH0 PUSH2 0x907 DUP3 DUP5 PUSH2 0x8A0 JUMP JUMPDEST SWAP2 POP DUP2 SWAP1 POP SWAP3 SWAP2 POP POP JUMP JUMPDEST PUSH0 DUP2 SWAP1 POP SWAP2 SWAP1 POP JUMP JUMPDEST PUSH32 0x4E487B7100000000000000000000000000000000000000000000000000000000 PUSH0 MSTORE PUSH1 0x11 PUSH1 0x4 MSTORE PUSH1 0x24 PUSH0 REVERT JUMPDEST PUSH0 PUSH2 0x952 DUP3 PUSH2 0x912 JUMP JUMPDEST SWAP2 POP PUSH2 0x95D DUP4 PUSH2 0x912 JUMP JUMPDEST SWAP3 POP DUP3 DUP3 SUB SWAP1 POP DUP2 DUP2 GT ISZERO PUSH2 0x975 JUMPI PUSH2 0x974 PUSH2 0x91B JUMP JUMPDEST JUMPDEST SWAP3 SWAP2 POP POP JUMP JUMPDEST PUSH32 0x4E487B7100000000000000000000000000000000000000000000000000000000 PUSH0 MSTORE PUSH1 0x32 PUSH1 0x4 MSTORE PUSH1 0x24 PUSH0 REVERT JUMPDEST PUSH0 PUSH2 0x9B2 DUP3 PUSH2 0x752 JUMP JUMPDEST SWAP2 POP PUSH2 0x9BD DUP4 PUSH2 0x752 JUMP JUMPDEST SWAP3 POP DUP3 DUP3 SUB SWAP1 POP DUP2 DUP2 SLT PUSH0 DUP5 SLT AND DUP3 DUP3 SGT PUSH0 DUP6 SLT ISZERO AND OR ISZERO PUSH2 0x9E2 JUMPI PUSH2 0x9E1 PUSH2 0x91B JUMP JUMPDEST JUMPDEST SWAP3 SWAP2 POP POP JUMP JUMPDEST PUSH32 0x4E487B7100000000000000000000000000000000000000000000000000000000 PUSH0 MSTORE PUSH1 0x12 PUSH1 0x4 MSTORE PUSH1 0x24 PUSH0 REVERT JUMPDEST PUSH0 PUSH2 0xA1F DUP3 PUSH2 0x752 JUMP JUMPDEST SWAP2 POP PUSH2 0xA2A DUP4 PUSH2 0x752 JUMP JUMPDEST SWAP3 POP DUP3 PUSH2 0xA3A JUMPI PUSH2 0xA39 PUSH2 0x9E8 JUMP JUMPDEST JUMPDEST PUSH1 0x1 PUSH0 SUB DUP4 EQ PUSH32 0x8000000000000000000000000000000000000000000000000000000000000000 DUP4 EQ AND ISZERO PUSH2 0xA72 JUMPI PUSH2 0xA71 PUSH2 0x91B JUMP JUMPDEST JUMPDEST DUP3 DUP3 SDIV SWAP1 POP SWAP3 SWAP2 POP POP JUMP JUMPDEST PUSH0 PUSH2 0xA87 DUP3 PUSH2 0x752 JUMP JUMPDEST SWAP2 POP PUSH2 0xA92 DUP4 PUSH2 0x752 JUMP JUMPDEST SWAP3 POP DUP3 DUP3 ADD SWAP1 POP DUP3 DUP2 SLT ISZERO PUSH0 DUP4 SLT AND DUP4 DUP3 SLT PUSH0 DUP5 SLT ISZERO AND OR ISZERO PUSH2 0xAB8 JUMPI PUSH2 0xAB7 PUSH2 0x91B JUMP JUMPDEST JUMPDEST SWAP3 SWAP2 POP POP JUMP JUMPDEST PUSH0 PUSH2 0xAC8 DUP3 PUSH2 0x752 JUMP JUMPDEST SWAP2 POP PUSH32 0x7FFFFFFFFFFFFFFFFFFFFFFFFFFFFFFFFFFFFFFFFFFFFFFFFFFFFFFFFFFFFFFF DUP3 SUB PUSH2 0xAFA JUMPI PUSH2 0xAF9 PUSH2 0x91B JUMP JUMPDEST JUMPDEST PUSH1 0x1 DUP3 ADD SWAP1 POP SWAP2 SWAP1 POP JUMP JUMPDEST PUSH0 PUSH2 0xB0F DUP3 PUSH2 0x752 JUMP JUMPDEST SWAP2 POP PUSH32 0x8000000000000000000000000000000000000000000000000000000000000000 DUP3 SUB PUSH2 0xB41 JUMPI PUSH2 0xB40 PUSH2 0x91B JUMP JUMPDEST JUMPDEST PUSH1 0x1 DUP3 SUB SWAP1 POP SWAP2 SWAP1 POP JUMP INVALID LOG2 PUSH5 0x6970667358 0x22 SLT KECCAK256 GASLIMIT SWAP9 0xD4 EXP 0xA8 0xC4 0xA7 SHL MUL SWAP14 DUP9 0xCD 0xC3 LT TIMESTAMP PC 0xBB 0xA7 0xB4 0xD3 COINBASE SAR SWAP3 EQ DUP1 PUSH30 0xB58A81E4A6D664736F6C6343000816003300000000000000000000000000 "
		},
		"gasEstimates": {
			"creation": {
				"codeDepositCost": "589200",
				"executionCost": "623",
				"totalCost": "589823"
			},
			"external": {
				"areEqual(address[],address[])": "infinite",
				"arraysAreEqualUsingHash(address[],address[])": "infinite",
				"contains(address,address[])": "infinite",
				"quickSort(address[],int256,int256)": "infinite"
			},
			"internal": {
				"addressToString(address)": "infinite",
				"concatenateStings(string memory,string memory)": "infinite",
				"createMappingKey(address,address)": "infinite",
				"toHash(string memory)": "infinite"
			}
		},
		"methodIdentifiers": {
			"areEqual(address[],address[])": "73ddfdfb",
			"arraysAreEqualUsingHash(address[],address[])": "308e8edb",
			"contains(address,address[])": "d84d04a1",
			"quickSort(address[],int256,int256)": "c674f26e"
		}
	},
	"abi": [
		{
			"inputs": [
				{
					"internalType": "address[]",
					"name": "arr1",
					"type": "address[]"
				},
				{
					"internalType": "address[]",
					"name": "arr2",
					"type": "address[]"
				}
			],
			"name": "areEqual",
			"outputs": [
				{
					"internalType": "bool",
					"name": "",
					"type": "bool"
				}
			],
			"stateMutability": "pure",
			"type": "function"
		},
		{
			"inputs": [
				{
					"internalType": "address[]",
					"name": "arr1",
					"type": "address[]"
				},
				{
					"internalType": "address[]",
					"name": "arr2",
					"type": "address[]"
				}
			],
			"name": "arraysAreEqualUsingHash",
			"outputs": [
				{
					"internalType": "bool",
					"name": "",
					"type": "bool"
				}
			],
			"stateMutability": "pure",
			"type": "function"
		},
		{
			"inputs": [
				{
					"internalType": "address",
					"name": "addr",
					"type": "address"
				},
				{
					"internalType": "address[]",
					"name": "array",
					"type": "address[]"
				}
			],
			"name": "contains",
			"outputs": [
				{
					"internalType": "bool",
					"name": "",
					"type": "bool"
				}
			],
			"stateMutability": "pure",
			"type": "function"
		},
		{
			"inputs": [
				{
					"internalType": "address[]",
					"name": "arr",
					"type": "address[]"
				},
				{
					"internalType": "int256",
					"name": "left",
					"type": "int256"
				},
				{
					"internalType": "int256",
					"name": "right",
					"type": "int256"
				}
			],
			"name": "quickSort",
			"outputs": [],
			"stateMutability": "pure",
			"type": "function"
		}
	]
}